{
	"DecentralizedTaskManagementSystem/DecentralizedTaskManagementSystem.sol": {
		"TaskManager": {
			"abi": [
				{
					"inputs": [],
					"stateMutability": "nonpayable",
					"type": "constructor"
				},
				{
					"anonymous": false,
					"inputs": [
						{
							"indexed": false,
							"internalType": "uint256",
							"name": "taskId",
							"type": "uint256"
						},
						{
							"indexed": false,
							"internalType": "string",
							"name": "description",
							"type": "string"
						},
						{
							"indexed": false,
							"internalType": "address",
							"name": "assignTo",
							"type": "address"
						},
						{
							"indexed": false,
							"internalType": "uint256",
							"name": "deadLine",
							"type": "uint256"
						}
					],
					"name": "taskCreated",
					"type": "event"
				},
				{
					"anonymous": false,
					"inputs": [
						{
							"indexed": false,
							"internalType": "uint256",
							"name": "taskId",
							"type": "uint256"
						},
						{
							"indexed": false,
							"internalType": "string",
							"name": "_disc",
							"type": "string"
						}
					],
					"name": "taskUpdate",
					"type": "event"
				},
				{
					"inputs": [
						{
							"internalType": "string",
							"name": "_disc",
							"type": "string"
						},
						{
							"internalType": "address",
							"name": "_assignTo",
							"type": "address"
						},
						{
							"internalType": "uint256",
							"name": "_deadline",
							"type": "uint256"
						}
					],
					"name": "createTask",
					"outputs": [],
					"stateMutability": "nonpayable",
					"type": "function"
				},
				{
					"inputs": [
						{
							"internalType": "uint256",
							"name": "_taskId",
							"type": "uint256"
						}
					],
					"name": "deleteTask",
					"outputs": [],
					"stateMutability": "nonpayable",
					"type": "function"
				},
				{
					"inputs": [],
					"name": "getAllTasks",
					"outputs": [
						{
							"components": [
								{
									"internalType": "uint256",
									"name": "taskId",
									"type": "uint256"
								},
								{
									"internalType": "string",
									"name": "description",
									"type": "string"
								},
								{
									"internalType": "address",
									"name": "assignTo",
									"type": "address"
								},
								{
									"internalType": "uint256",
									"name": "deadLine",
									"type": "uint256"
								},
								{
									"internalType": "bool",
									"name": "isComplete",
									"type": "bool"
								}
							],
							"internalType": "struct ITaskManager.Task[]",
							"name": "",
							"type": "tuple[]"
						}
					],
					"stateMutability": "view",
					"type": "function"
				},
				{
					"inputs": [
						{
							"internalType": "uint256",
							"name": "_taskId",
							"type": "uint256"
						}
					],
					"name": "markTaskCompleted",
					"outputs": [],
					"stateMutability": "nonpayable",
					"type": "function"
				},
				{
					"inputs": [
						{
							"internalType": "string",
							"name": "_disc",
							"type": "string"
						},
						{
							"internalType": "uint256",
							"name": "_taskId",
							"type": "uint256"
						}
					],
					"name": "updateTask",
					"outputs": [],
					"stateMutability": "nonpayable",
					"type": "function"
				}
			],
			"devdoc": {
				"kind": "dev",
				"methods": {},
				"version": 1
			},
			"evm": {
				"assembly": "    /* \"DecentralizedTaskManagementSystem/DecentralizedTaskManagementSystem.sol\":613:3342  contract TaskManager is ITaskManager {... */\n  mstore(0x40, 0x80)\n    /* \"DecentralizedTaskManagementSystem/DecentralizedTaskManagementSystem.sol\":1338:1339  1 */\n  0x01\n    /* \"DecentralizedTaskManagementSystem/DecentralizedTaskManagementSystem.sol\":1317:1339  uint256 nextTaskId = 1 */\n  0x03\n  sstore\n    /* \"DecentralizedTaskManagementSystem/DecentralizedTaskManagementSystem.sol\":684:732  constructor(){... */\n  callvalue\n  dup1\n  iszero\n  tag_1\n  jumpi\n  0x00\n  dup1\n  revert\ntag_1:\n  pop\n    /* \"DecentralizedTaskManagementSystem/DecentralizedTaskManagementSystem.sol\":715:725  msg.sender */\n  caller\n    /* \"DecentralizedTaskManagementSystem/DecentralizedTaskManagementSystem.sol\":707:712  owner */\n  0x00\n  dup1\n    /* \"DecentralizedTaskManagementSystem/DecentralizedTaskManagementSystem.sol\":707:725  owner = msg.sender */\n  0x0100\n  exp\n  dup2\n  sload\n  dup2\n  0xffffffffffffffffffffffffffffffffffffffff\n  mul\n  not\n  and\n  swap1\n  dup4\n  0xffffffffffffffffffffffffffffffffffffffff\n  and\n  mul\n  or\n  swap1\n  sstore\n  pop\n    /* \"DecentralizedTaskManagementSystem/DecentralizedTaskManagementSystem.sol\":613:3342  contract TaskManager is ITaskManager {... */\n  dataSize(sub_0)\n  dup1\n  dataOffset(sub_0)\n  0x00\n  codecopy\n  0x00\n  return\nstop\n\nsub_0: assembly {\n        /* \"DecentralizedTaskManagementSystem/DecentralizedTaskManagementSystem.sol\":613:3342  contract TaskManager is ITaskManager {... */\n      mstore(0x40, 0x80)\n      callvalue\n      dup1\n      iszero\n      tag_1\n      jumpi\n      0x00\n      dup1\n      revert\n    tag_1:\n      pop\n      jumpi(tag_2, lt(calldatasize, 0x04))\n      shr(0xe0, calldataload(0x00))\n      dup1\n      0x0b2bda\n      eq\n      tag_3\n      jumpi\n      dup1\n      0x4779ba58\n      eq\n      tag_4\n      jumpi\n      dup1\n      0x560f3192\n      eq\n      tag_5\n      jumpi\n      dup1\n      0x779900b4\n      eq\n      tag_6\n      jumpi\n      dup1\n      0xccd50119\n      eq\n      tag_7\n      jumpi\n    tag_2:\n      0x00\n      dup1\n      revert\n        /* \"DecentralizedTaskManagementSystem/DecentralizedTaskManagementSystem.sol\":2199:2492  function markTaskCompleted(uint256 _taskId)... */\n    tag_3:\n      tag_8\n      0x04\n      dup1\n      calldatasize\n      sub\n      dup2\n      add\n      swap1\n      tag_9\n      swap2\n      swap1\n      tag_10\n      jump\t// in\n    tag_9:\n      tag_11\n      jump\t// in\n    tag_8:\n      stop\n        /* \"DecentralizedTaskManagementSystem/DecentralizedTaskManagementSystem.sol\":1883:2193  function updateTask(string memory _disc, uint256 _taskId)... */\n    tag_4:\n      tag_12\n      0x04\n      dup1\n      calldatasize\n      sub\n      dup2\n      add\n      swap1\n      tag_13\n      swap2\n      swap1\n      tag_14\n      jump\t// in\n    tag_13:\n      tag_15\n      jump\t// in\n    tag_12:\n      stop\n        /* \"DecentralizedTaskManagementSystem/DecentralizedTaskManagementSystem.sol\":2780:3340  function deleteTask(uint256 _taskId) external override checkTask(_taskId) {... */\n    tag_5:\n      tag_16\n      0x04\n      dup1\n      calldatasize\n      sub\n      dup2\n      add\n      swap1\n      tag_17\n      swap2\n      swap1\n      tag_10\n      jump\t// in\n    tag_17:\n      tag_18\n      jump\t// in\n    tag_16:\n      stop\n        /* \"DecentralizedTaskManagementSystem/DecentralizedTaskManagementSystem.sol\":2498:2774  function getAllTasks() external view override returns (Task[] memory) {... */\n    tag_6:\n      tag_19\n      tag_20\n      jump\t// in\n    tag_19:\n      mload(0x40)\n      tag_21\n      swap2\n      swap1\n      tag_22\n      jump\t// in\n    tag_21:\n      mload(0x40)\n      dup1\n      swap2\n      sub\n      swap1\n      return\n        /* \"DecentralizedTaskManagementSystem/DecentralizedTaskManagementSystem.sol\":1346:1877  function createTask(... */\n    tag_7:\n      tag_23\n      0x04\n      dup1\n      calldatasize\n      sub\n      dup2\n      add\n      swap1\n      tag_24\n      swap2\n      swap1\n      tag_25\n      jump\t// in\n    tag_24:\n      tag_26\n      jump\t// in\n    tag_23:\n      stop\n        /* \"DecentralizedTaskManagementSystem/DecentralizedTaskManagementSystem.sol\":2199:2492  function markTaskCompleted(uint256 _taskId)... */\n    tag_11:\n        /* \"DecentralizedTaskManagementSystem/DecentralizedTaskManagementSystem.sol\":2295:2302  _taskId */\n      dup1\n        /* \"DecentralizedTaskManagementSystem/DecentralizedTaskManagementSystem.sol\":1046:1056  bool exits */\n      0x00\n        /* \"DecentralizedTaskManagementSystem/DecentralizedTaskManagementSystem.sol\":1079:1088  uint256 i */\n      dup1\n        /* \"DecentralizedTaskManagementSystem/DecentralizedTaskManagementSystem.sol\":1074:1237  for (uint256 i = 0; i < taskIds.length; i++) {... */\n    tag_28:\n        /* \"DecentralizedTaskManagementSystem/DecentralizedTaskManagementSystem.sol\":1098:1105  taskIds */\n      0x02\n        /* \"DecentralizedTaskManagementSystem/DecentralizedTaskManagementSystem.sol\":1098:1112  taskIds.length */\n      dup1\n      sload\n      swap1\n      pop\n        /* \"DecentralizedTaskManagementSystem/DecentralizedTaskManagementSystem.sol\":1094:1095  i */\n      dup2\n        /* \"DecentralizedTaskManagementSystem/DecentralizedTaskManagementSystem.sol\":1094:1112  i < taskIds.length */\n      lt\n        /* \"DecentralizedTaskManagementSystem/DecentralizedTaskManagementSystem.sol\":1074:1237  for (uint256 i = 0; i < taskIds.length; i++) {... */\n      iszero\n      tag_29\n      jumpi\n        /* \"DecentralizedTaskManagementSystem/DecentralizedTaskManagementSystem.sol\":1151:1157  taskId */\n      dup3\n        /* \"DecentralizedTaskManagementSystem/DecentralizedTaskManagementSystem.sol\":1137:1144  taskIds */\n      0x02\n        /* \"DecentralizedTaskManagementSystem/DecentralizedTaskManagementSystem.sol\":1145:1146  i */\n      dup3\n        /* \"DecentralizedTaskManagementSystem/DecentralizedTaskManagementSystem.sol\":1137:1147  taskIds[i] */\n      dup2\n      sload\n      dup2\n      lt\n      tag_31\n      jumpi\n      tag_32\n      tag_33\n      jump\t// in\n    tag_32:\n    tag_31:\n      swap1\n      0x00\n      mstore\n      keccak256(0x00, 0x20)\n      add\n      sload\n        /* \"DecentralizedTaskManagementSystem/DecentralizedTaskManagementSystem.sol\":1137:1157  taskIds[i] == taskId */\n      sub\n        /* \"DecentralizedTaskManagementSystem/DecentralizedTaskManagementSystem.sol\":1133:1227  if (taskIds[i] == taskId) {... */\n      tag_35\n      jumpi\n        /* \"DecentralizedTaskManagementSystem/DecentralizedTaskManagementSystem.sol\":1185:1189  true */\n      0x01\n        /* \"DecentralizedTaskManagementSystem/DecentralizedTaskManagementSystem.sol\":1177:1189  exits = true */\n      swap2\n      pop\n        /* \"DecentralizedTaskManagementSystem/DecentralizedTaskManagementSystem.sol\":1207:1212  break */\n      jump(tag_29)\n        /* \"DecentralizedTaskManagementSystem/DecentralizedTaskManagementSystem.sol\":1133:1227  if (taskIds[i] == taskId) {... */\n    tag_35:\n        /* \"DecentralizedTaskManagementSystem/DecentralizedTaskManagementSystem.sol\":1114:1117  i++ */\n      dup1\n      dup1\n      0x01\n      add\n      swap2\n      pop\n      pop\n        /* \"DecentralizedTaskManagementSystem/DecentralizedTaskManagementSystem.sol\":1074:1237  for (uint256 i = 0; i < taskIds.length; i++) {... */\n      jump(tag_28)\n    tag_29:\n      pop\n        /* \"DecentralizedTaskManagementSystem/DecentralizedTaskManagementSystem.sol\":1254:1259  exits */\n      dup1\n        /* \"DecentralizedTaskManagementSystem/DecentralizedTaskManagementSystem.sol\":1246:1293  require(exits, \"There is no task With This ID\") */\n      tag_36\n      jumpi\n      mload(0x40)\n      0x08c379a000000000000000000000000000000000000000000000000000000000\n      dup2\n      mstore\n      0x04\n      add\n      tag_37\n      swap1\n      tag_38\n      jump\t// in\n    tag_37:\n      mload(0x40)\n      dup1\n      swap2\n      sub\n      swap1\n      revert\n    tag_36:\n        /* \"DecentralizedTaskManagementSystem/DecentralizedTaskManagementSystem.sol\":2327:2332  tasks */\n      0x01\n        /* \"DecentralizedTaskManagementSystem/DecentralizedTaskManagementSystem.sol\":2327:2341  tasks[_taskId] */\n      0x00\n        /* \"DecentralizedTaskManagementSystem/DecentralizedTaskManagementSystem.sol\":2333:2340  _taskId */\n      dup5\n        /* \"DecentralizedTaskManagementSystem/DecentralizedTaskManagementSystem.sol\":2327:2341  tasks[_taskId] */\n      dup2\n      mstore\n      0x20\n      add\n      swap1\n      dup2\n      mstore\n      0x20\n      add\n      0x00\n      keccak256\n        /* \"DecentralizedTaskManagementSystem/DecentralizedTaskManagementSystem.sol\":2327:2352  tasks[_taskId].isComplete */\n      0x04\n      add\n      0x00\n      swap1\n      sload\n      swap1\n      0x0100\n      exp\n      swap1\n      div\n      0xff\n      and\n        /* \"DecentralizedTaskManagementSystem/DecentralizedTaskManagementSystem.sol\":2326:2352  !tasks[_taskId].isComplete */\n      iszero\n        /* \"DecentralizedTaskManagementSystem/DecentralizedTaskManagementSystem.sol\":2318:2381  require(!tasks[_taskId].isComplete,\"Task is already completed\") */\n      tag_40\n      jumpi\n      mload(0x40)\n      0x08c379a000000000000000000000000000000000000000000000000000000000\n      dup2\n      mstore\n      0x04\n      add\n      tag_41\n      swap1\n      tag_42\n      jump\t// in\n    tag_41:\n      mload(0x40)\n      dup1\n      swap2\n      sub\n      swap1\n      revert\n    tag_40:\n        /* \"DecentralizedTaskManagementSystem/DecentralizedTaskManagementSystem.sol\":2413:2418  owner */\n      0x00\n      dup1\n      sload\n      swap1\n      0x0100\n      exp\n      swap1\n      div\n      0xffffffffffffffffffffffffffffffffffffffff\n      and\n        /* \"DecentralizedTaskManagementSystem/DecentralizedTaskManagementSystem.sol\":2399:2418  msg.sender == owner */\n      0xffffffffffffffffffffffffffffffffffffffff\n      and\n        /* \"DecentralizedTaskManagementSystem/DecentralizedTaskManagementSystem.sol\":2399:2409  msg.sender */\n      caller\n        /* \"DecentralizedTaskManagementSystem/DecentralizedTaskManagementSystem.sol\":2399:2418  msg.sender == owner */\n      0xffffffffffffffffffffffffffffffffffffffff\n      and\n      eq\n        /* \"DecentralizedTaskManagementSystem/DecentralizedTaskManagementSystem.sol\":2391:2443  require(msg.sender == owner,\"You are not the owner\") */\n      tag_43\n      jumpi\n      mload(0x40)\n      0x08c379a000000000000000000000000000000000000000000000000000000000\n      dup2\n      mstore\n      0x04\n      add\n      tag_44\n      swap1\n      tag_45\n      jump\t// in\n    tag_44:\n      mload(0x40)\n      dup1\n      swap2\n      sub\n      swap1\n      revert\n    tag_43:\n        /* \"DecentralizedTaskManagementSystem/DecentralizedTaskManagementSystem.sol\":2481:2485  true */\n      0x01\n        /* \"DecentralizedTaskManagementSystem/DecentralizedTaskManagementSystem.sol\":2453:2458  tasks */\n      dup1\n        /* \"DecentralizedTaskManagementSystem/DecentralizedTaskManagementSystem.sol\":2453:2467  tasks[_taskId] */\n      0x00\n        /* \"DecentralizedTaskManagementSystem/DecentralizedTaskManagementSystem.sol\":2459:2466  _taskId */\n      dup6\n        /* \"DecentralizedTaskManagementSystem/DecentralizedTaskManagementSystem.sol\":2453:2467  tasks[_taskId] */\n      dup2\n      mstore\n      0x20\n      add\n      swap1\n      dup2\n      mstore\n      0x20\n      add\n      0x00\n      keccak256\n        /* \"DecentralizedTaskManagementSystem/DecentralizedTaskManagementSystem.sol\":2453:2478  tasks[_taskId].isComplete */\n      0x04\n      add\n      0x00\n        /* \"DecentralizedTaskManagementSystem/DecentralizedTaskManagementSystem.sol\":2453:2485  tasks[_taskId].isComplete = true */\n      0x0100\n      exp\n      dup2\n      sload\n      dup2\n      0xff\n      mul\n      not\n      and\n      swap1\n      dup4\n      iszero\n      iszero\n      mul\n      or\n      swap1\n      sstore\n      pop\n        /* \"DecentralizedTaskManagementSystem/DecentralizedTaskManagementSystem.sol\":1036:1311  {... */\n      pop\n        /* \"DecentralizedTaskManagementSystem/DecentralizedTaskManagementSystem.sol\":2199:2492  function markTaskCompleted(uint256 _taskId)... */\n      pop\n      pop\n      jump\t// out\n        /* \"DecentralizedTaskManagementSystem/DecentralizedTaskManagementSystem.sol\":1883:2193  function updateTask(string memory _disc, uint256 _taskId)... */\n    tag_15:\n        /* \"DecentralizedTaskManagementSystem/DecentralizedTaskManagementSystem.sol\":1993:2000  _taskId */\n      dup1\n        /* \"DecentralizedTaskManagementSystem/DecentralizedTaskManagementSystem.sol\":1046:1056  bool exits */\n      0x00\n        /* \"DecentralizedTaskManagementSystem/DecentralizedTaskManagementSystem.sol\":1079:1088  uint256 i */\n      dup1\n        /* \"DecentralizedTaskManagementSystem/DecentralizedTaskManagementSystem.sol\":1074:1237  for (uint256 i = 0; i < taskIds.length; i++) {... */\n    tag_47:\n        /* \"DecentralizedTaskManagementSystem/DecentralizedTaskManagementSystem.sol\":1098:1105  taskIds */\n      0x02\n        /* \"DecentralizedTaskManagementSystem/DecentralizedTaskManagementSystem.sol\":1098:1112  taskIds.length */\n      dup1\n      sload\n      swap1\n      pop\n        /* \"DecentralizedTaskManagementSystem/DecentralizedTaskManagementSystem.sol\":1094:1095  i */\n      dup2\n        /* \"DecentralizedTaskManagementSystem/DecentralizedTaskManagementSystem.sol\":1094:1112  i < taskIds.length */\n      lt\n        /* \"DecentralizedTaskManagementSystem/DecentralizedTaskManagementSystem.sol\":1074:1237  for (uint256 i = 0; i < taskIds.length; i++) {... */\n      iszero\n      tag_48\n      jumpi\n        /* \"DecentralizedTaskManagementSystem/DecentralizedTaskManagementSystem.sol\":1151:1157  taskId */\n      dup3\n        /* \"DecentralizedTaskManagementSystem/DecentralizedTaskManagementSystem.sol\":1137:1144  taskIds */\n      0x02\n        /* \"DecentralizedTaskManagementSystem/DecentralizedTaskManagementSystem.sol\":1145:1146  i */\n      dup3\n        /* \"DecentralizedTaskManagementSystem/DecentralizedTaskManagementSystem.sol\":1137:1147  taskIds[i] */\n      dup2\n      sload\n      dup2\n      lt\n      tag_50\n      jumpi\n      tag_51\n      tag_33\n      jump\t// in\n    tag_51:\n    tag_50:\n      swap1\n      0x00\n      mstore\n      keccak256(0x00, 0x20)\n      add\n      sload\n        /* \"DecentralizedTaskManagementSystem/DecentralizedTaskManagementSystem.sol\":1137:1157  taskIds[i] == taskId */\n      sub\n        /* \"DecentralizedTaskManagementSystem/DecentralizedTaskManagementSystem.sol\":1133:1227  if (taskIds[i] == taskId) {... */\n      tag_53\n      jumpi\n        /* \"DecentralizedTaskManagementSystem/DecentralizedTaskManagementSystem.sol\":1185:1189  true */\n      0x01\n        /* \"DecentralizedTaskManagementSystem/DecentralizedTaskManagementSystem.sol\":1177:1189  exits = true */\n      swap2\n      pop\n        /* \"DecentralizedTaskManagementSystem/DecentralizedTaskManagementSystem.sol\":1207:1212  break */\n      jump(tag_48)\n        /* \"DecentralizedTaskManagementSystem/DecentralizedTaskManagementSystem.sol\":1133:1227  if (taskIds[i] == taskId) {... */\n    tag_53:\n        /* \"DecentralizedTaskManagementSystem/DecentralizedTaskManagementSystem.sol\":1114:1117  i++ */\n      dup1\n      dup1\n      0x01\n      add\n      swap2\n      pop\n      pop\n        /* \"DecentralizedTaskManagementSystem/DecentralizedTaskManagementSystem.sol\":1074:1237  for (uint256 i = 0; i < taskIds.length; i++) {... */\n      jump(tag_47)\n    tag_48:\n      pop\n        /* \"DecentralizedTaskManagementSystem/DecentralizedTaskManagementSystem.sol\":1254:1259  exits */\n      dup1\n        /* \"DecentralizedTaskManagementSystem/DecentralizedTaskManagementSystem.sol\":1246:1293  require(exits, \"There is no task With This ID\") */\n      tag_54\n      jumpi\n      mload(0x40)\n      0x08c379a000000000000000000000000000000000000000000000000000000000\n      dup2\n      mstore\n      0x04\n      add\n      tag_55\n      swap1\n      tag_38\n      jump\t// in\n    tag_55:\n      mload(0x40)\n      dup1\n      swap2\n      sub\n      swap1\n      revert\n    tag_54:\n        /* \"DecentralizedTaskManagementSystem/DecentralizedTaskManagementSystem.sol\":2025:2030  tasks */\n      0x01\n        /* \"DecentralizedTaskManagementSystem/DecentralizedTaskManagementSystem.sol\":2025:2039  tasks[_taskId] */\n      0x00\n        /* \"DecentralizedTaskManagementSystem/DecentralizedTaskManagementSystem.sol\":2031:2038  _taskId */\n      dup5\n        /* \"DecentralizedTaskManagementSystem/DecentralizedTaskManagementSystem.sol\":2025:2039  tasks[_taskId] */\n      dup2\n      mstore\n      0x20\n      add\n      swap1\n      dup2\n      mstore\n      0x20\n      add\n      0x00\n      keccak256\n        /* \"DecentralizedTaskManagementSystem/DecentralizedTaskManagementSystem.sol\":2025:2050  tasks[_taskId].isComplete */\n      0x04\n      add\n      0x00\n      swap1\n      sload\n      swap1\n      0x0100\n      exp\n      swap1\n      div\n      0xff\n      and\n        /* \"DecentralizedTaskManagementSystem/DecentralizedTaskManagementSystem.sol\":2024:2050  !tasks[_taskId].isComplete */\n      iszero\n        /* \"DecentralizedTaskManagementSystem/DecentralizedTaskManagementSystem.sol\":2016:2079  require(!tasks[_taskId].isComplete,\"Task is already completed\") */\n      tag_57\n      jumpi\n      mload(0x40)\n      0x08c379a000000000000000000000000000000000000000000000000000000000\n      dup2\n      mstore\n      0x04\n      add\n      tag_58\n      swap1\n      tag_42\n      jump\t// in\n    tag_58:\n      mload(0x40)\n      dup1\n      swap2\n      sub\n      swap1\n      revert\n    tag_57:\n        /* \"DecentralizedTaskManagementSystem/DecentralizedTaskManagementSystem.sol\":2120:2122  50 */\n      0x32\n        /* \"DecentralizedTaskManagementSystem/DecentralizedTaskManagementSystem.sol\":2103:2108  _disc */\n      dup5\n        /* \"DecentralizedTaskManagementSystem/DecentralizedTaskManagementSystem.sol\":2097:2116  bytes(_disc).length */\n      mload\n        /* \"DecentralizedTaskManagementSystem/DecentralizedTaskManagementSystem.sol\":2097:2122  bytes(_disc).length >= 50 */\n      lt\n      iszero\n        /* \"DecentralizedTaskManagementSystem/DecentralizedTaskManagementSystem.sol\":2089:2142  require(bytes(_disc).length >= 50,\"Must be 50 words\") */\n      tag_59\n      jumpi\n      mload(0x40)\n      0x08c379a000000000000000000000000000000000000000000000000000000000\n      dup2\n      mstore\n      0x04\n      add\n      tag_60\n      swap1\n      tag_61\n      jump\t// in\n    tag_60:\n      mload(0x40)\n      dup1\n      swap2\n      sub\n      swap1\n      revert\n    tag_59:\n        /* \"DecentralizedTaskManagementSystem/DecentralizedTaskManagementSystem.sol\":2181:2186  _disc */\n      dup4\n        /* \"DecentralizedTaskManagementSystem/DecentralizedTaskManagementSystem.sol\":2152:2157  tasks */\n      0x01\n        /* \"DecentralizedTaskManagementSystem/DecentralizedTaskManagementSystem.sol\":2152:2166  tasks[_taskId] */\n      0x00\n        /* \"DecentralizedTaskManagementSystem/DecentralizedTaskManagementSystem.sol\":2158:2165  _taskId */\n      dup6\n        /* \"DecentralizedTaskManagementSystem/DecentralizedTaskManagementSystem.sol\":2152:2166  tasks[_taskId] */\n      dup2\n      mstore\n      0x20\n      add\n      swap1\n      dup2\n      mstore\n      0x20\n      add\n      0x00\n      keccak256\n        /* \"DecentralizedTaskManagementSystem/DecentralizedTaskManagementSystem.sol\":2152:2178  tasks[_taskId].description */\n      0x01\n      add\n        /* \"DecentralizedTaskManagementSystem/DecentralizedTaskManagementSystem.sol\":2152:2186  tasks[_taskId].description = _disc */\n      swap1\n      dup2\n      tag_62\n      swap2\n      swap1\n      tag_63\n      jump\t// in\n    tag_62:\n      pop\n        /* \"DecentralizedTaskManagementSystem/DecentralizedTaskManagementSystem.sol\":1036:1311  {... */\n      pop\n        /* \"DecentralizedTaskManagementSystem/DecentralizedTaskManagementSystem.sol\":1883:2193  function updateTask(string memory _disc, uint256 _taskId)... */\n      pop\n      pop\n      pop\n      jump\t// out\n        /* \"DecentralizedTaskManagementSystem/DecentralizedTaskManagementSystem.sol\":2780:3340  function deleteTask(uint256 _taskId) external override checkTask(_taskId) {... */\n    tag_18:\n        /* \"DecentralizedTaskManagementSystem/DecentralizedTaskManagementSystem.sol\":2845:2852  _taskId */\n      dup1\n        /* \"DecentralizedTaskManagementSystem/DecentralizedTaskManagementSystem.sol\":1046:1056  bool exits */\n      0x00\n        /* \"DecentralizedTaskManagementSystem/DecentralizedTaskManagementSystem.sol\":1079:1088  uint256 i */\n      dup1\n        /* \"DecentralizedTaskManagementSystem/DecentralizedTaskManagementSystem.sol\":1074:1237  for (uint256 i = 0; i < taskIds.length; i++) {... */\n    tag_65:\n        /* \"DecentralizedTaskManagementSystem/DecentralizedTaskManagementSystem.sol\":1098:1105  taskIds */\n      0x02\n        /* \"DecentralizedTaskManagementSystem/DecentralizedTaskManagementSystem.sol\":1098:1112  taskIds.length */\n      dup1\n      sload\n      swap1\n      pop\n        /* \"DecentralizedTaskManagementSystem/DecentralizedTaskManagementSystem.sol\":1094:1095  i */\n      dup2\n        /* \"DecentralizedTaskManagementSystem/DecentralizedTaskManagementSystem.sol\":1094:1112  i < taskIds.length */\n      lt\n        /* \"DecentralizedTaskManagementSystem/DecentralizedTaskManagementSystem.sol\":1074:1237  for (uint256 i = 0; i < taskIds.length; i++) {... */\n      iszero\n      tag_66\n      jumpi\n        /* \"DecentralizedTaskManagementSystem/DecentralizedTaskManagementSystem.sol\":1151:1157  taskId */\n      dup3\n        /* \"DecentralizedTaskManagementSystem/DecentralizedTaskManagementSystem.sol\":1137:1144  taskIds */\n      0x02\n        /* \"DecentralizedTaskManagementSystem/DecentralizedTaskManagementSystem.sol\":1145:1146  i */\n      dup3\n        /* \"DecentralizedTaskManagementSystem/DecentralizedTaskManagementSystem.sol\":1137:1147  taskIds[i] */\n      dup2\n      sload\n      dup2\n      lt\n      tag_68\n      jumpi\n      tag_69\n      tag_33\n      jump\t// in\n    tag_69:\n    tag_68:\n      swap1\n      0x00\n      mstore\n      keccak256(0x00, 0x20)\n      add\n      sload\n        /* \"DecentralizedTaskManagementSystem/DecentralizedTaskManagementSystem.sol\":1137:1157  taskIds[i] == taskId */\n      sub\n        /* \"DecentralizedTaskManagementSystem/DecentralizedTaskManagementSystem.sol\":1133:1227  if (taskIds[i] == taskId) {... */\n      tag_71\n      jumpi\n        /* \"DecentralizedTaskManagementSystem/DecentralizedTaskManagementSystem.sol\":1185:1189  true */\n      0x01\n        /* \"DecentralizedTaskManagementSystem/DecentralizedTaskManagementSystem.sol\":1177:1189  exits = true */\n      swap2\n      pop\n        /* \"DecentralizedTaskManagementSystem/DecentralizedTaskManagementSystem.sol\":1207:1212  break */\n      jump(tag_66)\n        /* \"DecentralizedTaskManagementSystem/DecentralizedTaskManagementSystem.sol\":1133:1227  if (taskIds[i] == taskId) {... */\n    tag_71:\n        /* \"DecentralizedTaskManagementSystem/DecentralizedTaskManagementSystem.sol\":1114:1117  i++ */\n      dup1\n      dup1\n      0x01\n      add\n      swap2\n      pop\n      pop\n        /* \"DecentralizedTaskManagementSystem/DecentralizedTaskManagementSystem.sol\":1074:1237  for (uint256 i = 0; i < taskIds.length; i++) {... */\n      jump(tag_65)\n    tag_66:\n      pop\n        /* \"DecentralizedTaskManagementSystem/DecentralizedTaskManagementSystem.sol\":1254:1259  exits */\n      dup1\n        /* \"DecentralizedTaskManagementSystem/DecentralizedTaskManagementSystem.sol\":1246:1293  require(exits, \"There is no task With This ID\") */\n      tag_72\n      jumpi\n      mload(0x40)\n      0x08c379a000000000000000000000000000000000000000000000000000000000\n      dup2\n      mstore\n      0x04\n      add\n      tag_73\n      swap1\n      tag_38\n      jump\t// in\n    tag_73:\n      mload(0x40)\n      dup1\n      swap2\n      sub\n      swap1\n      revert\n    tag_72:\n        /* \"DecentralizedTaskManagementSystem/DecentralizedTaskManagementSystem.sol\":2881:2891  msg.sender */\n      caller\n        /* \"DecentralizedTaskManagementSystem/DecentralizedTaskManagementSystem.sol\":2872:2891  owner == msg.sender */\n      0xffffffffffffffffffffffffffffffffffffffff\n      and\n        /* \"DecentralizedTaskManagementSystem/DecentralizedTaskManagementSystem.sol\":2872:2877  owner */\n      0x00\n      dup1\n      sload\n      swap1\n      0x0100\n      exp\n      swap1\n      div\n      0xffffffffffffffffffffffffffffffffffffffff\n      and\n        /* \"DecentralizedTaskManagementSystem/DecentralizedTaskManagementSystem.sol\":2872:2891  owner == msg.sender */\n      0xffffffffffffffffffffffffffffffffffffffff\n      and\n      eq\n        /* \"DecentralizedTaskManagementSystem/DecentralizedTaskManagementSystem.sol\":2864:2916  require(owner == msg.sender,\"You are not the owner\") */\n      tag_75\n      jumpi\n      mload(0x40)\n      0x08c379a000000000000000000000000000000000000000000000000000000000\n      dup2\n      mstore\n      0x04\n      add\n      tag_76\n      swap1\n      tag_45\n      jump\t// in\n    tag_76:\n      mload(0x40)\n      dup1\n      swap2\n      sub\n      swap1\n      revert\n    tag_75:\n        /* \"DecentralizedTaskManagementSystem/DecentralizedTaskManagementSystem.sol\":2934:2939  tasks */\n      0x01\n        /* \"DecentralizedTaskManagementSystem/DecentralizedTaskManagementSystem.sol\":2934:2948  tasks[_taskId] */\n      0x00\n        /* \"DecentralizedTaskManagementSystem/DecentralizedTaskManagementSystem.sol\":2940:2947  _taskId */\n      dup5\n        /* \"DecentralizedTaskManagementSystem/DecentralizedTaskManagementSystem.sol\":2934:2948  tasks[_taskId] */\n      dup2\n      mstore\n      0x20\n      add\n      swap1\n      dup2\n      mstore\n      0x20\n      add\n      0x00\n      keccak256\n      0x00\n        /* \"DecentralizedTaskManagementSystem/DecentralizedTaskManagementSystem.sol\":2927:2948  delete tasks[_taskId] */\n      dup1\n      dup3\n      add\n      0x00\n      swap1\n      sstore\n      0x01\n      dup3\n      add\n      0x00\n      tag_77\n      swap2\n      swap1\n      tag_78\n      jump\t// in\n    tag_77:\n      0x02\n      dup3\n      add\n      exp(0x0100, 0x00)\n      dup2\n      sload\n      swap1\n      0xffffffffffffffffffffffffffffffffffffffff\n      mul\n      not\n      and\n      swap1\n      sstore\n      0x03\n      dup3\n      add\n      0x00\n      swap1\n      sstore\n      0x04\n      dup3\n      add\n      exp(0x0100, 0x00)\n      dup2\n      sload\n      swap1\n      0xff\n      mul\n      not\n      and\n      swap1\n      sstore\n      pop\n      pop\n        /* \"DecentralizedTaskManagementSystem/DecentralizedTaskManagementSystem.sol\":2959:2969  uint index */\n      0x00\n        /* \"DecentralizedTaskManagementSystem/DecentralizedTaskManagementSystem.sol\":2980:2990  bool found */\n      dup1\n        /* \"DecentralizedTaskManagementSystem/DecentralizedTaskManagementSystem.sol\":2993:2998  false */\n      0x00\n        /* \"DecentralizedTaskManagementSystem/DecentralizedTaskManagementSystem.sol\":2980:2998  bool found = false */\n      swap1\n      pop\n        /* \"DecentralizedTaskManagementSystem/DecentralizedTaskManagementSystem.sol\":3013:3019  uint i */\n      0x00\n        /* \"DecentralizedTaskManagementSystem/DecentralizedTaskManagementSystem.sol\":3009:3192  for(uint i = 0; i< taskIds.length; i++){... */\n    tag_79:\n        /* \"DecentralizedTaskManagementSystem/DecentralizedTaskManagementSystem.sol\":3028:3035  taskIds */\n      0x02\n        /* \"DecentralizedTaskManagementSystem/DecentralizedTaskManagementSystem.sol\":3028:3042  taskIds.length */\n      dup1\n      sload\n      swap1\n      pop\n        /* \"DecentralizedTaskManagementSystem/DecentralizedTaskManagementSystem.sol\":3025:3026  i */\n      dup2\n        /* \"DecentralizedTaskManagementSystem/DecentralizedTaskManagementSystem.sol\":3025:3042  i< taskIds.length */\n      lt\n        /* \"DecentralizedTaskManagementSystem/DecentralizedTaskManagementSystem.sol\":3009:3192  for(uint i = 0; i< taskIds.length; i++){... */\n      iszero\n      tag_80\n      jumpi\n        /* \"DecentralizedTaskManagementSystem/DecentralizedTaskManagementSystem.sol\":3078:3085  _taskId */\n      dup6\n        /* \"DecentralizedTaskManagementSystem/DecentralizedTaskManagementSystem.sol\":3065:3072  taskIds */\n      0x02\n        /* \"DecentralizedTaskManagementSystem/DecentralizedTaskManagementSystem.sol\":3073:3074  i */\n      dup3\n        /* \"DecentralizedTaskManagementSystem/DecentralizedTaskManagementSystem.sol\":3065:3075  taskIds[i] */\n      dup2\n      sload\n      dup2\n      lt\n      tag_82\n      jumpi\n      tag_83\n      tag_33\n      jump\t// in\n    tag_83:\n    tag_82:\n      swap1\n      0x00\n      mstore\n      keccak256(0x00, 0x20)\n      add\n      sload\n        /* \"DecentralizedTaskManagementSystem/DecentralizedTaskManagementSystem.sol\":3065:3085  taskIds[i]== _taskId */\n      sub\n        /* \"DecentralizedTaskManagementSystem/DecentralizedTaskManagementSystem.sol\":3062:3182  if(taskIds[i]== _taskId){... */\n      tag_85\n      jumpi\n        /* \"DecentralizedTaskManagementSystem/DecentralizedTaskManagementSystem.sol\":3112:3113  i */\n      dup1\n        /* \"DecentralizedTaskManagementSystem/DecentralizedTaskManagementSystem.sol\":3104:3113  index = i */\n      swap3\n      pop\n        /* \"DecentralizedTaskManagementSystem/DecentralizedTaskManagementSystem.sol\":3139:3143  true */\n      0x01\n        /* \"DecentralizedTaskManagementSystem/DecentralizedTaskManagementSystem.sol\":3131:3143  found = true */\n      swap2\n      pop\n        /* \"DecentralizedTaskManagementSystem/DecentralizedTaskManagementSystem.sol\":3161:3166  break */\n      jump(tag_80)\n        /* \"DecentralizedTaskManagementSystem/DecentralizedTaskManagementSystem.sol\":3062:3182  if(taskIds[i]== _taskId){... */\n    tag_85:\n        /* \"DecentralizedTaskManagementSystem/DecentralizedTaskManagementSystem.sol\":3044:3047  i++ */\n      dup1\n      dup1\n      0x01\n      add\n      swap2\n      pop\n      pop\n        /* \"DecentralizedTaskManagementSystem/DecentralizedTaskManagementSystem.sol\":3009:3192  for(uint i = 0; i< taskIds.length; i++){... */\n      jump(tag_79)\n    tag_80:\n      pop\n        /* \"DecentralizedTaskManagementSystem/DecentralizedTaskManagementSystem.sol\":3210:3215  found */\n      dup1\n        /* \"DecentralizedTaskManagementSystem/DecentralizedTaskManagementSystem.sol\":3202:3246  require(found,\"There is no Task by this id\") */\n      tag_86\n      jumpi\n      mload(0x40)\n      0x08c379a000000000000000000000000000000000000000000000000000000000\n      dup2\n      mstore\n      0x04\n      add\n      tag_87\n      swap1\n      tag_88\n      jump\t// in\n    tag_87:\n      mload(0x40)\n      dup1\n      swap2\n      sub\n      swap1\n      revert\n    tag_86:\n        /* \"DecentralizedTaskManagementSystem/DecentralizedTaskManagementSystem.sol\":3274:3281  taskIds */\n      0x02\n        /* \"DecentralizedTaskManagementSystem/DecentralizedTaskManagementSystem.sol\":3299:3300  1 */\n      0x01\n        /* \"DecentralizedTaskManagementSystem/DecentralizedTaskManagementSystem.sol\":3282:3289  taskIds */\n      0x02\n        /* \"DecentralizedTaskManagementSystem/DecentralizedTaskManagementSystem.sol\":3282:3296  taskIds.length */\n      dup1\n      sload\n      swap1\n      pop\n        /* \"DecentralizedTaskManagementSystem/DecentralizedTaskManagementSystem.sol\":3282:3300  taskIds.length - 1 */\n      tag_89\n      swap2\n      swap1\n      tag_90\n      jump\t// in\n    tag_89:\n        /* \"DecentralizedTaskManagementSystem/DecentralizedTaskManagementSystem.sol\":3274:3301  taskIds[taskIds.length - 1] */\n      dup2\n      sload\n      dup2\n      lt\n      tag_91\n      jumpi\n      tag_92\n      tag_33\n      jump\t// in\n    tag_92:\n    tag_91:\n      swap1\n      0x00\n      mstore\n      keccak256(0x00, 0x20)\n      add\n      sload\n        /* \"DecentralizedTaskManagementSystem/DecentralizedTaskManagementSystem.sol\":3257:3264  taskIds */\n      0x02\n        /* \"DecentralizedTaskManagementSystem/DecentralizedTaskManagementSystem.sol\":3265:3270  index */\n      dup4\n        /* \"DecentralizedTaskManagementSystem/DecentralizedTaskManagementSystem.sol\":3257:3271  taskIds[index] */\n      dup2\n      sload\n      dup2\n      lt\n      tag_94\n      jumpi\n      tag_95\n      tag_33\n      jump\t// in\n    tag_95:\n    tag_94:\n      swap1\n      0x00\n      mstore\n      keccak256(0x00, 0x20)\n      add\n        /* \"DecentralizedTaskManagementSystem/DecentralizedTaskManagementSystem.sol\":3257:3301  taskIds[index] = taskIds[taskIds.length - 1] */\n      dup2\n      swap1\n      sstore\n      pop\n        /* \"DecentralizedTaskManagementSystem/DecentralizedTaskManagementSystem.sol\":3311:3318  taskIds */\n      0x02\n        /* \"DecentralizedTaskManagementSystem/DecentralizedTaskManagementSystem.sol\":3311:3324  taskIds.pop() */\n      dup1\n      sload\n      dup1\n      tag_97\n      jumpi\n      tag_98\n      tag_99\n      jump\t// in\n    tag_98:\n    tag_97:\n      0x01\n      swap1\n      sub\n      dup2\n      dup2\n      swap1\n      0x00\n      mstore\n      keccak256(0x00, 0x20)\n      add\n      0x00\n      swap1\n      sstore\n      swap1\n      sstore\n        /* \"DecentralizedTaskManagementSystem/DecentralizedTaskManagementSystem.sol\":2854:3340  {... */\n      pop\n      pop\n        /* \"DecentralizedTaskManagementSystem/DecentralizedTaskManagementSystem.sol\":1036:1311  {... */\n      pop\n        /* \"DecentralizedTaskManagementSystem/DecentralizedTaskManagementSystem.sol\":2780:3340  function deleteTask(uint256 _taskId) external override checkTask(_taskId) {... */\n      pop\n      pop\n      jump\t// out\n        /* \"DecentralizedTaskManagementSystem/DecentralizedTaskManagementSystem.sol\":2498:2774  function getAllTasks() external view override returns (Task[] memory) {... */\n    tag_20:\n        /* \"DecentralizedTaskManagementSystem/DecentralizedTaskManagementSystem.sol\":2553:2566  Task[] memory */\n      0x60\n        /* \"DecentralizedTaskManagementSystem/DecentralizedTaskManagementSystem.sol\":2578:2600  Task[] memory allTasks */\n      0x00\n        /* \"DecentralizedTaskManagementSystem/DecentralizedTaskManagementSystem.sol\":2614:2621  taskIds */\n      0x02\n        /* \"DecentralizedTaskManagementSystem/DecentralizedTaskManagementSystem.sol\":2614:2628  taskIds.length */\n      dup1\n      sload\n      swap1\n      pop\n        /* \"DecentralizedTaskManagementSystem/DecentralizedTaskManagementSystem.sol\":2603:2629  new Task[](taskIds.length) */\n      0xffffffffffffffff\n      dup2\n      gt\n      iszero\n      tag_102\n      jumpi\n      tag_103\n      tag_104\n      jump\t// in\n    tag_103:\n    tag_102:\n      mload(0x40)\n      swap1\n      dup1\n      dup3\n      mstore\n      dup1\n      0x20\n      mul\n      0x20\n      add\n      dup3\n      add\n      0x40\n      mstore\n      dup1\n      iszero\n      tag_105\n      jumpi\n      dup2\n      0x20\n      add\n    tag_106:\n      tag_107\n      tag_108\n      jump\t// in\n    tag_107:\n      dup2\n      mstore\n      0x20\n      add\n      swap1\n      0x01\n      swap1\n      sub\n      swap1\n      dup2\n      tag_106\n      jumpi\n      swap1\n      pop\n    tag_105:\n      pop\n        /* \"DecentralizedTaskManagementSystem/DecentralizedTaskManagementSystem.sol\":2578:2629  Task[] memory allTasks = new Task[](taskIds.length) */\n      swap1\n      pop\n        /* \"DecentralizedTaskManagementSystem/DecentralizedTaskManagementSystem.sol\":2645:2654  uint256 i */\n      0x00\n        /* \"DecentralizedTaskManagementSystem/DecentralizedTaskManagementSystem.sol\":2640:2742  for (uint256 i = 0; i < allTasks.length; i++) {... */\n    tag_109:\n        /* \"DecentralizedTaskManagementSystem/DecentralizedTaskManagementSystem.sol\":2664:2672  allTasks */\n      dup2\n        /* \"DecentralizedTaskManagementSystem/DecentralizedTaskManagementSystem.sol\":2664:2679  allTasks.length */\n      mload\n        /* \"DecentralizedTaskManagementSystem/DecentralizedTaskManagementSystem.sol\":2660:2661  i */\n      dup2\n        /* \"DecentralizedTaskManagementSystem/DecentralizedTaskManagementSystem.sol\":2660:2679  i < allTasks.length */\n      lt\n        /* \"DecentralizedTaskManagementSystem/DecentralizedTaskManagementSystem.sol\":2640:2742  for (uint256 i = 0; i < allTasks.length; i++) {... */\n      iszero\n      tag_110\n      jumpi\n        /* \"DecentralizedTaskManagementSystem/DecentralizedTaskManagementSystem.sol\":2714:2719  tasks */\n      0x01\n        /* \"DecentralizedTaskManagementSystem/DecentralizedTaskManagementSystem.sol\":2714:2731  tasks[taskIds[i]] */\n      0x00\n        /* \"DecentralizedTaskManagementSystem/DecentralizedTaskManagementSystem.sol\":2720:2727  taskIds */\n      0x02\n        /* \"DecentralizedTaskManagementSystem/DecentralizedTaskManagementSystem.sol\":2728:2729  i */\n      dup4\n        /* \"DecentralizedTaskManagementSystem/DecentralizedTaskManagementSystem.sol\":2720:2730  taskIds[i] */\n      dup2\n      sload\n      dup2\n      lt\n      tag_112\n      jumpi\n      tag_113\n      tag_33\n      jump\t// in\n    tag_113:\n    tag_112:\n      swap1\n      0x00\n      mstore\n      keccak256(0x00, 0x20)\n      add\n      sload\n        /* \"DecentralizedTaskManagementSystem/DecentralizedTaskManagementSystem.sol\":2714:2731  tasks[taskIds[i]] */\n      dup2\n      mstore\n      0x20\n      add\n      swap1\n      dup2\n      mstore\n      0x20\n      add\n      0x00\n      keccak256\n        /* \"DecentralizedTaskManagementSystem/DecentralizedTaskManagementSystem.sol\":2700:2731  allTasks[i] = tasks[taskIds[i]] */\n      mload(0x40)\n      dup1\n      0xa0\n      add\n      0x40\n      mstore\n      swap1\n      dup2\n      0x00\n      dup3\n      add\n      sload\n      dup2\n      mstore\n      0x20\n      add\n      0x01\n      dup3\n      add\n      dup1\n      sload\n      tag_115\n      swap1\n      tag_116\n      jump\t// in\n    tag_115:\n      dup1\n      0x1f\n      add\n      0x20\n      dup1\n      swap2\n      div\n      mul\n      0x20\n      add\n      mload(0x40)\n      swap1\n      dup2\n      add\n      0x40\n      mstore\n      dup1\n      swap3\n      swap2\n      swap1\n      dup2\n      dup2\n      mstore\n      0x20\n      add\n      dup3\n      dup1\n      sload\n      tag_117\n      swap1\n      tag_116\n      jump\t// in\n    tag_117:\n      dup1\n      iszero\n      tag_118\n      jumpi\n      dup1\n      0x1f\n      lt\n      tag_119\n      jumpi\n      0x0100\n      dup1\n      dup4\n      sload\n      div\n      mul\n      dup4\n      mstore\n      swap2\n      0x20\n      add\n      swap2\n      jump(tag_118)\n    tag_119:\n      dup3\n      add\n      swap2\n      swap1\n      0x00\n      mstore\n      keccak256(0x00, 0x20)\n      swap1\n    tag_120:\n      dup2\n      sload\n      dup2\n      mstore\n      swap1\n      0x01\n      add\n      swap1\n      0x20\n      add\n      dup1\n      dup4\n      gt\n      tag_120\n      jumpi\n      dup3\n      swap1\n      sub\n      0x1f\n      and\n      dup3\n      add\n      swap2\n    tag_118:\n      pop\n      pop\n      pop\n      pop\n      pop\n      dup2\n      mstore\n      0x20\n      add\n      0x02\n      dup3\n      add\n      0x00\n      swap1\n      sload\n      swap1\n      0x0100\n      exp\n      swap1\n      div\n      0xffffffffffffffffffffffffffffffffffffffff\n      and\n      0xffffffffffffffffffffffffffffffffffffffff\n      and\n      0xffffffffffffffffffffffffffffffffffffffff\n      and\n      dup2\n      mstore\n      0x20\n      add\n      0x03\n      dup3\n      add\n      sload\n      dup2\n      mstore\n      0x20\n      add\n      0x04\n      dup3\n      add\n      0x00\n      swap1\n      sload\n      swap1\n      0x0100\n      exp\n      swap1\n      div\n      0xff\n      and\n      iszero\n      iszero\n      iszero\n      iszero\n      dup2\n      mstore\n      pop\n      pop\n        /* \"DecentralizedTaskManagementSystem/DecentralizedTaskManagementSystem.sol\":2700:2708  allTasks */\n      dup3\n        /* \"DecentralizedTaskManagementSystem/DecentralizedTaskManagementSystem.sol\":2709:2710  i */\n      dup3\n        /* \"DecentralizedTaskManagementSystem/DecentralizedTaskManagementSystem.sol\":2700:2711  allTasks[i] */\n      dup2\n      mload\n      dup2\n      lt\n      tag_121\n      jumpi\n      tag_122\n      tag_33\n      jump\t// in\n    tag_122:\n    tag_121:\n      0x20\n      mul\n      0x20\n      add\n      add\n        /* \"DecentralizedTaskManagementSystem/DecentralizedTaskManagementSystem.sol\":2700:2731  allTasks[i] = tasks[taskIds[i]] */\n      dup2\n      swap1\n      mstore\n      pop\n        /* \"DecentralizedTaskManagementSystem/DecentralizedTaskManagementSystem.sol\":2681:2684  i++ */\n      dup1\n      dup1\n      0x01\n      add\n      swap2\n      pop\n      pop\n        /* \"DecentralizedTaskManagementSystem/DecentralizedTaskManagementSystem.sol\":2640:2742  for (uint256 i = 0; i < allTasks.length; i++) {... */\n      jump(tag_109)\n    tag_110:\n      pop\n        /* \"DecentralizedTaskManagementSystem/DecentralizedTaskManagementSystem.sol\":2759:2767  allTasks */\n      dup1\n        /* \"DecentralizedTaskManagementSystem/DecentralizedTaskManagementSystem.sol\":2752:2767  return allTasks */\n      swap2\n      pop\n      pop\n        /* \"DecentralizedTaskManagementSystem/DecentralizedTaskManagementSystem.sol\":2498:2774  function getAllTasks() external view override returns (Task[] memory) {... */\n      swap1\n      jump\t// out\n        /* \"DecentralizedTaskManagementSystem/DecentralizedTaskManagementSystem.sol\":1346:1877  function createTask(... */\n    tag_26:\n        /* \"DecentralizedTaskManagementSystem/DecentralizedTaskManagementSystem.sol\":1512:1513  0 */\n      0x00\n        /* \"DecentralizedTaskManagementSystem/DecentralizedTaskManagementSystem.sol\":1491:1514  _assignTo != address(0) */\n      0xffffffffffffffffffffffffffffffffffffffff\n      and\n        /* \"DecentralizedTaskManagementSystem/DecentralizedTaskManagementSystem.sol\":1491:1500  _assignTo */\n      dup3\n        /* \"DecentralizedTaskManagementSystem/DecentralizedTaskManagementSystem.sol\":1491:1514  _assignTo != address(0) */\n      0xffffffffffffffffffffffffffffffffffffffff\n      and\n      sub\n        /* \"DecentralizedTaskManagementSystem/DecentralizedTaskManagementSystem.sol\":1483:1544  require(_assignTo != address(0), \"This is not valid Address\") */\n      tag_124\n      jumpi\n      mload(0x40)\n      0x08c379a000000000000000000000000000000000000000000000000000000000\n      dup2\n      mstore\n      0x04\n      add\n      tag_125\n      swap1\n      tag_126\n      jump\t// in\n    tag_125:\n      mload(0x40)\n      dup1\n      swap2\n      sub\n      swap1\n      revert\n    tag_124:\n        /* \"DecentralizedTaskManagementSystem/DecentralizedTaskManagementSystem.sol\":1587:1602  block.timestamp */\n      timestamp\n        /* \"DecentralizedTaskManagementSystem/DecentralizedTaskManagementSystem.sol\":1575:1584  _deadline */\n      dup2\n        /* \"DecentralizedTaskManagementSystem/DecentralizedTaskManagementSystem.sol\":1575:1602  _deadline > block.timestamp */\n      gt\n        /* \"DecentralizedTaskManagementSystem/DecentralizedTaskManagementSystem.sol\":1554:1662  require(... */\n      tag_127\n      jumpi\n      mload(0x40)\n      0x08c379a000000000000000000000000000000000000000000000000000000000\n      dup2\n      mstore\n      0x04\n      add\n      tag_128\n      swap1\n      tag_129\n      jump\t// in\n    tag_128:\n      mload(0x40)\n      dup1\n      swap2\n      sub\n      swap1\n      revert\n    tag_127:\n        /* \"DecentralizedTaskManagementSystem/DecentralizedTaskManagementSystem.sol\":1673:1687  uint256 taskId */\n      0x00\n        /* \"DecentralizedTaskManagementSystem/DecentralizedTaskManagementSystem.sol\":1690:1700  nextTaskId */\n      0x03\n      0x00\n        /* \"DecentralizedTaskManagementSystem/DecentralizedTaskManagementSystem.sol\":1690:1702  nextTaskId++ */\n      dup2\n      sload\n      dup1\n      swap3\n      swap2\n      swap1\n      tag_130\n      swap1\n      tag_131\n      jump\t// in\n    tag_130:\n      swap2\n      swap1\n      pop\n      sstore\n        /* \"DecentralizedTaskManagementSystem/DecentralizedTaskManagementSystem.sol\":1673:1702  uint256 taskId = nextTaskId++ */\n      swap1\n      pop\n        /* \"DecentralizedTaskManagementSystem/DecentralizedTaskManagementSystem.sol\":1728:1776  Task(taskId, _disc, _assignTo, _deadline, false) */\n      mload(0x40)\n      dup1\n      0xa0\n      add\n      0x40\n      mstore\n      dup1\n        /* \"DecentralizedTaskManagementSystem/DecentralizedTaskManagementSystem.sol\":1733:1739  taskId */\n      dup3\n        /* \"DecentralizedTaskManagementSystem/DecentralizedTaskManagementSystem.sol\":1728:1776  Task(taskId, _disc, _assignTo, _deadline, false) */\n      dup2\n      mstore\n      0x20\n      add\n        /* \"DecentralizedTaskManagementSystem/DecentralizedTaskManagementSystem.sol\":1741:1746  _disc */\n      dup6\n        /* \"DecentralizedTaskManagementSystem/DecentralizedTaskManagementSystem.sol\":1728:1776  Task(taskId, _disc, _assignTo, _deadline, false) */\n      dup2\n      mstore\n      0x20\n      add\n        /* \"DecentralizedTaskManagementSystem/DecentralizedTaskManagementSystem.sol\":1748:1757  _assignTo */\n      dup5\n        /* \"DecentralizedTaskManagementSystem/DecentralizedTaskManagementSystem.sol\":1728:1776  Task(taskId, _disc, _assignTo, _deadline, false) */\n      0xffffffffffffffffffffffffffffffffffffffff\n      and\n      dup2\n      mstore\n      0x20\n      add\n        /* \"DecentralizedTaskManagementSystem/DecentralizedTaskManagementSystem.sol\":1759:1768  _deadline */\n      dup4\n        /* \"DecentralizedTaskManagementSystem/DecentralizedTaskManagementSystem.sol\":1728:1776  Task(taskId, _disc, _assignTo, _deadline, false) */\n      dup2\n      mstore\n      0x20\n      add\n        /* \"DecentralizedTaskManagementSystem/DecentralizedTaskManagementSystem.sol\":1770:1775  false */\n      0x00\n        /* \"DecentralizedTaskManagementSystem/DecentralizedTaskManagementSystem.sol\":1728:1776  Task(taskId, _disc, _assignTo, _deadline, false) */\n      iszero\n      iszero\n      dup2\n      mstore\n      pop\n        /* \"DecentralizedTaskManagementSystem/DecentralizedTaskManagementSystem.sol\":1712:1717  tasks */\n      0x01\n        /* \"DecentralizedTaskManagementSystem/DecentralizedTaskManagementSystem.sol\":1712:1725  tasks[taskId] */\n      0x00\n        /* \"DecentralizedTaskManagementSystem/DecentralizedTaskManagementSystem.sol\":1718:1724  taskId */\n      dup4\n        /* \"DecentralizedTaskManagementSystem/DecentralizedTaskManagementSystem.sol\":1712:1725  tasks[taskId] */\n      dup2\n      mstore\n      0x20\n      add\n      swap1\n      dup2\n      mstore\n      0x20\n      add\n      0x00\n      keccak256\n        /* \"DecentralizedTaskManagementSystem/DecentralizedTaskManagementSystem.sol\":1712:1776  tasks[taskId] = Task(taskId, _disc, _assignTo, _deadline, false) */\n      0x00\n      dup3\n      add\n      mload\n      dup2\n      0x00\n      add\n      sstore\n      0x20\n      dup3\n      add\n      mload\n      dup2\n      0x01\n      add\n      swap1\n      dup2\n      tag_132\n      swap2\n      swap1\n      tag_63\n      jump\t// in\n    tag_132:\n      pop\n      0x40\n      dup3\n      add\n      mload\n      dup2\n      0x02\n      add\n      exp(0x0100, 0x00)\n      dup2\n      sload\n      dup2\n      0xffffffffffffffffffffffffffffffffffffffff\n      mul\n      not\n      and\n      swap1\n      dup4\n      0xffffffffffffffffffffffffffffffffffffffff\n      and\n      mul\n      or\n      swap1\n      sstore\n      pop\n      0x60\n      dup3\n      add\n      mload\n      dup2\n      0x03\n      add\n      sstore\n      0x80\n      dup3\n      add\n      mload\n      dup2\n      0x04\n      add\n      exp(0x0100, 0x00)\n      dup2\n      sload\n      dup2\n      0xff\n      mul\n      not\n      and\n      swap1\n      dup4\n      iszero\n      iszero\n      mul\n      or\n      swap1\n      sstore\n      pop\n      swap1\n      pop\n      pop\n        /* \"DecentralizedTaskManagementSystem/DecentralizedTaskManagementSystem.sol\":1786:1793  taskIds */\n      0x02\n        /* \"DecentralizedTaskManagementSystem/DecentralizedTaskManagementSystem.sol\":1799:1805  taskId */\n      dup2\n        /* \"DecentralizedTaskManagementSystem/DecentralizedTaskManagementSystem.sol\":1786:1806  taskIds.push(taskId) */\n      swap1\n      dup1\n      0x01\n      dup2\n      sload\n      add\n      dup1\n      dup3\n      sstore\n      dup1\n      swap2\n      pop\n      pop\n      0x01\n      swap1\n      sub\n      swap1\n      0x00\n      mstore\n      keccak256(0x00, 0x20)\n      add\n      0x00\n      swap1\n      swap2\n      swap1\n      swap2\n      swap1\n      swap2\n      pop\n      sstore\n        /* \"DecentralizedTaskManagementSystem/DecentralizedTaskManagementSystem.sol\":1822:1870  taskCreated(taskId, _disc, _assignTo, _deadline) */\n      0x5514f044ece5b6573e4fc9c778f66ca18dabaf03cf58ebe8d44cd4251ecc4b18\n        /* \"DecentralizedTaskManagementSystem/DecentralizedTaskManagementSystem.sol\":1834:1840  taskId */\n      dup2\n        /* \"DecentralizedTaskManagementSystem/DecentralizedTaskManagementSystem.sol\":1842:1847  _disc */\n      dup6\n        /* \"DecentralizedTaskManagementSystem/DecentralizedTaskManagementSystem.sol\":1849:1858  _assignTo */\n      dup6\n        /* \"DecentralizedTaskManagementSystem/DecentralizedTaskManagementSystem.sol\":1860:1869  _deadline */\n      dup6\n        /* \"DecentralizedTaskManagementSystem/DecentralizedTaskManagementSystem.sol\":1822:1870  taskCreated(taskId, _disc, _assignTo, _deadline) */\n      mload(0x40)\n      tag_134\n      swap5\n      swap4\n      swap3\n      swap2\n      swap1\n      tag_135\n      jump\t// in\n    tag_134:\n      mload(0x40)\n      dup1\n      swap2\n      sub\n      swap1\n      log1\n        /* \"DecentralizedTaskManagementSystem/DecentralizedTaskManagementSystem.sol\":1473:1877  {... */\n      pop\n        /* \"DecentralizedTaskManagementSystem/DecentralizedTaskManagementSystem.sol\":1346:1877  function createTask(... */\n      pop\n      pop\n      pop\n      jump\t// out\n    tag_78:\n      pop\n      dup1\n      sload\n      tag_136\n      swap1\n      tag_116\n      jump\t// in\n    tag_136:\n      0x00\n      dup3\n      sstore\n      dup1\n      0x1f\n      lt\n      tag_138\n      jumpi\n      pop\n      jump(tag_137)\n    tag_138:\n      0x1f\n      add\n      0x20\n      swap1\n      div\n      swap1\n      0x00\n      mstore\n      keccak256(0x00, 0x20)\n      swap1\n      dup2\n      add\n      swap1\n      tag_139\n      swap2\n      swap1\n      tag_140\n      jump\t// in\n    tag_139:\n    tag_137:\n      pop\n      jump\t// out\n    tag_108:\n      mload(0x40)\n      dup1\n      0xa0\n      add\n      0x40\n      mstore\n      dup1\n      0x00\n      dup2\n      mstore\n      0x20\n      add\n      0x60\n      dup2\n      mstore\n      0x20\n      add\n      and(0xffffffffffffffffffffffffffffffffffffffff, 0x00)\n      dup2\n      mstore\n      0x20\n      add\n      0x00\n      dup2\n      mstore\n      0x20\n      add\n      iszero(iszero(0x00))\n      dup2\n      mstore\n      pop\n      swap1\n      jump\t// out\n    tag_140:\n    tag_141:\n      dup1\n      dup3\n      gt\n      iszero\n      tag_142\n      jumpi\n      0x00\n      dup2\n      0x00\n      swap1\n      sstore\n      pop\n      0x01\n      add\n      jump(tag_141)\n    tag_142:\n      pop\n      swap1\n      jump\t// out\n        /* \"#utility.yul\":7:82   */\n    tag_143:\n        /* \"#utility.yul\":40:46   */\n      0x00\n        /* \"#utility.yul\":73:75   */\n      0x40\n        /* \"#utility.yul\":67:76   */\n      mload\n        /* \"#utility.yul\":57:76   */\n      swap1\n      pop\n        /* \"#utility.yul\":7:82   */\n      swap1\n      jump\t// out\n        /* \"#utility.yul\":88:205   */\n    tag_144:\n        /* \"#utility.yul\":197:198   */\n      0x00\n        /* \"#utility.yul\":194:195   */\n      dup1\n        /* \"#utility.yul\":187:199   */\n      revert\n        /* \"#utility.yul\":211:328   */\n    tag_145:\n        /* \"#utility.yul\":320:321   */\n      0x00\n        /* \"#utility.yul\":317:318   */\n      dup1\n        /* \"#utility.yul\":310:322   */\n      revert\n        /* \"#utility.yul\":334:411   */\n    tag_146:\n        /* \"#utility.yul\":371:378   */\n      0x00\n        /* \"#utility.yul\":400:405   */\n      dup2\n        /* \"#utility.yul\":389:405   */\n      swap1\n      pop\n        /* \"#utility.yul\":334:411   */\n      swap2\n      swap1\n      pop\n      jump\t// out\n        /* \"#utility.yul\":417:539   */\n    tag_147:\n        /* \"#utility.yul\":490:514   */\n      tag_218\n        /* \"#utility.yul\":508:513   */\n      dup2\n        /* \"#utility.yul\":490:514   */\n      tag_146\n      jump\t// in\n    tag_218:\n        /* \"#utility.yul\":483:488   */\n      dup2\n        /* \"#utility.yul\":480:515   */\n      eq\n        /* \"#utility.yul\":470:533   */\n      tag_219\n      jumpi\n        /* \"#utility.yul\":529:530   */\n      0x00\n        /* \"#utility.yul\":526:527   */\n      dup1\n        /* \"#utility.yul\":519:531   */\n      revert\n        /* \"#utility.yul\":470:533   */\n    tag_219:\n        /* \"#utility.yul\":417:539   */\n      pop\n      jump\t// out\n        /* \"#utility.yul\":545:684   */\n    tag_148:\n        /* \"#utility.yul\":591:596   */\n      0x00\n        /* \"#utility.yul\":629:635   */\n      dup2\n        /* \"#utility.yul\":616:636   */\n      calldataload\n        /* \"#utility.yul\":607:636   */\n      swap1\n      pop\n        /* \"#utility.yul\":645:678   */\n      tag_221\n        /* \"#utility.yul\":672:677   */\n      dup2\n        /* \"#utility.yul\":645:678   */\n      tag_147\n      jump\t// in\n    tag_221:\n        /* \"#utility.yul\":545:684   */\n      swap3\n      swap2\n      pop\n      pop\n      jump\t// out\n        /* \"#utility.yul\":690:1019   */\n    tag_10:\n        /* \"#utility.yul\":749:755   */\n      0x00\n        /* \"#utility.yul\":798:800   */\n      0x20\n        /* \"#utility.yul\":786:795   */\n      dup3\n        /* \"#utility.yul\":777:784   */\n      dup5\n        /* \"#utility.yul\":773:796   */\n      sub\n        /* \"#utility.yul\":769:801   */\n      slt\n        /* \"#utility.yul\":766:885   */\n      iszero\n      tag_223\n      jumpi\n        /* \"#utility.yul\":804:883   */\n      tag_224\n      tag_144\n      jump\t// in\n    tag_224:\n        /* \"#utility.yul\":766:885   */\n    tag_223:\n        /* \"#utility.yul\":924:925   */\n      0x00\n        /* \"#utility.yul\":949:1002   */\n      tag_225\n        /* \"#utility.yul\":994:1001   */\n      dup5\n        /* \"#utility.yul\":985:991   */\n      dup3\n        /* \"#utility.yul\":974:983   */\n      dup6\n        /* \"#utility.yul\":970:992   */\n      add\n        /* \"#utility.yul\":949:1002   */\n      tag_148\n      jump\t// in\n    tag_225:\n        /* \"#utility.yul\":939:1002   */\n      swap2\n      pop\n        /* \"#utility.yul\":895:1012   */\n      pop\n        /* \"#utility.yul\":690:1019   */\n      swap3\n      swap2\n      pop\n      pop\n      jump\t// out\n        /* \"#utility.yul\":1025:1142   */\n    tag_149:\n        /* \"#utility.yul\":1134:1135   */\n      0x00\n        /* \"#utility.yul\":1131:1132   */\n      dup1\n        /* \"#utility.yul\":1124:1136   */\n      revert\n        /* \"#utility.yul\":1148:1265   */\n    tag_150:\n        /* \"#utility.yul\":1257:1258   */\n      0x00\n        /* \"#utility.yul\":1254:1255   */\n      dup1\n        /* \"#utility.yul\":1247:1259   */\n      revert\n        /* \"#utility.yul\":1271:1373   */\n    tag_151:\n        /* \"#utility.yul\":1312:1318   */\n      0x00\n        /* \"#utility.yul\":1363:1365   */\n      0x1f\n        /* \"#utility.yul\":1359:1366   */\n      not\n        /* \"#utility.yul\":1354:1356   */\n      0x1f\n        /* \"#utility.yul\":1347:1352   */\n      dup4\n        /* \"#utility.yul\":1343:1357   */\n      add\n        /* \"#utility.yul\":1339:1367   */\n      and\n        /* \"#utility.yul\":1329:1367   */\n      swap1\n      pop\n        /* \"#utility.yul\":1271:1373   */\n      swap2\n      swap1\n      pop\n      jump\t// out\n        /* \"#utility.yul\":1379:1559   */\n    tag_104:\n        /* \"#utility.yul\":1427:1504   */\n      0x4e487b7100000000000000000000000000000000000000000000000000000000\n        /* \"#utility.yul\":1424:1425   */\n      0x00\n        /* \"#utility.yul\":1417:1505   */\n      mstore\n        /* \"#utility.yul\":1524:1528   */\n      0x41\n        /* \"#utility.yul\":1521:1522   */\n      0x04\n        /* \"#utility.yul\":1514:1529   */\n      mstore\n        /* \"#utility.yul\":1548:1552   */\n      0x24\n        /* \"#utility.yul\":1545:1546   */\n      0x00\n        /* \"#utility.yul\":1538:1553   */\n      revert\n        /* \"#utility.yul\":1565:1846   */\n    tag_152:\n        /* \"#utility.yul\":1648:1675   */\n      tag_231\n        /* \"#utility.yul\":1670:1674   */\n      dup3\n        /* \"#utility.yul\":1648:1675   */\n      tag_151\n      jump\t// in\n    tag_231:\n        /* \"#utility.yul\":1640:1646   */\n      dup2\n        /* \"#utility.yul\":1636:1676   */\n      add\n        /* \"#utility.yul\":1778:1784   */\n      dup2\n        /* \"#utility.yul\":1766:1776   */\n      dup2\n        /* \"#utility.yul\":1763:1785   */\n      lt\n        /* \"#utility.yul\":1742:1760   */\n      0xffffffffffffffff\n        /* \"#utility.yul\":1730:1740   */\n      dup3\n        /* \"#utility.yul\":1727:1761   */\n      gt\n        /* \"#utility.yul\":1724:1786   */\n      or\n        /* \"#utility.yul\":1721:1809   */\n      iszero\n      tag_232\n      jumpi\n        /* \"#utility.yul\":1789:1807   */\n      tag_233\n      tag_104\n      jump\t// in\n    tag_233:\n        /* \"#utility.yul\":1721:1809   */\n    tag_232:\n        /* \"#utility.yul\":1829:1839   */\n      dup1\n        /* \"#utility.yul\":1825:1827   */\n      0x40\n        /* \"#utility.yul\":1818:1840   */\n      mstore\n        /* \"#utility.yul\":1608:1846   */\n      pop\n        /* \"#utility.yul\":1565:1846   */\n      pop\n      pop\n      jump\t// out\n        /* \"#utility.yul\":1852:1981   */\n    tag_153:\n        /* \"#utility.yul\":1886:1892   */\n      0x00\n        /* \"#utility.yul\":1913:1933   */\n      tag_235\n      tag_143\n      jump\t// in\n    tag_235:\n        /* \"#utility.yul\":1903:1933   */\n      swap1\n      pop\n        /* \"#utility.yul\":1942:1975   */\n      tag_236\n        /* \"#utility.yul\":1970:1974   */\n      dup3\n        /* \"#utility.yul\":1962:1968   */\n      dup3\n        /* \"#utility.yul\":1942:1975   */\n      tag_152\n      jump\t// in\n    tag_236:\n        /* \"#utility.yul\":1852:1981   */\n      swap2\n      swap1\n      pop\n      jump\t// out\n        /* \"#utility.yul\":1987:2295   */\n    tag_154:\n        /* \"#utility.yul\":2049:2053   */\n      0x00\n        /* \"#utility.yul\":2139:2157   */\n      0xffffffffffffffff\n        /* \"#utility.yul\":2131:2137   */\n      dup3\n        /* \"#utility.yul\":2128:2158   */\n      gt\n        /* \"#utility.yul\":2125:2181   */\n      iszero\n      tag_238\n      jumpi\n        /* \"#utility.yul\":2161:2179   */\n      tag_239\n      tag_104\n      jump\t// in\n    tag_239:\n        /* \"#utility.yul\":2125:2181   */\n    tag_238:\n        /* \"#utility.yul\":2199:2228   */\n      tag_240\n        /* \"#utility.yul\":2221:2227   */\n      dup3\n        /* \"#utility.yul\":2199:2228   */\n      tag_151\n      jump\t// in\n    tag_240:\n        /* \"#utility.yul\":2191:2228   */\n      swap1\n      pop\n        /* \"#utility.yul\":2283:2287   */\n      0x20\n        /* \"#utility.yul\":2277:2281   */\n      dup2\n        /* \"#utility.yul\":2273:2288   */\n      add\n        /* \"#utility.yul\":2265:2288   */\n      swap1\n      pop\n        /* \"#utility.yul\":1987:2295   */\n      swap2\n      swap1\n      pop\n      jump\t// out\n        /* \"#utility.yul\":2301:2449   */\n    tag_155:\n        /* \"#utility.yul\":2399:2405   */\n      dup3\n        /* \"#utility.yul\":2394:2397   */\n      dup2\n        /* \"#utility.yul\":2389:2392   */\n      dup4\n        /* \"#utility.yul\":2376:2406   */\n      calldatacopy\n        /* \"#utility.yul\":2440:2441   */\n      0x00\n        /* \"#utility.yul\":2431:2437   */\n      dup4\n        /* \"#utility.yul\":2426:2429   */\n      dup4\n        /* \"#utility.yul\":2422:2438   */\n      add\n        /* \"#utility.yul\":2415:2442   */\n      mstore\n        /* \"#utility.yul\":2301:2449   */\n      pop\n      pop\n      pop\n      jump\t// out\n        /* \"#utility.yul\":2455:2880   */\n    tag_156:\n        /* \"#utility.yul\":2533:2538   */\n      0x00\n        /* \"#utility.yul\":2558:2624   */\n      tag_243\n        /* \"#utility.yul\":2574:2623   */\n      tag_244\n        /* \"#utility.yul\":2616:2622   */\n      dup5\n        /* \"#utility.yul\":2574:2623   */\n      tag_154\n      jump\t// in\n    tag_244:\n        /* \"#utility.yul\":2558:2624   */\n      tag_153\n      jump\t// in\n    tag_243:\n        /* \"#utility.yul\":2549:2624   */\n      swap1\n      pop\n        /* \"#utility.yul\":2647:2653   */\n      dup3\n        /* \"#utility.yul\":2640:2645   */\n      dup2\n        /* \"#utility.yul\":2633:2654   */\n      mstore\n        /* \"#utility.yul\":2685:2689   */\n      0x20\n        /* \"#utility.yul\":2678:2683   */\n      dup2\n        /* \"#utility.yul\":2674:2690   */\n      add\n        /* \"#utility.yul\":2723:2726   */\n      dup5\n        /* \"#utility.yul\":2714:2720   */\n      dup5\n        /* \"#utility.yul\":2709:2712   */\n      dup5\n        /* \"#utility.yul\":2705:2721   */\n      add\n        /* \"#utility.yul\":2702:2727   */\n      gt\n        /* \"#utility.yul\":2699:2811   */\n      iszero\n      tag_245\n      jumpi\n        /* \"#utility.yul\":2730:2809   */\n      tag_246\n      tag_150\n      jump\t// in\n    tag_246:\n        /* \"#utility.yul\":2699:2811   */\n    tag_245:\n        /* \"#utility.yul\":2820:2874   */\n      tag_247\n        /* \"#utility.yul\":2867:2873   */\n      dup5\n        /* \"#utility.yul\":2862:2865   */\n      dup3\n        /* \"#utility.yul\":2857:2860   */\n      dup6\n        /* \"#utility.yul\":2820:2874   */\n      tag_155\n      jump\t// in\n    tag_247:\n        /* \"#utility.yul\":2539:2880   */\n      pop\n        /* \"#utility.yul\":2455:2880   */\n      swap4\n      swap3\n      pop\n      pop\n      pop\n      jump\t// out\n        /* \"#utility.yul\":2900:3240   */\n    tag_157:\n        /* \"#utility.yul\":2956:2961   */\n      0x00\n        /* \"#utility.yul\":3005:3008   */\n      dup3\n        /* \"#utility.yul\":2998:3002   */\n      0x1f\n        /* \"#utility.yul\":2990:2996   */\n      dup4\n        /* \"#utility.yul\":2986:3003   */\n      add\n        /* \"#utility.yul\":2982:3009   */\n      slt\n        /* \"#utility.yul\":2972:3094   */\n      tag_249\n      jumpi\n        /* \"#utility.yul\":3013:3092   */\n      tag_250\n      tag_149\n      jump\t// in\n    tag_250:\n        /* \"#utility.yul\":2972:3094   */\n    tag_249:\n        /* \"#utility.yul\":3130:3136   */\n      dup2\n        /* \"#utility.yul\":3117:3137   */\n      calldataload\n        /* \"#utility.yul\":3155:3234   */\n      tag_251\n        /* \"#utility.yul\":3230:3233   */\n      dup5\n        /* \"#utility.yul\":3222:3228   */\n      dup3\n        /* \"#utility.yul\":3215:3219   */\n      0x20\n        /* \"#utility.yul\":3207:3213   */\n      dup7\n        /* \"#utility.yul\":3203:3220   */\n      add\n        /* \"#utility.yul\":3155:3234   */\n      tag_156\n      jump\t// in\n    tag_251:\n        /* \"#utility.yul\":3146:3234   */\n      swap2\n      pop\n        /* \"#utility.yul\":2962:3240   */\n      pop\n        /* \"#utility.yul\":2900:3240   */\n      swap3\n      swap2\n      pop\n      pop\n      jump\t// out\n        /* \"#utility.yul\":3246:3900   */\n    tag_14:\n        /* \"#utility.yul\":3324:3330   */\n      0x00\n        /* \"#utility.yul\":3332:3338   */\n      dup1\n        /* \"#utility.yul\":3381:3383   */\n      0x40\n        /* \"#utility.yul\":3369:3378   */\n      dup4\n        /* \"#utility.yul\":3360:3367   */\n      dup6\n        /* \"#utility.yul\":3356:3379   */\n      sub\n        /* \"#utility.yul\":3352:3384   */\n      slt\n        /* \"#utility.yul\":3349:3468   */\n      iszero\n      tag_253\n      jumpi\n        /* \"#utility.yul\":3387:3466   */\n      tag_254\n      tag_144\n      jump\t// in\n    tag_254:\n        /* \"#utility.yul\":3349:3468   */\n    tag_253:\n        /* \"#utility.yul\":3535:3536   */\n      0x00\n        /* \"#utility.yul\":3524:3533   */\n      dup4\n        /* \"#utility.yul\":3520:3537   */\n      add\n        /* \"#utility.yul\":3507:3538   */\n      calldataload\n        /* \"#utility.yul\":3565:3583   */\n      0xffffffffffffffff\n        /* \"#utility.yul\":3557:3563   */\n      dup2\n        /* \"#utility.yul\":3554:3584   */\n      gt\n        /* \"#utility.yul\":3551:3668   */\n      iszero\n      tag_255\n      jumpi\n        /* \"#utility.yul\":3587:3666   */\n      tag_256\n      tag_145\n      jump\t// in\n    tag_256:\n        /* \"#utility.yul\":3551:3668   */\n    tag_255:\n        /* \"#utility.yul\":3692:3755   */\n      tag_257\n        /* \"#utility.yul\":3747:3754   */\n      dup6\n        /* \"#utility.yul\":3738:3744   */\n      dup3\n        /* \"#utility.yul\":3727:3736   */\n      dup7\n        /* \"#utility.yul\":3723:3745   */\n      add\n        /* \"#utility.yul\":3692:3755   */\n      tag_157\n      jump\t// in\n    tag_257:\n        /* \"#utility.yul\":3682:3755   */\n      swap3\n      pop\n        /* \"#utility.yul\":3478:3765   */\n      pop\n        /* \"#utility.yul\":3804:3806   */\n      0x20\n        /* \"#utility.yul\":3830:3883   */\n      tag_258\n        /* \"#utility.yul\":3875:3882   */\n      dup6\n        /* \"#utility.yul\":3866:3872   */\n      dup3\n        /* \"#utility.yul\":3855:3864   */\n      dup7\n        /* \"#utility.yul\":3851:3873   */\n      add\n        /* \"#utility.yul\":3830:3883   */\n      tag_148\n      jump\t// in\n    tag_258:\n        /* \"#utility.yul\":3820:3883   */\n      swap2\n      pop\n        /* \"#utility.yul\":3775:3893   */\n      pop\n        /* \"#utility.yul\":3246:3900   */\n      swap3\n      pop\n      swap3\n      swap1\n      pop\n      jump\t// out\n        /* \"#utility.yul\":3906:4040   */\n    tag_158:\n        /* \"#utility.yul\":3993:3999   */\n      0x00\n        /* \"#utility.yul\":4027:4032   */\n      dup2\n        /* \"#utility.yul\":4021:4033   */\n      mload\n        /* \"#utility.yul\":4011:4033   */\n      swap1\n      pop\n        /* \"#utility.yul\":3906:4040   */\n      swap2\n      swap1\n      pop\n      jump\t// out\n        /* \"#utility.yul\":4046:4250   */\n    tag_159:\n        /* \"#utility.yul\":4165:4176   */\n      0x00\n        /* \"#utility.yul\":4199:4205   */\n      dup3\n        /* \"#utility.yul\":4194:4197   */\n      dup3\n        /* \"#utility.yul\":4187:4206   */\n      mstore\n        /* \"#utility.yul\":4239:4243   */\n      0x20\n        /* \"#utility.yul\":4234:4237   */\n      dup3\n        /* \"#utility.yul\":4230:4244   */\n      add\n        /* \"#utility.yul\":4215:4244   */\n      swap1\n      pop\n        /* \"#utility.yul\":4046:4250   */\n      swap3\n      swap2\n      pop\n      pop\n      jump\t// out\n        /* \"#utility.yul\":4256:4408   */\n    tag_160:\n        /* \"#utility.yul\":4343:4347   */\n      0x00\n        /* \"#utility.yul\":4366:4369   */\n      dup2\n        /* \"#utility.yul\":4358:4369   */\n      swap1\n      pop\n        /* \"#utility.yul\":4396:4400   */\n      0x20\n        /* \"#utility.yul\":4391:4394   */\n      dup3\n        /* \"#utility.yul\":4387:4401   */\n      add\n        /* \"#utility.yul\":4379:4401   */\n      swap1\n      pop\n        /* \"#utility.yul\":4256:4408   */\n      swap2\n      swap1\n      pop\n      jump\t// out\n        /* \"#utility.yul\":4414:4522   */\n    tag_161:\n        /* \"#utility.yul\":4491:4515   */\n      tag_263\n        /* \"#utility.yul\":4509:4514   */\n      dup2\n        /* \"#utility.yul\":4491:4515   */\n      tag_146\n      jump\t// in\n    tag_263:\n        /* \"#utility.yul\":4486:4489   */\n      dup3\n        /* \"#utility.yul\":4479:4516   */\n      mstore\n        /* \"#utility.yul\":4414:4522   */\n      pop\n      pop\n      jump\t// out\n        /* \"#utility.yul\":4528:4627   */\n    tag_162:\n        /* \"#utility.yul\":4580:4586   */\n      0x00\n        /* \"#utility.yul\":4614:4619   */\n      dup2\n        /* \"#utility.yul\":4608:4620   */\n      mload\n        /* \"#utility.yul\":4598:4620   */\n      swap1\n      pop\n        /* \"#utility.yul\":4528:4627   */\n      swap2\n      swap1\n      pop\n      jump\t// out\n        /* \"#utility.yul\":4633:4792   */\n    tag_163:\n        /* \"#utility.yul\":4707:4718   */\n      0x00\n        /* \"#utility.yul\":4741:4747   */\n      dup3\n        /* \"#utility.yul\":4736:4739   */\n      dup3\n        /* \"#utility.yul\":4729:4748   */\n      mstore\n        /* \"#utility.yul\":4781:4785   */\n      0x20\n        /* \"#utility.yul\":4776:4779   */\n      dup3\n        /* \"#utility.yul\":4772:4786   */\n      add\n        /* \"#utility.yul\":4757:4786   */\n      swap1\n      pop\n        /* \"#utility.yul\":4633:4792   */\n      swap3\n      swap2\n      pop\n      pop\n      jump\t// out\n        /* \"#utility.yul\":4798:4937   */\n    tag_164:\n        /* \"#utility.yul\":4887:4893   */\n      dup3\n        /* \"#utility.yul\":4882:4885   */\n      dup2\n        /* \"#utility.yul\":4877:4880   */\n      dup4\n        /* \"#utility.yul\":4871:4894   */\n      mcopy\n        /* \"#utility.yul\":4928:4929   */\n      0x00\n        /* \"#utility.yul\":4919:4925   */\n      dup4\n        /* \"#utility.yul\":4914:4917   */\n      dup4\n        /* \"#utility.yul\":4910:4926   */\n      add\n        /* \"#utility.yul\":4903:4930   */\n      mstore\n        /* \"#utility.yul\":4798:4937   */\n      pop\n      pop\n      pop\n      jump\t// out\n        /* \"#utility.yul\":4943:5300   */\n    tag_165:\n        /* \"#utility.yul\":5021:5024   */\n      0x00\n        /* \"#utility.yul\":5049:5088   */\n      tag_268\n        /* \"#utility.yul\":5082:5087   */\n      dup3\n        /* \"#utility.yul\":5049:5088   */\n      tag_162\n      jump\t// in\n    tag_268:\n        /* \"#utility.yul\":5104:5165   */\n      tag_269\n        /* \"#utility.yul\":5158:5164   */\n      dup2\n        /* \"#utility.yul\":5153:5156   */\n      dup6\n        /* \"#utility.yul\":5104:5165   */\n      tag_163\n      jump\t// in\n    tag_269:\n        /* \"#utility.yul\":5097:5165   */\n      swap4\n      pop\n        /* \"#utility.yul\":5174:5239   */\n      tag_270\n        /* \"#utility.yul\":5232:5238   */\n      dup2\n        /* \"#utility.yul\":5227:5230   */\n      dup6\n        /* \"#utility.yul\":5220:5224   */\n      0x20\n        /* \"#utility.yul\":5213:5218   */\n      dup7\n        /* \"#utility.yul\":5209:5225   */\n      add\n        /* \"#utility.yul\":5174:5239   */\n      tag_164\n      jump\t// in\n    tag_270:\n        /* \"#utility.yul\":5264:5293   */\n      tag_271\n        /* \"#utility.yul\":5286:5292   */\n      dup2\n        /* \"#utility.yul\":5264:5293   */\n      tag_151\n      jump\t// in\n    tag_271:\n        /* \"#utility.yul\":5259:5262   */\n      dup5\n        /* \"#utility.yul\":5255:5294   */\n      add\n        /* \"#utility.yul\":5248:5294   */\n      swap2\n      pop\n        /* \"#utility.yul\":5025:5300   */\n      pop\n        /* \"#utility.yul\":4943:5300   */\n      swap3\n      swap2\n      pop\n      pop\n      jump\t// out\n        /* \"#utility.yul\":5306:5432   */\n    tag_166:\n        /* \"#utility.yul\":5343:5350   */\n      0x00\n        /* \"#utility.yul\":5383:5425   */\n      0xffffffffffffffffffffffffffffffffffffffff\n        /* \"#utility.yul\":5376:5381   */\n      dup3\n        /* \"#utility.yul\":5372:5426   */\n      and\n        /* \"#utility.yul\":5361:5426   */\n      swap1\n      pop\n        /* \"#utility.yul\":5306:5432   */\n      swap2\n      swap1\n      pop\n      jump\t// out\n        /* \"#utility.yul\":5438:5534   */\n    tag_167:\n        /* \"#utility.yul\":5475:5482   */\n      0x00\n        /* \"#utility.yul\":5504:5528   */\n      tag_274\n        /* \"#utility.yul\":5522:5527   */\n      dup3\n        /* \"#utility.yul\":5504:5528   */\n      tag_166\n      jump\t// in\n    tag_274:\n        /* \"#utility.yul\":5493:5528   */\n      swap1\n      pop\n        /* \"#utility.yul\":5438:5534   */\n      swap2\n      swap1\n      pop\n      jump\t// out\n        /* \"#utility.yul\":5540:5648   */\n    tag_168:\n        /* \"#utility.yul\":5617:5641   */\n      tag_276\n        /* \"#utility.yul\":5635:5640   */\n      dup2\n        /* \"#utility.yul\":5617:5641   */\n      tag_167\n      jump\t// in\n    tag_276:\n        /* \"#utility.yul\":5612:5615   */\n      dup3\n        /* \"#utility.yul\":5605:5642   */\n      mstore\n        /* \"#utility.yul\":5540:5648   */\n      pop\n      pop\n      jump\t// out\n        /* \"#utility.yul\":5654:5744   */\n    tag_169:\n        /* \"#utility.yul\":5688:5695   */\n      0x00\n        /* \"#utility.yul\":5731:5736   */\n      dup2\n        /* \"#utility.yul\":5724:5737   */\n      iszero\n        /* \"#utility.yul\":5717:5738   */\n      iszero\n        /* \"#utility.yul\":5706:5738   */\n      swap1\n      pop\n        /* \"#utility.yul\":5654:5744   */\n      swap2\n      swap1\n      pop\n      jump\t// out\n        /* \"#utility.yul\":5750:5849   */\n    tag_170:\n        /* \"#utility.yul\":5821:5842   */\n      tag_279\n        /* \"#utility.yul\":5836:5841   */\n      dup2\n        /* \"#utility.yul\":5821:5842   */\n      tag_169\n      jump\t// in\n    tag_279:\n        /* \"#utility.yul\":5816:5819   */\n      dup3\n        /* \"#utility.yul\":5809:5843   */\n      mstore\n        /* \"#utility.yul\":5750:5849   */\n      pop\n      pop\n      jump\t// out\n        /* \"#utility.yul\":5915:7040   */\n    tag_171:\n        /* \"#utility.yul\":6014:6017   */\n      0x00\n        /* \"#utility.yul\":6050:6054   */\n      0xa0\n        /* \"#utility.yul\":6045:6048   */\n      dup4\n        /* \"#utility.yul\":6041:6055   */\n      add\n        /* \"#utility.yul\":6139:6143   */\n      0x00\n        /* \"#utility.yul\":6132:6137   */\n      dup4\n        /* \"#utility.yul\":6128:6144   */\n      add\n        /* \"#utility.yul\":6122:6145   */\n      mload\n        /* \"#utility.yul\":6158:6221   */\n      tag_281\n        /* \"#utility.yul\":6215:6219   */\n      0x00\n        /* \"#utility.yul\":6210:6213   */\n      dup7\n        /* \"#utility.yul\":6206:6220   */\n      add\n        /* \"#utility.yul\":6192:6204   */\n      dup3\n        /* \"#utility.yul\":6158:6221   */\n      tag_161\n      jump\t// in\n    tag_281:\n        /* \"#utility.yul\":6065:6231   */\n      pop\n        /* \"#utility.yul\":6320:6324   */\n      0x20\n        /* \"#utility.yul\":6313:6318   */\n      dup4\n        /* \"#utility.yul\":6309:6325   */\n      add\n        /* \"#utility.yul\":6303:6326   */\n      mload\n        /* \"#utility.yul\":6373:6376   */\n      dup5\n        /* \"#utility.yul\":6367:6371   */\n      dup3\n        /* \"#utility.yul\":6363:6377   */\n      sub\n        /* \"#utility.yul\":6356:6360   */\n      0x20\n        /* \"#utility.yul\":6351:6354   */\n      dup7\n        /* \"#utility.yul\":6347:6361   */\n      add\n        /* \"#utility.yul\":6340:6378   */\n      mstore\n        /* \"#utility.yul\":6399:6472   */\n      tag_282\n        /* \"#utility.yul\":6467:6471   */\n      dup3\n        /* \"#utility.yul\":6453:6465   */\n      dup3\n        /* \"#utility.yul\":6399:6472   */\n      tag_165\n      jump\t// in\n    tag_282:\n        /* \"#utility.yul\":6391:6472   */\n      swap2\n      pop\n        /* \"#utility.yul\":6241:6483   */\n      pop\n        /* \"#utility.yul\":6569:6573   */\n      0x40\n        /* \"#utility.yul\":6562:6567   */\n      dup4\n        /* \"#utility.yul\":6558:6574   */\n      add\n        /* \"#utility.yul\":6552:6575   */\n      mload\n        /* \"#utility.yul\":6588:6651   */\n      tag_283\n        /* \"#utility.yul\":6645:6649   */\n      0x40\n        /* \"#utility.yul\":6640:6643   */\n      dup7\n        /* \"#utility.yul\":6636:6650   */\n      add\n        /* \"#utility.yul\":6622:6634   */\n      dup3\n        /* \"#utility.yul\":6588:6651   */\n      tag_168\n      jump\t// in\n    tag_283:\n        /* \"#utility.yul\":6493:6661   */\n      pop\n        /* \"#utility.yul\":6747:6751   */\n      0x60\n        /* \"#utility.yul\":6740:6745   */\n      dup4\n        /* \"#utility.yul\":6736:6752   */\n      add\n        /* \"#utility.yul\":6730:6753   */\n      mload\n        /* \"#utility.yul\":6766:6829   */\n      tag_284\n        /* \"#utility.yul\":6823:6827   */\n      0x60\n        /* \"#utility.yul\":6818:6821   */\n      dup7\n        /* \"#utility.yul\":6814:6828   */\n      add\n        /* \"#utility.yul\":6800:6812   */\n      dup3\n        /* \"#utility.yul\":6766:6829   */\n      tag_161\n      jump\t// in\n    tag_284:\n        /* \"#utility.yul\":6671:6839   */\n      pop\n        /* \"#utility.yul\":6927:6931   */\n      0x80\n        /* \"#utility.yul\":6920:6925   */\n      dup4\n        /* \"#utility.yul\":6916:6932   */\n      add\n        /* \"#utility.yul\":6910:6933   */\n      mload\n        /* \"#utility.yul\":6946:7003   */\n      tag_285\n        /* \"#utility.yul\":6997:7001   */\n      0x80\n        /* \"#utility.yul\":6992:6995   */\n      dup7\n        /* \"#utility.yul\":6988:7002   */\n      add\n        /* \"#utility.yul\":6974:6986   */\n      dup3\n        /* \"#utility.yul\":6946:7003   */\n      tag_170\n      jump\t// in\n    tag_285:\n        /* \"#utility.yul\":6849:7013   */\n      pop\n        /* \"#utility.yul\":7030:7034   */\n      dup1\n        /* \"#utility.yul\":7023:7034   */\n      swap2\n      pop\n        /* \"#utility.yul\":6019:7040   */\n      pop\n        /* \"#utility.yul\":5915:7040   */\n      swap3\n      swap2\n      pop\n      pop\n      jump\t// out\n        /* \"#utility.yul\":7046:7282   */\n    tag_172:\n        /* \"#utility.yul\":7155:7165   */\n      0x00\n        /* \"#utility.yul\":7190:7276   */\n      tag_287\n        /* \"#utility.yul\":7272:7275   */\n      dup4\n        /* \"#utility.yul\":7264:7270   */\n      dup4\n        /* \"#utility.yul\":7190:7276   */\n      tag_171\n      jump\t// in\n    tag_287:\n        /* \"#utility.yul\":7176:7276   */\n      swap1\n      pop\n        /* \"#utility.yul\":7046:7282   */\n      swap3\n      swap2\n      pop\n      pop\n      jump\t// out\n        /* \"#utility.yul\":7288:7421   */\n    tag_173:\n        /* \"#utility.yul\":7378:7382   */\n      0x00\n        /* \"#utility.yul\":7410:7414   */\n      0x20\n        /* \"#utility.yul\":7405:7408   */\n      dup3\n        /* \"#utility.yul\":7401:7415   */\n      add\n        /* \"#utility.yul\":7393:7415   */\n      swap1\n      pop\n        /* \"#utility.yul\":7288:7421   */\n      swap2\n      swap1\n      pop\n      jump\t// out\n        /* \"#utility.yul\":7491:8562   */\n    tag_174:\n        /* \"#utility.yul\":7650:7653   */\n      0x00\n        /* \"#utility.yul\":7679:7753   */\n      tag_290\n        /* \"#utility.yul\":7747:7752   */\n      dup3\n        /* \"#utility.yul\":7679:7753   */\n      tag_158\n      jump\t// in\n    tag_290:\n        /* \"#utility.yul\":7769:7875   */\n      tag_291\n        /* \"#utility.yul\":7868:7874   */\n      dup2\n        /* \"#utility.yul\":7863:7866   */\n      dup6\n        /* \"#utility.yul\":7769:7875   */\n      tag_159\n      jump\t// in\n    tag_291:\n        /* \"#utility.yul\":7762:7875   */\n      swap4\n      pop\n        /* \"#utility.yul\":7901:7904   */\n      dup4\n        /* \"#utility.yul\":7946:7950   */\n      0x20\n        /* \"#utility.yul\":7938:7944   */\n      dup3\n        /* \"#utility.yul\":7934:7951   */\n      mul\n        /* \"#utility.yul\":7929:7932   */\n      dup6\n        /* \"#utility.yul\":7925:7952   */\n      add\n        /* \"#utility.yul\":7976:8052   */\n      tag_292\n        /* \"#utility.yul\":8046:8051   */\n      dup6\n        /* \"#utility.yul\":7976:8052   */\n      tag_160\n      jump\t// in\n    tag_292:\n        /* \"#utility.yul\":8075:8082   */\n      dup1\n        /* \"#utility.yul\":8106:8107   */\n      0x00\n        /* \"#utility.yul\":8091:8517   */\n    tag_293:\n        /* \"#utility.yul\":8116:8122   */\n      dup6\n        /* \"#utility.yul\":8113:8114   */\n      dup2\n        /* \"#utility.yul\":8110:8123   */\n      lt\n        /* \"#utility.yul\":8091:8517   */\n      iszero\n      tag_295\n      jumpi\n        /* \"#utility.yul\":8187:8196   */\n      dup5\n        /* \"#utility.yul\":8181:8185   */\n      dup5\n        /* \"#utility.yul\":8177:8197   */\n      sub\n        /* \"#utility.yul\":8172:8175   */\n      dup10\n        /* \"#utility.yul\":8165:8198   */\n      mstore\n        /* \"#utility.yul\":8238:8244   */\n      dup2\n        /* \"#utility.yul\":8232:8245   */\n      mload\n        /* \"#utility.yul\":8266:8370   */\n      tag_296\n        /* \"#utility.yul\":8365:8369   */\n      dup6\n        /* \"#utility.yul\":8350:8363   */\n      dup3\n        /* \"#utility.yul\":8266:8370   */\n      tag_172\n      jump\t// in\n    tag_296:\n        /* \"#utility.yul\":8258:8370   */\n      swap5\n      pop\n        /* \"#utility.yul\":8393:8473   */\n      tag_297\n        /* \"#utility.yul\":8466:8472   */\n      dup4\n        /* \"#utility.yul\":8393:8473   */\n      tag_173\n      jump\t// in\n    tag_297:\n        /* \"#utility.yul\":8383:8473   */\n      swap3\n      pop\n        /* \"#utility.yul\":8502:8506   */\n      0x20\n        /* \"#utility.yul\":8497:8500   */\n      dup11\n        /* \"#utility.yul\":8493:8507   */\n      add\n        /* \"#utility.yul\":8486:8507   */\n      swap10\n      pop\n        /* \"#utility.yul\":8151:8517   */\n      pop\n        /* \"#utility.yul\":8138:8139   */\n      0x01\n        /* \"#utility.yul\":8135:8136   */\n      dup2\n        /* \"#utility.yul\":8131:8140   */\n      add\n        /* \"#utility.yul\":8126:8140   */\n      swap1\n      pop\n        /* \"#utility.yul\":8091:8517   */\n      jump(tag_293)\n    tag_295:\n        /* \"#utility.yul\":8095:8109   */\n      pop\n        /* \"#utility.yul\":8533:8537   */\n      dup3\n        /* \"#utility.yul\":8526:8537   */\n      swap8\n      pop\n        /* \"#utility.yul\":8553:8556   */\n      dup8\n        /* \"#utility.yul\":8546:8556   */\n      swap6\n      pop\n        /* \"#utility.yul\":7655:8562   */\n      pop\n      pop\n      pop\n      pop\n      pop\n        /* \"#utility.yul\":7491:8562   */\n      swap3\n      swap2\n      pop\n      pop\n      jump\t// out\n        /* \"#utility.yul\":8568:9021   */\n    tag_22:\n        /* \"#utility.yul\":8751:8755   */\n      0x00\n        /* \"#utility.yul\":8789:8791   */\n      0x20\n        /* \"#utility.yul\":8778:8787   */\n      dup3\n        /* \"#utility.yul\":8774:8792   */\n      add\n        /* \"#utility.yul\":8766:8792   */\n      swap1\n      pop\n        /* \"#utility.yul\":8838:8847   */\n      dup2\n        /* \"#utility.yul\":8832:8836   */\n      dup2\n        /* \"#utility.yul\":8828:8848   */\n      sub\n        /* \"#utility.yul\":8824:8825   */\n      0x00\n        /* \"#utility.yul\":8813:8822   */\n      dup4\n        /* \"#utility.yul\":8809:8826   */\n      add\n        /* \"#utility.yul\":8802:8849   */\n      mstore\n        /* \"#utility.yul\":8866:9014   */\n      tag_299\n        /* \"#utility.yul\":9009:9013   */\n      dup2\n        /* \"#utility.yul\":9000:9006   */\n      dup5\n        /* \"#utility.yul\":8866:9014   */\n      tag_174\n      jump\t// in\n    tag_299:\n        /* \"#utility.yul\":8858:9014   */\n      swap1\n      pop\n        /* \"#utility.yul\":8568:9021   */\n      swap3\n      swap2\n      pop\n      pop\n      jump\t// out\n        /* \"#utility.yul\":9027:9149   */\n    tag_175:\n        /* \"#utility.yul\":9100:9124   */\n      tag_301\n        /* \"#utility.yul\":9118:9123   */\n      dup2\n        /* \"#utility.yul\":9100:9124   */\n      tag_167\n      jump\t// in\n    tag_301:\n        /* \"#utility.yul\":9093:9098   */\n      dup2\n        /* \"#utility.yul\":9090:9125   */\n      eq\n        /* \"#utility.yul\":9080:9143   */\n      tag_302\n      jumpi\n        /* \"#utility.yul\":9139:9140   */\n      0x00\n        /* \"#utility.yul\":9136:9137   */\n      dup1\n        /* \"#utility.yul\":9129:9141   */\n      revert\n        /* \"#utility.yul\":9080:9143   */\n    tag_302:\n        /* \"#utility.yul\":9027:9149   */\n      pop\n      jump\t// out\n        /* \"#utility.yul\":9155:9294   */\n    tag_176:\n        /* \"#utility.yul\":9201:9206   */\n      0x00\n        /* \"#utility.yul\":9239:9245   */\n      dup2\n        /* \"#utility.yul\":9226:9246   */\n      calldataload\n        /* \"#utility.yul\":9217:9246   */\n      swap1\n      pop\n        /* \"#utility.yul\":9255:9288   */\n      tag_304\n        /* \"#utility.yul\":9282:9287   */\n      dup2\n        /* \"#utility.yul\":9255:9288   */\n      tag_175\n      jump\t// in\n    tag_304:\n        /* \"#utility.yul\":9155:9294   */\n      swap3\n      swap2\n      pop\n      pop\n      jump\t// out\n        /* \"#utility.yul\":9300:10099   */\n    tag_25:\n        /* \"#utility.yul\":9387:9393   */\n      0x00\n        /* \"#utility.yul\":9395:9401   */\n      dup1\n        /* \"#utility.yul\":9403:9409   */\n      0x00\n        /* \"#utility.yul\":9452:9454   */\n      0x60\n        /* \"#utility.yul\":9440:9449   */\n      dup5\n        /* \"#utility.yul\":9431:9438   */\n      dup7\n        /* \"#utility.yul\":9427:9450   */\n      sub\n        /* \"#utility.yul\":9423:9455   */\n      slt\n        /* \"#utility.yul\":9420:9539   */\n      iszero\n      tag_306\n      jumpi\n        /* \"#utility.yul\":9458:9537   */\n      tag_307\n      tag_144\n      jump\t// in\n    tag_307:\n        /* \"#utility.yul\":9420:9539   */\n    tag_306:\n        /* \"#utility.yul\":9606:9607   */\n      0x00\n        /* \"#utility.yul\":9595:9604   */\n      dup5\n        /* \"#utility.yul\":9591:9608   */\n      add\n        /* \"#utility.yul\":9578:9609   */\n      calldataload\n        /* \"#utility.yul\":9636:9654   */\n      0xffffffffffffffff\n        /* \"#utility.yul\":9628:9634   */\n      dup2\n        /* \"#utility.yul\":9625:9655   */\n      gt\n        /* \"#utility.yul\":9622:9739   */\n      iszero\n      tag_308\n      jumpi\n        /* \"#utility.yul\":9658:9737   */\n      tag_309\n      tag_145\n      jump\t// in\n    tag_309:\n        /* \"#utility.yul\":9622:9739   */\n    tag_308:\n        /* \"#utility.yul\":9763:9826   */\n      tag_310\n        /* \"#utility.yul\":9818:9825   */\n      dup7\n        /* \"#utility.yul\":9809:9815   */\n      dup3\n        /* \"#utility.yul\":9798:9807   */\n      dup8\n        /* \"#utility.yul\":9794:9816   */\n      add\n        /* \"#utility.yul\":9763:9826   */\n      tag_157\n      jump\t// in\n    tag_310:\n        /* \"#utility.yul\":9753:9826   */\n      swap4\n      pop\n        /* \"#utility.yul\":9549:9836   */\n      pop\n        /* \"#utility.yul\":9875:9877   */\n      0x20\n        /* \"#utility.yul\":9901:9954   */\n      tag_311\n        /* \"#utility.yul\":9946:9953   */\n      dup7\n        /* \"#utility.yul\":9937:9943   */\n      dup3\n        /* \"#utility.yul\":9926:9935   */\n      dup8\n        /* \"#utility.yul\":9922:9944   */\n      add\n        /* \"#utility.yul\":9901:9954   */\n      tag_176\n      jump\t// in\n    tag_311:\n        /* \"#utility.yul\":9891:9954   */\n      swap3\n      pop\n        /* \"#utility.yul\":9846:9964   */\n      pop\n        /* \"#utility.yul\":10003:10005   */\n      0x40\n        /* \"#utility.yul\":10029:10082   */\n      tag_312\n        /* \"#utility.yul\":10074:10081   */\n      dup7\n        /* \"#utility.yul\":10065:10071   */\n      dup3\n        /* \"#utility.yul\":10054:10063   */\n      dup8\n        /* \"#utility.yul\":10050:10072   */\n      add\n        /* \"#utility.yul\":10029:10082   */\n      tag_148\n      jump\t// in\n    tag_312:\n        /* \"#utility.yul\":10019:10082   */\n      swap2\n      pop\n        /* \"#utility.yul\":9974:10092   */\n      pop\n        /* \"#utility.yul\":9300:10099   */\n      swap3\n      pop\n      swap3\n      pop\n      swap3\n      jump\t// out\n        /* \"#utility.yul\":10105:10285   */\n    tag_33:\n        /* \"#utility.yul\":10153:10230   */\n      0x4e487b7100000000000000000000000000000000000000000000000000000000\n        /* \"#utility.yul\":10150:10151   */\n      0x00\n        /* \"#utility.yul\":10143:10231   */\n      mstore\n        /* \"#utility.yul\":10250:10254   */\n      0x32\n        /* \"#utility.yul\":10247:10248   */\n      0x04\n        /* \"#utility.yul\":10240:10255   */\n      mstore\n        /* \"#utility.yul\":10274:10278   */\n      0x24\n        /* \"#utility.yul\":10271:10272   */\n      0x00\n        /* \"#utility.yul\":10264:10279   */\n      revert\n        /* \"#utility.yul\":10291:10460   */\n    tag_177:\n        /* \"#utility.yul\":10375:10386   */\n      0x00\n        /* \"#utility.yul\":10409:10415   */\n      dup3\n        /* \"#utility.yul\":10404:10407   */\n      dup3\n        /* \"#utility.yul\":10397:10416   */\n      mstore\n        /* \"#utility.yul\":10449:10453   */\n      0x20\n        /* \"#utility.yul\":10444:10447   */\n      dup3\n        /* \"#utility.yul\":10440:10454   */\n      add\n        /* \"#utility.yul\":10425:10454   */\n      swap1\n      pop\n        /* \"#utility.yul\":10291:10460   */\n      swap3\n      swap2\n      pop\n      pop\n      jump\t// out\n        /* \"#utility.yul\":10466:10645   */\n    tag_178:\n        /* \"#utility.yul\":10606:10637   */\n      0x5468657265206973206e6f207461736b20576974682054686973204944000000\n        /* \"#utility.yul\":10602:10603   */\n      0x00\n        /* \"#utility.yul\":10594:10600   */\n      dup3\n        /* \"#utility.yul\":10590:10604   */\n      add\n        /* \"#utility.yul\":10583:10638   */\n      mstore\n        /* \"#utility.yul\":10466:10645   */\n      pop\n      jump\t// out\n        /* \"#utility.yul\":10651:11017   */\n    tag_179:\n        /* \"#utility.yul\":10793:10796   */\n      0x00\n        /* \"#utility.yul\":10814:10881   */\n      tag_317\n        /* \"#utility.yul\":10878:10880   */\n      0x1d\n        /* \"#utility.yul\":10873:10876   */\n      dup4\n        /* \"#utility.yul\":10814:10881   */\n      tag_177\n      jump\t// in\n    tag_317:\n        /* \"#utility.yul\":10807:10881   */\n      swap2\n      pop\n        /* \"#utility.yul\":10890:10983   */\n      tag_318\n        /* \"#utility.yul\":10979:10982   */\n      dup3\n        /* \"#utility.yul\":10890:10983   */\n      tag_178\n      jump\t// in\n    tag_318:\n        /* \"#utility.yul\":11008:11010   */\n      0x20\n        /* \"#utility.yul\":11003:11006   */\n      dup3\n        /* \"#utility.yul\":10999:11011   */\n      add\n        /* \"#utility.yul\":10992:11011   */\n      swap1\n      pop\n        /* \"#utility.yul\":10651:11017   */\n      swap2\n      swap1\n      pop\n      jump\t// out\n        /* \"#utility.yul\":11023:11442   */\n    tag_38:\n        /* \"#utility.yul\":11189:11193   */\n      0x00\n        /* \"#utility.yul\":11227:11229   */\n      0x20\n        /* \"#utility.yul\":11216:11225   */\n      dup3\n        /* \"#utility.yul\":11212:11230   */\n      add\n        /* \"#utility.yul\":11204:11230   */\n      swap1\n      pop\n        /* \"#utility.yul\":11276:11285   */\n      dup2\n        /* \"#utility.yul\":11270:11274   */\n      dup2\n        /* \"#utility.yul\":11266:11286   */\n      sub\n        /* \"#utility.yul\":11262:11263   */\n      0x00\n        /* \"#utility.yul\":11251:11260   */\n      dup4\n        /* \"#utility.yul\":11247:11264   */\n      add\n        /* \"#utility.yul\":11240:11287   */\n      mstore\n        /* \"#utility.yul\":11304:11435   */\n      tag_320\n        /* \"#utility.yul\":11430:11434   */\n      dup2\n        /* \"#utility.yul\":11304:11435   */\n      tag_179\n      jump\t// in\n    tag_320:\n        /* \"#utility.yul\":11296:11435   */\n      swap1\n      pop\n        /* \"#utility.yul\":11023:11442   */\n      swap2\n      swap1\n      pop\n      jump\t// out\n        /* \"#utility.yul\":11448:11623   */\n    tag_180:\n        /* \"#utility.yul\":11588:11615   */\n      0x5461736b20697320616c726561647920636f6d706c6574656400000000000000\n        /* \"#utility.yul\":11584:11585   */\n      0x00\n        /* \"#utility.yul\":11576:11582   */\n      dup3\n        /* \"#utility.yul\":11572:11586   */\n      add\n        /* \"#utility.yul\":11565:11616   */\n      mstore\n        /* \"#utility.yul\":11448:11623   */\n      pop\n      jump\t// out\n        /* \"#utility.yul\":11629:11995   */\n    tag_181:\n        /* \"#utility.yul\":11771:11774   */\n      0x00\n        /* \"#utility.yul\":11792:11859   */\n      tag_323\n        /* \"#utility.yul\":11856:11858   */\n      0x19\n        /* \"#utility.yul\":11851:11854   */\n      dup4\n        /* \"#utility.yul\":11792:11859   */\n      tag_177\n      jump\t// in\n    tag_323:\n        /* \"#utility.yul\":11785:11859   */\n      swap2\n      pop\n        /* \"#utility.yul\":11868:11961   */\n      tag_324\n        /* \"#utility.yul\":11957:11960   */\n      dup3\n        /* \"#utility.yul\":11868:11961   */\n      tag_180\n      jump\t// in\n    tag_324:\n        /* \"#utility.yul\":11986:11988   */\n      0x20\n        /* \"#utility.yul\":11981:11984   */\n      dup3\n        /* \"#utility.yul\":11977:11989   */\n      add\n        /* \"#utility.yul\":11970:11989   */\n      swap1\n      pop\n        /* \"#utility.yul\":11629:11995   */\n      swap2\n      swap1\n      pop\n      jump\t// out\n        /* \"#utility.yul\":12001:12420   */\n    tag_42:\n        /* \"#utility.yul\":12167:12171   */\n      0x00\n        /* \"#utility.yul\":12205:12207   */\n      0x20\n        /* \"#utility.yul\":12194:12203   */\n      dup3\n        /* \"#utility.yul\":12190:12208   */\n      add\n        /* \"#utility.yul\":12182:12208   */\n      swap1\n      pop\n        /* \"#utility.yul\":12254:12263   */\n      dup2\n        /* \"#utility.yul\":12248:12252   */\n      dup2\n        /* \"#utility.yul\":12244:12264   */\n      sub\n        /* \"#utility.yul\":12240:12241   */\n      0x00\n        /* \"#utility.yul\":12229:12238   */\n      dup4\n        /* \"#utility.yul\":12225:12242   */\n      add\n        /* \"#utility.yul\":12218:12265   */\n      mstore\n        /* \"#utility.yul\":12282:12413   */\n      tag_326\n        /* \"#utility.yul\":12408:12412   */\n      dup2\n        /* \"#utility.yul\":12282:12413   */\n      tag_181\n      jump\t// in\n    tag_326:\n        /* \"#utility.yul\":12274:12413   */\n      swap1\n      pop\n        /* \"#utility.yul\":12001:12420   */\n      swap2\n      swap1\n      pop\n      jump\t// out\n        /* \"#utility.yul\":12426:12597   */\n    tag_182:\n        /* \"#utility.yul\":12566:12589   */\n      0x596f7520617265206e6f7420746865206f776e65720000000000000000000000\n        /* \"#utility.yul\":12562:12563   */\n      0x00\n        /* \"#utility.yul\":12554:12560   */\n      dup3\n        /* \"#utility.yul\":12550:12564   */\n      add\n        /* \"#utility.yul\":12543:12590   */\n      mstore\n        /* \"#utility.yul\":12426:12597   */\n      pop\n      jump\t// out\n        /* \"#utility.yul\":12603:12969   */\n    tag_183:\n        /* \"#utility.yul\":12745:12748   */\n      0x00\n        /* \"#utility.yul\":12766:12833   */\n      tag_329\n        /* \"#utility.yul\":12830:12832   */\n      0x15\n        /* \"#utility.yul\":12825:12828   */\n      dup4\n        /* \"#utility.yul\":12766:12833   */\n      tag_177\n      jump\t// in\n    tag_329:\n        /* \"#utility.yul\":12759:12833   */\n      swap2\n      pop\n        /* \"#utility.yul\":12842:12935   */\n      tag_330\n        /* \"#utility.yul\":12931:12934   */\n      dup3\n        /* \"#utility.yul\":12842:12935   */\n      tag_182\n      jump\t// in\n    tag_330:\n        /* \"#utility.yul\":12960:12962   */\n      0x20\n        /* \"#utility.yul\":12955:12958   */\n      dup3\n        /* \"#utility.yul\":12951:12963   */\n      add\n        /* \"#utility.yul\":12944:12963   */\n      swap1\n      pop\n        /* \"#utility.yul\":12603:12969   */\n      swap2\n      swap1\n      pop\n      jump\t// out\n        /* \"#utility.yul\":12975:13394   */\n    tag_45:\n        /* \"#utility.yul\":13141:13145   */\n      0x00\n        /* \"#utility.yul\":13179:13181   */\n      0x20\n        /* \"#utility.yul\":13168:13177   */\n      dup3\n        /* \"#utility.yul\":13164:13182   */\n      add\n        /* \"#utility.yul\":13156:13182   */\n      swap1\n      pop\n        /* \"#utility.yul\":13228:13237   */\n      dup2\n        /* \"#utility.yul\":13222:13226   */\n      dup2\n        /* \"#utility.yul\":13218:13238   */\n      sub\n        /* \"#utility.yul\":13214:13215   */\n      0x00\n        /* \"#utility.yul\":13203:13212   */\n      dup4\n        /* \"#utility.yul\":13199:13216   */\n      add\n        /* \"#utility.yul\":13192:13239   */\n      mstore\n        /* \"#utility.yul\":13256:13387   */\n      tag_332\n        /* \"#utility.yul\":13382:13386   */\n      dup2\n        /* \"#utility.yul\":13256:13387   */\n      tag_183\n      jump\t// in\n    tag_332:\n        /* \"#utility.yul\":13248:13387   */\n      swap1\n      pop\n        /* \"#utility.yul\":12975:13394   */\n      swap2\n      swap1\n      pop\n      jump\t// out\n        /* \"#utility.yul\":13400:13566   */\n    tag_184:\n        /* \"#utility.yul\":13540:13558   */\n      0x4d75737420626520353020776f72647300000000000000000000000000000000\n        /* \"#utility.yul\":13536:13537   */\n      0x00\n        /* \"#utility.yul\":13528:13534   */\n      dup3\n        /* \"#utility.yul\":13524:13538   */\n      add\n        /* \"#utility.yul\":13517:13559   */\n      mstore\n        /* \"#utility.yul\":13400:13566   */\n      pop\n      jump\t// out\n        /* \"#utility.yul\":13572:13938   */\n    tag_185:\n        /* \"#utility.yul\":13714:13717   */\n      0x00\n        /* \"#utility.yul\":13735:13802   */\n      tag_335\n        /* \"#utility.yul\":13799:13801   */\n      0x10\n        /* \"#utility.yul\":13794:13797   */\n      dup4\n        /* \"#utility.yul\":13735:13802   */\n      tag_177\n      jump\t// in\n    tag_335:\n        /* \"#utility.yul\":13728:13802   */\n      swap2\n      pop\n        /* \"#utility.yul\":13811:13904   */\n      tag_336\n        /* \"#utility.yul\":13900:13903   */\n      dup3\n        /* \"#utility.yul\":13811:13904   */\n      tag_184\n      jump\t// in\n    tag_336:\n        /* \"#utility.yul\":13929:13931   */\n      0x20\n        /* \"#utility.yul\":13924:13927   */\n      dup3\n        /* \"#utility.yul\":13920:13932   */\n      add\n        /* \"#utility.yul\":13913:13932   */\n      swap1\n      pop\n        /* \"#utility.yul\":13572:13938   */\n      swap2\n      swap1\n      pop\n      jump\t// out\n        /* \"#utility.yul\":13944:14363   */\n    tag_61:\n        /* \"#utility.yul\":14110:14114   */\n      0x00\n        /* \"#utility.yul\":14148:14150   */\n      0x20\n        /* \"#utility.yul\":14137:14146   */\n      dup3\n        /* \"#utility.yul\":14133:14151   */\n      add\n        /* \"#utility.yul\":14125:14151   */\n      swap1\n      pop\n        /* \"#utility.yul\":14197:14206   */\n      dup2\n        /* \"#utility.yul\":14191:14195   */\n      dup2\n        /* \"#utility.yul\":14187:14207   */\n      sub\n        /* \"#utility.yul\":14183:14184   */\n      0x00\n        /* \"#utility.yul\":14172:14181   */\n      dup4\n        /* \"#utility.yul\":14168:14185   */\n      add\n        /* \"#utility.yul\":14161:14208   */\n      mstore\n        /* \"#utility.yul\":14225:14356   */\n      tag_338\n        /* \"#utility.yul\":14351:14355   */\n      dup2\n        /* \"#utility.yul\":14225:14356   */\n      tag_185\n      jump\t// in\n    tag_338:\n        /* \"#utility.yul\":14217:14356   */\n      swap1\n      pop\n        /* \"#utility.yul\":13944:14363   */\n      swap2\n      swap1\n      pop\n      jump\t// out\n        /* \"#utility.yul\":14369:14549   */\n    tag_186:\n        /* \"#utility.yul\":14417:14494   */\n      0x4e487b7100000000000000000000000000000000000000000000000000000000\n        /* \"#utility.yul\":14414:14415   */\n      0x00\n        /* \"#utility.yul\":14407:14495   */\n      mstore\n        /* \"#utility.yul\":14514:14518   */\n      0x22\n        /* \"#utility.yul\":14511:14512   */\n      0x04\n        /* \"#utility.yul\":14504:14519   */\n      mstore\n        /* \"#utility.yul\":14538:14542   */\n      0x24\n        /* \"#utility.yul\":14535:14536   */\n      0x00\n        /* \"#utility.yul\":14528:14543   */\n      revert\n        /* \"#utility.yul\":14555:14875   */\n    tag_116:\n        /* \"#utility.yul\":14599:14605   */\n      0x00\n        /* \"#utility.yul\":14636:14637   */\n      0x02\n        /* \"#utility.yul\":14630:14634   */\n      dup3\n        /* \"#utility.yul\":14626:14638   */\n      div\n        /* \"#utility.yul\":14616:14638   */\n      swap1\n      pop\n        /* \"#utility.yul\":14683:14684   */\n      0x01\n        /* \"#utility.yul\":14677:14681   */\n      dup3\n        /* \"#utility.yul\":14673:14685   */\n      and\n        /* \"#utility.yul\":14704:14722   */\n      dup1\n        /* \"#utility.yul\":14694:14775   */\n      tag_341\n      jumpi\n        /* \"#utility.yul\":14760:14764   */\n      0x7f\n        /* \"#utility.yul\":14752:14758   */\n      dup3\n        /* \"#utility.yul\":14748:14765   */\n      and\n        /* \"#utility.yul\":14738:14765   */\n      swap2\n      pop\n        /* \"#utility.yul\":14694:14775   */\n    tag_341:\n        /* \"#utility.yul\":14822:14824   */\n      0x20\n        /* \"#utility.yul\":14814:14820   */\n      dup3\n        /* \"#utility.yul\":14811:14825   */\n      lt\n        /* \"#utility.yul\":14791:14809   */\n      dup2\n        /* \"#utility.yul\":14788:14826   */\n      sub\n        /* \"#utility.yul\":14785:14869   */\n      tag_342\n      jumpi\n        /* \"#utility.yul\":14841:14859   */\n      tag_343\n      tag_186\n      jump\t// in\n    tag_343:\n        /* \"#utility.yul\":14785:14869   */\n    tag_342:\n        /* \"#utility.yul\":14606:14875   */\n      pop\n        /* \"#utility.yul\":14555:14875   */\n      swap2\n      swap1\n      pop\n      jump\t// out\n        /* \"#utility.yul\":14881:15022   */\n    tag_187:\n        /* \"#utility.yul\":14930:14934   */\n      0x00\n        /* \"#utility.yul\":14953:14956   */\n      dup2\n        /* \"#utility.yul\":14945:14956   */\n      swap1\n      pop\n        /* \"#utility.yul\":14976:14979   */\n      dup2\n        /* \"#utility.yul\":14973:14974   */\n      0x00\n        /* \"#utility.yul\":14966:14980   */\n      mstore\n        /* \"#utility.yul\":15010:15014   */\n      0x20\n        /* \"#utility.yul\":15007:15008   */\n      0x00\n        /* \"#utility.yul\":14997:15015   */\n      keccak256\n        /* \"#utility.yul\":14989:15015   */\n      swap1\n      pop\n        /* \"#utility.yul\":14881:15022   */\n      swap2\n      swap1\n      pop\n      jump\t// out\n        /* \"#utility.yul\":15028:15121   */\n    tag_188:\n        /* \"#utility.yul\":15065:15071   */\n      0x00\n        /* \"#utility.yul\":15112:15114   */\n      0x20\n        /* \"#utility.yul\":15107:15109   */\n      0x1f\n        /* \"#utility.yul\":15100:15105   */\n      dup4\n        /* \"#utility.yul\":15096:15110   */\n      add\n        /* \"#utility.yul\":15092:15115   */\n      div\n        /* \"#utility.yul\":15082:15115   */\n      swap1\n      pop\n        /* \"#utility.yul\":15028:15121   */\n      swap2\n      swap1\n      pop\n      jump\t// out\n        /* \"#utility.yul\":15127:15234   */\n    tag_189:\n        /* \"#utility.yul\":15171:15179   */\n      0x00\n        /* \"#utility.yul\":15221:15226   */\n      dup3\n        /* \"#utility.yul\":15215:15219   */\n      dup3\n        /* \"#utility.yul\":15211:15227   */\n      shl\n        /* \"#utility.yul\":15190:15227   */\n      swap1\n      pop\n        /* \"#utility.yul\":15127:15234   */\n      swap3\n      swap2\n      pop\n      pop\n      jump\t// out\n        /* \"#utility.yul\":15240:15633   */\n    tag_190:\n        /* \"#utility.yul\":15309:15315   */\n      0x00\n        /* \"#utility.yul\":15359:15360   */\n      0x08\n        /* \"#utility.yul\":15347:15357   */\n      dup4\n        /* \"#utility.yul\":15343:15361   */\n      mul\n        /* \"#utility.yul\":15382:15479   */\n      tag_348\n        /* \"#utility.yul\":15412:15478   */\n      0xffffffffffffffffffffffffffffffffffffffffffffffffffffffffffffffff\n        /* \"#utility.yul\":15401:15410   */\n      dup3\n        /* \"#utility.yul\":15382:15479   */\n      tag_189\n      jump\t// in\n    tag_348:\n        /* \"#utility.yul\":15500:15539   */\n      tag_349\n        /* \"#utility.yul\":15530:15538   */\n      dup7\n        /* \"#utility.yul\":15519:15528   */\n      dup4\n        /* \"#utility.yul\":15500:15539   */\n      tag_189\n      jump\t// in\n    tag_349:\n        /* \"#utility.yul\":15488:15539   */\n      swap6\n      pop\n        /* \"#utility.yul\":15572:15576   */\n      dup1\n        /* \"#utility.yul\":15568:15577   */\n      not\n        /* \"#utility.yul\":15561:15566   */\n      dup5\n        /* \"#utility.yul\":15557:15578   */\n      and\n        /* \"#utility.yul\":15548:15578   */\n      swap4\n      pop\n        /* \"#utility.yul\":15621:15625   */\n      dup1\n        /* \"#utility.yul\":15611:15619   */\n      dup7\n        /* \"#utility.yul\":15607:15626   */\n      and\n        /* \"#utility.yul\":15600:15605   */\n      dup5\n        /* \"#utility.yul\":15597:15627   */\n      or\n        /* \"#utility.yul\":15587:15627   */\n      swap3\n      pop\n        /* \"#utility.yul\":15316:15633   */\n      pop\n      pop\n        /* \"#utility.yul\":15240:15633   */\n      swap4\n      swap3\n      pop\n      pop\n      pop\n      jump\t// out\n        /* \"#utility.yul\":15639:15699   */\n    tag_191:\n        /* \"#utility.yul\":15667:15670   */\n      0x00\n        /* \"#utility.yul\":15688:15693   */\n      dup2\n        /* \"#utility.yul\":15681:15693   */\n      swap1\n      pop\n        /* \"#utility.yul\":15639:15699   */\n      swap2\n      swap1\n      pop\n      jump\t// out\n        /* \"#utility.yul\":15705:15847   */\n    tag_192:\n        /* \"#utility.yul\":15755:15764   */\n      0x00\n        /* \"#utility.yul\":15788:15841   */\n      tag_352\n        /* \"#utility.yul\":15806:15840   */\n      tag_353\n        /* \"#utility.yul\":15815:15839   */\n      tag_354\n        /* \"#utility.yul\":15833:15838   */\n      dup5\n        /* \"#utility.yul\":15815:15839   */\n      tag_146\n      jump\t// in\n    tag_354:\n        /* \"#utility.yul\":15806:15840   */\n      tag_191\n      jump\t// in\n    tag_353:\n        /* \"#utility.yul\":15788:15841   */\n      tag_146\n      jump\t// in\n    tag_352:\n        /* \"#utility.yul\":15775:15841   */\n      swap1\n      pop\n        /* \"#utility.yul\":15705:15847   */\n      swap2\n      swap1\n      pop\n      jump\t// out\n        /* \"#utility.yul\":15853:15928   */\n    tag_193:\n        /* \"#utility.yul\":15896:15899   */\n      0x00\n        /* \"#utility.yul\":15917:15922   */\n      dup2\n        /* \"#utility.yul\":15910:15922   */\n      swap1\n      pop\n        /* \"#utility.yul\":15853:15928   */\n      swap2\n      swap1\n      pop\n      jump\t// out\n        /* \"#utility.yul\":15934:16203   */\n    tag_194:\n        /* \"#utility.yul\":16044:16083   */\n      tag_357\n        /* \"#utility.yul\":16075:16082   */\n      dup4\n        /* \"#utility.yul\":16044:16083   */\n      tag_192\n      jump\t// in\n    tag_357:\n        /* \"#utility.yul\":16105:16196   */\n      tag_358\n        /* \"#utility.yul\":16154:16195   */\n      tag_359\n        /* \"#utility.yul\":16178:16194   */\n      dup3\n        /* \"#utility.yul\":16154:16195   */\n      tag_193\n      jump\t// in\n    tag_359:\n        /* \"#utility.yul\":16146:16152   */\n      dup5\n        /* \"#utility.yul\":16139:16143   */\n      dup5\n        /* \"#utility.yul\":16133:16144   */\n      sload\n        /* \"#utility.yul\":16105:16196   */\n      tag_190\n      jump\t// in\n    tag_358:\n        /* \"#utility.yul\":16099:16103   */\n      dup3\n        /* \"#utility.yul\":16092:16197   */\n      sstore\n        /* \"#utility.yul\":16010:16203   */\n      pop\n        /* \"#utility.yul\":15934:16203   */\n      pop\n      pop\n      pop\n      jump\t// out\n        /* \"#utility.yul\":16209:16282   */\n    tag_195:\n        /* \"#utility.yul\":16254:16257   */\n      0x00\n        /* \"#utility.yul\":16209:16282   */\n      swap1\n      jump\t// out\n        /* \"#utility.yul\":16288:16477   */\n    tag_196:\n        /* \"#utility.yul\":16365:16397   */\n      tag_362\n      tag_195\n      jump\t// in\n    tag_362:\n        /* \"#utility.yul\":16406:16471   */\n      tag_363\n        /* \"#utility.yul\":16464:16470   */\n      dup2\n        /* \"#utility.yul\":16456:16462   */\n      dup5\n        /* \"#utility.yul\":16450:16454   */\n      dup5\n        /* \"#utility.yul\":16406:16471   */\n      tag_194\n      jump\t// in\n    tag_363:\n        /* \"#utility.yul\":16341:16477   */\n      pop\n        /* \"#utility.yul\":16288:16477   */\n      pop\n      pop\n      jump\t// out\n        /* \"#utility.yul\":16483:16669   */\n    tag_197:\n        /* \"#utility.yul\":16543:16663   */\n    tag_365:\n        /* \"#utility.yul\":16560:16563   */\n      dup2\n        /* \"#utility.yul\":16553:16558   */\n      dup2\n        /* \"#utility.yul\":16550:16564   */\n      lt\n        /* \"#utility.yul\":16543:16663   */\n      iszero\n      tag_367\n      jumpi\n        /* \"#utility.yul\":16614:16653   */\n      tag_368\n        /* \"#utility.yul\":16651:16652   */\n      0x00\n        /* \"#utility.yul\":16644:16649   */\n      dup3\n        /* \"#utility.yul\":16614:16653   */\n      tag_196\n      jump\t// in\n    tag_368:\n        /* \"#utility.yul\":16587:16588   */\n      0x01\n        /* \"#utility.yul\":16580:16585   */\n      dup2\n        /* \"#utility.yul\":16576:16589   */\n      add\n        /* \"#utility.yul\":16567:16589   */\n      swap1\n      pop\n        /* \"#utility.yul\":16543:16663   */\n      jump(tag_365)\n    tag_367:\n        /* \"#utility.yul\":16483:16669   */\n      pop\n      pop\n      jump\t// out\n        /* \"#utility.yul\":16675:17218   */\n    tag_198:\n        /* \"#utility.yul\":16776:16778   */\n      0x1f\n        /* \"#utility.yul\":16771:16774   */\n      dup3\n        /* \"#utility.yul\":16768:16779   */\n      gt\n        /* \"#utility.yul\":16765:17211   */\n      iszero\n      tag_370\n      jumpi\n        /* \"#utility.yul\":16810:16848   */\n      tag_371\n        /* \"#utility.yul\":16842:16847   */\n      dup2\n        /* \"#utility.yul\":16810:16848   */\n      tag_187\n      jump\t// in\n    tag_371:\n        /* \"#utility.yul\":16894:16923   */\n      tag_372\n        /* \"#utility.yul\":16912:16922   */\n      dup5\n        /* \"#utility.yul\":16894:16923   */\n      tag_188\n      jump\t// in\n    tag_372:\n        /* \"#utility.yul\":16884:16892   */\n      dup2\n        /* \"#utility.yul\":16880:16924   */\n      add\n        /* \"#utility.yul\":17077:17079   */\n      0x20\n        /* \"#utility.yul\":17065:17075   */\n      dup6\n        /* \"#utility.yul\":17062:17080   */\n      lt\n        /* \"#utility.yul\":17059:17108   */\n      iszero\n      tag_373\n      jumpi\n        /* \"#utility.yul\":17098:17106   */\n      dup2\n        /* \"#utility.yul\":17083:17106   */\n      swap1\n      pop\n        /* \"#utility.yul\":17059:17108   */\n    tag_373:\n        /* \"#utility.yul\":17121:17201   */\n      tag_374\n        /* \"#utility.yul\":17177:17199   */\n      tag_375\n        /* \"#utility.yul\":17195:17198   */\n      dup6\n        /* \"#utility.yul\":17177:17199   */\n      tag_188\n      jump\t// in\n    tag_375:\n        /* \"#utility.yul\":17167:17175   */\n      dup4\n        /* \"#utility.yul\":17163:17200   */\n      add\n        /* \"#utility.yul\":17150:17161   */\n      dup3\n        /* \"#utility.yul\":17121:17201   */\n      tag_197\n      jump\t// in\n    tag_374:\n        /* \"#utility.yul\":16780:17211   */\n      pop\n      pop\n        /* \"#utility.yul\":16765:17211   */\n    tag_370:\n        /* \"#utility.yul\":16675:17218   */\n      pop\n      pop\n      pop\n      jump\t// out\n        /* \"#utility.yul\":17224:17341   */\n    tag_199:\n        /* \"#utility.yul\":17278:17286   */\n      0x00\n        /* \"#utility.yul\":17328:17333   */\n      dup3\n        /* \"#utility.yul\":17322:17326   */\n      dup3\n        /* \"#utility.yul\":17318:17334   */\n      shr\n        /* \"#utility.yul\":17297:17334   */\n      swap1\n      pop\n        /* \"#utility.yul\":17224:17341   */\n      swap3\n      swap2\n      pop\n      pop\n      jump\t// out\n        /* \"#utility.yul\":17347:17516   */\n    tag_200:\n        /* \"#utility.yul\":17391:17397   */\n      0x00\n        /* \"#utility.yul\":17424:17475   */\n      tag_378\n        /* \"#utility.yul\":17472:17473   */\n      0x00\n        /* \"#utility.yul\":17468:17474   */\n      not\n        /* \"#utility.yul\":17460:17465   */\n      dup5\n        /* \"#utility.yul\":17457:17458   */\n      0x08\n        /* \"#utility.yul\":17453:17466   */\n      mul\n        /* \"#utility.yul\":17424:17475   */\n      tag_199\n      jump\t// in\n    tag_378:\n        /* \"#utility.yul\":17420:17476   */\n      not\n        /* \"#utility.yul\":17505:17509   */\n      dup1\n        /* \"#utility.yul\":17499:17503   */\n      dup4\n        /* \"#utility.yul\":17495:17510   */\n      and\n        /* \"#utility.yul\":17485:17510   */\n      swap2\n      pop\n        /* \"#utility.yul\":17398:17516   */\n      pop\n        /* \"#utility.yul\":17347:17516   */\n      swap3\n      swap2\n      pop\n      pop\n      jump\t// out\n        /* \"#utility.yul\":17521:17816   */\n    tag_201:\n        /* \"#utility.yul\":17597:17601   */\n      0x00\n        /* \"#utility.yul\":17743:17772   */\n      tag_380\n        /* \"#utility.yul\":17768:17771   */\n      dup4\n        /* \"#utility.yul\":17762:17766   */\n      dup4\n        /* \"#utility.yul\":17743:17772   */\n      tag_200\n      jump\t// in\n    tag_380:\n        /* \"#utility.yul\":17735:17772   */\n      swap2\n      pop\n        /* \"#utility.yul\":17805:17808   */\n      dup3\n        /* \"#utility.yul\":17802:17803   */\n      0x02\n        /* \"#utility.yul\":17798:17809   */\n      mul\n        /* \"#utility.yul\":17792:17796   */\n      dup3\n        /* \"#utility.yul\":17789:17810   */\n      or\n        /* \"#utility.yul\":17781:17810   */\n      swap1\n      pop\n        /* \"#utility.yul\":17521:17816   */\n      swap3\n      swap2\n      pop\n      pop\n      jump\t// out\n        /* \"#utility.yul\":17821:19216   */\n    tag_63:\n        /* \"#utility.yul\":17938:17975   */\n      tag_382\n        /* \"#utility.yul\":17971:17974   */\n      dup3\n        /* \"#utility.yul\":17938:17975   */\n      tag_162\n      jump\t// in\n    tag_382:\n        /* \"#utility.yul\":18040:18058   */\n      0xffffffffffffffff\n        /* \"#utility.yul\":18032:18038   */\n      dup2\n        /* \"#utility.yul\":18029:18059   */\n      gt\n        /* \"#utility.yul\":18026:18082   */\n      iszero\n      tag_383\n      jumpi\n        /* \"#utility.yul\":18062:18080   */\n      tag_384\n      tag_104\n      jump\t// in\n    tag_384:\n        /* \"#utility.yul\":18026:18082   */\n    tag_383:\n        /* \"#utility.yul\":18106:18144   */\n      tag_385\n        /* \"#utility.yul\":18138:18142   */\n      dup3\n        /* \"#utility.yul\":18132:18143   */\n      sload\n        /* \"#utility.yul\":18106:18144   */\n      tag_116\n      jump\t// in\n    tag_385:\n        /* \"#utility.yul\":18191:18258   */\n      tag_386\n        /* \"#utility.yul\":18251:18257   */\n      dup3\n        /* \"#utility.yul\":18243:18249   */\n      dup3\n        /* \"#utility.yul\":18237:18241   */\n      dup6\n        /* \"#utility.yul\":18191:18258   */\n      tag_198\n      jump\t// in\n    tag_386:\n        /* \"#utility.yul\":18285:18286   */\n      0x00\n        /* \"#utility.yul\":18309:18313   */\n      0x20\n        /* \"#utility.yul\":18296:18313   */\n      swap1\n      pop\n        /* \"#utility.yul\":18341:18343   */\n      0x1f\n        /* \"#utility.yul\":18333:18339   */\n      dup4\n        /* \"#utility.yul\":18330:18344   */\n      gt\n        /* \"#utility.yul\":18358:18359   */\n      0x01\n        /* \"#utility.yul\":18353:18971   */\n      dup2\n      eq\n      tag_388\n      jumpi\n        /* \"#utility.yul\":19015:19016   */\n      0x00\n        /* \"#utility.yul\":19032:19038   */\n      dup5\n        /* \"#utility.yul\":19029:19106   */\n      iszero\n      tag_389\n      jumpi\n        /* \"#utility.yul\":19081:19090   */\n      dup3\n        /* \"#utility.yul\":19076:19079   */\n      dup8\n        /* \"#utility.yul\":19072:19091   */\n      add\n        /* \"#utility.yul\":19066:19092   */\n      mload\n        /* \"#utility.yul\":19057:19092   */\n      swap1\n      pop\n        /* \"#utility.yul\":19029:19106   */\n    tag_389:\n        /* \"#utility.yul\":19132:19199   */\n      tag_390\n        /* \"#utility.yul\":19192:19198   */\n      dup6\n        /* \"#utility.yul\":19185:19190   */\n      dup3\n        /* \"#utility.yul\":19132:19199   */\n      tag_201\n      jump\t// in\n    tag_390:\n        /* \"#utility.yul\":19126:19130   */\n      dup7\n        /* \"#utility.yul\":19119:19200   */\n      sstore\n        /* \"#utility.yul\":18988:19210   */\n      pop\n        /* \"#utility.yul\":18323:19210   */\n      jump(tag_387)\n        /* \"#utility.yul\":18353:18971   */\n    tag_388:\n        /* \"#utility.yul\":18405:18409   */\n      0x1f\n        /* \"#utility.yul\":18401:18410   */\n      not\n        /* \"#utility.yul\":18393:18399   */\n      dup5\n        /* \"#utility.yul\":18389:18411   */\n      and\n        /* \"#utility.yul\":18439:18476   */\n      tag_391\n        /* \"#utility.yul\":18471:18475   */\n      dup7\n        /* \"#utility.yul\":18439:18476   */\n      tag_187\n      jump\t// in\n    tag_391:\n        /* \"#utility.yul\":18498:18499   */\n      0x00\n        /* \"#utility.yul\":18512:18720   */\n    tag_392:\n        /* \"#utility.yul\":18526:18533   */\n      dup3\n        /* \"#utility.yul\":18523:18524   */\n      dup2\n        /* \"#utility.yul\":18520:18534   */\n      lt\n        /* \"#utility.yul\":18512:18720   */\n      iszero\n      tag_394\n      jumpi\n        /* \"#utility.yul\":18605:18614   */\n      dup5\n        /* \"#utility.yul\":18600:18603   */\n      dup10\n        /* \"#utility.yul\":18596:18615   */\n      add\n        /* \"#utility.yul\":18590:18616   */\n      mload\n        /* \"#utility.yul\":18582:18588   */\n      dup3\n        /* \"#utility.yul\":18575:18617   */\n      sstore\n        /* \"#utility.yul\":18656:18657   */\n      0x01\n        /* \"#utility.yul\":18648:18654   */\n      dup3\n        /* \"#utility.yul\":18644:18658   */\n      add\n        /* \"#utility.yul\":18634:18658   */\n      swap2\n      pop\n        /* \"#utility.yul\":18703:18705   */\n      0x20\n        /* \"#utility.yul\":18692:18701   */\n      dup6\n        /* \"#utility.yul\":18688:18706   */\n      add\n        /* \"#utility.yul\":18675:18706   */\n      swap5\n      pop\n        /* \"#utility.yul\":18549:18553   */\n      0x20\n        /* \"#utility.yul\":18546:18547   */\n      dup2\n        /* \"#utility.yul\":18542:18554   */\n      add\n        /* \"#utility.yul\":18537:18554   */\n      swap1\n      pop\n        /* \"#utility.yul\":18512:18720   */\n      jump(tag_392)\n    tag_394:\n        /* \"#utility.yul\":18748:18754   */\n      dup7\n        /* \"#utility.yul\":18739:18746   */\n      dup4\n        /* \"#utility.yul\":18736:18755   */\n      lt\n        /* \"#utility.yul\":18733:18912   */\n      iszero\n      tag_395\n      jumpi\n        /* \"#utility.yul\":18806:18815   */\n      dup5\n        /* \"#utility.yul\":18801:18804   */\n      dup10\n        /* \"#utility.yul\":18797:18816   */\n      add\n        /* \"#utility.yul\":18791:18817   */\n      mload\n        /* \"#utility.yul\":18849:18897   */\n      tag_396\n        /* \"#utility.yul\":18891:18895   */\n      0x1f\n        /* \"#utility.yul\":18883:18889   */\n      dup10\n        /* \"#utility.yul\":18879:18896   */\n      and\n        /* \"#utility.yul\":18868:18877   */\n      dup3\n        /* \"#utility.yul\":18849:18897   */\n      tag_200\n      jump\t// in\n    tag_396:\n        /* \"#utility.yul\":18841:18847   */\n      dup4\n        /* \"#utility.yul\":18834:18898   */\n      sstore\n        /* \"#utility.yul\":18756:18912   */\n      pop\n        /* \"#utility.yul\":18733:18912   */\n    tag_395:\n        /* \"#utility.yul\":18958:18959   */\n      0x01\n        /* \"#utility.yul\":18954:18955   */\n      0x02\n        /* \"#utility.yul\":18946:18952   */\n      dup9\n        /* \"#utility.yul\":18942:18956   */\n      mul\n        /* \"#utility.yul\":18938:18960   */\n      add\n        /* \"#utility.yul\":18932:18936   */\n      dup9\n        /* \"#utility.yul\":18925:18961   */\n      sstore\n        /* \"#utility.yul\":18360:18971   */\n      pop\n      pop\n      pop\n        /* \"#utility.yul\":18323:19210   */\n    tag_387:\n      pop\n        /* \"#utility.yul\":17913:19216   */\n      pop\n      pop\n      pop\n        /* \"#utility.yul\":17821:19216   */\n      pop\n      pop\n      jump\t// out\n        /* \"#utility.yul\":19222:19399   */\n    tag_202:\n        /* \"#utility.yul\":19362:19391   */\n      0x5468657265206973206e6f205461736b20627920746869732069640000000000\n        /* \"#utility.yul\":19358:19359   */\n      0x00\n        /* \"#utility.yul\":19350:19356   */\n      dup3\n        /* \"#utility.yul\":19346:19360   */\n      add\n        /* \"#utility.yul\":19339:19392   */\n      mstore\n        /* \"#utility.yul\":19222:19399   */\n      pop\n      jump\t// out\n        /* \"#utility.yul\":19405:19771   */\n    tag_203:\n        /* \"#utility.yul\":19547:19550   */\n      0x00\n        /* \"#utility.yul\":19568:19635   */\n      tag_399\n        /* \"#utility.yul\":19632:19634   */\n      0x1b\n        /* \"#utility.yul\":19627:19630   */\n      dup4\n        /* \"#utility.yul\":19568:19635   */\n      tag_177\n      jump\t// in\n    tag_399:\n        /* \"#utility.yul\":19561:19635   */\n      swap2\n      pop\n        /* \"#utility.yul\":19644:19737   */\n      tag_400\n        /* \"#utility.yul\":19733:19736   */\n      dup3\n        /* \"#utility.yul\":19644:19737   */\n      tag_202\n      jump\t// in\n    tag_400:\n        /* \"#utility.yul\":19762:19764   */\n      0x20\n        /* \"#utility.yul\":19757:19760   */\n      dup3\n        /* \"#utility.yul\":19753:19765   */\n      add\n        /* \"#utility.yul\":19746:19765   */\n      swap1\n      pop\n        /* \"#utility.yul\":19405:19771   */\n      swap2\n      swap1\n      pop\n      jump\t// out\n        /* \"#utility.yul\":19777:20196   */\n    tag_88:\n        /* \"#utility.yul\":19943:19947   */\n      0x00\n        /* \"#utility.yul\":19981:19983   */\n      0x20\n        /* \"#utility.yul\":19970:19979   */\n      dup3\n        /* \"#utility.yul\":19966:19984   */\n      add\n        /* \"#utility.yul\":19958:19984   */\n      swap1\n      pop\n        /* \"#utility.yul\":20030:20039   */\n      dup2\n        /* \"#utility.yul\":20024:20028   */\n      dup2\n        /* \"#utility.yul\":20020:20040   */\n      sub\n        /* \"#utility.yul\":20016:20017   */\n      0x00\n        /* \"#utility.yul\":20005:20014   */\n      dup4\n        /* \"#utility.yul\":20001:20018   */\n      add\n        /* \"#utility.yul\":19994:20041   */\n      mstore\n        /* \"#utility.yul\":20058:20189   */\n      tag_402\n        /* \"#utility.yul\":20184:20188   */\n      dup2\n        /* \"#utility.yul\":20058:20189   */\n      tag_203\n      jump\t// in\n    tag_402:\n        /* \"#utility.yul\":20050:20189   */\n      swap1\n      pop\n        /* \"#utility.yul\":19777:20196   */\n      swap2\n      swap1\n      pop\n      jump\t// out\n        /* \"#utility.yul\":20202:20382   */\n    tag_204:\n        /* \"#utility.yul\":20250:20327   */\n      0x4e487b7100000000000000000000000000000000000000000000000000000000\n        /* \"#utility.yul\":20247:20248   */\n      0x00\n        /* \"#utility.yul\":20240:20328   */\n      mstore\n        /* \"#utility.yul\":20347:20351   */\n      0x11\n        /* \"#utility.yul\":20344:20345   */\n      0x04\n        /* \"#utility.yul\":20337:20352   */\n      mstore\n        /* \"#utility.yul\":20371:20375   */\n      0x24\n        /* \"#utility.yul\":20368:20369   */\n      0x00\n        /* \"#utility.yul\":20361:20376   */\n      revert\n        /* \"#utility.yul\":20388:20582   */\n    tag_90:\n        /* \"#utility.yul\":20428:20432   */\n      0x00\n        /* \"#utility.yul\":20448:20468   */\n      tag_405\n        /* \"#utility.yul\":20466:20467   */\n      dup3\n        /* \"#utility.yul\":20448:20468   */\n      tag_146\n      jump\t// in\n    tag_405:\n        /* \"#utility.yul\":20443:20468   */\n      swap2\n      pop\n        /* \"#utility.yul\":20482:20502   */\n      tag_406\n        /* \"#utility.yul\":20500:20501   */\n      dup4\n        /* \"#utility.yul\":20482:20502   */\n      tag_146\n      jump\t// in\n    tag_406:\n        /* \"#utility.yul\":20477:20502   */\n      swap3\n      pop\n        /* \"#utility.yul\":20526:20527   */\n      dup3\n        /* \"#utility.yul\":20523:20524   */\n      dup3\n        /* \"#utility.yul\":20519:20528   */\n      sub\n        /* \"#utility.yul\":20511:20528   */\n      swap1\n      pop\n        /* \"#utility.yul\":20550:20551   */\n      dup2\n        /* \"#utility.yul\":20544:20548   */\n      dup2\n        /* \"#utility.yul\":20541:20552   */\n      gt\n        /* \"#utility.yul\":20538:20575   */\n      iszero\n      tag_407\n      jumpi\n        /* \"#utility.yul\":20555:20573   */\n      tag_408\n      tag_204\n      jump\t// in\n    tag_408:\n        /* \"#utility.yul\":20538:20575   */\n    tag_407:\n        /* \"#utility.yul\":20388:20582   */\n      swap3\n      swap2\n      pop\n      pop\n      jump\t// out\n        /* \"#utility.yul\":20588:20768   */\n    tag_99:\n        /* \"#utility.yul\":20636:20713   */\n      0x4e487b7100000000000000000000000000000000000000000000000000000000\n        /* \"#utility.yul\":20633:20634   */\n      0x00\n        /* \"#utility.yul\":20626:20714   */\n      mstore\n        /* \"#utility.yul\":20733:20737   */\n      0x31\n        /* \"#utility.yul\":20730:20731   */\n      0x04\n        /* \"#utility.yul\":20723:20738   */\n      mstore\n        /* \"#utility.yul\":20757:20761   */\n      0x24\n        /* \"#utility.yul\":20754:20755   */\n      0x00\n        /* \"#utility.yul\":20747:20762   */\n      revert\n        /* \"#utility.yul\":20774:20949   */\n    tag_205:\n        /* \"#utility.yul\":20914:20941   */\n      0x54686973206973206e6f742076616c6964204164647265737300000000000000\n        /* \"#utility.yul\":20910:20911   */\n      0x00\n        /* \"#utility.yul\":20902:20908   */\n      dup3\n        /* \"#utility.yul\":20898:20912   */\n      add\n        /* \"#utility.yul\":20891:20942   */\n      mstore\n        /* \"#utility.yul\":20774:20949   */\n      pop\n      jump\t// out\n        /* \"#utility.yul\":20955:21321   */\n    tag_206:\n        /* \"#utility.yul\":21097:21100   */\n      0x00\n        /* \"#utility.yul\":21118:21185   */\n      tag_412\n        /* \"#utility.yul\":21182:21184   */\n      0x19\n        /* \"#utility.yul\":21177:21180   */\n      dup4\n        /* \"#utility.yul\":21118:21185   */\n      tag_177\n      jump\t// in\n    tag_412:\n        /* \"#utility.yul\":21111:21185   */\n      swap2\n      pop\n        /* \"#utility.yul\":21194:21287   */\n      tag_413\n        /* \"#utility.yul\":21283:21286   */\n      dup3\n        /* \"#utility.yul\":21194:21287   */\n      tag_205\n      jump\t// in\n    tag_413:\n        /* \"#utility.yul\":21312:21314   */\n      0x20\n        /* \"#utility.yul\":21307:21310   */\n      dup3\n        /* \"#utility.yul\":21303:21315   */\n      add\n        /* \"#utility.yul\":21296:21315   */\n      swap1\n      pop\n        /* \"#utility.yul\":20955:21321   */\n      swap2\n      swap1\n      pop\n      jump\t// out\n        /* \"#utility.yul\":21327:21746   */\n    tag_126:\n        /* \"#utility.yul\":21493:21497   */\n      0x00\n        /* \"#utility.yul\":21531:21533   */\n      0x20\n        /* \"#utility.yul\":21520:21529   */\n      dup3\n        /* \"#utility.yul\":21516:21534   */\n      add\n        /* \"#utility.yul\":21508:21534   */\n      swap1\n      pop\n        /* \"#utility.yul\":21580:21589   */\n      dup2\n        /* \"#utility.yul\":21574:21578   */\n      dup2\n        /* \"#utility.yul\":21570:21590   */\n      sub\n        /* \"#utility.yul\":21566:21567   */\n      0x00\n        /* \"#utility.yul\":21555:21564   */\n      dup4\n        /* \"#utility.yul\":21551:21568   */\n      add\n        /* \"#utility.yul\":21544:21591   */\n      mstore\n        /* \"#utility.yul\":21608:21739   */\n      tag_415\n        /* \"#utility.yul\":21734:21738   */\n      dup2\n        /* \"#utility.yul\":21608:21739   */\n      tag_206\n      jump\t// in\n    tag_415:\n        /* \"#utility.yul\":21600:21739   */\n      swap1\n      pop\n        /* \"#utility.yul\":21327:21746   */\n      swap2\n      swap1\n      pop\n      jump\t// out\n        /* \"#utility.yul\":21752:21973   */\n    tag_207:\n        /* \"#utility.yul\":21892:21926   */\n      0x44656164204c696e65206d75737420626520616e20667574757265206e756d62\n        /* \"#utility.yul\":21888:21889   */\n      0x00\n        /* \"#utility.yul\":21880:21886   */\n      dup3\n        /* \"#utility.yul\":21876:21890   */\n      add\n        /* \"#utility.yul\":21869:21927   */\n      mstore\n        /* \"#utility.yul\":21961:21965   */\n      0x6572000000000000000000000000000000000000000000000000000000000000\n        /* \"#utility.yul\":21956:21958   */\n      0x20\n        /* \"#utility.yul\":21948:21954   */\n      dup3\n        /* \"#utility.yul\":21944:21959   */\n      add\n        /* \"#utility.yul\":21937:21966   */\n      mstore\n        /* \"#utility.yul\":21752:21973   */\n      pop\n      jump\t// out\n        /* \"#utility.yul\":21979:22345   */\n    tag_208:\n        /* \"#utility.yul\":22121:22124   */\n      0x00\n        /* \"#utility.yul\":22142:22209   */\n      tag_418\n        /* \"#utility.yul\":22206:22208   */\n      0x22\n        /* \"#utility.yul\":22201:22204   */\n      dup4\n        /* \"#utility.yul\":22142:22209   */\n      tag_177\n      jump\t// in\n    tag_418:\n        /* \"#utility.yul\":22135:22209   */\n      swap2\n      pop\n        /* \"#utility.yul\":22218:22311   */\n      tag_419\n        /* \"#utility.yul\":22307:22310   */\n      dup3\n        /* \"#utility.yul\":22218:22311   */\n      tag_207\n      jump\t// in\n    tag_419:\n        /* \"#utility.yul\":22336:22338   */\n      0x40\n        /* \"#utility.yul\":22331:22334   */\n      dup3\n        /* \"#utility.yul\":22327:22339   */\n      add\n        /* \"#utility.yul\":22320:22339   */\n      swap1\n      pop\n        /* \"#utility.yul\":21979:22345   */\n      swap2\n      swap1\n      pop\n      jump\t// out\n        /* \"#utility.yul\":22351:22770   */\n    tag_129:\n        /* \"#utility.yul\":22517:22521   */\n      0x00\n        /* \"#utility.yul\":22555:22557   */\n      0x20\n        /* \"#utility.yul\":22544:22553   */\n      dup3\n        /* \"#utility.yul\":22540:22558   */\n      add\n        /* \"#utility.yul\":22532:22558   */\n      swap1\n      pop\n        /* \"#utility.yul\":22604:22613   */\n      dup2\n        /* \"#utility.yul\":22598:22602   */\n      dup2\n        /* \"#utility.yul\":22594:22614   */\n      sub\n        /* \"#utility.yul\":22590:22591   */\n      0x00\n        /* \"#utility.yul\":22579:22588   */\n      dup4\n        /* \"#utility.yul\":22575:22592   */\n      add\n        /* \"#utility.yul\":22568:22615   */\n      mstore\n        /* \"#utility.yul\":22632:22763   */\n      tag_421\n        /* \"#utility.yul\":22758:22762   */\n      dup2\n        /* \"#utility.yul\":22632:22763   */\n      tag_208\n      jump\t// in\n    tag_421:\n        /* \"#utility.yul\":22624:22763   */\n      swap1\n      pop\n        /* \"#utility.yul\":22351:22770   */\n      swap2\n      swap1\n      pop\n      jump\t// out\n        /* \"#utility.yul\":22776:23009   */\n    tag_131:\n        /* \"#utility.yul\":22815:22818   */\n      0x00\n        /* \"#utility.yul\":22838:22862   */\n      tag_423\n        /* \"#utility.yul\":22856:22861   */\n      dup3\n        /* \"#utility.yul\":22838:22862   */\n      tag_146\n      jump\t// in\n    tag_423:\n        /* \"#utility.yul\":22829:22862   */\n      swap2\n      pop\n        /* \"#utility.yul\":22884:22950   */\n      0xffffffffffffffffffffffffffffffffffffffffffffffffffffffffffffffff\n        /* \"#utility.yul\":22877:22882   */\n      dup3\n        /* \"#utility.yul\":22874:22951   */\n      sub\n        /* \"#utility.yul\":22871:22974   */\n      tag_424\n      jumpi\n        /* \"#utility.yul\":22954:22972   */\n      tag_425\n      tag_204\n      jump\t// in\n    tag_425:\n        /* \"#utility.yul\":22871:22974   */\n    tag_424:\n        /* \"#utility.yul\":23001:23002   */\n      0x01\n        /* \"#utility.yul\":22994:22999   */\n      dup3\n        /* \"#utility.yul\":22990:23003   */\n      add\n        /* \"#utility.yul\":22983:23003   */\n      swap1\n      pop\n        /* \"#utility.yul\":22776:23009   */\n      swap2\n      swap1\n      pop\n      jump\t// out\n        /* \"#utility.yul\":23015:23133   */\n    tag_209:\n        /* \"#utility.yul\":23102:23126   */\n      tag_427\n        /* \"#utility.yul\":23120:23125   */\n      dup2\n        /* \"#utility.yul\":23102:23126   */\n      tag_146\n      jump\t// in\n    tag_427:\n        /* \"#utility.yul\":23097:23100   */\n      dup3\n        /* \"#utility.yul\":23090:23127   */\n      mstore\n        /* \"#utility.yul\":23015:23133   */\n      pop\n      pop\n      jump\t// out\n        /* \"#utility.yul\":23139:23516   */\n    tag_210:\n        /* \"#utility.yul\":23227:23230   */\n      0x00\n        /* \"#utility.yul\":23255:23294   */\n      tag_429\n        /* \"#utility.yul\":23288:23293   */\n      dup3\n        /* \"#utility.yul\":23255:23294   */\n      tag_162\n      jump\t// in\n    tag_429:\n        /* \"#utility.yul\":23310:23381   */\n      tag_430\n        /* \"#utility.yul\":23374:23380   */\n      dup2\n        /* \"#utility.yul\":23369:23372   */\n      dup6\n        /* \"#utility.yul\":23310:23381   */\n      tag_177\n      jump\t// in\n    tag_430:\n        /* \"#utility.yul\":23303:23381   */\n      swap4\n      pop\n        /* \"#utility.yul\":23390:23455   */\n      tag_431\n        /* \"#utility.yul\":23448:23454   */\n      dup2\n        /* \"#utility.yul\":23443:23446   */\n      dup6\n        /* \"#utility.yul\":23436:23440   */\n      0x20\n        /* \"#utility.yul\":23429:23434   */\n      dup7\n        /* \"#utility.yul\":23425:23441   */\n      add\n        /* \"#utility.yul\":23390:23455   */\n      tag_164\n      jump\t// in\n    tag_431:\n        /* \"#utility.yul\":23480:23509   */\n      tag_432\n        /* \"#utility.yul\":23502:23508   */\n      dup2\n        /* \"#utility.yul\":23480:23509   */\n      tag_151\n      jump\t// in\n    tag_432:\n        /* \"#utility.yul\":23475:23478   */\n      dup5\n        /* \"#utility.yul\":23471:23510   */\n      add\n        /* \"#utility.yul\":23464:23510   */\n      swap2\n      pop\n        /* \"#utility.yul\":23231:23516   */\n      pop\n        /* \"#utility.yul\":23139:23516   */\n      swap3\n      swap2\n      pop\n      pop\n      jump\t// out\n        /* \"#utility.yul\":23522:23640   */\n    tag_211:\n        /* \"#utility.yul\":23609:23633   */\n      tag_434\n        /* \"#utility.yul\":23627:23632   */\n      dup2\n        /* \"#utility.yul\":23609:23633   */\n      tag_167\n      jump\t// in\n    tag_434:\n        /* \"#utility.yul\":23604:23607   */\n      dup3\n        /* \"#utility.yul\":23597:23634   */\n      mstore\n        /* \"#utility.yul\":23522:23640   */\n      pop\n      pop\n      jump\t// out\n        /* \"#utility.yul\":23646:24290   */\n    tag_135:\n        /* \"#utility.yul\":23843:23847   */\n      0x00\n        /* \"#utility.yul\":23881:23884   */\n      0x80\n        /* \"#utility.yul\":23870:23879   */\n      dup3\n        /* \"#utility.yul\":23866:23885   */\n      add\n        /* \"#utility.yul\":23858:23885   */\n      swap1\n      pop\n        /* \"#utility.yul\":23895:23966   */\n      tag_436\n        /* \"#utility.yul\":23963:23964   */\n      0x00\n        /* \"#utility.yul\":23952:23961   */\n      dup4\n        /* \"#utility.yul\":23948:23965   */\n      add\n        /* \"#utility.yul\":23939:23945   */\n      dup8\n        /* \"#utility.yul\":23895:23966   */\n      tag_209\n      jump\t// in\n    tag_436:\n        /* \"#utility.yul\":24013:24022   */\n      dup2\n        /* \"#utility.yul\":24007:24011   */\n      dup2\n        /* \"#utility.yul\":24003:24023   */\n      sub\n        /* \"#utility.yul\":23998:24000   */\n      0x20\n        /* \"#utility.yul\":23987:23996   */\n      dup4\n        /* \"#utility.yul\":23983:24001   */\n      add\n        /* \"#utility.yul\":23976:24024   */\n      mstore\n        /* \"#utility.yul\":24041:24119   */\n      tag_437\n        /* \"#utility.yul\":24114:24118   */\n      dup2\n        /* \"#utility.yul\":24105:24111   */\n      dup7\n        /* \"#utility.yul\":24041:24119   */\n      tag_210\n      jump\t// in\n    tag_437:\n        /* \"#utility.yul\":24033:24119   */\n      swap1\n      pop\n        /* \"#utility.yul\":24129:24201   */\n      tag_438\n        /* \"#utility.yul\":24197:24199   */\n      0x40\n        /* \"#utility.yul\":24186:24195   */\n      dup4\n        /* \"#utility.yul\":24182:24200   */\n      add\n        /* \"#utility.yul\":24173:24179   */\n      dup6\n        /* \"#utility.yul\":24129:24201   */\n      tag_211\n      jump\t// in\n    tag_438:\n        /* \"#utility.yul\":24211:24283   */\n      tag_439\n        /* \"#utility.yul\":24279:24281   */\n      0x60\n        /* \"#utility.yul\":24268:24277   */\n      dup4\n        /* \"#utility.yul\":24264:24282   */\n      add\n        /* \"#utility.yul\":24255:24261   */\n      dup5\n        /* \"#utility.yul\":24211:24283   */\n      tag_209\n      jump\t// in\n    tag_439:\n        /* \"#utility.yul\":23646:24290   */\n      swap6\n      swap5\n      pop\n      pop\n      pop\n      pop\n      pop\n      jump\t// out\n\n    auxdata: 0xa2646970667358221220d7284e80a37aa1b9ca26255e97b18f7b31ae82d156a96497cb2d5cf30a1243e864736f6c634300081a0033\n}\n",
				"bytecode": {
					"linkReferences": {},
					"object": "608060405260016003553480156013575f80fd5b50335f806101000a81548173ffffffffffffffffffffffffffffffffffffffff021916908373ffffffffffffffffffffffffffffffffffffffff160217905550611766806100605f395ff3fe608060405234801561000f575f80fd5b5060043610610054575f3560e01c80620b2bda146100585780634779ba5814610074578063560f319214610090578063779900b4146100ac578063ccd50119146100ca575b5f80fd5b610072600480360381019061006d9190610b4b565b6100e6565b005b61008e60048036038101906100899190610cb2565b61028f565b005b6100aa60048036038101906100a59190610b4b565b6103e8565b005b6100b4610674565b6040516100c19190610f02565b60405180910390f35b6100e460048036038101906100df9190610f4c565b61085a565b005b805f805b60028054905081101561013057826002828154811061010c5761010b610fb8565b5b905f5260205f200154036101235760019150610130565b80806001019150506100ea565b5080610171576040517f08c379a00000000000000000000000000000000000000000000000000000000081526004016101689061103f565b60405180910390fd5b60015f8481526020019081526020015f206004015f9054906101000a900460ff16156101d2576040517f08c379a00000000000000000000000000000000000000000000000000000000081526004016101c9906110a7565b60405180910390fd5b5f8054906101000a900473ffffffffffffffffffffffffffffffffffffffff1673ffffffffffffffffffffffffffffffffffffffff163373ffffffffffffffffffffffffffffffffffffffff161461025f576040517f08c379a00000000000000000000000000000000000000000000000000000000081526004016102569061110f565b60405180910390fd5b6001805f8581526020019081526020015f206004015f6101000a81548160ff021916908315150217905550505050565b805f805b6002805490508110156102d95782600282815481106102b5576102b4610fb8565b5b905f5260205f200154036102cc57600191506102d9565b8080600101915050610293565b508061031a576040517f08c379a00000000000000000000000000000000000000000000000000000000081526004016103119061103f565b60405180910390fd5b60015f8481526020019081526020015f206004015f9054906101000a900460ff161561037b576040517f08c379a0000000000000000000000000000000000000000000000000000000008152600401610372906110a7565b60405180910390fd5b6032845110156103c0576040517f08c379a00000000000000000000000000000000000000000000000000000000081526004016103b790611177565b60405180910390fd5b8360015f8581526020019081526020015f2060010190816103e1919061138f565b5050505050565b805f805b60028054905081101561043257826002828154811061040e5761040d610fb8565b5b905f5260205f200154036104255760019150610432565b80806001019150506103ec565b5080610473576040517f08c379a000000000000000000000000000000000000000000000000000000000815260040161046a9061103f565b60405180910390fd5b3373ffffffffffffffffffffffffffffffffffffffff165f8054906101000a900473ffffffffffffffffffffffffffffffffffffffff1673ffffffffffffffffffffffffffffffffffffffff1614610500576040517f08c379a00000000000000000000000000000000000000000000000000000000081526004016104f79061110f565b60405180910390fd5b60015f8481526020019081526020015f205f8082015f9055600182015f6105279190610a6c565b600282015f6101000a81549073ffffffffffffffffffffffffffffffffffffffff0219169055600382015f9055600482015f6101000a81549060ff021916905550505f805f90505f5b6002805490508110156105b957856002828154811061059257610591610fb8565b5b905f5260205f200154036105ac57809250600191506105b9565b8080600101915050610570565b50806105fa576040517f08c379a00000000000000000000000000000000000000000000000000000000081526004016105f1906114a8565b60405180910390fd5b6002600160028054905061060e91906114f3565b8154811061061f5761061e610fb8565b5b905f5260205f2001546002838154811061063c5761063b610fb8565b5b905f5260205f200181905550600280548061065a57610659611526565b5b600190038181905f5260205f20015f905590555050505050565b60605f60028054905067ffffffffffffffff81111561069657610695610b8e565b5b6040519080825280602002602001820160405280156106cf57816020015b6106bc610aa9565b8152602001906001900390816106b45790505b5090505f5b81518110156108525760015f600283815481106106f4576106f3610fb8565b5b905f5260205f20015481526020019081526020015f206040518060a00160405290815f820154815260200160018201805461072e906111c2565b80601f016020809104026020016040519081016040528092919081815260200182805461075a906111c2565b80156107a55780601f1061077c576101008083540402835291602001916107a5565b820191905f5260205f20905b81548152906001019060200180831161078857829003601f168201915b50505050508152602001600282015f9054906101000a900473ffffffffffffffffffffffffffffffffffffffff1673ffffffffffffffffffffffffffffffffffffffff1673ffffffffffffffffffffffffffffffffffffffff16815260200160038201548152602001600482015f9054906101000a900460ff16151515158152505082828151811061083a57610839610fb8565b5b602002602001018190525080806001019150506106d4565b508091505090565b5f73ffffffffffffffffffffffffffffffffffffffff168273ffffffffffffffffffffffffffffffffffffffff16036108c8576040517f08c379a00000000000000000000000000000000000000000000000000000000081526004016108bf9061159d565b60405180910390fd5b42811161090a576040517f08c379a00000000000000000000000000000000000000000000000000000000081526004016109019061162b565b60405180910390fd5b5f60035f81548092919061091d90611649565b9190505590506040518060a001604052808281526020018581526020018473ffffffffffffffffffffffffffffffffffffffff1681526020018381526020015f151581525060015f8381526020019081526020015f205f820151815f01556020820151816001019081610990919061138f565b506040820151816002015f6101000a81548173ffffffffffffffffffffffffffffffffffffffff021916908373ffffffffffffffffffffffffffffffffffffffff160217905550606082015181600301556080820151816004015f6101000a81548160ff021916908315150217905550905050600281908060018154018082558091505060019003905f5260205f20015f90919091909150557f5514f044ece5b6573e4fc9c778f66ca18dabaf03cf58ebe8d44cd4251ecc4b1881858585604051610a5e94939291906116e6565b60405180910390a150505050565b508054610a78906111c2565b5f825580601f10610a895750610aa6565b601f0160209004905f5260205f2090810190610aa59190610aec565b5b50565b6040518060a001604052805f8152602001606081526020015f73ffffffffffffffffffffffffffffffffffffffff1681526020015f81526020015f151581525090565b5b80821115610b03575f815f905550600101610aed565b5090565b5f604051905090565b5f80fd5b5f80fd5b5f819050919050565b610b2a81610b18565b8114610b34575f80fd5b50565b5f81359050610b4581610b21565b92915050565b5f60208284031215610b6057610b5f610b10565b5b5f610b6d84828501610b37565b91505092915050565b5f80fd5b5f80fd5b5f601f19601f8301169050919050565b7f4e487b71000000000000000000000000000000000000000000000000000000005f52604160045260245ffd5b610bc482610b7e565b810181811067ffffffffffffffff82111715610be357610be2610b8e565b5b80604052505050565b5f610bf5610b07565b9050610c018282610bbb565b919050565b5f67ffffffffffffffff821115610c2057610c1f610b8e565b5b610c2982610b7e565b9050602081019050919050565b828183375f83830152505050565b5f610c56610c5184610c06565b610bec565b905082815260208101848484011115610c7257610c71610b7a565b5b610c7d848285610c36565b509392505050565b5f82601f830112610c9957610c98610b76565b5b8135610ca9848260208601610c44565b91505092915050565b5f8060408385031215610cc857610cc7610b10565b5b5f83013567ffffffffffffffff811115610ce557610ce4610b14565b5b610cf185828601610c85565b9250506020610d0285828601610b37565b9150509250929050565b5f81519050919050565b5f82825260208201905092915050565b5f819050602082019050919050565b610d3e81610b18565b82525050565b5f81519050919050565b5f82825260208201905092915050565b8281835e5f83830152505050565b5f610d7682610d44565b610d808185610d4e565b9350610d90818560208601610d5e565b610d9981610b7e565b840191505092915050565b5f73ffffffffffffffffffffffffffffffffffffffff82169050919050565b5f610dcd82610da4565b9050919050565b610ddd81610dc3565b82525050565b5f8115159050919050565b610df781610de3565b82525050565b5f60a083015f830151610e125f860182610d35565b5060208301518482036020860152610e2a8282610d6c565b9150506040830151610e3f6040860182610dd4565b506060830151610e526060860182610d35565b506080830151610e656080860182610dee565b508091505092915050565b5f610e7b8383610dfd565b905092915050565b5f602082019050919050565b5f610e9982610d0c565b610ea38185610d16565b935083602082028501610eb585610d26565b805f5b85811015610ef05784840389528151610ed18582610e70565b9450610edc83610e83565b925060208a01995050600181019050610eb8565b50829750879550505050505092915050565b5f6020820190508181035f830152610f1a8184610e8f565b905092915050565b610f2b81610dc3565b8114610f35575f80fd5b50565b5f81359050610f4681610f22565b92915050565b5f805f60608486031215610f6357610f62610b10565b5b5f84013567ffffffffffffffff811115610f8057610f7f610b14565b5b610f8c86828701610c85565b9350506020610f9d86828701610f38565b9250506040610fae86828701610b37565b9150509250925092565b7f4e487b71000000000000000000000000000000000000000000000000000000005f52603260045260245ffd5b5f82825260208201905092915050565b7f5468657265206973206e6f207461736b205769746820546869732049440000005f82015250565b5f611029601d83610fe5565b915061103482610ff5565b602082019050919050565b5f6020820190508181035f8301526110568161101d565b9050919050565b7f5461736b20697320616c726561647920636f6d706c65746564000000000000005f82015250565b5f611091601983610fe5565b915061109c8261105d565b602082019050919050565b5f6020820190508181035f8301526110be81611085565b9050919050565b7f596f7520617265206e6f7420746865206f776e657200000000000000000000005f82015250565b5f6110f9601583610fe5565b9150611104826110c5565b602082019050919050565b5f6020820190508181035f830152611126816110ed565b9050919050565b7f4d75737420626520353020776f726473000000000000000000000000000000005f82015250565b5f611161601083610fe5565b915061116c8261112d565b602082019050919050565b5f6020820190508181035f83015261118e81611155565b9050919050565b7f4e487b71000000000000000000000000000000000000000000000000000000005f52602260045260245ffd5b5f60028204905060018216806111d957607f821691505b6020821081036111ec576111eb611195565b5b50919050565b5f819050815f5260205f209050919050565b5f6020601f8301049050919050565b5f82821b905092915050565b5f6008830261124e7fffffffffffffffffffffffffffffffffffffffffffffffffffffffffffffffff82611213565b6112588683611213565b95508019841693508086168417925050509392505050565b5f819050919050565b5f61129361128e61128984610b18565b611270565b610b18565b9050919050565b5f819050919050565b6112ac83611279565b6112c06112b88261129a565b84845461121f565b825550505050565b5f90565b6112d46112c8565b6112df8184846112a3565b505050565b5b81811015611302576112f75f826112cc565b6001810190506112e5565b5050565b601f82111561134757611318816111f2565b61132184611204565b81016020851015611330578190505b61134461133c85611204565b8301826112e4565b50505b505050565b5f82821c905092915050565b5f6113675f198460080261134c565b1980831691505092915050565b5f61137f8383611358565b9150826002028217905092915050565b61139882610d44565b67ffffffffffffffff8111156113b1576113b0610b8e565b5b6113bb82546111c2565b6113c6828285611306565b5f60209050601f8311600181146113f7575f84156113e5578287015190505b6113ef8582611374565b865550611456565b601f198416611405866111f2565b5f5b8281101561142c57848901518255600182019150602085019450602081019050611407565b868310156114495784890151611445601f891682611358565b8355505b6001600288020188555050505b505050505050565b7f5468657265206973206e6f205461736b206279207468697320696400000000005f82015250565b5f611492601b83610fe5565b915061149d8261145e565b602082019050919050565b5f6020820190508181035f8301526114bf81611486565b9050919050565b7f4e487b71000000000000000000000000000000000000000000000000000000005f52601160045260245ffd5b5f6114fd82610b18565b915061150883610b18565b92508282039050818111156115205761151f6114c6565b5b92915050565b7f4e487b71000000000000000000000000000000000000000000000000000000005f52603160045260245ffd5b7f54686973206973206e6f742076616c69642041646472657373000000000000005f82015250565b5f611587601983610fe5565b915061159282611553565b602082019050919050565b5f6020820190508181035f8301526115b48161157b565b9050919050565b7f44656164204c696e65206d75737420626520616e20667574757265206e756d625f8201527f6572000000000000000000000000000000000000000000000000000000000000602082015250565b5f611615602283610fe5565b9150611620826115bb565b604082019050919050565b5f6020820190508181035f83015261164281611609565b9050919050565b5f61165382610b18565b91507fffffffffffffffffffffffffffffffffffffffffffffffffffffffffffffffff8203611685576116846114c6565b5b600182019050919050565b61169981610b18565b82525050565b5f6116a982610d44565b6116b38185610fe5565b93506116c3818560208601610d5e565b6116cc81610b7e565b840191505092915050565b6116e081610dc3565b82525050565b5f6080820190506116f95f830187611690565b818103602083015261170b818661169f565b905061171a60408301856116d7565b6117276060830184611690565b9594505050505056fea2646970667358221220d7284e80a37aa1b9ca26255e97b18f7b31ae82d156a96497cb2d5cf30a1243e864736f6c634300081a0033",
					"opcodes": "PUSH1 0x80 PUSH1 0x40 MSTORE PUSH1 0x1 PUSH1 0x3 SSTORE CALLVALUE DUP1 ISZERO PUSH1 0x13 JUMPI PUSH0 DUP1 REVERT JUMPDEST POP CALLER PUSH0 DUP1 PUSH2 0x100 EXP DUP2 SLOAD DUP2 PUSH20 0xFFFFFFFFFFFFFFFFFFFFFFFFFFFFFFFFFFFFFFFF MUL NOT AND SWAP1 DUP4 PUSH20 0xFFFFFFFFFFFFFFFFFFFFFFFFFFFFFFFFFFFFFFFF AND MUL OR SWAP1 SSTORE POP PUSH2 0x1766 DUP1 PUSH2 0x60 PUSH0 CODECOPY PUSH0 RETURN INVALID PUSH1 0x80 PUSH1 0x40 MSTORE CALLVALUE DUP1 ISZERO PUSH2 0xF JUMPI PUSH0 DUP1 REVERT JUMPDEST POP PUSH1 0x4 CALLDATASIZE LT PUSH2 0x54 JUMPI PUSH0 CALLDATALOAD PUSH1 0xE0 SHR DUP1 PUSH3 0xB2BDA EQ PUSH2 0x58 JUMPI DUP1 PUSH4 0x4779BA58 EQ PUSH2 0x74 JUMPI DUP1 PUSH4 0x560F3192 EQ PUSH2 0x90 JUMPI DUP1 PUSH4 0x779900B4 EQ PUSH2 0xAC JUMPI DUP1 PUSH4 0xCCD50119 EQ PUSH2 0xCA JUMPI JUMPDEST PUSH0 DUP1 REVERT JUMPDEST PUSH2 0x72 PUSH1 0x4 DUP1 CALLDATASIZE SUB DUP2 ADD SWAP1 PUSH2 0x6D SWAP2 SWAP1 PUSH2 0xB4B JUMP JUMPDEST PUSH2 0xE6 JUMP JUMPDEST STOP JUMPDEST PUSH2 0x8E PUSH1 0x4 DUP1 CALLDATASIZE SUB DUP2 ADD SWAP1 PUSH2 0x89 SWAP2 SWAP1 PUSH2 0xCB2 JUMP JUMPDEST PUSH2 0x28F JUMP JUMPDEST STOP JUMPDEST PUSH2 0xAA PUSH1 0x4 DUP1 CALLDATASIZE SUB DUP2 ADD SWAP1 PUSH2 0xA5 SWAP2 SWAP1 PUSH2 0xB4B JUMP JUMPDEST PUSH2 0x3E8 JUMP JUMPDEST STOP JUMPDEST PUSH2 0xB4 PUSH2 0x674 JUMP JUMPDEST PUSH1 0x40 MLOAD PUSH2 0xC1 SWAP2 SWAP1 PUSH2 0xF02 JUMP JUMPDEST PUSH1 0x40 MLOAD DUP1 SWAP2 SUB SWAP1 RETURN JUMPDEST PUSH2 0xE4 PUSH1 0x4 DUP1 CALLDATASIZE SUB DUP2 ADD SWAP1 PUSH2 0xDF SWAP2 SWAP1 PUSH2 0xF4C JUMP JUMPDEST PUSH2 0x85A JUMP JUMPDEST STOP JUMPDEST DUP1 PUSH0 DUP1 JUMPDEST PUSH1 0x2 DUP1 SLOAD SWAP1 POP DUP2 LT ISZERO PUSH2 0x130 JUMPI DUP3 PUSH1 0x2 DUP3 DUP2 SLOAD DUP2 LT PUSH2 0x10C JUMPI PUSH2 0x10B PUSH2 0xFB8 JUMP JUMPDEST JUMPDEST SWAP1 PUSH0 MSTORE PUSH1 0x20 PUSH0 KECCAK256 ADD SLOAD SUB PUSH2 0x123 JUMPI PUSH1 0x1 SWAP2 POP PUSH2 0x130 JUMP JUMPDEST DUP1 DUP1 PUSH1 0x1 ADD SWAP2 POP POP PUSH2 0xEA JUMP JUMPDEST POP DUP1 PUSH2 0x171 JUMPI PUSH1 0x40 MLOAD PUSH32 0x8C379A000000000000000000000000000000000000000000000000000000000 DUP2 MSTORE PUSH1 0x4 ADD PUSH2 0x168 SWAP1 PUSH2 0x103F JUMP JUMPDEST PUSH1 0x40 MLOAD DUP1 SWAP2 SUB SWAP1 REVERT JUMPDEST PUSH1 0x1 PUSH0 DUP5 DUP2 MSTORE PUSH1 0x20 ADD SWAP1 DUP2 MSTORE PUSH1 0x20 ADD PUSH0 KECCAK256 PUSH1 0x4 ADD PUSH0 SWAP1 SLOAD SWAP1 PUSH2 0x100 EXP SWAP1 DIV PUSH1 0xFF AND ISZERO PUSH2 0x1D2 JUMPI PUSH1 0x40 MLOAD PUSH32 0x8C379A000000000000000000000000000000000000000000000000000000000 DUP2 MSTORE PUSH1 0x4 ADD PUSH2 0x1C9 SWAP1 PUSH2 0x10A7 JUMP JUMPDEST PUSH1 0x40 MLOAD DUP1 SWAP2 SUB SWAP1 REVERT JUMPDEST PUSH0 DUP1 SLOAD SWAP1 PUSH2 0x100 EXP SWAP1 DIV PUSH20 0xFFFFFFFFFFFFFFFFFFFFFFFFFFFFFFFFFFFFFFFF AND PUSH20 0xFFFFFFFFFFFFFFFFFFFFFFFFFFFFFFFFFFFFFFFF AND CALLER PUSH20 0xFFFFFFFFFFFFFFFFFFFFFFFFFFFFFFFFFFFFFFFF AND EQ PUSH2 0x25F JUMPI PUSH1 0x40 MLOAD PUSH32 0x8C379A000000000000000000000000000000000000000000000000000000000 DUP2 MSTORE PUSH1 0x4 ADD PUSH2 0x256 SWAP1 PUSH2 0x110F JUMP JUMPDEST PUSH1 0x40 MLOAD DUP1 SWAP2 SUB SWAP1 REVERT JUMPDEST PUSH1 0x1 DUP1 PUSH0 DUP6 DUP2 MSTORE PUSH1 0x20 ADD SWAP1 DUP2 MSTORE PUSH1 0x20 ADD PUSH0 KECCAK256 PUSH1 0x4 ADD PUSH0 PUSH2 0x100 EXP DUP2 SLOAD DUP2 PUSH1 0xFF MUL NOT AND SWAP1 DUP4 ISZERO ISZERO MUL OR SWAP1 SSTORE POP POP POP POP JUMP JUMPDEST DUP1 PUSH0 DUP1 JUMPDEST PUSH1 0x2 DUP1 SLOAD SWAP1 POP DUP2 LT ISZERO PUSH2 0x2D9 JUMPI DUP3 PUSH1 0x2 DUP3 DUP2 SLOAD DUP2 LT PUSH2 0x2B5 JUMPI PUSH2 0x2B4 PUSH2 0xFB8 JUMP JUMPDEST JUMPDEST SWAP1 PUSH0 MSTORE PUSH1 0x20 PUSH0 KECCAK256 ADD SLOAD SUB PUSH2 0x2CC JUMPI PUSH1 0x1 SWAP2 POP PUSH2 0x2D9 JUMP JUMPDEST DUP1 DUP1 PUSH1 0x1 ADD SWAP2 POP POP PUSH2 0x293 JUMP JUMPDEST POP DUP1 PUSH2 0x31A JUMPI PUSH1 0x40 MLOAD PUSH32 0x8C379A000000000000000000000000000000000000000000000000000000000 DUP2 MSTORE PUSH1 0x4 ADD PUSH2 0x311 SWAP1 PUSH2 0x103F JUMP JUMPDEST PUSH1 0x40 MLOAD DUP1 SWAP2 SUB SWAP1 REVERT JUMPDEST PUSH1 0x1 PUSH0 DUP5 DUP2 MSTORE PUSH1 0x20 ADD SWAP1 DUP2 MSTORE PUSH1 0x20 ADD PUSH0 KECCAK256 PUSH1 0x4 ADD PUSH0 SWAP1 SLOAD SWAP1 PUSH2 0x100 EXP SWAP1 DIV PUSH1 0xFF AND ISZERO PUSH2 0x37B JUMPI PUSH1 0x40 MLOAD PUSH32 0x8C379A000000000000000000000000000000000000000000000000000000000 DUP2 MSTORE PUSH1 0x4 ADD PUSH2 0x372 SWAP1 PUSH2 0x10A7 JUMP JUMPDEST PUSH1 0x40 MLOAD DUP1 SWAP2 SUB SWAP1 REVERT JUMPDEST PUSH1 0x32 DUP5 MLOAD LT ISZERO PUSH2 0x3C0 JUMPI PUSH1 0x40 MLOAD PUSH32 0x8C379A000000000000000000000000000000000000000000000000000000000 DUP2 MSTORE PUSH1 0x4 ADD PUSH2 0x3B7 SWAP1 PUSH2 0x1177 JUMP JUMPDEST PUSH1 0x40 MLOAD DUP1 SWAP2 SUB SWAP1 REVERT JUMPDEST DUP4 PUSH1 0x1 PUSH0 DUP6 DUP2 MSTORE PUSH1 0x20 ADD SWAP1 DUP2 MSTORE PUSH1 0x20 ADD PUSH0 KECCAK256 PUSH1 0x1 ADD SWAP1 DUP2 PUSH2 0x3E1 SWAP2 SWAP1 PUSH2 0x138F JUMP JUMPDEST POP POP POP POP POP JUMP JUMPDEST DUP1 PUSH0 DUP1 JUMPDEST PUSH1 0x2 DUP1 SLOAD SWAP1 POP DUP2 LT ISZERO PUSH2 0x432 JUMPI DUP3 PUSH1 0x2 DUP3 DUP2 SLOAD DUP2 LT PUSH2 0x40E JUMPI PUSH2 0x40D PUSH2 0xFB8 JUMP JUMPDEST JUMPDEST SWAP1 PUSH0 MSTORE PUSH1 0x20 PUSH0 KECCAK256 ADD SLOAD SUB PUSH2 0x425 JUMPI PUSH1 0x1 SWAP2 POP PUSH2 0x432 JUMP JUMPDEST DUP1 DUP1 PUSH1 0x1 ADD SWAP2 POP POP PUSH2 0x3EC JUMP JUMPDEST POP DUP1 PUSH2 0x473 JUMPI PUSH1 0x40 MLOAD PUSH32 0x8C379A000000000000000000000000000000000000000000000000000000000 DUP2 MSTORE PUSH1 0x4 ADD PUSH2 0x46A SWAP1 PUSH2 0x103F JUMP JUMPDEST PUSH1 0x40 MLOAD DUP1 SWAP2 SUB SWAP1 REVERT JUMPDEST CALLER PUSH20 0xFFFFFFFFFFFFFFFFFFFFFFFFFFFFFFFFFFFFFFFF AND PUSH0 DUP1 SLOAD SWAP1 PUSH2 0x100 EXP SWAP1 DIV PUSH20 0xFFFFFFFFFFFFFFFFFFFFFFFFFFFFFFFFFFFFFFFF AND PUSH20 0xFFFFFFFFFFFFFFFFFFFFFFFFFFFFFFFFFFFFFFFF AND EQ PUSH2 0x500 JUMPI PUSH1 0x40 MLOAD PUSH32 0x8C379A000000000000000000000000000000000000000000000000000000000 DUP2 MSTORE PUSH1 0x4 ADD PUSH2 0x4F7 SWAP1 PUSH2 0x110F JUMP JUMPDEST PUSH1 0x40 MLOAD DUP1 SWAP2 SUB SWAP1 REVERT JUMPDEST PUSH1 0x1 PUSH0 DUP5 DUP2 MSTORE PUSH1 0x20 ADD SWAP1 DUP2 MSTORE PUSH1 0x20 ADD PUSH0 KECCAK256 PUSH0 DUP1 DUP3 ADD PUSH0 SWAP1 SSTORE PUSH1 0x1 DUP3 ADD PUSH0 PUSH2 0x527 SWAP2 SWAP1 PUSH2 0xA6C JUMP JUMPDEST PUSH1 0x2 DUP3 ADD PUSH0 PUSH2 0x100 EXP DUP2 SLOAD SWAP1 PUSH20 0xFFFFFFFFFFFFFFFFFFFFFFFFFFFFFFFFFFFFFFFF MUL NOT AND SWAP1 SSTORE PUSH1 0x3 DUP3 ADD PUSH0 SWAP1 SSTORE PUSH1 0x4 DUP3 ADD PUSH0 PUSH2 0x100 EXP DUP2 SLOAD SWAP1 PUSH1 0xFF MUL NOT AND SWAP1 SSTORE POP POP PUSH0 DUP1 PUSH0 SWAP1 POP PUSH0 JUMPDEST PUSH1 0x2 DUP1 SLOAD SWAP1 POP DUP2 LT ISZERO PUSH2 0x5B9 JUMPI DUP6 PUSH1 0x2 DUP3 DUP2 SLOAD DUP2 LT PUSH2 0x592 JUMPI PUSH2 0x591 PUSH2 0xFB8 JUMP JUMPDEST JUMPDEST SWAP1 PUSH0 MSTORE PUSH1 0x20 PUSH0 KECCAK256 ADD SLOAD SUB PUSH2 0x5AC JUMPI DUP1 SWAP3 POP PUSH1 0x1 SWAP2 POP PUSH2 0x5B9 JUMP JUMPDEST DUP1 DUP1 PUSH1 0x1 ADD SWAP2 POP POP PUSH2 0x570 JUMP JUMPDEST POP DUP1 PUSH2 0x5FA JUMPI PUSH1 0x40 MLOAD PUSH32 0x8C379A000000000000000000000000000000000000000000000000000000000 DUP2 MSTORE PUSH1 0x4 ADD PUSH2 0x5F1 SWAP1 PUSH2 0x14A8 JUMP JUMPDEST PUSH1 0x40 MLOAD DUP1 SWAP2 SUB SWAP1 REVERT JUMPDEST PUSH1 0x2 PUSH1 0x1 PUSH1 0x2 DUP1 SLOAD SWAP1 POP PUSH2 0x60E SWAP2 SWAP1 PUSH2 0x14F3 JUMP JUMPDEST DUP2 SLOAD DUP2 LT PUSH2 0x61F JUMPI PUSH2 0x61E PUSH2 0xFB8 JUMP JUMPDEST JUMPDEST SWAP1 PUSH0 MSTORE PUSH1 0x20 PUSH0 KECCAK256 ADD SLOAD PUSH1 0x2 DUP4 DUP2 SLOAD DUP2 LT PUSH2 0x63C JUMPI PUSH2 0x63B PUSH2 0xFB8 JUMP JUMPDEST JUMPDEST SWAP1 PUSH0 MSTORE PUSH1 0x20 PUSH0 KECCAK256 ADD DUP2 SWAP1 SSTORE POP PUSH1 0x2 DUP1 SLOAD DUP1 PUSH2 0x65A JUMPI PUSH2 0x659 PUSH2 0x1526 JUMP JUMPDEST JUMPDEST PUSH1 0x1 SWAP1 SUB DUP2 DUP2 SWAP1 PUSH0 MSTORE PUSH1 0x20 PUSH0 KECCAK256 ADD PUSH0 SWAP1 SSTORE SWAP1 SSTORE POP POP POP POP POP JUMP JUMPDEST PUSH1 0x60 PUSH0 PUSH1 0x2 DUP1 SLOAD SWAP1 POP PUSH8 0xFFFFFFFFFFFFFFFF DUP2 GT ISZERO PUSH2 0x696 JUMPI PUSH2 0x695 PUSH2 0xB8E JUMP JUMPDEST JUMPDEST PUSH1 0x40 MLOAD SWAP1 DUP1 DUP3 MSTORE DUP1 PUSH1 0x20 MUL PUSH1 0x20 ADD DUP3 ADD PUSH1 0x40 MSTORE DUP1 ISZERO PUSH2 0x6CF JUMPI DUP2 PUSH1 0x20 ADD JUMPDEST PUSH2 0x6BC PUSH2 0xAA9 JUMP JUMPDEST DUP2 MSTORE PUSH1 0x20 ADD SWAP1 PUSH1 0x1 SWAP1 SUB SWAP1 DUP2 PUSH2 0x6B4 JUMPI SWAP1 POP JUMPDEST POP SWAP1 POP PUSH0 JUMPDEST DUP2 MLOAD DUP2 LT ISZERO PUSH2 0x852 JUMPI PUSH1 0x1 PUSH0 PUSH1 0x2 DUP4 DUP2 SLOAD DUP2 LT PUSH2 0x6F4 JUMPI PUSH2 0x6F3 PUSH2 0xFB8 JUMP JUMPDEST JUMPDEST SWAP1 PUSH0 MSTORE PUSH1 0x20 PUSH0 KECCAK256 ADD SLOAD DUP2 MSTORE PUSH1 0x20 ADD SWAP1 DUP2 MSTORE PUSH1 0x20 ADD PUSH0 KECCAK256 PUSH1 0x40 MLOAD DUP1 PUSH1 0xA0 ADD PUSH1 0x40 MSTORE SWAP1 DUP2 PUSH0 DUP3 ADD SLOAD DUP2 MSTORE PUSH1 0x20 ADD PUSH1 0x1 DUP3 ADD DUP1 SLOAD PUSH2 0x72E SWAP1 PUSH2 0x11C2 JUMP JUMPDEST DUP1 PUSH1 0x1F ADD PUSH1 0x20 DUP1 SWAP2 DIV MUL PUSH1 0x20 ADD PUSH1 0x40 MLOAD SWAP1 DUP2 ADD PUSH1 0x40 MSTORE DUP1 SWAP3 SWAP2 SWAP1 DUP2 DUP2 MSTORE PUSH1 0x20 ADD DUP3 DUP1 SLOAD PUSH2 0x75A SWAP1 PUSH2 0x11C2 JUMP JUMPDEST DUP1 ISZERO PUSH2 0x7A5 JUMPI DUP1 PUSH1 0x1F LT PUSH2 0x77C JUMPI PUSH2 0x100 DUP1 DUP4 SLOAD DIV MUL DUP4 MSTORE SWAP2 PUSH1 0x20 ADD SWAP2 PUSH2 0x7A5 JUMP JUMPDEST DUP3 ADD SWAP2 SWAP1 PUSH0 MSTORE PUSH1 0x20 PUSH0 KECCAK256 SWAP1 JUMPDEST DUP2 SLOAD DUP2 MSTORE SWAP1 PUSH1 0x1 ADD SWAP1 PUSH1 0x20 ADD DUP1 DUP4 GT PUSH2 0x788 JUMPI DUP3 SWAP1 SUB PUSH1 0x1F AND DUP3 ADD SWAP2 JUMPDEST POP POP POP POP POP DUP2 MSTORE PUSH1 0x20 ADD PUSH1 0x2 DUP3 ADD PUSH0 SWAP1 SLOAD SWAP1 PUSH2 0x100 EXP SWAP1 DIV PUSH20 0xFFFFFFFFFFFFFFFFFFFFFFFFFFFFFFFFFFFFFFFF AND PUSH20 0xFFFFFFFFFFFFFFFFFFFFFFFFFFFFFFFFFFFFFFFF AND PUSH20 0xFFFFFFFFFFFFFFFFFFFFFFFFFFFFFFFFFFFFFFFF AND DUP2 MSTORE PUSH1 0x20 ADD PUSH1 0x3 DUP3 ADD SLOAD DUP2 MSTORE PUSH1 0x20 ADD PUSH1 0x4 DUP3 ADD PUSH0 SWAP1 SLOAD SWAP1 PUSH2 0x100 EXP SWAP1 DIV PUSH1 0xFF AND ISZERO ISZERO ISZERO ISZERO DUP2 MSTORE POP POP DUP3 DUP3 DUP2 MLOAD DUP2 LT PUSH2 0x83A JUMPI PUSH2 0x839 PUSH2 0xFB8 JUMP JUMPDEST JUMPDEST PUSH1 0x20 MUL PUSH1 0x20 ADD ADD DUP2 SWAP1 MSTORE POP DUP1 DUP1 PUSH1 0x1 ADD SWAP2 POP POP PUSH2 0x6D4 JUMP JUMPDEST POP DUP1 SWAP2 POP POP SWAP1 JUMP JUMPDEST PUSH0 PUSH20 0xFFFFFFFFFFFFFFFFFFFFFFFFFFFFFFFFFFFFFFFF AND DUP3 PUSH20 0xFFFFFFFFFFFFFFFFFFFFFFFFFFFFFFFFFFFFFFFF AND SUB PUSH2 0x8C8 JUMPI PUSH1 0x40 MLOAD PUSH32 0x8C379A000000000000000000000000000000000000000000000000000000000 DUP2 MSTORE PUSH1 0x4 ADD PUSH2 0x8BF SWAP1 PUSH2 0x159D JUMP JUMPDEST PUSH1 0x40 MLOAD DUP1 SWAP2 SUB SWAP1 REVERT JUMPDEST TIMESTAMP DUP2 GT PUSH2 0x90A JUMPI PUSH1 0x40 MLOAD PUSH32 0x8C379A000000000000000000000000000000000000000000000000000000000 DUP2 MSTORE PUSH1 0x4 ADD PUSH2 0x901 SWAP1 PUSH2 0x162B JUMP JUMPDEST PUSH1 0x40 MLOAD DUP1 SWAP2 SUB SWAP1 REVERT JUMPDEST PUSH0 PUSH1 0x3 PUSH0 DUP2 SLOAD DUP1 SWAP3 SWAP2 SWAP1 PUSH2 0x91D SWAP1 PUSH2 0x1649 JUMP JUMPDEST SWAP2 SWAP1 POP SSTORE SWAP1 POP PUSH1 0x40 MLOAD DUP1 PUSH1 0xA0 ADD PUSH1 0x40 MSTORE DUP1 DUP3 DUP2 MSTORE PUSH1 0x20 ADD DUP6 DUP2 MSTORE PUSH1 0x20 ADD DUP5 PUSH20 0xFFFFFFFFFFFFFFFFFFFFFFFFFFFFFFFFFFFFFFFF AND DUP2 MSTORE PUSH1 0x20 ADD DUP4 DUP2 MSTORE PUSH1 0x20 ADD PUSH0 ISZERO ISZERO DUP2 MSTORE POP PUSH1 0x1 PUSH0 DUP4 DUP2 MSTORE PUSH1 0x20 ADD SWAP1 DUP2 MSTORE PUSH1 0x20 ADD PUSH0 KECCAK256 PUSH0 DUP3 ADD MLOAD DUP2 PUSH0 ADD SSTORE PUSH1 0x20 DUP3 ADD MLOAD DUP2 PUSH1 0x1 ADD SWAP1 DUP2 PUSH2 0x990 SWAP2 SWAP1 PUSH2 0x138F JUMP JUMPDEST POP PUSH1 0x40 DUP3 ADD MLOAD DUP2 PUSH1 0x2 ADD PUSH0 PUSH2 0x100 EXP DUP2 SLOAD DUP2 PUSH20 0xFFFFFFFFFFFFFFFFFFFFFFFFFFFFFFFFFFFFFFFF MUL NOT AND SWAP1 DUP4 PUSH20 0xFFFFFFFFFFFFFFFFFFFFFFFFFFFFFFFFFFFFFFFF AND MUL OR SWAP1 SSTORE POP PUSH1 0x60 DUP3 ADD MLOAD DUP2 PUSH1 0x3 ADD SSTORE PUSH1 0x80 DUP3 ADD MLOAD DUP2 PUSH1 0x4 ADD PUSH0 PUSH2 0x100 EXP DUP2 SLOAD DUP2 PUSH1 0xFF MUL NOT AND SWAP1 DUP4 ISZERO ISZERO MUL OR SWAP1 SSTORE POP SWAP1 POP POP PUSH1 0x2 DUP2 SWAP1 DUP1 PUSH1 0x1 DUP2 SLOAD ADD DUP1 DUP3 SSTORE DUP1 SWAP2 POP POP PUSH1 0x1 SWAP1 SUB SWAP1 PUSH0 MSTORE PUSH1 0x20 PUSH0 KECCAK256 ADD PUSH0 SWAP1 SWAP2 SWAP1 SWAP2 SWAP1 SWAP2 POP SSTORE PUSH32 0x5514F044ECE5B6573E4FC9C778F66CA18DABAF03CF58EBE8D44CD4251ECC4B18 DUP2 DUP6 DUP6 DUP6 PUSH1 0x40 MLOAD PUSH2 0xA5E SWAP5 SWAP4 SWAP3 SWAP2 SWAP1 PUSH2 0x16E6 JUMP JUMPDEST PUSH1 0x40 MLOAD DUP1 SWAP2 SUB SWAP1 LOG1 POP POP POP POP JUMP JUMPDEST POP DUP1 SLOAD PUSH2 0xA78 SWAP1 PUSH2 0x11C2 JUMP JUMPDEST PUSH0 DUP3 SSTORE DUP1 PUSH1 0x1F LT PUSH2 0xA89 JUMPI POP PUSH2 0xAA6 JUMP JUMPDEST PUSH1 0x1F ADD PUSH1 0x20 SWAP1 DIV SWAP1 PUSH0 MSTORE PUSH1 0x20 PUSH0 KECCAK256 SWAP1 DUP2 ADD SWAP1 PUSH2 0xAA5 SWAP2 SWAP1 PUSH2 0xAEC JUMP JUMPDEST JUMPDEST POP JUMP JUMPDEST PUSH1 0x40 MLOAD DUP1 PUSH1 0xA0 ADD PUSH1 0x40 MSTORE DUP1 PUSH0 DUP2 MSTORE PUSH1 0x20 ADD PUSH1 0x60 DUP2 MSTORE PUSH1 0x20 ADD PUSH0 PUSH20 0xFFFFFFFFFFFFFFFFFFFFFFFFFFFFFFFFFFFFFFFF AND DUP2 MSTORE PUSH1 0x20 ADD PUSH0 DUP2 MSTORE PUSH1 0x20 ADD PUSH0 ISZERO ISZERO DUP2 MSTORE POP SWAP1 JUMP JUMPDEST JUMPDEST DUP1 DUP3 GT ISZERO PUSH2 0xB03 JUMPI PUSH0 DUP2 PUSH0 SWAP1 SSTORE POP PUSH1 0x1 ADD PUSH2 0xAED JUMP JUMPDEST POP SWAP1 JUMP JUMPDEST PUSH0 PUSH1 0x40 MLOAD SWAP1 POP SWAP1 JUMP JUMPDEST PUSH0 DUP1 REVERT JUMPDEST PUSH0 DUP1 REVERT JUMPDEST PUSH0 DUP2 SWAP1 POP SWAP2 SWAP1 POP JUMP JUMPDEST PUSH2 0xB2A DUP2 PUSH2 0xB18 JUMP JUMPDEST DUP2 EQ PUSH2 0xB34 JUMPI PUSH0 DUP1 REVERT JUMPDEST POP JUMP JUMPDEST PUSH0 DUP2 CALLDATALOAD SWAP1 POP PUSH2 0xB45 DUP2 PUSH2 0xB21 JUMP JUMPDEST SWAP3 SWAP2 POP POP JUMP JUMPDEST PUSH0 PUSH1 0x20 DUP3 DUP5 SUB SLT ISZERO PUSH2 0xB60 JUMPI PUSH2 0xB5F PUSH2 0xB10 JUMP JUMPDEST JUMPDEST PUSH0 PUSH2 0xB6D DUP5 DUP3 DUP6 ADD PUSH2 0xB37 JUMP JUMPDEST SWAP2 POP POP SWAP3 SWAP2 POP POP JUMP JUMPDEST PUSH0 DUP1 REVERT JUMPDEST PUSH0 DUP1 REVERT JUMPDEST PUSH0 PUSH1 0x1F NOT PUSH1 0x1F DUP4 ADD AND SWAP1 POP SWAP2 SWAP1 POP JUMP JUMPDEST PUSH32 0x4E487B7100000000000000000000000000000000000000000000000000000000 PUSH0 MSTORE PUSH1 0x41 PUSH1 0x4 MSTORE PUSH1 0x24 PUSH0 REVERT JUMPDEST PUSH2 0xBC4 DUP3 PUSH2 0xB7E JUMP JUMPDEST DUP2 ADD DUP2 DUP2 LT PUSH8 0xFFFFFFFFFFFFFFFF DUP3 GT OR ISZERO PUSH2 0xBE3 JUMPI PUSH2 0xBE2 PUSH2 0xB8E JUMP JUMPDEST JUMPDEST DUP1 PUSH1 0x40 MSTORE POP POP POP JUMP JUMPDEST PUSH0 PUSH2 0xBF5 PUSH2 0xB07 JUMP JUMPDEST SWAP1 POP PUSH2 0xC01 DUP3 DUP3 PUSH2 0xBBB JUMP JUMPDEST SWAP2 SWAP1 POP JUMP JUMPDEST PUSH0 PUSH8 0xFFFFFFFFFFFFFFFF DUP3 GT ISZERO PUSH2 0xC20 JUMPI PUSH2 0xC1F PUSH2 0xB8E JUMP JUMPDEST JUMPDEST PUSH2 0xC29 DUP3 PUSH2 0xB7E JUMP JUMPDEST SWAP1 POP PUSH1 0x20 DUP2 ADD SWAP1 POP SWAP2 SWAP1 POP JUMP JUMPDEST DUP3 DUP2 DUP4 CALLDATACOPY PUSH0 DUP4 DUP4 ADD MSTORE POP POP POP JUMP JUMPDEST PUSH0 PUSH2 0xC56 PUSH2 0xC51 DUP5 PUSH2 0xC06 JUMP JUMPDEST PUSH2 0xBEC JUMP JUMPDEST SWAP1 POP DUP3 DUP2 MSTORE PUSH1 0x20 DUP2 ADD DUP5 DUP5 DUP5 ADD GT ISZERO PUSH2 0xC72 JUMPI PUSH2 0xC71 PUSH2 0xB7A JUMP JUMPDEST JUMPDEST PUSH2 0xC7D DUP5 DUP3 DUP6 PUSH2 0xC36 JUMP JUMPDEST POP SWAP4 SWAP3 POP POP POP JUMP JUMPDEST PUSH0 DUP3 PUSH1 0x1F DUP4 ADD SLT PUSH2 0xC99 JUMPI PUSH2 0xC98 PUSH2 0xB76 JUMP JUMPDEST JUMPDEST DUP2 CALLDATALOAD PUSH2 0xCA9 DUP5 DUP3 PUSH1 0x20 DUP7 ADD PUSH2 0xC44 JUMP JUMPDEST SWAP2 POP POP SWAP3 SWAP2 POP POP JUMP JUMPDEST PUSH0 DUP1 PUSH1 0x40 DUP4 DUP6 SUB SLT ISZERO PUSH2 0xCC8 JUMPI PUSH2 0xCC7 PUSH2 0xB10 JUMP JUMPDEST JUMPDEST PUSH0 DUP4 ADD CALLDATALOAD PUSH8 0xFFFFFFFFFFFFFFFF DUP2 GT ISZERO PUSH2 0xCE5 JUMPI PUSH2 0xCE4 PUSH2 0xB14 JUMP JUMPDEST JUMPDEST PUSH2 0xCF1 DUP6 DUP3 DUP7 ADD PUSH2 0xC85 JUMP JUMPDEST SWAP3 POP POP PUSH1 0x20 PUSH2 0xD02 DUP6 DUP3 DUP7 ADD PUSH2 0xB37 JUMP JUMPDEST SWAP2 POP POP SWAP3 POP SWAP3 SWAP1 POP JUMP JUMPDEST PUSH0 DUP2 MLOAD SWAP1 POP SWAP2 SWAP1 POP JUMP JUMPDEST PUSH0 DUP3 DUP3 MSTORE PUSH1 0x20 DUP3 ADD SWAP1 POP SWAP3 SWAP2 POP POP JUMP JUMPDEST PUSH0 DUP2 SWAP1 POP PUSH1 0x20 DUP3 ADD SWAP1 POP SWAP2 SWAP1 POP JUMP JUMPDEST PUSH2 0xD3E DUP2 PUSH2 0xB18 JUMP JUMPDEST DUP3 MSTORE POP POP JUMP JUMPDEST PUSH0 DUP2 MLOAD SWAP1 POP SWAP2 SWAP1 POP JUMP JUMPDEST PUSH0 DUP3 DUP3 MSTORE PUSH1 0x20 DUP3 ADD SWAP1 POP SWAP3 SWAP2 POP POP JUMP JUMPDEST DUP3 DUP2 DUP4 MCOPY PUSH0 DUP4 DUP4 ADD MSTORE POP POP POP JUMP JUMPDEST PUSH0 PUSH2 0xD76 DUP3 PUSH2 0xD44 JUMP JUMPDEST PUSH2 0xD80 DUP2 DUP6 PUSH2 0xD4E JUMP JUMPDEST SWAP4 POP PUSH2 0xD90 DUP2 DUP6 PUSH1 0x20 DUP7 ADD PUSH2 0xD5E JUMP JUMPDEST PUSH2 0xD99 DUP2 PUSH2 0xB7E JUMP JUMPDEST DUP5 ADD SWAP2 POP POP SWAP3 SWAP2 POP POP JUMP JUMPDEST PUSH0 PUSH20 0xFFFFFFFFFFFFFFFFFFFFFFFFFFFFFFFFFFFFFFFF DUP3 AND SWAP1 POP SWAP2 SWAP1 POP JUMP JUMPDEST PUSH0 PUSH2 0xDCD DUP3 PUSH2 0xDA4 JUMP JUMPDEST SWAP1 POP SWAP2 SWAP1 POP JUMP JUMPDEST PUSH2 0xDDD DUP2 PUSH2 0xDC3 JUMP JUMPDEST DUP3 MSTORE POP POP JUMP JUMPDEST PUSH0 DUP2 ISZERO ISZERO SWAP1 POP SWAP2 SWAP1 POP JUMP JUMPDEST PUSH2 0xDF7 DUP2 PUSH2 0xDE3 JUMP JUMPDEST DUP3 MSTORE POP POP JUMP JUMPDEST PUSH0 PUSH1 0xA0 DUP4 ADD PUSH0 DUP4 ADD MLOAD PUSH2 0xE12 PUSH0 DUP7 ADD DUP3 PUSH2 0xD35 JUMP JUMPDEST POP PUSH1 0x20 DUP4 ADD MLOAD DUP5 DUP3 SUB PUSH1 0x20 DUP7 ADD MSTORE PUSH2 0xE2A DUP3 DUP3 PUSH2 0xD6C JUMP JUMPDEST SWAP2 POP POP PUSH1 0x40 DUP4 ADD MLOAD PUSH2 0xE3F PUSH1 0x40 DUP7 ADD DUP3 PUSH2 0xDD4 JUMP JUMPDEST POP PUSH1 0x60 DUP4 ADD MLOAD PUSH2 0xE52 PUSH1 0x60 DUP7 ADD DUP3 PUSH2 0xD35 JUMP JUMPDEST POP PUSH1 0x80 DUP4 ADD MLOAD PUSH2 0xE65 PUSH1 0x80 DUP7 ADD DUP3 PUSH2 0xDEE JUMP JUMPDEST POP DUP1 SWAP2 POP POP SWAP3 SWAP2 POP POP JUMP JUMPDEST PUSH0 PUSH2 0xE7B DUP4 DUP4 PUSH2 0xDFD JUMP JUMPDEST SWAP1 POP SWAP3 SWAP2 POP POP JUMP JUMPDEST PUSH0 PUSH1 0x20 DUP3 ADD SWAP1 POP SWAP2 SWAP1 POP JUMP JUMPDEST PUSH0 PUSH2 0xE99 DUP3 PUSH2 0xD0C JUMP JUMPDEST PUSH2 0xEA3 DUP2 DUP6 PUSH2 0xD16 JUMP JUMPDEST SWAP4 POP DUP4 PUSH1 0x20 DUP3 MUL DUP6 ADD PUSH2 0xEB5 DUP6 PUSH2 0xD26 JUMP JUMPDEST DUP1 PUSH0 JUMPDEST DUP6 DUP2 LT ISZERO PUSH2 0xEF0 JUMPI DUP5 DUP5 SUB DUP10 MSTORE DUP2 MLOAD PUSH2 0xED1 DUP6 DUP3 PUSH2 0xE70 JUMP JUMPDEST SWAP5 POP PUSH2 0xEDC DUP4 PUSH2 0xE83 JUMP JUMPDEST SWAP3 POP PUSH1 0x20 DUP11 ADD SWAP10 POP POP PUSH1 0x1 DUP2 ADD SWAP1 POP PUSH2 0xEB8 JUMP JUMPDEST POP DUP3 SWAP8 POP DUP8 SWAP6 POP POP POP POP POP POP SWAP3 SWAP2 POP POP JUMP JUMPDEST PUSH0 PUSH1 0x20 DUP3 ADD SWAP1 POP DUP2 DUP2 SUB PUSH0 DUP4 ADD MSTORE PUSH2 0xF1A DUP2 DUP5 PUSH2 0xE8F JUMP JUMPDEST SWAP1 POP SWAP3 SWAP2 POP POP JUMP JUMPDEST PUSH2 0xF2B DUP2 PUSH2 0xDC3 JUMP JUMPDEST DUP2 EQ PUSH2 0xF35 JUMPI PUSH0 DUP1 REVERT JUMPDEST POP JUMP JUMPDEST PUSH0 DUP2 CALLDATALOAD SWAP1 POP PUSH2 0xF46 DUP2 PUSH2 0xF22 JUMP JUMPDEST SWAP3 SWAP2 POP POP JUMP JUMPDEST PUSH0 DUP1 PUSH0 PUSH1 0x60 DUP5 DUP7 SUB SLT ISZERO PUSH2 0xF63 JUMPI PUSH2 0xF62 PUSH2 0xB10 JUMP JUMPDEST JUMPDEST PUSH0 DUP5 ADD CALLDATALOAD PUSH8 0xFFFFFFFFFFFFFFFF DUP2 GT ISZERO PUSH2 0xF80 JUMPI PUSH2 0xF7F PUSH2 0xB14 JUMP JUMPDEST JUMPDEST PUSH2 0xF8C DUP7 DUP3 DUP8 ADD PUSH2 0xC85 JUMP JUMPDEST SWAP4 POP POP PUSH1 0x20 PUSH2 0xF9D DUP7 DUP3 DUP8 ADD PUSH2 0xF38 JUMP JUMPDEST SWAP3 POP POP PUSH1 0x40 PUSH2 0xFAE DUP7 DUP3 DUP8 ADD PUSH2 0xB37 JUMP JUMPDEST SWAP2 POP POP SWAP3 POP SWAP3 POP SWAP3 JUMP JUMPDEST PUSH32 0x4E487B7100000000000000000000000000000000000000000000000000000000 PUSH0 MSTORE PUSH1 0x32 PUSH1 0x4 MSTORE PUSH1 0x24 PUSH0 REVERT JUMPDEST PUSH0 DUP3 DUP3 MSTORE PUSH1 0x20 DUP3 ADD SWAP1 POP SWAP3 SWAP2 POP POP JUMP JUMPDEST PUSH32 0x5468657265206973206E6F207461736B20576974682054686973204944000000 PUSH0 DUP3 ADD MSTORE POP JUMP JUMPDEST PUSH0 PUSH2 0x1029 PUSH1 0x1D DUP4 PUSH2 0xFE5 JUMP JUMPDEST SWAP2 POP PUSH2 0x1034 DUP3 PUSH2 0xFF5 JUMP JUMPDEST PUSH1 0x20 DUP3 ADD SWAP1 POP SWAP2 SWAP1 POP JUMP JUMPDEST PUSH0 PUSH1 0x20 DUP3 ADD SWAP1 POP DUP2 DUP2 SUB PUSH0 DUP4 ADD MSTORE PUSH2 0x1056 DUP2 PUSH2 0x101D JUMP JUMPDEST SWAP1 POP SWAP2 SWAP1 POP JUMP JUMPDEST PUSH32 0x5461736B20697320616C726561647920636F6D706C6574656400000000000000 PUSH0 DUP3 ADD MSTORE POP JUMP JUMPDEST PUSH0 PUSH2 0x1091 PUSH1 0x19 DUP4 PUSH2 0xFE5 JUMP JUMPDEST SWAP2 POP PUSH2 0x109C DUP3 PUSH2 0x105D JUMP JUMPDEST PUSH1 0x20 DUP3 ADD SWAP1 POP SWAP2 SWAP1 POP JUMP JUMPDEST PUSH0 PUSH1 0x20 DUP3 ADD SWAP1 POP DUP2 DUP2 SUB PUSH0 DUP4 ADD MSTORE PUSH2 0x10BE DUP2 PUSH2 0x1085 JUMP JUMPDEST SWAP1 POP SWAP2 SWAP1 POP JUMP JUMPDEST PUSH32 0x596F7520617265206E6F7420746865206F776E65720000000000000000000000 PUSH0 DUP3 ADD MSTORE POP JUMP JUMPDEST PUSH0 PUSH2 0x10F9 PUSH1 0x15 DUP4 PUSH2 0xFE5 JUMP JUMPDEST SWAP2 POP PUSH2 0x1104 DUP3 PUSH2 0x10C5 JUMP JUMPDEST PUSH1 0x20 DUP3 ADD SWAP1 POP SWAP2 SWAP1 POP JUMP JUMPDEST PUSH0 PUSH1 0x20 DUP3 ADD SWAP1 POP DUP2 DUP2 SUB PUSH0 DUP4 ADD MSTORE PUSH2 0x1126 DUP2 PUSH2 0x10ED JUMP JUMPDEST SWAP1 POP SWAP2 SWAP1 POP JUMP JUMPDEST PUSH32 0x4D75737420626520353020776F72647300000000000000000000000000000000 PUSH0 DUP3 ADD MSTORE POP JUMP JUMPDEST PUSH0 PUSH2 0x1161 PUSH1 0x10 DUP4 PUSH2 0xFE5 JUMP JUMPDEST SWAP2 POP PUSH2 0x116C DUP3 PUSH2 0x112D JUMP JUMPDEST PUSH1 0x20 DUP3 ADD SWAP1 POP SWAP2 SWAP1 POP JUMP JUMPDEST PUSH0 PUSH1 0x20 DUP3 ADD SWAP1 POP DUP2 DUP2 SUB PUSH0 DUP4 ADD MSTORE PUSH2 0x118E DUP2 PUSH2 0x1155 JUMP JUMPDEST SWAP1 POP SWAP2 SWAP1 POP JUMP JUMPDEST PUSH32 0x4E487B7100000000000000000000000000000000000000000000000000000000 PUSH0 MSTORE PUSH1 0x22 PUSH1 0x4 MSTORE PUSH1 0x24 PUSH0 REVERT JUMPDEST PUSH0 PUSH1 0x2 DUP3 DIV SWAP1 POP PUSH1 0x1 DUP3 AND DUP1 PUSH2 0x11D9 JUMPI PUSH1 0x7F DUP3 AND SWAP2 POP JUMPDEST PUSH1 0x20 DUP3 LT DUP2 SUB PUSH2 0x11EC JUMPI PUSH2 0x11EB PUSH2 0x1195 JUMP JUMPDEST JUMPDEST POP SWAP2 SWAP1 POP JUMP JUMPDEST PUSH0 DUP2 SWAP1 POP DUP2 PUSH0 MSTORE PUSH1 0x20 PUSH0 KECCAK256 SWAP1 POP SWAP2 SWAP1 POP JUMP JUMPDEST PUSH0 PUSH1 0x20 PUSH1 0x1F DUP4 ADD DIV SWAP1 POP SWAP2 SWAP1 POP JUMP JUMPDEST PUSH0 DUP3 DUP3 SHL SWAP1 POP SWAP3 SWAP2 POP POP JUMP JUMPDEST PUSH0 PUSH1 0x8 DUP4 MUL PUSH2 0x124E PUSH32 0xFFFFFFFFFFFFFFFFFFFFFFFFFFFFFFFFFFFFFFFFFFFFFFFFFFFFFFFFFFFFFFFF DUP3 PUSH2 0x1213 JUMP JUMPDEST PUSH2 0x1258 DUP7 DUP4 PUSH2 0x1213 JUMP JUMPDEST SWAP6 POP DUP1 NOT DUP5 AND SWAP4 POP DUP1 DUP7 AND DUP5 OR SWAP3 POP POP POP SWAP4 SWAP3 POP POP POP JUMP JUMPDEST PUSH0 DUP2 SWAP1 POP SWAP2 SWAP1 POP JUMP JUMPDEST PUSH0 PUSH2 0x1293 PUSH2 0x128E PUSH2 0x1289 DUP5 PUSH2 0xB18 JUMP JUMPDEST PUSH2 0x1270 JUMP JUMPDEST PUSH2 0xB18 JUMP JUMPDEST SWAP1 POP SWAP2 SWAP1 POP JUMP JUMPDEST PUSH0 DUP2 SWAP1 POP SWAP2 SWAP1 POP JUMP JUMPDEST PUSH2 0x12AC DUP4 PUSH2 0x1279 JUMP JUMPDEST PUSH2 0x12C0 PUSH2 0x12B8 DUP3 PUSH2 0x129A JUMP JUMPDEST DUP5 DUP5 SLOAD PUSH2 0x121F JUMP JUMPDEST DUP3 SSTORE POP POP POP POP JUMP JUMPDEST PUSH0 SWAP1 JUMP JUMPDEST PUSH2 0x12D4 PUSH2 0x12C8 JUMP JUMPDEST PUSH2 0x12DF DUP2 DUP5 DUP5 PUSH2 0x12A3 JUMP JUMPDEST POP POP POP JUMP JUMPDEST JUMPDEST DUP2 DUP2 LT ISZERO PUSH2 0x1302 JUMPI PUSH2 0x12F7 PUSH0 DUP3 PUSH2 0x12CC JUMP JUMPDEST PUSH1 0x1 DUP2 ADD SWAP1 POP PUSH2 0x12E5 JUMP JUMPDEST POP POP JUMP JUMPDEST PUSH1 0x1F DUP3 GT ISZERO PUSH2 0x1347 JUMPI PUSH2 0x1318 DUP2 PUSH2 0x11F2 JUMP JUMPDEST PUSH2 0x1321 DUP5 PUSH2 0x1204 JUMP JUMPDEST DUP2 ADD PUSH1 0x20 DUP6 LT ISZERO PUSH2 0x1330 JUMPI DUP2 SWAP1 POP JUMPDEST PUSH2 0x1344 PUSH2 0x133C DUP6 PUSH2 0x1204 JUMP JUMPDEST DUP4 ADD DUP3 PUSH2 0x12E4 JUMP JUMPDEST POP POP JUMPDEST POP POP POP JUMP JUMPDEST PUSH0 DUP3 DUP3 SHR SWAP1 POP SWAP3 SWAP2 POP POP JUMP JUMPDEST PUSH0 PUSH2 0x1367 PUSH0 NOT DUP5 PUSH1 0x8 MUL PUSH2 0x134C JUMP JUMPDEST NOT DUP1 DUP4 AND SWAP2 POP POP SWAP3 SWAP2 POP POP JUMP JUMPDEST PUSH0 PUSH2 0x137F DUP4 DUP4 PUSH2 0x1358 JUMP JUMPDEST SWAP2 POP DUP3 PUSH1 0x2 MUL DUP3 OR SWAP1 POP SWAP3 SWAP2 POP POP JUMP JUMPDEST PUSH2 0x1398 DUP3 PUSH2 0xD44 JUMP JUMPDEST PUSH8 0xFFFFFFFFFFFFFFFF DUP2 GT ISZERO PUSH2 0x13B1 JUMPI PUSH2 0x13B0 PUSH2 0xB8E JUMP JUMPDEST JUMPDEST PUSH2 0x13BB DUP3 SLOAD PUSH2 0x11C2 JUMP JUMPDEST PUSH2 0x13C6 DUP3 DUP3 DUP6 PUSH2 0x1306 JUMP JUMPDEST PUSH0 PUSH1 0x20 SWAP1 POP PUSH1 0x1F DUP4 GT PUSH1 0x1 DUP2 EQ PUSH2 0x13F7 JUMPI PUSH0 DUP5 ISZERO PUSH2 0x13E5 JUMPI DUP3 DUP8 ADD MLOAD SWAP1 POP JUMPDEST PUSH2 0x13EF DUP6 DUP3 PUSH2 0x1374 JUMP JUMPDEST DUP7 SSTORE POP PUSH2 0x1456 JUMP JUMPDEST PUSH1 0x1F NOT DUP5 AND PUSH2 0x1405 DUP7 PUSH2 0x11F2 JUMP JUMPDEST PUSH0 JUMPDEST DUP3 DUP2 LT ISZERO PUSH2 0x142C JUMPI DUP5 DUP10 ADD MLOAD DUP3 SSTORE PUSH1 0x1 DUP3 ADD SWAP2 POP PUSH1 0x20 DUP6 ADD SWAP5 POP PUSH1 0x20 DUP2 ADD SWAP1 POP PUSH2 0x1407 JUMP JUMPDEST DUP7 DUP4 LT ISZERO PUSH2 0x1449 JUMPI DUP5 DUP10 ADD MLOAD PUSH2 0x1445 PUSH1 0x1F DUP10 AND DUP3 PUSH2 0x1358 JUMP JUMPDEST DUP4 SSTORE POP JUMPDEST PUSH1 0x1 PUSH1 0x2 DUP9 MUL ADD DUP9 SSTORE POP POP POP JUMPDEST POP POP POP POP POP POP JUMP JUMPDEST PUSH32 0x5468657265206973206E6F205461736B20627920746869732069640000000000 PUSH0 DUP3 ADD MSTORE POP JUMP JUMPDEST PUSH0 PUSH2 0x1492 PUSH1 0x1B DUP4 PUSH2 0xFE5 JUMP JUMPDEST SWAP2 POP PUSH2 0x149D DUP3 PUSH2 0x145E JUMP JUMPDEST PUSH1 0x20 DUP3 ADD SWAP1 POP SWAP2 SWAP1 POP JUMP JUMPDEST PUSH0 PUSH1 0x20 DUP3 ADD SWAP1 POP DUP2 DUP2 SUB PUSH0 DUP4 ADD MSTORE PUSH2 0x14BF DUP2 PUSH2 0x1486 JUMP JUMPDEST SWAP1 POP SWAP2 SWAP1 POP JUMP JUMPDEST PUSH32 0x4E487B7100000000000000000000000000000000000000000000000000000000 PUSH0 MSTORE PUSH1 0x11 PUSH1 0x4 MSTORE PUSH1 0x24 PUSH0 REVERT JUMPDEST PUSH0 PUSH2 0x14FD DUP3 PUSH2 0xB18 JUMP JUMPDEST SWAP2 POP PUSH2 0x1508 DUP4 PUSH2 0xB18 JUMP JUMPDEST SWAP3 POP DUP3 DUP3 SUB SWAP1 POP DUP2 DUP2 GT ISZERO PUSH2 0x1520 JUMPI PUSH2 0x151F PUSH2 0x14C6 JUMP JUMPDEST JUMPDEST SWAP3 SWAP2 POP POP JUMP JUMPDEST PUSH32 0x4E487B7100000000000000000000000000000000000000000000000000000000 PUSH0 MSTORE PUSH1 0x31 PUSH1 0x4 MSTORE PUSH1 0x24 PUSH0 REVERT JUMPDEST PUSH32 0x54686973206973206E6F742076616C6964204164647265737300000000000000 PUSH0 DUP3 ADD MSTORE POP JUMP JUMPDEST PUSH0 PUSH2 0x1587 PUSH1 0x19 DUP4 PUSH2 0xFE5 JUMP JUMPDEST SWAP2 POP PUSH2 0x1592 DUP3 PUSH2 0x1553 JUMP JUMPDEST PUSH1 0x20 DUP3 ADD SWAP1 POP SWAP2 SWAP1 POP JUMP JUMPDEST PUSH0 PUSH1 0x20 DUP3 ADD SWAP1 POP DUP2 DUP2 SUB PUSH0 DUP4 ADD MSTORE PUSH2 0x15B4 DUP2 PUSH2 0x157B JUMP JUMPDEST SWAP1 POP SWAP2 SWAP1 POP JUMP JUMPDEST PUSH32 0x44656164204C696E65206D75737420626520616E20667574757265206E756D62 PUSH0 DUP3 ADD MSTORE PUSH32 0x6572000000000000000000000000000000000000000000000000000000000000 PUSH1 0x20 DUP3 ADD MSTORE POP JUMP JUMPDEST PUSH0 PUSH2 0x1615 PUSH1 0x22 DUP4 PUSH2 0xFE5 JUMP JUMPDEST SWAP2 POP PUSH2 0x1620 DUP3 PUSH2 0x15BB JUMP JUMPDEST PUSH1 0x40 DUP3 ADD SWAP1 POP SWAP2 SWAP1 POP JUMP JUMPDEST PUSH0 PUSH1 0x20 DUP3 ADD SWAP1 POP DUP2 DUP2 SUB PUSH0 DUP4 ADD MSTORE PUSH2 0x1642 DUP2 PUSH2 0x1609 JUMP JUMPDEST SWAP1 POP SWAP2 SWAP1 POP JUMP JUMPDEST PUSH0 PUSH2 0x1653 DUP3 PUSH2 0xB18 JUMP JUMPDEST SWAP2 POP PUSH32 0xFFFFFFFFFFFFFFFFFFFFFFFFFFFFFFFFFFFFFFFFFFFFFFFFFFFFFFFFFFFFFFFF DUP3 SUB PUSH2 0x1685 JUMPI PUSH2 0x1684 PUSH2 0x14C6 JUMP JUMPDEST JUMPDEST PUSH1 0x1 DUP3 ADD SWAP1 POP SWAP2 SWAP1 POP JUMP JUMPDEST PUSH2 0x1699 DUP2 PUSH2 0xB18 JUMP JUMPDEST DUP3 MSTORE POP POP JUMP JUMPDEST PUSH0 PUSH2 0x16A9 DUP3 PUSH2 0xD44 JUMP JUMPDEST PUSH2 0x16B3 DUP2 DUP6 PUSH2 0xFE5 JUMP JUMPDEST SWAP4 POP PUSH2 0x16C3 DUP2 DUP6 PUSH1 0x20 DUP7 ADD PUSH2 0xD5E JUMP JUMPDEST PUSH2 0x16CC DUP2 PUSH2 0xB7E JUMP JUMPDEST DUP5 ADD SWAP2 POP POP SWAP3 SWAP2 POP POP JUMP JUMPDEST PUSH2 0x16E0 DUP2 PUSH2 0xDC3 JUMP JUMPDEST DUP3 MSTORE POP POP JUMP JUMPDEST PUSH0 PUSH1 0x80 DUP3 ADD SWAP1 POP PUSH2 0x16F9 PUSH0 DUP4 ADD DUP8 PUSH2 0x1690 JUMP JUMPDEST DUP2 DUP2 SUB PUSH1 0x20 DUP4 ADD MSTORE PUSH2 0x170B DUP2 DUP7 PUSH2 0x169F JUMP JUMPDEST SWAP1 POP PUSH2 0x171A PUSH1 0x40 DUP4 ADD DUP6 PUSH2 0x16D7 JUMP JUMPDEST PUSH2 0x1727 PUSH1 0x60 DUP4 ADD DUP5 PUSH2 0x1690 JUMP JUMPDEST SWAP6 SWAP5 POP POP POP POP POP JUMP INVALID LOG2 PUSH5 0x6970667358 0x22 SLT KECCAK256 0xD7 0x28 0x4E DUP1 LOG3 PUSH27 0xA1B9CA26255E97B18F7B31AE82D156A96497CB2D5CF30A1243E864 PUSH20 0x6F6C634300081A00330000000000000000000000 "
				},
				"gasEstimates": {
					"creation": {
						"codeDepositCost": "1198000",
						"executionCost": "47617",
						"totalCost": "1245617"
					},
					"external": {
						"createTask(string,address,uint256)": "infinite",
						"deleteTask(uint256)": "infinite",
						"getAllTasks()": "infinite",
						"markTaskCompleted(uint256)": "infinite",
						"updateTask(string,uint256)": "infinite"
					}
				},
				"methodIdentifiers": {
					"createTask(string,address,uint256)": "ccd50119",
					"deleteTask(uint256)": "560f3192",
					"getAllTasks()": "779900b4",
					"markTaskCompleted(uint256)": "000b2bda",
					"updateTask(string,uint256)": "4779ba58"
				}
			},
			"storageLayout": {
				"storage": [
					{
						"astId": 50,
						"contract": "DecentralizedTaskManagementSystem/DecentralizedTaskManagementSystem.sol:TaskManager",
						"label": "owner",
						"offset": 0,
						"slot": "0",
						"type": "t_address"
					},
					{
						"astId": 64,
						"contract": "DecentralizedTaskManagementSystem/DecentralizedTaskManagementSystem.sol:TaskManager",
						"label": "tasks",
						"offset": 0,
						"slot": "1",
						"type": "t_mapping(t_uint256,t_struct(Task)12_storage)"
					},
					{
						"astId": 67,
						"contract": "DecentralizedTaskManagementSystem/DecentralizedTaskManagementSystem.sol:TaskManager",
						"label": "taskIds",
						"offset": 0,
						"slot": "2",
						"type": "t_array(t_uint256)dyn_storage"
					},
					{
						"astId": 126,
						"contract": "DecentralizedTaskManagementSystem/DecentralizedTaskManagementSystem.sol:TaskManager",
						"label": "nextTaskId",
						"offset": 0,
						"slot": "3",
						"type": "t_uint256"
					}
				],
				"types": {
					"t_address": {
						"encoding": "inplace",
						"label": "address",
						"numberOfBytes": "20"
					},
					"t_array(t_uint256)dyn_storage": {
						"base": "t_uint256",
						"encoding": "dynamic_array",
						"label": "uint256[]",
						"numberOfBytes": "32"
					},
					"t_bool": {
						"encoding": "inplace",
						"label": "bool",
						"numberOfBytes": "1"
					},
					"t_mapping(t_uint256,t_struct(Task)12_storage)": {
						"encoding": "mapping",
						"key": "t_uint256",
						"label": "mapping(uint256 => struct ITaskManager.Task)",
						"numberOfBytes": "32",
						"value": "t_struct(Task)12_storage"
					},
					"t_string_storage": {
						"encoding": "bytes",
						"label": "string",
						"numberOfBytes": "32"
					},
					"t_struct(Task)12_storage": {
						"encoding": "inplace",
						"label": "struct ITaskManager.Task",
						"members": [
							{
								"astId": 3,
								"contract": "DecentralizedTaskManagementSystem/DecentralizedTaskManagementSystem.sol:TaskManager",
								"label": "taskId",
								"offset": 0,
								"slot": "0",
								"type": "t_uint256"
							},
							{
								"astId": 5,
								"contract": "DecentralizedTaskManagementSystem/DecentralizedTaskManagementSystem.sol:TaskManager",
								"label": "description",
								"offset": 0,
								"slot": "1",
								"type": "t_string_storage"
							},
							{
								"astId": 7,
								"contract": "DecentralizedTaskManagementSystem/DecentralizedTaskManagementSystem.sol:TaskManager",
								"label": "assignTo",
								"offset": 0,
								"slot": "2",
								"type": "t_address"
							},
							{
								"astId": 9,
								"contract": "DecentralizedTaskManagementSystem/DecentralizedTaskManagementSystem.sol:TaskManager",
								"label": "deadLine",
								"offset": 0,
								"slot": "3",
								"type": "t_uint256"
							},
							{
								"astId": 11,
								"contract": "DecentralizedTaskManagementSystem/DecentralizedTaskManagementSystem.sol:TaskManager",
								"label": "isComplete",
								"offset": 0,
								"slot": "4",
								"type": "t_bool"
							}
						],
						"numberOfBytes": "160"
					},
					"t_uint256": {
						"encoding": "inplace",
						"label": "uint256",
						"numberOfBytes": "32"
					}
				}
			},
			"userdoc": {
				"kind": "user",
				"methods": {},
				"version": 1
			}
		}
	}
}