{
	"User Profile Manager/UserProfileManager.sol": {
		"UserProfileManager": {
			"abi": [
				{
					"inputs": [
						{
							"internalType": "address",
							"name": "_user",
							"type": "address"
						},
						{
							"internalType": "string",
							"name": "_name",
							"type": "string"
						}
					],
					"name": "addUser",
					"outputs": [],
					"stateMutability": "nonpayable",
					"type": "function"
				},
				{
					"inputs": [
						{
							"internalType": "address",
							"name": "_user",
							"type": "address"
						}
					],
					"name": "getUserInfo",
					"outputs": [
						{
							"internalType": "string",
							"name": "",
							"type": "string"
						},
						{
							"internalType": "uint256",
							"name": "",
							"type": "uint256"
						}
					],
					"stateMutability": "view",
					"type": "function"
				},
				{
					"inputs": [
						{
							"internalType": "uint256[]",
							"name": "amounts",
							"type": "uint256[]"
						}
					],
					"name": "processBalance",
					"outputs": [
						{
							"internalType": "uint256",
							"name": "",
							"type": "uint256"
						}
					],
					"stateMutability": "pure",
					"type": "function"
				},
				{
					"inputs": [
						{
							"internalType": "address",
							"name": "_user",
							"type": "address"
						},
						{
							"internalType": "uint256",
							"name": "_amount",
							"type": "uint256"
						}
					],
					"name": "updateBalance",
					"outputs": [],
					"stateMutability": "nonpayable",
					"type": "function"
				}
			],
			"devdoc": {
				"kind": "dev",
				"methods": {},
				"version": 1
			},
			"evm": {
				"assembly": "    /* \"User Profile Manager/UserProfileManager.sol\":57:1259  contract UserProfileManager {... */\n  mstore(0x40, 0x80)\n  callvalue\n  dup1\n  iszero\n  tag_1\n  jumpi\n  0x00\n  dup1\n  revert\ntag_1:\n  pop\n  dataSize(sub_0)\n  dup1\n  dataOffset(sub_0)\n  0x00\n  codecopy\n  0x00\n  return\nstop\n\nsub_0: assembly {\n        /* \"User Profile Manager/UserProfileManager.sol\":57:1259  contract UserProfileManager {... */\n      mstore(0x40, 0x80)\n      callvalue\n      dup1\n      iszero\n      tag_1\n      jumpi\n      0x00\n      dup1\n      revert\n    tag_1:\n      pop\n      jumpi(tag_2, lt(calldatasize, 0x04))\n      shr(0xe0, calldataload(0x00))\n      dup1\n      0x252ab621\n      eq\n      tag_3\n      jumpi\n      dup1\n      0x4b68d431\n      eq\n      tag_4\n      jumpi\n      dup1\n      0x6386c1c7\n      eq\n      tag_5\n      jumpi\n      dup1\n      0xe0b1cccb\n      eq\n      tag_6\n      jumpi\n    tag_2:\n      0x00\n      dup1\n      revert\n        /* \"User Profile Manager/UserProfileManager.sol\":977:1257  function processBalance(uint256[] calldata amounts) external pure returns(uint256){... */\n    tag_3:\n      tag_7\n      0x04\n      dup1\n      calldatasize\n      sub\n      dup2\n      add\n      swap1\n      tag_8\n      swap2\n      swap1\n      tag_9\n      jump\t// in\n    tag_8:\n      tag_10\n      jump\t// in\n    tag_7:\n      mload(0x40)\n      tag_11\n      swap2\n      swap1\n      tag_12\n      jump\t// in\n    tag_11:\n      mload(0x40)\n      dup1\n      swap2\n      sub\n      swap1\n      return\n        /* \"User Profile Manager/UserProfileManager.sol\":300:448  function addUser(address _user, string calldata _name) external {... */\n    tag_4:\n      tag_13\n      0x04\n      dup1\n      calldatasize\n      sub\n      dup2\n      add\n      swap1\n      tag_14\n      swap2\n      swap1\n      tag_15\n      jump\t// in\n    tag_14:\n      tag_16\n      jump\t// in\n    tag_13:\n      stop\n        /* \"User Profile Manager/UserProfileManager.sol\":498:711  function getUserInfo(address _user)... */\n    tag_5:\n      tag_17\n      0x04\n      dup1\n      calldatasize\n      sub\n      dup2\n      add\n      swap1\n      tag_18\n      swap2\n      swap1\n      tag_19\n      jump\t// in\n    tag_18:\n      tag_20\n      jump\t// in\n    tag_17:\n      mload(0x40)\n      tag_21\n      swap3\n      swap2\n      swap1\n      tag_22\n      jump\t// in\n    tag_21:\n      mload(0x40)\n      dup1\n      swap2\n      sub\n      swap1\n      return\n        /* \"User Profile Manager/UserProfileManager.sol\":768:909  function updateBalance(address _user, uint256 _amount) external {... */\n    tag_6:\n      tag_23\n      0x04\n      dup1\n      calldatasize\n      sub\n      dup2\n      add\n      swap1\n      tag_24\n      swap2\n      swap1\n      tag_25\n      jump\t// in\n    tag_24:\n      tag_26\n      jump\t// in\n    tag_23:\n      stop\n        /* \"User Profile Manager/UserProfileManager.sol\":977:1257  function processBalance(uint256[] calldata amounts) external pure returns(uint256){... */\n    tag_10:\n        /* \"User Profile Manager/UserProfileManager.sol\":1051:1058  uint256 */\n      0x00\n        /* \"User Profile Manager/UserProfileManager.sol\":1069:1089  uint256 totalBalance */\n      dup1\n        /* \"User Profile Manager/UserProfileManager.sol\":1092:1093  0 */\n      0x00\n        /* \"User Profile Manager/UserProfileManager.sol\":1069:1093  uint256 totalBalance = 0 */\n      swap1\n      pop\n        /* \"User Profile Manager/UserProfileManager.sol\":1107:1116  uint256 i */\n      0x00\n        /* \"User Profile Manager/UserProfileManager.sol\":1103:1221  for(uint256 i = 0; i < amounts.length; i++){... */\n    tag_28:\n        /* \"User Profile Manager/UserProfileManager.sol\":1126:1133  amounts */\n      dup5\n      dup5\n        /* \"User Profile Manager/UserProfileManager.sol\":1126:1140  amounts.length */\n      swap1\n      pop\n        /* \"User Profile Manager/UserProfileManager.sol\":1122:1123  i */\n      dup2\n        /* \"User Profile Manager/UserProfileManager.sol\":1122:1140  i < amounts.length */\n      lt\n        /* \"User Profile Manager/UserProfileManager.sol\":1103:1221  for(uint256 i = 0; i < amounts.length; i++){... */\n      iszero\n      tag_29\n      jumpi\n        /* \"User Profile Manager/UserProfileManager.sol\":1176:1183  amounts */\n      dup5\n      dup5\n        /* \"User Profile Manager/UserProfileManager.sol\":1184:1185  i */\n      dup3\n        /* \"User Profile Manager/UserProfileManager.sol\":1176:1186  amounts[i] */\n      dup2\n      dup2\n      lt\n      tag_31\n      jumpi\n      tag_32\n      tag_33\n      jump\t// in\n    tag_32:\n    tag_31:\n      swap1\n      pop\n      0x20\n      mul\n      add\n      calldataload\n        /* \"User Profile Manager/UserProfileManager.sol\":1160:1186  totalBalance += amounts[i] */\n      dup3\n      tag_34\n      swap2\n      swap1\n      tag_35\n      jump\t// in\n    tag_34:\n      swap2\n      pop\n        /* \"User Profile Manager/UserProfileManager.sol\":1142:1145  i++ */\n      dup1\n      dup1\n      0x01\n      add\n      swap2\n      pop\n      pop\n        /* \"User Profile Manager/UserProfileManager.sol\":1103:1221  for(uint256 i = 0; i < amounts.length; i++){... */\n      jump(tag_28)\n    tag_29:\n      pop\n        /* \"User Profile Manager/UserProfileManager.sol\":1238:1250  totalBalance */\n      dup1\n        /* \"User Profile Manager/UserProfileManager.sol\":1231:1250  return totalBalance */\n      swap2\n      pop\n      pop\n        /* \"User Profile Manager/UserProfileManager.sol\":977:1257  function processBalance(uint256[] calldata amounts) external pure returns(uint256){... */\n      swap3\n      swap2\n      pop\n      pop\n      jump\t// out\n        /* \"User Profile Manager/UserProfileManager.sol\":300:448  function addUser(address _user, string calldata _name) external {... */\n    tag_16:\n        /* \"User Profile Manager/UserProfileManager.sol\":389:403  User(_name, 0) */\n      mload(0x40)\n      dup1\n      0x40\n      add\n      0x40\n      mstore\n      dup1\n        /* \"User Profile Manager/UserProfileManager.sol\":394:399  _name */\n      dup4\n      dup4\n        /* \"User Profile Manager/UserProfileManager.sol\":389:403  User(_name, 0) */\n      dup1\n      dup1\n      0x1f\n      add\n      0x20\n      dup1\n      swap2\n      div\n      mul\n      0x20\n      add\n      mload(0x40)\n      swap1\n      dup2\n      add\n      0x40\n      mstore\n      dup1\n      swap4\n      swap3\n      swap2\n      swap1\n      dup2\n      dup2\n      mstore\n      0x20\n      add\n      dup4\n      dup4\n      dup1\n      dup3\n      dup5\n      calldatacopy\n      0x00\n      dup2\n      dup5\n      add\n      mstore\n      not(0x1f)\n      0x1f\n      dup3\n      add\n      and\n      swap1\n      pop\n      dup1\n      dup4\n      add\n      swap3\n      pop\n      pop\n      pop\n      pop\n      pop\n      pop\n      pop\n      dup2\n      mstore\n      0x20\n      add\n        /* \"User Profile Manager/UserProfileManager.sol\":401:402  0 */\n      0x00\n        /* \"User Profile Manager/UserProfileManager.sol\":389:403  User(_name, 0) */\n      dup2\n      mstore\n      pop\n        /* \"User Profile Manager/UserProfileManager.sol\":374:379  users */\n      0x00\n        /* \"User Profile Manager/UserProfileManager.sol\":374:386  users[_user] */\n      dup1\n        /* \"User Profile Manager/UserProfileManager.sol\":380:385  _user */\n      dup6\n        /* \"User Profile Manager/UserProfileManager.sol\":374:386  users[_user] */\n      0xffffffffffffffffffffffffffffffffffffffff\n      and\n      0xffffffffffffffffffffffffffffffffffffffff\n      and\n      dup2\n      mstore\n      0x20\n      add\n      swap1\n      dup2\n      mstore\n      0x20\n      add\n      0x00\n      keccak256\n        /* \"User Profile Manager/UserProfileManager.sol\":374:403  users[_user] = User(_name, 0) */\n      0x00\n      dup3\n      add\n      mload\n      dup2\n      0x00\n      add\n      swap1\n      dup2\n      tag_37\n      swap2\n      swap1\n      tag_38\n      jump\t// in\n    tag_37:\n      pop\n      0x20\n      dup3\n      add\n      mload\n      dup2\n      0x01\n      add\n      sstore\n      swap1\n      pop\n      pop\n        /* \"User Profile Manager/UserProfileManager.sol\":300:448  function addUser(address _user, string calldata _name) external {... */\n      pop\n      pop\n      pop\n      jump\t// out\n        /* \"User Profile Manager/UserProfileManager.sol\":498:711  function getUserInfo(address _user)... */\n    tag_20:\n        /* \"User Profile Manager/UserProfileManager.sol\":581:594  string memory */\n      0x60\n        /* \"User Profile Manager/UserProfileManager.sol\":596:603  uint256 */\n      0x00\n        /* \"User Profile Manager/UserProfileManager.sol\":619:639  User memory tempUser */\n      dup1\n        /* \"User Profile Manager/UserProfileManager.sol\":642:647  users */\n      0x00\n        /* \"User Profile Manager/UserProfileManager.sol\":642:654  users[_user] */\n      dup1\n        /* \"User Profile Manager/UserProfileManager.sol\":648:653  _user */\n      dup6\n        /* \"User Profile Manager/UserProfileManager.sol\":642:654  users[_user] */\n      0xffffffffffffffffffffffffffffffffffffffff\n      and\n      0xffffffffffffffffffffffffffffffffffffffff\n      and\n      dup2\n      mstore\n      0x20\n      add\n      swap1\n      dup2\n      mstore\n      0x20\n      add\n      0x00\n      keccak256\n        /* \"User Profile Manager/UserProfileManager.sol\":619:654  User memory tempUser = users[_user] */\n      mload(0x40)\n      dup1\n      0x40\n      add\n      0x40\n      mstore\n      swap1\n      dup2\n      0x00\n      dup3\n      add\n      dup1\n      sload\n      tag_40\n      swap1\n      tag_41\n      jump\t// in\n    tag_40:\n      dup1\n      0x1f\n      add\n      0x20\n      dup1\n      swap2\n      div\n      mul\n      0x20\n      add\n      mload(0x40)\n      swap1\n      dup2\n      add\n      0x40\n      mstore\n      dup1\n      swap3\n      swap2\n      swap1\n      dup2\n      dup2\n      mstore\n      0x20\n      add\n      dup3\n      dup1\n      sload\n      tag_42\n      swap1\n      tag_41\n      jump\t// in\n    tag_42:\n      dup1\n      iszero\n      tag_43\n      jumpi\n      dup1\n      0x1f\n      lt\n      tag_44\n      jumpi\n      0x0100\n      dup1\n      dup4\n      sload\n      div\n      mul\n      dup4\n      mstore\n      swap2\n      0x20\n      add\n      swap2\n      jump(tag_43)\n    tag_44:\n      dup3\n      add\n      swap2\n      swap1\n      0x00\n      mstore\n      keccak256(0x00, 0x20)\n      swap1\n    tag_45:\n      dup2\n      sload\n      dup2\n      mstore\n      swap1\n      0x01\n      add\n      swap1\n      0x20\n      add\n      dup1\n      dup4\n      gt\n      tag_45\n      jumpi\n      dup3\n      swap1\n      sub\n      0x1f\n      and\n      dup3\n      add\n      swap2\n    tag_43:\n      pop\n      pop\n      pop\n      pop\n      pop\n      dup2\n      mstore\n      0x20\n      add\n      0x01\n      dup3\n      add\n      sload\n      dup2\n      mstore\n      pop\n      pop\n      swap1\n      pop\n        /* \"User Profile Manager/UserProfileManager.sol\":672:680  tempUser */\n      dup1\n        /* \"User Profile Manager/UserProfileManager.sol\":672:685  tempUser.name */\n      0x00\n      add\n      mload\n        /* \"User Profile Manager/UserProfileManager.sol\":687:695  tempUser */\n      dup2\n        /* \"User Profile Manager/UserProfileManager.sol\":687:703  tempUser.balance */\n      0x20\n      add\n      mload\n        /* \"User Profile Manager/UserProfileManager.sol\":664:704  return (tempUser.name, tempUser.balance) */\n      swap3\n      pop\n      swap3\n      pop\n      pop\n        /* \"User Profile Manager/UserProfileManager.sol\":498:711  function getUserInfo(address _user)... */\n      swap2\n      pop\n      swap2\n      jump\t// out\n        /* \"User Profile Manager/UserProfileManager.sol\":768:909  function updateBalance(address _user, uint256 _amount) external {... */\n    tag_26:\n        /* \"User Profile Manager/UserProfileManager.sol\":866:873  _amount */\n      dup1\n        /* \"User Profile Manager/UserProfileManager.sol\":842:847  users */\n      0x00\n        /* \"User Profile Manager/UserProfileManager.sol\":842:854  users[_user] */\n      dup1\n        /* \"User Profile Manager/UserProfileManager.sol\":848:853  _user */\n      dup5\n        /* \"User Profile Manager/UserProfileManager.sol\":842:854  users[_user] */\n      0xffffffffffffffffffffffffffffffffffffffff\n      and\n      0xffffffffffffffffffffffffffffffffffffffff\n      and\n      dup2\n      mstore\n      0x20\n      add\n      swap1\n      dup2\n      mstore\n      0x20\n      add\n      0x00\n      keccak256\n        /* \"User Profile Manager/UserProfileManager.sol\":842:862  users[_user].balance */\n      0x01\n      add\n      0x00\n        /* \"User Profile Manager/UserProfileManager.sol\":842:873  users[_user].balance += _amount */\n      dup3\n      dup3\n      sload\n      tag_47\n      swap2\n      swap1\n      tag_35\n      jump\t// in\n    tag_47:\n      swap3\n      pop\n      pop\n      dup2\n      swap1\n      sstore\n      pop\n        /* \"User Profile Manager/UserProfileManager.sol\":768:909  function updateBalance(address _user, uint256 _amount) external {... */\n      pop\n      pop\n      jump\t// out\n        /* \"#utility.yul\":88:205   */\n    tag_49:\n        /* \"#utility.yul\":197:198   */\n      0x00\n        /* \"#utility.yul\":194:195   */\n      dup1\n        /* \"#utility.yul\":187:199   */\n      revert\n        /* \"#utility.yul\":211:328   */\n    tag_50:\n        /* \"#utility.yul\":320:321   */\n      0x00\n        /* \"#utility.yul\":317:318   */\n      dup1\n        /* \"#utility.yul\":310:322   */\n      revert\n        /* \"#utility.yul\":334:451   */\n    tag_51:\n        /* \"#utility.yul\":443:444   */\n      0x00\n        /* \"#utility.yul\":440:441   */\n      dup1\n        /* \"#utility.yul\":433:445   */\n      revert\n        /* \"#utility.yul\":457:574   */\n    tag_52:\n        /* \"#utility.yul\":566:567   */\n      0x00\n        /* \"#utility.yul\":563:564   */\n      dup1\n        /* \"#utility.yul\":556:568   */\n      revert\n        /* \"#utility.yul\":580:697   */\n    tag_53:\n        /* \"#utility.yul\":689:690   */\n      0x00\n        /* \"#utility.yul\":686:687   */\n      dup1\n        /* \"#utility.yul\":679:691   */\n      revert\n        /* \"#utility.yul\":720:1288   */\n    tag_54:\n        /* \"#utility.yul\":793:801   */\n      0x00\n        /* \"#utility.yul\":803:809   */\n      dup1\n        /* \"#utility.yul\":853:856   */\n      dup4\n        /* \"#utility.yul\":846:850   */\n      0x1f\n        /* \"#utility.yul\":838:844   */\n      dup5\n        /* \"#utility.yul\":834:851   */\n      add\n        /* \"#utility.yul\":830:857   */\n      slt\n        /* \"#utility.yul\":820:942   */\n      tag_95\n      jumpi\n        /* \"#utility.yul\":861:940   */\n      tag_96\n      tag_51\n      jump\t// in\n    tag_96:\n        /* \"#utility.yul\":820:942   */\n    tag_95:\n        /* \"#utility.yul\":974:980   */\n      dup3\n        /* \"#utility.yul\":961:981   */\n      calldataload\n        /* \"#utility.yul\":951:981   */\n      swap1\n      pop\n        /* \"#utility.yul\":1004:1022   */\n      0xffffffffffffffff\n        /* \"#utility.yul\":996:1002   */\n      dup2\n        /* \"#utility.yul\":993:1023   */\n      gt\n        /* \"#utility.yul\":990:1107   */\n      iszero\n      tag_97\n      jumpi\n        /* \"#utility.yul\":1026:1105   */\n      tag_98\n      tag_52\n      jump\t// in\n    tag_98:\n        /* \"#utility.yul\":990:1107   */\n    tag_97:\n        /* \"#utility.yul\":1140:1144   */\n      0x20\n        /* \"#utility.yul\":1132:1138   */\n      dup4\n        /* \"#utility.yul\":1128:1145   */\n      add\n        /* \"#utility.yul\":1116:1145   */\n      swap2\n      pop\n        /* \"#utility.yul\":1194:1197   */\n      dup4\n        /* \"#utility.yul\":1186:1190   */\n      0x20\n        /* \"#utility.yul\":1178:1184   */\n      dup3\n        /* \"#utility.yul\":1174:1191   */\n      mul\n        /* \"#utility.yul\":1164:1172   */\n      dup4\n        /* \"#utility.yul\":1160:1192   */\n      add\n        /* \"#utility.yul\":1157:1198   */\n      gt\n        /* \"#utility.yul\":1154:1282   */\n      iszero\n      tag_99\n      jumpi\n        /* \"#utility.yul\":1201:1280   */\n      tag_100\n      tag_53\n      jump\t// in\n    tag_100:\n        /* \"#utility.yul\":1154:1282   */\n    tag_99:\n        /* \"#utility.yul\":720:1288   */\n      swap3\n      pop\n      swap3\n      swap1\n      pop\n      jump\t// out\n        /* \"#utility.yul\":1294:1853   */\n    tag_9:\n        /* \"#utility.yul\":1380:1386   */\n      0x00\n        /* \"#utility.yul\":1388:1394   */\n      dup1\n        /* \"#utility.yul\":1437:1439   */\n      0x20\n        /* \"#utility.yul\":1425:1434   */\n      dup4\n        /* \"#utility.yul\":1416:1423   */\n      dup6\n        /* \"#utility.yul\":1412:1435   */\n      sub\n        /* \"#utility.yul\":1408:1440   */\n      slt\n        /* \"#utility.yul\":1405:1524   */\n      iszero\n      tag_102\n      jumpi\n        /* \"#utility.yul\":1443:1522   */\n      tag_103\n      tag_49\n      jump\t// in\n    tag_103:\n        /* \"#utility.yul\":1405:1524   */\n    tag_102:\n        /* \"#utility.yul\":1591:1592   */\n      0x00\n        /* \"#utility.yul\":1580:1589   */\n      dup4\n        /* \"#utility.yul\":1576:1593   */\n      add\n        /* \"#utility.yul\":1563:1594   */\n      calldataload\n        /* \"#utility.yul\":1621:1639   */\n      0xffffffffffffffff\n        /* \"#utility.yul\":1613:1619   */\n      dup2\n        /* \"#utility.yul\":1610:1640   */\n      gt\n        /* \"#utility.yul\":1607:1724   */\n      iszero\n      tag_104\n      jumpi\n        /* \"#utility.yul\":1643:1722   */\n      tag_105\n      tag_50\n      jump\t// in\n    tag_105:\n        /* \"#utility.yul\":1607:1724   */\n    tag_104:\n        /* \"#utility.yul\":1756:1836   */\n      tag_106\n        /* \"#utility.yul\":1828:1835   */\n      dup6\n        /* \"#utility.yul\":1819:1825   */\n      dup3\n        /* \"#utility.yul\":1808:1817   */\n      dup7\n        /* \"#utility.yul\":1804:1826   */\n      add\n        /* \"#utility.yul\":1756:1836   */\n      tag_54\n      jump\t// in\n    tag_106:\n        /* \"#utility.yul\":1738:1836   */\n      swap3\n      pop\n      swap3\n      pop\n        /* \"#utility.yul\":1534:1846   */\n      pop\n        /* \"#utility.yul\":1294:1853   */\n      swap3\n      pop\n      swap3\n      swap1\n      pop\n      jump\t// out\n        /* \"#utility.yul\":1859:1936   */\n    tag_55:\n        /* \"#utility.yul\":1896:1903   */\n      0x00\n        /* \"#utility.yul\":1925:1930   */\n      dup2\n        /* \"#utility.yul\":1914:1930   */\n      swap1\n      pop\n        /* \"#utility.yul\":1859:1936   */\n      swap2\n      swap1\n      pop\n      jump\t// out\n        /* \"#utility.yul\":1942:2060   */\n    tag_56:\n        /* \"#utility.yul\":2029:2053   */\n      tag_109\n        /* \"#utility.yul\":2047:2052   */\n      dup2\n        /* \"#utility.yul\":2029:2053   */\n      tag_55\n      jump\t// in\n    tag_109:\n        /* \"#utility.yul\":2024:2027   */\n      dup3\n        /* \"#utility.yul\":2017:2054   */\n      mstore\n        /* \"#utility.yul\":1942:2060   */\n      pop\n      pop\n      jump\t// out\n        /* \"#utility.yul\":2066:2288   */\n    tag_12:\n        /* \"#utility.yul\":2159:2163   */\n      0x00\n        /* \"#utility.yul\":2197:2199   */\n      0x20\n        /* \"#utility.yul\":2186:2195   */\n      dup3\n        /* \"#utility.yul\":2182:2200   */\n      add\n        /* \"#utility.yul\":2174:2200   */\n      swap1\n      pop\n        /* \"#utility.yul\":2210:2281   */\n      tag_111\n        /* \"#utility.yul\":2278:2279   */\n      0x00\n        /* \"#utility.yul\":2267:2276   */\n      dup4\n        /* \"#utility.yul\":2263:2280   */\n      add\n        /* \"#utility.yul\":2254:2260   */\n      dup5\n        /* \"#utility.yul\":2210:2281   */\n      tag_56\n      jump\t// in\n    tag_111:\n        /* \"#utility.yul\":2066:2288   */\n      swap3\n      swap2\n      pop\n      pop\n      jump\t// out\n        /* \"#utility.yul\":2294:2420   */\n    tag_57:\n        /* \"#utility.yul\":2331:2338   */\n      0x00\n        /* \"#utility.yul\":2371:2413   */\n      0xffffffffffffffffffffffffffffffffffffffff\n        /* \"#utility.yul\":2364:2369   */\n      dup3\n        /* \"#utility.yul\":2360:2414   */\n      and\n        /* \"#utility.yul\":2349:2414   */\n      swap1\n      pop\n        /* \"#utility.yul\":2294:2420   */\n      swap2\n      swap1\n      pop\n      jump\t// out\n        /* \"#utility.yul\":2426:2522   */\n    tag_58:\n        /* \"#utility.yul\":2463:2470   */\n      0x00\n        /* \"#utility.yul\":2492:2516   */\n      tag_114\n        /* \"#utility.yul\":2510:2515   */\n      dup3\n        /* \"#utility.yul\":2492:2516   */\n      tag_57\n      jump\t// in\n    tag_114:\n        /* \"#utility.yul\":2481:2516   */\n      swap1\n      pop\n        /* \"#utility.yul\":2426:2522   */\n      swap2\n      swap1\n      pop\n      jump\t// out\n        /* \"#utility.yul\":2528:2650   */\n    tag_59:\n        /* \"#utility.yul\":2601:2625   */\n      tag_116\n        /* \"#utility.yul\":2619:2624   */\n      dup2\n        /* \"#utility.yul\":2601:2625   */\n      tag_58\n      jump\t// in\n    tag_116:\n        /* \"#utility.yul\":2594:2599   */\n      dup2\n        /* \"#utility.yul\":2591:2626   */\n      eq\n        /* \"#utility.yul\":2581:2644   */\n      tag_117\n      jumpi\n        /* \"#utility.yul\":2640:2641   */\n      0x00\n        /* \"#utility.yul\":2637:2638   */\n      dup1\n        /* \"#utility.yul\":2630:2642   */\n      revert\n        /* \"#utility.yul\":2581:2644   */\n    tag_117:\n        /* \"#utility.yul\":2528:2650   */\n      pop\n      jump\t// out\n        /* \"#utility.yul\":2656:2795   */\n    tag_60:\n        /* \"#utility.yul\":2702:2707   */\n      0x00\n        /* \"#utility.yul\":2740:2746   */\n      dup2\n        /* \"#utility.yul\":2727:2747   */\n      calldataload\n        /* \"#utility.yul\":2718:2747   */\n      swap1\n      pop\n        /* \"#utility.yul\":2756:2789   */\n      tag_119\n        /* \"#utility.yul\":2783:2788   */\n      dup2\n        /* \"#utility.yul\":2756:2789   */\n      tag_59\n      jump\t// in\n    tag_119:\n        /* \"#utility.yul\":2656:2795   */\n      swap3\n      swap2\n      pop\n      pop\n      jump\t// out\n        /* \"#utility.yul\":2815:3368   */\n    tag_61:\n        /* \"#utility.yul\":2873:2881   */\n      0x00\n        /* \"#utility.yul\":2883:2889   */\n      dup1\n        /* \"#utility.yul\":2933:2936   */\n      dup4\n        /* \"#utility.yul\":2926:2930   */\n      0x1f\n        /* \"#utility.yul\":2918:2924   */\n      dup5\n        /* \"#utility.yul\":2914:2931   */\n      add\n        /* \"#utility.yul\":2910:2937   */\n      slt\n        /* \"#utility.yul\":2900:3022   */\n      tag_121\n      jumpi\n        /* \"#utility.yul\":2941:3020   */\n      tag_122\n      tag_51\n      jump\t// in\n    tag_122:\n        /* \"#utility.yul\":2900:3022   */\n    tag_121:\n        /* \"#utility.yul\":3054:3060   */\n      dup3\n        /* \"#utility.yul\":3041:3061   */\n      calldataload\n        /* \"#utility.yul\":3031:3061   */\n      swap1\n      pop\n        /* \"#utility.yul\":3084:3102   */\n      0xffffffffffffffff\n        /* \"#utility.yul\":3076:3082   */\n      dup2\n        /* \"#utility.yul\":3073:3103   */\n      gt\n        /* \"#utility.yul\":3070:3187   */\n      iszero\n      tag_123\n      jumpi\n        /* \"#utility.yul\":3106:3185   */\n      tag_124\n      tag_52\n      jump\t// in\n    tag_124:\n        /* \"#utility.yul\":3070:3187   */\n    tag_123:\n        /* \"#utility.yul\":3220:3224   */\n      0x20\n        /* \"#utility.yul\":3212:3218   */\n      dup4\n        /* \"#utility.yul\":3208:3225   */\n      add\n        /* \"#utility.yul\":3196:3225   */\n      swap2\n      pop\n        /* \"#utility.yul\":3274:3277   */\n      dup4\n        /* \"#utility.yul\":3266:3270   */\n      0x01\n        /* \"#utility.yul\":3258:3264   */\n      dup3\n        /* \"#utility.yul\":3254:3271   */\n      mul\n        /* \"#utility.yul\":3244:3252   */\n      dup4\n        /* \"#utility.yul\":3240:3272   */\n      add\n        /* \"#utility.yul\":3237:3278   */\n      gt\n        /* \"#utility.yul\":3234:3362   */\n      iszero\n      tag_125\n      jumpi\n        /* \"#utility.yul\":3281:3360   */\n      tag_126\n      tag_53\n      jump\t// in\n    tag_126:\n        /* \"#utility.yul\":3234:3362   */\n    tag_125:\n        /* \"#utility.yul\":2815:3368   */\n      swap3\n      pop\n      swap3\n      swap1\n      pop\n      jump\t// out\n        /* \"#utility.yul\":3374:4048   */\n    tag_15:\n        /* \"#utility.yul\":3454:3460   */\n      0x00\n        /* \"#utility.yul\":3462:3468   */\n      dup1\n        /* \"#utility.yul\":3470:3476   */\n      0x00\n        /* \"#utility.yul\":3519:3521   */\n      0x40\n        /* \"#utility.yul\":3507:3516   */\n      dup5\n        /* \"#utility.yul\":3498:3505   */\n      dup7\n        /* \"#utility.yul\":3494:3517   */\n      sub\n        /* \"#utility.yul\":3490:3522   */\n      slt\n        /* \"#utility.yul\":3487:3606   */\n      iszero\n      tag_128\n      jumpi\n        /* \"#utility.yul\":3525:3604   */\n      tag_129\n      tag_49\n      jump\t// in\n    tag_129:\n        /* \"#utility.yul\":3487:3606   */\n    tag_128:\n        /* \"#utility.yul\":3645:3646   */\n      0x00\n        /* \"#utility.yul\":3670:3723   */\n      tag_130\n        /* \"#utility.yul\":3715:3722   */\n      dup7\n        /* \"#utility.yul\":3706:3712   */\n      dup3\n        /* \"#utility.yul\":3695:3704   */\n      dup8\n        /* \"#utility.yul\":3691:3713   */\n      add\n        /* \"#utility.yul\":3670:3723   */\n      tag_60\n      jump\t// in\n    tag_130:\n        /* \"#utility.yul\":3660:3723   */\n      swap4\n      pop\n        /* \"#utility.yul\":3616:3733   */\n      pop\n        /* \"#utility.yul\":3800:3802   */\n      0x20\n        /* \"#utility.yul\":3789:3798   */\n      dup5\n        /* \"#utility.yul\":3785:3803   */\n      add\n        /* \"#utility.yul\":3772:3804   */\n      calldataload\n        /* \"#utility.yul\":3831:3849   */\n      0xffffffffffffffff\n        /* \"#utility.yul\":3823:3829   */\n      dup2\n        /* \"#utility.yul\":3820:3850   */\n      gt\n        /* \"#utility.yul\":3817:3934   */\n      iszero\n      tag_131\n      jumpi\n        /* \"#utility.yul\":3853:3932   */\n      tag_132\n      tag_50\n      jump\t// in\n    tag_132:\n        /* \"#utility.yul\":3817:3934   */\n    tag_131:\n        /* \"#utility.yul\":3966:4031   */\n      tag_133\n        /* \"#utility.yul\":4023:4030   */\n      dup7\n        /* \"#utility.yul\":4014:4020   */\n      dup3\n        /* \"#utility.yul\":4003:4012   */\n      dup8\n        /* \"#utility.yul\":3999:4021   */\n      add\n        /* \"#utility.yul\":3966:4031   */\n      tag_61\n      jump\t// in\n    tag_133:\n        /* \"#utility.yul\":3948:4031   */\n      swap3\n      pop\n      swap3\n      pop\n        /* \"#utility.yul\":3743:4041   */\n      pop\n        /* \"#utility.yul\":3374:4048   */\n      swap3\n      pop\n      swap3\n      pop\n      swap3\n      jump\t// out\n        /* \"#utility.yul\":4054:4383   */\n    tag_19:\n        /* \"#utility.yul\":4113:4119   */\n      0x00\n        /* \"#utility.yul\":4162:4164   */\n      0x20\n        /* \"#utility.yul\":4150:4159   */\n      dup3\n        /* \"#utility.yul\":4141:4148   */\n      dup5\n        /* \"#utility.yul\":4137:4160   */\n      sub\n        /* \"#utility.yul\":4133:4165   */\n      slt\n        /* \"#utility.yul\":4130:4249   */\n      iszero\n      tag_135\n      jumpi\n        /* \"#utility.yul\":4168:4247   */\n      tag_136\n      tag_49\n      jump\t// in\n    tag_136:\n        /* \"#utility.yul\":4130:4249   */\n    tag_135:\n        /* \"#utility.yul\":4288:4289   */\n      0x00\n        /* \"#utility.yul\":4313:4366   */\n      tag_137\n        /* \"#utility.yul\":4358:4365   */\n      dup5\n        /* \"#utility.yul\":4349:4355   */\n      dup3\n        /* \"#utility.yul\":4338:4347   */\n      dup6\n        /* \"#utility.yul\":4334:4356   */\n      add\n        /* \"#utility.yul\":4313:4366   */\n      tag_60\n      jump\t// in\n    tag_137:\n        /* \"#utility.yul\":4303:4366   */\n      swap2\n      pop\n        /* \"#utility.yul\":4259:4376   */\n      pop\n        /* \"#utility.yul\":4054:4383   */\n      swap3\n      swap2\n      pop\n      pop\n      jump\t// out\n        /* \"#utility.yul\":4389:4488   */\n    tag_62:\n        /* \"#utility.yul\":4441:4447   */\n      0x00\n        /* \"#utility.yul\":4475:4480   */\n      dup2\n        /* \"#utility.yul\":4469:4481   */\n      mload\n        /* \"#utility.yul\":4459:4481   */\n      swap1\n      pop\n        /* \"#utility.yul\":4389:4488   */\n      swap2\n      swap1\n      pop\n      jump\t// out\n        /* \"#utility.yul\":4494:4663   */\n    tag_63:\n        /* \"#utility.yul\":4578:4589   */\n      0x00\n        /* \"#utility.yul\":4612:4618   */\n      dup3\n        /* \"#utility.yul\":4607:4610   */\n      dup3\n        /* \"#utility.yul\":4600:4619   */\n      mstore\n        /* \"#utility.yul\":4652:4656   */\n      0x20\n        /* \"#utility.yul\":4647:4650   */\n      dup3\n        /* \"#utility.yul\":4643:4657   */\n      add\n        /* \"#utility.yul\":4628:4657   */\n      swap1\n      pop\n        /* \"#utility.yul\":4494:4663   */\n      swap3\n      swap2\n      pop\n      pop\n      jump\t// out\n        /* \"#utility.yul\":4669:4808   */\n    tag_64:\n        /* \"#utility.yul\":4758:4764   */\n      dup3\n        /* \"#utility.yul\":4753:4756   */\n      dup2\n        /* \"#utility.yul\":4748:4751   */\n      dup4\n        /* \"#utility.yul\":4742:4765   */\n      mcopy\n        /* \"#utility.yul\":4799:4800   */\n      0x00\n        /* \"#utility.yul\":4790:4796   */\n      dup4\n        /* \"#utility.yul\":4785:4788   */\n      dup4\n        /* \"#utility.yul\":4781:4797   */\n      add\n        /* \"#utility.yul\":4774:4801   */\n      mstore\n        /* \"#utility.yul\":4669:4808   */\n      pop\n      pop\n      pop\n      jump\t// out\n        /* \"#utility.yul\":4814:4916   */\n    tag_65:\n        /* \"#utility.yul\":4855:4861   */\n      0x00\n        /* \"#utility.yul\":4906:4908   */\n      0x1f\n        /* \"#utility.yul\":4902:4909   */\n      not\n        /* \"#utility.yul\":4897:4899   */\n      0x1f\n        /* \"#utility.yul\":4890:4895   */\n      dup4\n        /* \"#utility.yul\":4886:4900   */\n      add\n        /* \"#utility.yul\":4882:4910   */\n      and\n        /* \"#utility.yul\":4872:4910   */\n      swap1\n      pop\n        /* \"#utility.yul\":4814:4916   */\n      swap2\n      swap1\n      pop\n      jump\t// out\n        /* \"#utility.yul\":4922:5299   */\n    tag_66:\n        /* \"#utility.yul\":5010:5013   */\n      0x00\n        /* \"#utility.yul\":5038:5077   */\n      tag_143\n        /* \"#utility.yul\":5071:5076   */\n      dup3\n        /* \"#utility.yul\":5038:5077   */\n      tag_62\n      jump\t// in\n    tag_143:\n        /* \"#utility.yul\":5093:5164   */\n      tag_144\n        /* \"#utility.yul\":5157:5163   */\n      dup2\n        /* \"#utility.yul\":5152:5155   */\n      dup6\n        /* \"#utility.yul\":5093:5164   */\n      tag_63\n      jump\t// in\n    tag_144:\n        /* \"#utility.yul\":5086:5164   */\n      swap4\n      pop\n        /* \"#utility.yul\":5173:5238   */\n      tag_145\n        /* \"#utility.yul\":5231:5237   */\n      dup2\n        /* \"#utility.yul\":5226:5229   */\n      dup6\n        /* \"#utility.yul\":5219:5223   */\n      0x20\n        /* \"#utility.yul\":5212:5217   */\n      dup7\n        /* \"#utility.yul\":5208:5224   */\n      add\n        /* \"#utility.yul\":5173:5238   */\n      tag_64\n      jump\t// in\n    tag_145:\n        /* \"#utility.yul\":5263:5292   */\n      tag_146\n        /* \"#utility.yul\":5285:5291   */\n      dup2\n        /* \"#utility.yul\":5263:5292   */\n      tag_65\n      jump\t// in\n    tag_146:\n        /* \"#utility.yul\":5258:5261   */\n      dup5\n        /* \"#utility.yul\":5254:5293   */\n      add\n        /* \"#utility.yul\":5247:5293   */\n      swap2\n      pop\n        /* \"#utility.yul\":5014:5299   */\n      pop\n        /* \"#utility.yul\":4922:5299   */\n      swap3\n      swap2\n      pop\n      pop\n      jump\t// out\n        /* \"#utility.yul\":5305:5728   */\n    tag_22:\n        /* \"#utility.yul\":5446:5450   */\n      0x00\n        /* \"#utility.yul\":5484:5486   */\n      0x40\n        /* \"#utility.yul\":5473:5482   */\n      dup3\n        /* \"#utility.yul\":5469:5487   */\n      add\n        /* \"#utility.yul\":5461:5487   */\n      swap1\n      pop\n        /* \"#utility.yul\":5533:5542   */\n      dup2\n        /* \"#utility.yul\":5527:5531   */\n      dup2\n        /* \"#utility.yul\":5523:5543   */\n      sub\n        /* \"#utility.yul\":5519:5520   */\n      0x00\n        /* \"#utility.yul\":5508:5517   */\n      dup4\n        /* \"#utility.yul\":5504:5521   */\n      add\n        /* \"#utility.yul\":5497:5544   */\n      mstore\n        /* \"#utility.yul\":5561:5639   */\n      tag_148\n        /* \"#utility.yul\":5634:5638   */\n      dup2\n        /* \"#utility.yul\":5625:5631   */\n      dup6\n        /* \"#utility.yul\":5561:5639   */\n      tag_66\n      jump\t// in\n    tag_148:\n        /* \"#utility.yul\":5553:5639   */\n      swap1\n      pop\n        /* \"#utility.yul\":5649:5721   */\n      tag_149\n        /* \"#utility.yul\":5717:5719   */\n      0x20\n        /* \"#utility.yul\":5706:5715   */\n      dup4\n        /* \"#utility.yul\":5702:5720   */\n      add\n        /* \"#utility.yul\":5693:5699   */\n      dup5\n        /* \"#utility.yul\":5649:5721   */\n      tag_56\n      jump\t// in\n    tag_149:\n        /* \"#utility.yul\":5305:5728   */\n      swap4\n      swap3\n      pop\n      pop\n      pop\n      jump\t// out\n        /* \"#utility.yul\":5734:5856   */\n    tag_67:\n        /* \"#utility.yul\":5807:5831   */\n      tag_151\n        /* \"#utility.yul\":5825:5830   */\n      dup2\n        /* \"#utility.yul\":5807:5831   */\n      tag_55\n      jump\t// in\n    tag_151:\n        /* \"#utility.yul\":5800:5805   */\n      dup2\n        /* \"#utility.yul\":5797:5832   */\n      eq\n        /* \"#utility.yul\":5787:5850   */\n      tag_152\n      jumpi\n        /* \"#utility.yul\":5846:5847   */\n      0x00\n        /* \"#utility.yul\":5843:5844   */\n      dup1\n        /* \"#utility.yul\":5836:5848   */\n      revert\n        /* \"#utility.yul\":5787:5850   */\n    tag_152:\n        /* \"#utility.yul\":5734:5856   */\n      pop\n      jump\t// out\n        /* \"#utility.yul\":5862:6001   */\n    tag_68:\n        /* \"#utility.yul\":5908:5913   */\n      0x00\n        /* \"#utility.yul\":5946:5952   */\n      dup2\n        /* \"#utility.yul\":5933:5953   */\n      calldataload\n        /* \"#utility.yul\":5924:5953   */\n      swap1\n      pop\n        /* \"#utility.yul\":5962:5995   */\n      tag_154\n        /* \"#utility.yul\":5989:5994   */\n      dup2\n        /* \"#utility.yul\":5962:5995   */\n      tag_67\n      jump\t// in\n    tag_154:\n        /* \"#utility.yul\":5862:6001   */\n      swap3\n      swap2\n      pop\n      pop\n      jump\t// out\n        /* \"#utility.yul\":6007:6481   */\n    tag_25:\n        /* \"#utility.yul\":6075:6081   */\n      0x00\n        /* \"#utility.yul\":6083:6089   */\n      dup1\n        /* \"#utility.yul\":6132:6134   */\n      0x40\n        /* \"#utility.yul\":6120:6129   */\n      dup4\n        /* \"#utility.yul\":6111:6118   */\n      dup6\n        /* \"#utility.yul\":6107:6130   */\n      sub\n        /* \"#utility.yul\":6103:6135   */\n      slt\n        /* \"#utility.yul\":6100:6219   */\n      iszero\n      tag_156\n      jumpi\n        /* \"#utility.yul\":6138:6217   */\n      tag_157\n      tag_49\n      jump\t// in\n    tag_157:\n        /* \"#utility.yul\":6100:6219   */\n    tag_156:\n        /* \"#utility.yul\":6258:6259   */\n      0x00\n        /* \"#utility.yul\":6283:6336   */\n      tag_158\n        /* \"#utility.yul\":6328:6335   */\n      dup6\n        /* \"#utility.yul\":6319:6325   */\n      dup3\n        /* \"#utility.yul\":6308:6317   */\n      dup7\n        /* \"#utility.yul\":6304:6326   */\n      add\n        /* \"#utility.yul\":6283:6336   */\n      tag_60\n      jump\t// in\n    tag_158:\n        /* \"#utility.yul\":6273:6336   */\n      swap3\n      pop\n        /* \"#utility.yul\":6229:6346   */\n      pop\n        /* \"#utility.yul\":6385:6387   */\n      0x20\n        /* \"#utility.yul\":6411:6464   */\n      tag_159\n        /* \"#utility.yul\":6456:6463   */\n      dup6\n        /* \"#utility.yul\":6447:6453   */\n      dup3\n        /* \"#utility.yul\":6436:6445   */\n      dup7\n        /* \"#utility.yul\":6432:6454   */\n      add\n        /* \"#utility.yul\":6411:6464   */\n      tag_68\n      jump\t// in\n    tag_159:\n        /* \"#utility.yul\":6401:6464   */\n      swap2\n      pop\n        /* \"#utility.yul\":6356:6474   */\n      pop\n        /* \"#utility.yul\":6007:6481   */\n      swap3\n      pop\n      swap3\n      swap1\n      pop\n      jump\t// out\n        /* \"#utility.yul\":6487:6667   */\n    tag_33:\n        /* \"#utility.yul\":6535:6612   */\n      0x4e487b7100000000000000000000000000000000000000000000000000000000\n        /* \"#utility.yul\":6532:6533   */\n      0x00\n        /* \"#utility.yul\":6525:6613   */\n      mstore\n        /* \"#utility.yul\":6632:6636   */\n      0x32\n        /* \"#utility.yul\":6629:6630   */\n      0x04\n        /* \"#utility.yul\":6622:6637   */\n      mstore\n        /* \"#utility.yul\":6656:6660   */\n      0x24\n        /* \"#utility.yul\":6653:6654   */\n      0x00\n        /* \"#utility.yul\":6646:6661   */\n      revert\n        /* \"#utility.yul\":6673:6853   */\n    tag_69:\n        /* \"#utility.yul\":6721:6798   */\n      0x4e487b7100000000000000000000000000000000000000000000000000000000\n        /* \"#utility.yul\":6718:6719   */\n      0x00\n        /* \"#utility.yul\":6711:6799   */\n      mstore\n        /* \"#utility.yul\":6818:6822   */\n      0x11\n        /* \"#utility.yul\":6815:6816   */\n      0x04\n        /* \"#utility.yul\":6808:6823   */\n      mstore\n        /* \"#utility.yul\":6842:6846   */\n      0x24\n        /* \"#utility.yul\":6839:6840   */\n      0x00\n        /* \"#utility.yul\":6832:6847   */\n      revert\n        /* \"#utility.yul\":6859:7050   */\n    tag_35:\n        /* \"#utility.yul\":6899:6902   */\n      0x00\n        /* \"#utility.yul\":6918:6938   */\n      tag_163\n        /* \"#utility.yul\":6936:6937   */\n      dup3\n        /* \"#utility.yul\":6918:6938   */\n      tag_55\n      jump\t// in\n    tag_163:\n        /* \"#utility.yul\":6913:6938   */\n      swap2\n      pop\n        /* \"#utility.yul\":6952:6972   */\n      tag_164\n        /* \"#utility.yul\":6970:6971   */\n      dup4\n        /* \"#utility.yul\":6952:6972   */\n      tag_55\n      jump\t// in\n    tag_164:\n        /* \"#utility.yul\":6947:6972   */\n      swap3\n      pop\n        /* \"#utility.yul\":6995:6996   */\n      dup3\n        /* \"#utility.yul\":6992:6993   */\n      dup3\n        /* \"#utility.yul\":6988:6997   */\n      add\n        /* \"#utility.yul\":6981:6997   */\n      swap1\n      pop\n        /* \"#utility.yul\":7016:7019   */\n      dup1\n        /* \"#utility.yul\":7013:7014   */\n      dup3\n        /* \"#utility.yul\":7010:7020   */\n      gt\n        /* \"#utility.yul\":7007:7043   */\n      iszero\n      tag_165\n      jumpi\n        /* \"#utility.yul\":7023:7041   */\n      tag_166\n      tag_69\n      jump\t// in\n    tag_166:\n        /* \"#utility.yul\":7007:7043   */\n    tag_165:\n        /* \"#utility.yul\":6859:7050   */\n      swap3\n      swap2\n      pop\n      pop\n      jump\t// out\n        /* \"#utility.yul\":7056:7236   */\n    tag_70:\n        /* \"#utility.yul\":7104:7181   */\n      0x4e487b7100000000000000000000000000000000000000000000000000000000\n        /* \"#utility.yul\":7101:7102   */\n      0x00\n        /* \"#utility.yul\":7094:7182   */\n      mstore\n        /* \"#utility.yul\":7201:7205   */\n      0x41\n        /* \"#utility.yul\":7198:7199   */\n      0x04\n        /* \"#utility.yul\":7191:7206   */\n      mstore\n        /* \"#utility.yul\":7225:7229   */\n      0x24\n        /* \"#utility.yul\":7222:7223   */\n      0x00\n        /* \"#utility.yul\":7215:7230   */\n      revert\n        /* \"#utility.yul\":7242:7422   */\n    tag_71:\n        /* \"#utility.yul\":7290:7367   */\n      0x4e487b7100000000000000000000000000000000000000000000000000000000\n        /* \"#utility.yul\":7287:7288   */\n      0x00\n        /* \"#utility.yul\":7280:7368   */\n      mstore\n        /* \"#utility.yul\":7387:7391   */\n      0x22\n        /* \"#utility.yul\":7384:7385   */\n      0x04\n        /* \"#utility.yul\":7377:7392   */\n      mstore\n        /* \"#utility.yul\":7411:7415   */\n      0x24\n        /* \"#utility.yul\":7408:7409   */\n      0x00\n        /* \"#utility.yul\":7401:7416   */\n      revert\n        /* \"#utility.yul\":7428:7748   */\n    tag_41:\n        /* \"#utility.yul\":7472:7478   */\n      0x00\n        /* \"#utility.yul\":7509:7510   */\n      0x02\n        /* \"#utility.yul\":7503:7507   */\n      dup3\n        /* \"#utility.yul\":7499:7511   */\n      div\n        /* \"#utility.yul\":7489:7511   */\n      swap1\n      pop\n        /* \"#utility.yul\":7556:7557   */\n      0x01\n        /* \"#utility.yul\":7550:7554   */\n      dup3\n        /* \"#utility.yul\":7546:7558   */\n      and\n        /* \"#utility.yul\":7577:7595   */\n      dup1\n        /* \"#utility.yul\":7567:7648   */\n      tag_170\n      jumpi\n        /* \"#utility.yul\":7633:7637   */\n      0x7f\n        /* \"#utility.yul\":7625:7631   */\n      dup3\n        /* \"#utility.yul\":7621:7638   */\n      and\n        /* \"#utility.yul\":7611:7638   */\n      swap2\n      pop\n        /* \"#utility.yul\":7567:7648   */\n    tag_170:\n        /* \"#utility.yul\":7695:7697   */\n      0x20\n        /* \"#utility.yul\":7687:7693   */\n      dup3\n        /* \"#utility.yul\":7684:7698   */\n      lt\n        /* \"#utility.yul\":7664:7682   */\n      dup2\n        /* \"#utility.yul\":7661:7699   */\n      sub\n        /* \"#utility.yul\":7658:7742   */\n      tag_171\n      jumpi\n        /* \"#utility.yul\":7714:7732   */\n      tag_172\n      tag_71\n      jump\t// in\n    tag_172:\n        /* \"#utility.yul\":7658:7742   */\n    tag_171:\n        /* \"#utility.yul\":7479:7748   */\n      pop\n        /* \"#utility.yul\":7428:7748   */\n      swap2\n      swap1\n      pop\n      jump\t// out\n        /* \"#utility.yul\":7754:7895   */\n    tag_72:\n        /* \"#utility.yul\":7803:7807   */\n      0x00\n        /* \"#utility.yul\":7826:7829   */\n      dup2\n        /* \"#utility.yul\":7818:7829   */\n      swap1\n      pop\n        /* \"#utility.yul\":7849:7852   */\n      dup2\n        /* \"#utility.yul\":7846:7847   */\n      0x00\n        /* \"#utility.yul\":7839:7853   */\n      mstore\n        /* \"#utility.yul\":7883:7887   */\n      0x20\n        /* \"#utility.yul\":7880:7881   */\n      0x00\n        /* \"#utility.yul\":7870:7888   */\n      keccak256\n        /* \"#utility.yul\":7862:7888   */\n      swap1\n      pop\n        /* \"#utility.yul\":7754:7895   */\n      swap2\n      swap1\n      pop\n      jump\t// out\n        /* \"#utility.yul\":7901:7994   */\n    tag_73:\n        /* \"#utility.yul\":7938:7944   */\n      0x00\n        /* \"#utility.yul\":7985:7987   */\n      0x20\n        /* \"#utility.yul\":7980:7982   */\n      0x1f\n        /* \"#utility.yul\":7973:7978   */\n      dup4\n        /* \"#utility.yul\":7969:7983   */\n      add\n        /* \"#utility.yul\":7965:7988   */\n      div\n        /* \"#utility.yul\":7955:7988   */\n      swap1\n      pop\n        /* \"#utility.yul\":7901:7994   */\n      swap2\n      swap1\n      pop\n      jump\t// out\n        /* \"#utility.yul\":8000:8107   */\n    tag_74:\n        /* \"#utility.yul\":8044:8052   */\n      0x00\n        /* \"#utility.yul\":8094:8099   */\n      dup3\n        /* \"#utility.yul\":8088:8092   */\n      dup3\n        /* \"#utility.yul\":8084:8100   */\n      shl\n        /* \"#utility.yul\":8063:8100   */\n      swap1\n      pop\n        /* \"#utility.yul\":8000:8107   */\n      swap3\n      swap2\n      pop\n      pop\n      jump\t// out\n        /* \"#utility.yul\":8113:8506   */\n    tag_75:\n        /* \"#utility.yul\":8182:8188   */\n      0x00\n        /* \"#utility.yul\":8232:8233   */\n      0x08\n        /* \"#utility.yul\":8220:8230   */\n      dup4\n        /* \"#utility.yul\":8216:8234   */\n      mul\n        /* \"#utility.yul\":8255:8352   */\n      tag_177\n        /* \"#utility.yul\":8285:8351   */\n      0xffffffffffffffffffffffffffffffffffffffffffffffffffffffffffffffff\n        /* \"#utility.yul\":8274:8283   */\n      dup3\n        /* \"#utility.yul\":8255:8352   */\n      tag_74\n      jump\t// in\n    tag_177:\n        /* \"#utility.yul\":8373:8412   */\n      tag_178\n        /* \"#utility.yul\":8403:8411   */\n      dup7\n        /* \"#utility.yul\":8392:8401   */\n      dup4\n        /* \"#utility.yul\":8373:8412   */\n      tag_74\n      jump\t// in\n    tag_178:\n        /* \"#utility.yul\":8361:8412   */\n      swap6\n      pop\n        /* \"#utility.yul\":8445:8449   */\n      dup1\n        /* \"#utility.yul\":8441:8450   */\n      not\n        /* \"#utility.yul\":8434:8439   */\n      dup5\n        /* \"#utility.yul\":8430:8451   */\n      and\n        /* \"#utility.yul\":8421:8451   */\n      swap4\n      pop\n        /* \"#utility.yul\":8494:8498   */\n      dup1\n        /* \"#utility.yul\":8484:8492   */\n      dup7\n        /* \"#utility.yul\":8480:8499   */\n      and\n        /* \"#utility.yul\":8473:8478   */\n      dup5\n        /* \"#utility.yul\":8470:8500   */\n      or\n        /* \"#utility.yul\":8460:8500   */\n      swap3\n      pop\n        /* \"#utility.yul\":8189:8506   */\n      pop\n      pop\n        /* \"#utility.yul\":8113:8506   */\n      swap4\n      swap3\n      pop\n      pop\n      pop\n      jump\t// out\n        /* \"#utility.yul\":8512:8572   */\n    tag_76:\n        /* \"#utility.yul\":8540:8543   */\n      0x00\n        /* \"#utility.yul\":8561:8566   */\n      dup2\n        /* \"#utility.yul\":8554:8566   */\n      swap1\n      pop\n        /* \"#utility.yul\":8512:8572   */\n      swap2\n      swap1\n      pop\n      jump\t// out\n        /* \"#utility.yul\":8578:8720   */\n    tag_77:\n        /* \"#utility.yul\":8628:8637   */\n      0x00\n        /* \"#utility.yul\":8661:8714   */\n      tag_181\n        /* \"#utility.yul\":8679:8713   */\n      tag_182\n        /* \"#utility.yul\":8688:8712   */\n      tag_183\n        /* \"#utility.yul\":8706:8711   */\n      dup5\n        /* \"#utility.yul\":8688:8712   */\n      tag_55\n      jump\t// in\n    tag_183:\n        /* \"#utility.yul\":8679:8713   */\n      tag_76\n      jump\t// in\n    tag_182:\n        /* \"#utility.yul\":8661:8714   */\n      tag_55\n      jump\t// in\n    tag_181:\n        /* \"#utility.yul\":8648:8714   */\n      swap1\n      pop\n        /* \"#utility.yul\":8578:8720   */\n      swap2\n      swap1\n      pop\n      jump\t// out\n        /* \"#utility.yul\":8726:8801   */\n    tag_78:\n        /* \"#utility.yul\":8769:8772   */\n      0x00\n        /* \"#utility.yul\":8790:8795   */\n      dup2\n        /* \"#utility.yul\":8783:8795   */\n      swap1\n      pop\n        /* \"#utility.yul\":8726:8801   */\n      swap2\n      swap1\n      pop\n      jump\t// out\n        /* \"#utility.yul\":8807:9076   */\n    tag_79:\n        /* \"#utility.yul\":8917:8956   */\n      tag_186\n        /* \"#utility.yul\":8948:8955   */\n      dup4\n        /* \"#utility.yul\":8917:8956   */\n      tag_77\n      jump\t// in\n    tag_186:\n        /* \"#utility.yul\":8978:9069   */\n      tag_187\n        /* \"#utility.yul\":9027:9068   */\n      tag_188\n        /* \"#utility.yul\":9051:9067   */\n      dup3\n        /* \"#utility.yul\":9027:9068   */\n      tag_78\n      jump\t// in\n    tag_188:\n        /* \"#utility.yul\":9019:9025   */\n      dup5\n        /* \"#utility.yul\":9012:9016   */\n      dup5\n        /* \"#utility.yul\":9006:9017   */\n      sload\n        /* \"#utility.yul\":8978:9069   */\n      tag_75\n      jump\t// in\n    tag_187:\n        /* \"#utility.yul\":8972:8976   */\n      dup3\n        /* \"#utility.yul\":8965:9070   */\n      sstore\n        /* \"#utility.yul\":8883:9076   */\n      pop\n        /* \"#utility.yul\":8807:9076   */\n      pop\n      pop\n      pop\n      jump\t// out\n        /* \"#utility.yul\":9082:9155   */\n    tag_80:\n        /* \"#utility.yul\":9127:9130   */\n      0x00\n        /* \"#utility.yul\":9082:9155   */\n      swap1\n      jump\t// out\n        /* \"#utility.yul\":9161:9350   */\n    tag_81:\n        /* \"#utility.yul\":9238:9270   */\n      tag_191\n      tag_80\n      jump\t// in\n    tag_191:\n        /* \"#utility.yul\":9279:9344   */\n      tag_192\n        /* \"#utility.yul\":9337:9343   */\n      dup2\n        /* \"#utility.yul\":9329:9335   */\n      dup5\n        /* \"#utility.yul\":9323:9327   */\n      dup5\n        /* \"#utility.yul\":9279:9344   */\n      tag_79\n      jump\t// in\n    tag_192:\n        /* \"#utility.yul\":9214:9350   */\n      pop\n        /* \"#utility.yul\":9161:9350   */\n      pop\n      pop\n      jump\t// out\n        /* \"#utility.yul\":9356:9542   */\n    tag_82:\n        /* \"#utility.yul\":9416:9536   */\n    tag_194:\n        /* \"#utility.yul\":9433:9436   */\n      dup2\n        /* \"#utility.yul\":9426:9431   */\n      dup2\n        /* \"#utility.yul\":9423:9437   */\n      lt\n        /* \"#utility.yul\":9416:9536   */\n      iszero\n      tag_196\n      jumpi\n        /* \"#utility.yul\":9487:9526   */\n      tag_197\n        /* \"#utility.yul\":9524:9525   */\n      0x00\n        /* \"#utility.yul\":9517:9522   */\n      dup3\n        /* \"#utility.yul\":9487:9526   */\n      tag_81\n      jump\t// in\n    tag_197:\n        /* \"#utility.yul\":9460:9461   */\n      0x01\n        /* \"#utility.yul\":9453:9458   */\n      dup2\n        /* \"#utility.yul\":9449:9462   */\n      add\n        /* \"#utility.yul\":9440:9462   */\n      swap1\n      pop\n        /* \"#utility.yul\":9416:9536   */\n      jump(tag_194)\n    tag_196:\n        /* \"#utility.yul\":9356:9542   */\n      pop\n      pop\n      jump\t// out\n        /* \"#utility.yul\":9548:10091   */\n    tag_83:\n        /* \"#utility.yul\":9649:9651   */\n      0x1f\n        /* \"#utility.yul\":9644:9647   */\n      dup3\n        /* \"#utility.yul\":9641:9652   */\n      gt\n        /* \"#utility.yul\":9638:10084   */\n      iszero\n      tag_199\n      jumpi\n        /* \"#utility.yul\":9683:9721   */\n      tag_200\n        /* \"#utility.yul\":9715:9720   */\n      dup2\n        /* \"#utility.yul\":9683:9721   */\n      tag_72\n      jump\t// in\n    tag_200:\n        /* \"#utility.yul\":9767:9796   */\n      tag_201\n        /* \"#utility.yul\":9785:9795   */\n      dup5\n        /* \"#utility.yul\":9767:9796   */\n      tag_73\n      jump\t// in\n    tag_201:\n        /* \"#utility.yul\":9757:9765   */\n      dup2\n        /* \"#utility.yul\":9753:9797   */\n      add\n        /* \"#utility.yul\":9950:9952   */\n      0x20\n        /* \"#utility.yul\":9938:9948   */\n      dup6\n        /* \"#utility.yul\":9935:9953   */\n      lt\n        /* \"#utility.yul\":9932:9981   */\n      iszero\n      tag_202\n      jumpi\n        /* \"#utility.yul\":9971:9979   */\n      dup2\n        /* \"#utility.yul\":9956:9979   */\n      swap1\n      pop\n        /* \"#utility.yul\":9932:9981   */\n    tag_202:\n        /* \"#utility.yul\":9994:10074   */\n      tag_203\n        /* \"#utility.yul\":10050:10072   */\n      tag_204\n        /* \"#utility.yul\":10068:10071   */\n      dup6\n        /* \"#utility.yul\":10050:10072   */\n      tag_73\n      jump\t// in\n    tag_204:\n        /* \"#utility.yul\":10040:10048   */\n      dup4\n        /* \"#utility.yul\":10036:10073   */\n      add\n        /* \"#utility.yul\":10023:10034   */\n      dup3\n        /* \"#utility.yul\":9994:10074   */\n      tag_82\n      jump\t// in\n    tag_203:\n        /* \"#utility.yul\":9653:10084   */\n      pop\n      pop\n        /* \"#utility.yul\":9638:10084   */\n    tag_199:\n        /* \"#utility.yul\":9548:10091   */\n      pop\n      pop\n      pop\n      jump\t// out\n        /* \"#utility.yul\":10097:10214   */\n    tag_84:\n        /* \"#utility.yul\":10151:10159   */\n      0x00\n        /* \"#utility.yul\":10201:10206   */\n      dup3\n        /* \"#utility.yul\":10195:10199   */\n      dup3\n        /* \"#utility.yul\":10191:10207   */\n      shr\n        /* \"#utility.yul\":10170:10207   */\n      swap1\n      pop\n        /* \"#utility.yul\":10097:10214   */\n      swap3\n      swap2\n      pop\n      pop\n      jump\t// out\n        /* \"#utility.yul\":10220:10389   */\n    tag_85:\n        /* \"#utility.yul\":10264:10270   */\n      0x00\n        /* \"#utility.yul\":10297:10348   */\n      tag_207\n        /* \"#utility.yul\":10345:10346   */\n      0x00\n        /* \"#utility.yul\":10341:10347   */\n      not\n        /* \"#utility.yul\":10333:10338   */\n      dup5\n        /* \"#utility.yul\":10330:10331   */\n      0x08\n        /* \"#utility.yul\":10326:10339   */\n      mul\n        /* \"#utility.yul\":10297:10348   */\n      tag_84\n      jump\t// in\n    tag_207:\n        /* \"#utility.yul\":10293:10349   */\n      not\n        /* \"#utility.yul\":10378:10382   */\n      dup1\n        /* \"#utility.yul\":10372:10376   */\n      dup4\n        /* \"#utility.yul\":10368:10383   */\n      and\n        /* \"#utility.yul\":10358:10383   */\n      swap2\n      pop\n        /* \"#utility.yul\":10271:10389   */\n      pop\n        /* \"#utility.yul\":10220:10389   */\n      swap3\n      swap2\n      pop\n      pop\n      jump\t// out\n        /* \"#utility.yul\":10394:10689   */\n    tag_86:\n        /* \"#utility.yul\":10470:10474   */\n      0x00\n        /* \"#utility.yul\":10616:10645   */\n      tag_209\n        /* \"#utility.yul\":10641:10644   */\n      dup4\n        /* \"#utility.yul\":10635:10639   */\n      dup4\n        /* \"#utility.yul\":10616:10645   */\n      tag_85\n      jump\t// in\n    tag_209:\n        /* \"#utility.yul\":10608:10645   */\n      swap2\n      pop\n        /* \"#utility.yul\":10678:10681   */\n      dup3\n        /* \"#utility.yul\":10675:10676   */\n      0x02\n        /* \"#utility.yul\":10671:10682   */\n      mul\n        /* \"#utility.yul\":10665:10669   */\n      dup3\n        /* \"#utility.yul\":10662:10683   */\n      or\n        /* \"#utility.yul\":10654:10683   */\n      swap1\n      pop\n        /* \"#utility.yul\":10394:10689   */\n      swap3\n      swap2\n      pop\n      pop\n      jump\t// out\n        /* \"#utility.yul\":10694:12089   */\n    tag_38:\n        /* \"#utility.yul\":10811:10848   */\n      tag_211\n        /* \"#utility.yul\":10844:10847   */\n      dup3\n        /* \"#utility.yul\":10811:10848   */\n      tag_62\n      jump\t// in\n    tag_211:\n        /* \"#utility.yul\":10913:10931   */\n      0xffffffffffffffff\n        /* \"#utility.yul\":10905:10911   */\n      dup2\n        /* \"#utility.yul\":10902:10932   */\n      gt\n        /* \"#utility.yul\":10899:10955   */\n      iszero\n      tag_212\n      jumpi\n        /* \"#utility.yul\":10935:10953   */\n      tag_213\n      tag_70\n      jump\t// in\n    tag_213:\n        /* \"#utility.yul\":10899:10955   */\n    tag_212:\n        /* \"#utility.yul\":10979:11017   */\n      tag_214\n        /* \"#utility.yul\":11011:11015   */\n      dup3\n        /* \"#utility.yul\":11005:11016   */\n      sload\n        /* \"#utility.yul\":10979:11017   */\n      tag_41\n      jump\t// in\n    tag_214:\n        /* \"#utility.yul\":11064:11131   */\n      tag_215\n        /* \"#utility.yul\":11124:11130   */\n      dup3\n        /* \"#utility.yul\":11116:11122   */\n      dup3\n        /* \"#utility.yul\":11110:11114   */\n      dup6\n        /* \"#utility.yul\":11064:11131   */\n      tag_83\n      jump\t// in\n    tag_215:\n        /* \"#utility.yul\":11158:11159   */\n      0x00\n        /* \"#utility.yul\":11182:11186   */\n      0x20\n        /* \"#utility.yul\":11169:11186   */\n      swap1\n      pop\n        /* \"#utility.yul\":11214:11216   */\n      0x1f\n        /* \"#utility.yul\":11206:11212   */\n      dup4\n        /* \"#utility.yul\":11203:11217   */\n      gt\n        /* \"#utility.yul\":11231:11232   */\n      0x01\n        /* \"#utility.yul\":11226:11844   */\n      dup2\n      eq\n      tag_217\n      jumpi\n        /* \"#utility.yul\":11888:11889   */\n      0x00\n        /* \"#utility.yul\":11905:11911   */\n      dup5\n        /* \"#utility.yul\":11902:11979   */\n      iszero\n      tag_218\n      jumpi\n        /* \"#utility.yul\":11954:11963   */\n      dup3\n        /* \"#utility.yul\":11949:11952   */\n      dup8\n        /* \"#utility.yul\":11945:11964   */\n      add\n        /* \"#utility.yul\":11939:11965   */\n      mload\n        /* \"#utility.yul\":11930:11965   */\n      swap1\n      pop\n        /* \"#utility.yul\":11902:11979   */\n    tag_218:\n        /* \"#utility.yul\":12005:12072   */\n      tag_219\n        /* \"#utility.yul\":12065:12071   */\n      dup6\n        /* \"#utility.yul\":12058:12063   */\n      dup3\n        /* \"#utility.yul\":12005:12072   */\n      tag_86\n      jump\t// in\n    tag_219:\n        /* \"#utility.yul\":11999:12003   */\n      dup7\n        /* \"#utility.yul\":11992:12073   */\n      sstore\n        /* \"#utility.yul\":11861:12083   */\n      pop\n        /* \"#utility.yul\":11196:12083   */\n      jump(tag_216)\n        /* \"#utility.yul\":11226:11844   */\n    tag_217:\n        /* \"#utility.yul\":11278:11282   */\n      0x1f\n        /* \"#utility.yul\":11274:11283   */\n      not\n        /* \"#utility.yul\":11266:11272   */\n      dup5\n        /* \"#utility.yul\":11262:11284   */\n      and\n        /* \"#utility.yul\":11312:11349   */\n      tag_220\n        /* \"#utility.yul\":11344:11348   */\n      dup7\n        /* \"#utility.yul\":11312:11349   */\n      tag_72\n      jump\t// in\n    tag_220:\n        /* \"#utility.yul\":11371:11372   */\n      0x00\n        /* \"#utility.yul\":11385:11593   */\n    tag_221:\n        /* \"#utility.yul\":11399:11406   */\n      dup3\n        /* \"#utility.yul\":11396:11397   */\n      dup2\n        /* \"#utility.yul\":11393:11407   */\n      lt\n        /* \"#utility.yul\":11385:11593   */\n      iszero\n      tag_223\n      jumpi\n        /* \"#utility.yul\":11478:11487   */\n      dup5\n        /* \"#utility.yul\":11473:11476   */\n      dup10\n        /* \"#utility.yul\":11469:11488   */\n      add\n        /* \"#utility.yul\":11463:11489   */\n      mload\n        /* \"#utility.yul\":11455:11461   */\n      dup3\n        /* \"#utility.yul\":11448:11490   */\n      sstore\n        /* \"#utility.yul\":11529:11530   */\n      0x01\n        /* \"#utility.yul\":11521:11527   */\n      dup3\n        /* \"#utility.yul\":11517:11531   */\n      add\n        /* \"#utility.yul\":11507:11531   */\n      swap2\n      pop\n        /* \"#utility.yul\":11576:11578   */\n      0x20\n        /* \"#utility.yul\":11565:11574   */\n      dup6\n        /* \"#utility.yul\":11561:11579   */\n      add\n        /* \"#utility.yul\":11548:11579   */\n      swap5\n      pop\n        /* \"#utility.yul\":11422:11426   */\n      0x20\n        /* \"#utility.yul\":11419:11420   */\n      dup2\n        /* \"#utility.yul\":11415:11427   */\n      add\n        /* \"#utility.yul\":11410:11427   */\n      swap1\n      pop\n        /* \"#utility.yul\":11385:11593   */\n      jump(tag_221)\n    tag_223:\n        /* \"#utility.yul\":11621:11627   */\n      dup7\n        /* \"#utility.yul\":11612:11619   */\n      dup4\n        /* \"#utility.yul\":11609:11628   */\n      lt\n        /* \"#utility.yul\":11606:11785   */\n      iszero\n      tag_224\n      jumpi\n        /* \"#utility.yul\":11679:11688   */\n      dup5\n        /* \"#utility.yul\":11674:11677   */\n      dup10\n        /* \"#utility.yul\":11670:11689   */\n      add\n        /* \"#utility.yul\":11664:11690   */\n      mload\n        /* \"#utility.yul\":11722:11770   */\n      tag_225\n        /* \"#utility.yul\":11764:11768   */\n      0x1f\n        /* \"#utility.yul\":11756:11762   */\n      dup10\n        /* \"#utility.yul\":11752:11769   */\n      and\n        /* \"#utility.yul\":11741:11750   */\n      dup3\n        /* \"#utility.yul\":11722:11770   */\n      tag_85\n      jump\t// in\n    tag_225:\n        /* \"#utility.yul\":11714:11720   */\n      dup4\n        /* \"#utility.yul\":11707:11771   */\n      sstore\n        /* \"#utility.yul\":11629:11785   */\n      pop\n        /* \"#utility.yul\":11606:11785   */\n    tag_224:\n        /* \"#utility.yul\":11831:11832   */\n      0x01\n        /* \"#utility.yul\":11827:11828   */\n      0x02\n        /* \"#utility.yul\":11819:11825   */\n      dup9\n        /* \"#utility.yul\":11815:11829   */\n      mul\n        /* \"#utility.yul\":11811:11833   */\n      add\n        /* \"#utility.yul\":11805:11809   */\n      dup9\n        /* \"#utility.yul\":11798:11834   */\n      sstore\n        /* \"#utility.yul\":11233:11844   */\n      pop\n      pop\n      pop\n        /* \"#utility.yul\":11196:12083   */\n    tag_216:\n      pop\n        /* \"#utility.yul\":10786:12089   */\n      pop\n      pop\n      pop\n        /* \"#utility.yul\":10694:12089   */\n      pop\n      pop\n      jump\t// out\n\n    auxdata: 0xa2646970667358221220f533021f899dc6f00477a66c439ffb97fffd46b0ad0cc79ded015d75bbadefe864736f6c634300081a0033\n}\n",
				"bytecode": {
					"linkReferences": {},
					"object": "6080604052348015600e575f80fd5b50610a1f8061001c5f395ff3fe608060405234801561000f575f80fd5b506004361061004a575f3560e01c8063252ab6211461004e5780634b68d4311461007e5780636386c1c71461009a578063e0b1cccb146100cb575b5f80fd5b610068600480360381019061006391906103ad565b6100e7565b6040516100759190610410565b60405180910390f35b610098600480360381019061009391906104d8565b610138565b005b6100b460048036038101906100af9190610535565b6101f2565b6040516100c29291906105d0565b60405180910390f35b6100e560048036038101906100e09190610628565b6102eb565b005b5f805f90505f5b8484905081101561012d5784848281811061010c5761010b610666565b5b905060200201358261011e91906106c0565b915080806001019150506100ee565b508091505092915050565b604051806040016040528083838080601f0160208091040260200160405190810160405280939291908181526020018383808284375f81840152601f19601f8201169050808301925050505050505081526020015f8152505f808573ffffffffffffffffffffffffffffffffffffffff1673ffffffffffffffffffffffffffffffffffffffff1681526020019081526020015f205f820151815f0190816101df919061091a565b5060208201518160010155905050505050565b60605f805f808573ffffffffffffffffffffffffffffffffffffffff1673ffffffffffffffffffffffffffffffffffffffff1681526020019081526020015f206040518060400160405290815f8201805461024c9061074d565b80601f01602080910402602001604051908101604052809291908181526020018280546102789061074d565b80156102c35780601f1061029a576101008083540402835291602001916102c3565b820191905f5260205f20905b8154815290600101906020018083116102a657829003601f168201915b505050505081526020016001820154815250509050805f015181602001519250925050915091565b805f808473ffffffffffffffffffffffffffffffffffffffff1673ffffffffffffffffffffffffffffffffffffffff1681526020019081526020015f206001015f82825461033991906106c0565b925050819055505050565b5f80fd5b5f80fd5b5f80fd5b5f80fd5b5f80fd5b5f8083601f84011261036d5761036c61034c565b5b8235905067ffffffffffffffff81111561038a57610389610350565b5b6020830191508360208202830111156103a6576103a5610354565b5b9250929050565b5f80602083850312156103c3576103c2610344565b5b5f83013567ffffffffffffffff8111156103e0576103df610348565b5b6103ec85828601610358565b92509250509250929050565b5f819050919050565b61040a816103f8565b82525050565b5f6020820190506104235f830184610401565b92915050565b5f73ffffffffffffffffffffffffffffffffffffffff82169050919050565b5f61045282610429565b9050919050565b61046281610448565b811461046c575f80fd5b50565b5f8135905061047d81610459565b92915050565b5f8083601f8401126104985761049761034c565b5b8235905067ffffffffffffffff8111156104b5576104b4610350565b5b6020830191508360018202830111156104d1576104d0610354565b5b9250929050565b5f805f604084860312156104ef576104ee610344565b5b5f6104fc8682870161046f565b935050602084013567ffffffffffffffff81111561051d5761051c610348565b5b61052986828701610483565b92509250509250925092565b5f6020828403121561054a57610549610344565b5b5f6105578482850161046f565b91505092915050565b5f81519050919050565b5f82825260208201905092915050565b8281835e5f83830152505050565b5f601f19601f8301169050919050565b5f6105a282610560565b6105ac818561056a565b93506105bc81856020860161057a565b6105c581610588565b840191505092915050565b5f6040820190508181035f8301526105e88185610598565b90506105f76020830184610401565b9392505050565b610607816103f8565b8114610611575f80fd5b50565b5f81359050610622816105fe565b92915050565b5f806040838503121561063e5761063d610344565b5b5f61064b8582860161046f565b925050602061065c85828601610614565b9150509250929050565b7f4e487b71000000000000000000000000000000000000000000000000000000005f52603260045260245ffd5b7f4e487b71000000000000000000000000000000000000000000000000000000005f52601160045260245ffd5b5f6106ca826103f8565b91506106d5836103f8565b92508282019050808211156106ed576106ec610693565b5b92915050565b7f4e487b71000000000000000000000000000000000000000000000000000000005f52604160045260245ffd5b7f4e487b71000000000000000000000000000000000000000000000000000000005f52602260045260245ffd5b5f600282049050600182168061076457607f821691505b60208210810361077757610776610720565b5b50919050565b5f819050815f5260205f209050919050565b5f6020601f8301049050919050565b5f82821b905092915050565b5f600883026107d97fffffffffffffffffffffffffffffffffffffffffffffffffffffffffffffffff8261079e565b6107e3868361079e565b95508019841693508086168417925050509392505050565b5f819050919050565b5f61081e610819610814846103f8565b6107fb565b6103f8565b9050919050565b5f819050919050565b61083783610804565b61084b61084382610825565b8484546107aa565b825550505050565b5f90565b61085f610853565b61086a81848461082e565b505050565b5b8181101561088d576108825f82610857565b600181019050610870565b5050565b601f8211156108d2576108a38161077d565b6108ac8461078f565b810160208510156108bb578190505b6108cf6108c78561078f565b83018261086f565b50505b505050565b5f82821c905092915050565b5f6108f25f19846008026108d7565b1980831691505092915050565b5f61090a83836108e3565b9150826002028217905092915050565b61092382610560565b67ffffffffffffffff81111561093c5761093b6106f3565b5b610946825461074d565b610951828285610891565b5f60209050601f831160018114610982575f8415610970578287015190505b61097a85826108ff565b8655506109e1565b601f1984166109908661077d565b5f5b828110156109b757848901518255600182019150602085019450602081019050610992565b868310156109d457848901516109d0601f8916826108e3565b8355505b6001600288020188555050505b50505050505056fea2646970667358221220f533021f899dc6f00477a66c439ffb97fffd46b0ad0cc79ded015d75bbadefe864736f6c634300081a0033",
					"opcodes": "PUSH1 0x80 PUSH1 0x40 MSTORE CALLVALUE DUP1 ISZERO PUSH1 0xE JUMPI PUSH0 DUP1 REVERT JUMPDEST POP PUSH2 0xA1F DUP1 PUSH2 0x1C PUSH0 CODECOPY PUSH0 RETURN INVALID PUSH1 0x80 PUSH1 0x40 MSTORE CALLVALUE DUP1 ISZERO PUSH2 0xF JUMPI PUSH0 DUP1 REVERT JUMPDEST POP PUSH1 0x4 CALLDATASIZE LT PUSH2 0x4A JUMPI PUSH0 CALLDATALOAD PUSH1 0xE0 SHR DUP1 PUSH4 0x252AB621 EQ PUSH2 0x4E JUMPI DUP1 PUSH4 0x4B68D431 EQ PUSH2 0x7E JUMPI DUP1 PUSH4 0x6386C1C7 EQ PUSH2 0x9A JUMPI DUP1 PUSH4 0xE0B1CCCB EQ PUSH2 0xCB JUMPI JUMPDEST PUSH0 DUP1 REVERT JUMPDEST PUSH2 0x68 PUSH1 0x4 DUP1 CALLDATASIZE SUB DUP2 ADD SWAP1 PUSH2 0x63 SWAP2 SWAP1 PUSH2 0x3AD JUMP JUMPDEST PUSH2 0xE7 JUMP JUMPDEST PUSH1 0x40 MLOAD PUSH2 0x75 SWAP2 SWAP1 PUSH2 0x410 JUMP JUMPDEST PUSH1 0x40 MLOAD DUP1 SWAP2 SUB SWAP1 RETURN JUMPDEST PUSH2 0x98 PUSH1 0x4 DUP1 CALLDATASIZE SUB DUP2 ADD SWAP1 PUSH2 0x93 SWAP2 SWAP1 PUSH2 0x4D8 JUMP JUMPDEST PUSH2 0x138 JUMP JUMPDEST STOP JUMPDEST PUSH2 0xB4 PUSH1 0x4 DUP1 CALLDATASIZE SUB DUP2 ADD SWAP1 PUSH2 0xAF SWAP2 SWAP1 PUSH2 0x535 JUMP JUMPDEST PUSH2 0x1F2 JUMP JUMPDEST PUSH1 0x40 MLOAD PUSH2 0xC2 SWAP3 SWAP2 SWAP1 PUSH2 0x5D0 JUMP JUMPDEST PUSH1 0x40 MLOAD DUP1 SWAP2 SUB SWAP1 RETURN JUMPDEST PUSH2 0xE5 PUSH1 0x4 DUP1 CALLDATASIZE SUB DUP2 ADD SWAP1 PUSH2 0xE0 SWAP2 SWAP1 PUSH2 0x628 JUMP JUMPDEST PUSH2 0x2EB JUMP JUMPDEST STOP JUMPDEST PUSH0 DUP1 PUSH0 SWAP1 POP PUSH0 JUMPDEST DUP5 DUP5 SWAP1 POP DUP2 LT ISZERO PUSH2 0x12D JUMPI DUP5 DUP5 DUP3 DUP2 DUP2 LT PUSH2 0x10C JUMPI PUSH2 0x10B PUSH2 0x666 JUMP JUMPDEST JUMPDEST SWAP1 POP PUSH1 0x20 MUL ADD CALLDATALOAD DUP3 PUSH2 0x11E SWAP2 SWAP1 PUSH2 0x6C0 JUMP JUMPDEST SWAP2 POP DUP1 DUP1 PUSH1 0x1 ADD SWAP2 POP POP PUSH2 0xEE JUMP JUMPDEST POP DUP1 SWAP2 POP POP SWAP3 SWAP2 POP POP JUMP JUMPDEST PUSH1 0x40 MLOAD DUP1 PUSH1 0x40 ADD PUSH1 0x40 MSTORE DUP1 DUP4 DUP4 DUP1 DUP1 PUSH1 0x1F ADD PUSH1 0x20 DUP1 SWAP2 DIV MUL PUSH1 0x20 ADD PUSH1 0x40 MLOAD SWAP1 DUP2 ADD PUSH1 0x40 MSTORE DUP1 SWAP4 SWAP3 SWAP2 SWAP1 DUP2 DUP2 MSTORE PUSH1 0x20 ADD DUP4 DUP4 DUP1 DUP3 DUP5 CALLDATACOPY PUSH0 DUP2 DUP5 ADD MSTORE PUSH1 0x1F NOT PUSH1 0x1F DUP3 ADD AND SWAP1 POP DUP1 DUP4 ADD SWAP3 POP POP POP POP POP POP POP DUP2 MSTORE PUSH1 0x20 ADD PUSH0 DUP2 MSTORE POP PUSH0 DUP1 DUP6 PUSH20 0xFFFFFFFFFFFFFFFFFFFFFFFFFFFFFFFFFFFFFFFF AND PUSH20 0xFFFFFFFFFFFFFFFFFFFFFFFFFFFFFFFFFFFFFFFF AND DUP2 MSTORE PUSH1 0x20 ADD SWAP1 DUP2 MSTORE PUSH1 0x20 ADD PUSH0 KECCAK256 PUSH0 DUP3 ADD MLOAD DUP2 PUSH0 ADD SWAP1 DUP2 PUSH2 0x1DF SWAP2 SWAP1 PUSH2 0x91A JUMP JUMPDEST POP PUSH1 0x20 DUP3 ADD MLOAD DUP2 PUSH1 0x1 ADD SSTORE SWAP1 POP POP POP POP POP JUMP JUMPDEST PUSH1 0x60 PUSH0 DUP1 PUSH0 DUP1 DUP6 PUSH20 0xFFFFFFFFFFFFFFFFFFFFFFFFFFFFFFFFFFFFFFFF AND PUSH20 0xFFFFFFFFFFFFFFFFFFFFFFFFFFFFFFFFFFFFFFFF AND DUP2 MSTORE PUSH1 0x20 ADD SWAP1 DUP2 MSTORE PUSH1 0x20 ADD PUSH0 KECCAK256 PUSH1 0x40 MLOAD DUP1 PUSH1 0x40 ADD PUSH1 0x40 MSTORE SWAP1 DUP2 PUSH0 DUP3 ADD DUP1 SLOAD PUSH2 0x24C SWAP1 PUSH2 0x74D JUMP JUMPDEST DUP1 PUSH1 0x1F ADD PUSH1 0x20 DUP1 SWAP2 DIV MUL PUSH1 0x20 ADD PUSH1 0x40 MLOAD SWAP1 DUP2 ADD PUSH1 0x40 MSTORE DUP1 SWAP3 SWAP2 SWAP1 DUP2 DUP2 MSTORE PUSH1 0x20 ADD DUP3 DUP1 SLOAD PUSH2 0x278 SWAP1 PUSH2 0x74D JUMP JUMPDEST DUP1 ISZERO PUSH2 0x2C3 JUMPI DUP1 PUSH1 0x1F LT PUSH2 0x29A JUMPI PUSH2 0x100 DUP1 DUP4 SLOAD DIV MUL DUP4 MSTORE SWAP2 PUSH1 0x20 ADD SWAP2 PUSH2 0x2C3 JUMP JUMPDEST DUP3 ADD SWAP2 SWAP1 PUSH0 MSTORE PUSH1 0x20 PUSH0 KECCAK256 SWAP1 JUMPDEST DUP2 SLOAD DUP2 MSTORE SWAP1 PUSH1 0x1 ADD SWAP1 PUSH1 0x20 ADD DUP1 DUP4 GT PUSH2 0x2A6 JUMPI DUP3 SWAP1 SUB PUSH1 0x1F AND DUP3 ADD SWAP2 JUMPDEST POP POP POP POP POP DUP2 MSTORE PUSH1 0x20 ADD PUSH1 0x1 DUP3 ADD SLOAD DUP2 MSTORE POP POP SWAP1 POP DUP1 PUSH0 ADD MLOAD DUP2 PUSH1 0x20 ADD MLOAD SWAP3 POP SWAP3 POP POP SWAP2 POP SWAP2 JUMP JUMPDEST DUP1 PUSH0 DUP1 DUP5 PUSH20 0xFFFFFFFFFFFFFFFFFFFFFFFFFFFFFFFFFFFFFFFF AND PUSH20 0xFFFFFFFFFFFFFFFFFFFFFFFFFFFFFFFFFFFFFFFF AND DUP2 MSTORE PUSH1 0x20 ADD SWAP1 DUP2 MSTORE PUSH1 0x20 ADD PUSH0 KECCAK256 PUSH1 0x1 ADD PUSH0 DUP3 DUP3 SLOAD PUSH2 0x339 SWAP2 SWAP1 PUSH2 0x6C0 JUMP JUMPDEST SWAP3 POP POP DUP2 SWAP1 SSTORE POP POP POP JUMP JUMPDEST PUSH0 DUP1 REVERT JUMPDEST PUSH0 DUP1 REVERT JUMPDEST PUSH0 DUP1 REVERT JUMPDEST PUSH0 DUP1 REVERT JUMPDEST PUSH0 DUP1 REVERT JUMPDEST PUSH0 DUP1 DUP4 PUSH1 0x1F DUP5 ADD SLT PUSH2 0x36D JUMPI PUSH2 0x36C PUSH2 0x34C JUMP JUMPDEST JUMPDEST DUP3 CALLDATALOAD SWAP1 POP PUSH8 0xFFFFFFFFFFFFFFFF DUP2 GT ISZERO PUSH2 0x38A JUMPI PUSH2 0x389 PUSH2 0x350 JUMP JUMPDEST JUMPDEST PUSH1 0x20 DUP4 ADD SWAP2 POP DUP4 PUSH1 0x20 DUP3 MUL DUP4 ADD GT ISZERO PUSH2 0x3A6 JUMPI PUSH2 0x3A5 PUSH2 0x354 JUMP JUMPDEST JUMPDEST SWAP3 POP SWAP3 SWAP1 POP JUMP JUMPDEST PUSH0 DUP1 PUSH1 0x20 DUP4 DUP6 SUB SLT ISZERO PUSH2 0x3C3 JUMPI PUSH2 0x3C2 PUSH2 0x344 JUMP JUMPDEST JUMPDEST PUSH0 DUP4 ADD CALLDATALOAD PUSH8 0xFFFFFFFFFFFFFFFF DUP2 GT ISZERO PUSH2 0x3E0 JUMPI PUSH2 0x3DF PUSH2 0x348 JUMP JUMPDEST JUMPDEST PUSH2 0x3EC DUP6 DUP3 DUP7 ADD PUSH2 0x358 JUMP JUMPDEST SWAP3 POP SWAP3 POP POP SWAP3 POP SWAP3 SWAP1 POP JUMP JUMPDEST PUSH0 DUP2 SWAP1 POP SWAP2 SWAP1 POP JUMP JUMPDEST PUSH2 0x40A DUP2 PUSH2 0x3F8 JUMP JUMPDEST DUP3 MSTORE POP POP JUMP JUMPDEST PUSH0 PUSH1 0x20 DUP3 ADD SWAP1 POP PUSH2 0x423 PUSH0 DUP4 ADD DUP5 PUSH2 0x401 JUMP JUMPDEST SWAP3 SWAP2 POP POP JUMP JUMPDEST PUSH0 PUSH20 0xFFFFFFFFFFFFFFFFFFFFFFFFFFFFFFFFFFFFFFFF DUP3 AND SWAP1 POP SWAP2 SWAP1 POP JUMP JUMPDEST PUSH0 PUSH2 0x452 DUP3 PUSH2 0x429 JUMP JUMPDEST SWAP1 POP SWAP2 SWAP1 POP JUMP JUMPDEST PUSH2 0x462 DUP2 PUSH2 0x448 JUMP JUMPDEST DUP2 EQ PUSH2 0x46C JUMPI PUSH0 DUP1 REVERT JUMPDEST POP JUMP JUMPDEST PUSH0 DUP2 CALLDATALOAD SWAP1 POP PUSH2 0x47D DUP2 PUSH2 0x459 JUMP JUMPDEST SWAP3 SWAP2 POP POP JUMP JUMPDEST PUSH0 DUP1 DUP4 PUSH1 0x1F DUP5 ADD SLT PUSH2 0x498 JUMPI PUSH2 0x497 PUSH2 0x34C JUMP JUMPDEST JUMPDEST DUP3 CALLDATALOAD SWAP1 POP PUSH8 0xFFFFFFFFFFFFFFFF DUP2 GT ISZERO PUSH2 0x4B5 JUMPI PUSH2 0x4B4 PUSH2 0x350 JUMP JUMPDEST JUMPDEST PUSH1 0x20 DUP4 ADD SWAP2 POP DUP4 PUSH1 0x1 DUP3 MUL DUP4 ADD GT ISZERO PUSH2 0x4D1 JUMPI PUSH2 0x4D0 PUSH2 0x354 JUMP JUMPDEST JUMPDEST SWAP3 POP SWAP3 SWAP1 POP JUMP JUMPDEST PUSH0 DUP1 PUSH0 PUSH1 0x40 DUP5 DUP7 SUB SLT ISZERO PUSH2 0x4EF JUMPI PUSH2 0x4EE PUSH2 0x344 JUMP JUMPDEST JUMPDEST PUSH0 PUSH2 0x4FC DUP7 DUP3 DUP8 ADD PUSH2 0x46F JUMP JUMPDEST SWAP4 POP POP PUSH1 0x20 DUP5 ADD CALLDATALOAD PUSH8 0xFFFFFFFFFFFFFFFF DUP2 GT ISZERO PUSH2 0x51D JUMPI PUSH2 0x51C PUSH2 0x348 JUMP JUMPDEST JUMPDEST PUSH2 0x529 DUP7 DUP3 DUP8 ADD PUSH2 0x483 JUMP JUMPDEST SWAP3 POP SWAP3 POP POP SWAP3 POP SWAP3 POP SWAP3 JUMP JUMPDEST PUSH0 PUSH1 0x20 DUP3 DUP5 SUB SLT ISZERO PUSH2 0x54A JUMPI PUSH2 0x549 PUSH2 0x344 JUMP JUMPDEST JUMPDEST PUSH0 PUSH2 0x557 DUP5 DUP3 DUP6 ADD PUSH2 0x46F JUMP JUMPDEST SWAP2 POP POP SWAP3 SWAP2 POP POP JUMP JUMPDEST PUSH0 DUP2 MLOAD SWAP1 POP SWAP2 SWAP1 POP JUMP JUMPDEST PUSH0 DUP3 DUP3 MSTORE PUSH1 0x20 DUP3 ADD SWAP1 POP SWAP3 SWAP2 POP POP JUMP JUMPDEST DUP3 DUP2 DUP4 MCOPY PUSH0 DUP4 DUP4 ADD MSTORE POP POP POP JUMP JUMPDEST PUSH0 PUSH1 0x1F NOT PUSH1 0x1F DUP4 ADD AND SWAP1 POP SWAP2 SWAP1 POP JUMP JUMPDEST PUSH0 PUSH2 0x5A2 DUP3 PUSH2 0x560 JUMP JUMPDEST PUSH2 0x5AC DUP2 DUP6 PUSH2 0x56A JUMP JUMPDEST SWAP4 POP PUSH2 0x5BC DUP2 DUP6 PUSH1 0x20 DUP7 ADD PUSH2 0x57A JUMP JUMPDEST PUSH2 0x5C5 DUP2 PUSH2 0x588 JUMP JUMPDEST DUP5 ADD SWAP2 POP POP SWAP3 SWAP2 POP POP JUMP JUMPDEST PUSH0 PUSH1 0x40 DUP3 ADD SWAP1 POP DUP2 DUP2 SUB PUSH0 DUP4 ADD MSTORE PUSH2 0x5E8 DUP2 DUP6 PUSH2 0x598 JUMP JUMPDEST SWAP1 POP PUSH2 0x5F7 PUSH1 0x20 DUP4 ADD DUP5 PUSH2 0x401 JUMP JUMPDEST SWAP4 SWAP3 POP POP POP JUMP JUMPDEST PUSH2 0x607 DUP2 PUSH2 0x3F8 JUMP JUMPDEST DUP2 EQ PUSH2 0x611 JUMPI PUSH0 DUP1 REVERT JUMPDEST POP JUMP JUMPDEST PUSH0 DUP2 CALLDATALOAD SWAP1 POP PUSH2 0x622 DUP2 PUSH2 0x5FE JUMP JUMPDEST SWAP3 SWAP2 POP POP JUMP JUMPDEST PUSH0 DUP1 PUSH1 0x40 DUP4 DUP6 SUB SLT ISZERO PUSH2 0x63E JUMPI PUSH2 0x63D PUSH2 0x344 JUMP JUMPDEST JUMPDEST PUSH0 PUSH2 0x64B DUP6 DUP3 DUP7 ADD PUSH2 0x46F JUMP JUMPDEST SWAP3 POP POP PUSH1 0x20 PUSH2 0x65C DUP6 DUP3 DUP7 ADD PUSH2 0x614 JUMP JUMPDEST SWAP2 POP POP SWAP3 POP SWAP3 SWAP1 POP JUMP JUMPDEST PUSH32 0x4E487B7100000000000000000000000000000000000000000000000000000000 PUSH0 MSTORE PUSH1 0x32 PUSH1 0x4 MSTORE PUSH1 0x24 PUSH0 REVERT JUMPDEST PUSH32 0x4E487B7100000000000000000000000000000000000000000000000000000000 PUSH0 MSTORE PUSH1 0x11 PUSH1 0x4 MSTORE PUSH1 0x24 PUSH0 REVERT JUMPDEST PUSH0 PUSH2 0x6CA DUP3 PUSH2 0x3F8 JUMP JUMPDEST SWAP2 POP PUSH2 0x6D5 DUP4 PUSH2 0x3F8 JUMP JUMPDEST SWAP3 POP DUP3 DUP3 ADD SWAP1 POP DUP1 DUP3 GT ISZERO PUSH2 0x6ED JUMPI PUSH2 0x6EC PUSH2 0x693 JUMP JUMPDEST JUMPDEST SWAP3 SWAP2 POP POP JUMP JUMPDEST PUSH32 0x4E487B7100000000000000000000000000000000000000000000000000000000 PUSH0 MSTORE PUSH1 0x41 PUSH1 0x4 MSTORE PUSH1 0x24 PUSH0 REVERT JUMPDEST PUSH32 0x4E487B7100000000000000000000000000000000000000000000000000000000 PUSH0 MSTORE PUSH1 0x22 PUSH1 0x4 MSTORE PUSH1 0x24 PUSH0 REVERT JUMPDEST PUSH0 PUSH1 0x2 DUP3 DIV SWAP1 POP PUSH1 0x1 DUP3 AND DUP1 PUSH2 0x764 JUMPI PUSH1 0x7F DUP3 AND SWAP2 POP JUMPDEST PUSH1 0x20 DUP3 LT DUP2 SUB PUSH2 0x777 JUMPI PUSH2 0x776 PUSH2 0x720 JUMP JUMPDEST JUMPDEST POP SWAP2 SWAP1 POP JUMP JUMPDEST PUSH0 DUP2 SWAP1 POP DUP2 PUSH0 MSTORE PUSH1 0x20 PUSH0 KECCAK256 SWAP1 POP SWAP2 SWAP1 POP JUMP JUMPDEST PUSH0 PUSH1 0x20 PUSH1 0x1F DUP4 ADD DIV SWAP1 POP SWAP2 SWAP1 POP JUMP JUMPDEST PUSH0 DUP3 DUP3 SHL SWAP1 POP SWAP3 SWAP2 POP POP JUMP JUMPDEST PUSH0 PUSH1 0x8 DUP4 MUL PUSH2 0x7D9 PUSH32 0xFFFFFFFFFFFFFFFFFFFFFFFFFFFFFFFFFFFFFFFFFFFFFFFFFFFFFFFFFFFFFFFF DUP3 PUSH2 0x79E JUMP JUMPDEST PUSH2 0x7E3 DUP7 DUP4 PUSH2 0x79E JUMP JUMPDEST SWAP6 POP DUP1 NOT DUP5 AND SWAP4 POP DUP1 DUP7 AND DUP5 OR SWAP3 POP POP POP SWAP4 SWAP3 POP POP POP JUMP JUMPDEST PUSH0 DUP2 SWAP1 POP SWAP2 SWAP1 POP JUMP JUMPDEST PUSH0 PUSH2 0x81E PUSH2 0x819 PUSH2 0x814 DUP5 PUSH2 0x3F8 JUMP JUMPDEST PUSH2 0x7FB JUMP JUMPDEST PUSH2 0x3F8 JUMP JUMPDEST SWAP1 POP SWAP2 SWAP1 POP JUMP JUMPDEST PUSH0 DUP2 SWAP1 POP SWAP2 SWAP1 POP JUMP JUMPDEST PUSH2 0x837 DUP4 PUSH2 0x804 JUMP JUMPDEST PUSH2 0x84B PUSH2 0x843 DUP3 PUSH2 0x825 JUMP JUMPDEST DUP5 DUP5 SLOAD PUSH2 0x7AA JUMP JUMPDEST DUP3 SSTORE POP POP POP POP JUMP JUMPDEST PUSH0 SWAP1 JUMP JUMPDEST PUSH2 0x85F PUSH2 0x853 JUMP JUMPDEST PUSH2 0x86A DUP2 DUP5 DUP5 PUSH2 0x82E JUMP JUMPDEST POP POP POP JUMP JUMPDEST JUMPDEST DUP2 DUP2 LT ISZERO PUSH2 0x88D JUMPI PUSH2 0x882 PUSH0 DUP3 PUSH2 0x857 JUMP JUMPDEST PUSH1 0x1 DUP2 ADD SWAP1 POP PUSH2 0x870 JUMP JUMPDEST POP POP JUMP JUMPDEST PUSH1 0x1F DUP3 GT ISZERO PUSH2 0x8D2 JUMPI PUSH2 0x8A3 DUP2 PUSH2 0x77D JUMP JUMPDEST PUSH2 0x8AC DUP5 PUSH2 0x78F JUMP JUMPDEST DUP2 ADD PUSH1 0x20 DUP6 LT ISZERO PUSH2 0x8BB JUMPI DUP2 SWAP1 POP JUMPDEST PUSH2 0x8CF PUSH2 0x8C7 DUP6 PUSH2 0x78F JUMP JUMPDEST DUP4 ADD DUP3 PUSH2 0x86F JUMP JUMPDEST POP POP JUMPDEST POP POP POP JUMP JUMPDEST PUSH0 DUP3 DUP3 SHR SWAP1 POP SWAP3 SWAP2 POP POP JUMP JUMPDEST PUSH0 PUSH2 0x8F2 PUSH0 NOT DUP5 PUSH1 0x8 MUL PUSH2 0x8D7 JUMP JUMPDEST NOT DUP1 DUP4 AND SWAP2 POP POP SWAP3 SWAP2 POP POP JUMP JUMPDEST PUSH0 PUSH2 0x90A DUP4 DUP4 PUSH2 0x8E3 JUMP JUMPDEST SWAP2 POP DUP3 PUSH1 0x2 MUL DUP3 OR SWAP1 POP SWAP3 SWAP2 POP POP JUMP JUMPDEST PUSH2 0x923 DUP3 PUSH2 0x560 JUMP JUMPDEST PUSH8 0xFFFFFFFFFFFFFFFF DUP2 GT ISZERO PUSH2 0x93C JUMPI PUSH2 0x93B PUSH2 0x6F3 JUMP JUMPDEST JUMPDEST PUSH2 0x946 DUP3 SLOAD PUSH2 0x74D JUMP JUMPDEST PUSH2 0x951 DUP3 DUP3 DUP6 PUSH2 0x891 JUMP JUMPDEST PUSH0 PUSH1 0x20 SWAP1 POP PUSH1 0x1F DUP4 GT PUSH1 0x1 DUP2 EQ PUSH2 0x982 JUMPI PUSH0 DUP5 ISZERO PUSH2 0x970 JUMPI DUP3 DUP8 ADD MLOAD SWAP1 POP JUMPDEST PUSH2 0x97A DUP6 DUP3 PUSH2 0x8FF JUMP JUMPDEST DUP7 SSTORE POP PUSH2 0x9E1 JUMP JUMPDEST PUSH1 0x1F NOT DUP5 AND PUSH2 0x990 DUP7 PUSH2 0x77D JUMP JUMPDEST PUSH0 JUMPDEST DUP3 DUP2 LT ISZERO PUSH2 0x9B7 JUMPI DUP5 DUP10 ADD MLOAD DUP3 SSTORE PUSH1 0x1 DUP3 ADD SWAP2 POP PUSH1 0x20 DUP6 ADD SWAP5 POP PUSH1 0x20 DUP2 ADD SWAP1 POP PUSH2 0x992 JUMP JUMPDEST DUP7 DUP4 LT ISZERO PUSH2 0x9D4 JUMPI DUP5 DUP10 ADD MLOAD PUSH2 0x9D0 PUSH1 0x1F DUP10 AND DUP3 PUSH2 0x8E3 JUMP JUMPDEST DUP4 SSTORE POP JUMPDEST PUSH1 0x1 PUSH1 0x2 DUP9 MUL ADD DUP9 SSTORE POP POP POP JUMPDEST POP POP POP POP POP POP JUMP INVALID LOG2 PUSH5 0x6970667358 0x22 SLT KECCAK256 CREATE2 CALLER MUL 0x1F DUP10 SWAP14 0xC6 CREATE DIV PUSH24 0xA66C439FFB97FFFD46B0AD0CC79DED015D75BBADEFE86473 PUSH16 0x6C634300081A00330000000000000000 "
				},
				"gasEstimates": {
					"creation": {
						"codeDepositCost": "518200",
						"executionCost": "547",
						"totalCost": "518747"
					},
					"external": {
						"addUser(address,string)": "infinite",
						"getUserInfo(address)": "infinite",
						"processBalance(uint256[])": "infinite",
						"updateBalance(address,uint256)": "infinite"
					}
				},
				"methodIdentifiers": {
					"addUser(address,string)": "4b68d431",
					"getUserInfo(address)": "6386c1c7",
					"processBalance(uint256[])": "252ab621",
					"updateBalance(address,uint256)": "e0b1cccb"
				}
			},
			"storageLayout": {
				"storage": [
					{
						"astId": 11,
						"contract": "User Profile Manager/UserProfileManager.sol:UserProfileManager",
						"label": "users",
						"offset": 0,
						"slot": "0",
						"type": "t_mapping(t_address,t_struct(User)6_storage)"
					}
				],
				"types": {
					"t_address": {
						"encoding": "inplace",
						"label": "address",
						"numberOfBytes": "20"
					},
					"t_mapping(t_address,t_struct(User)6_storage)": {
						"encoding": "mapping",
						"key": "t_address",
						"label": "mapping(address => struct UserProfileManager.User)",
						"numberOfBytes": "32",
						"value": "t_struct(User)6_storage"
					},
					"t_string_storage": {
						"encoding": "bytes",
						"label": "string",
						"numberOfBytes": "32"
					},
					"t_struct(User)6_storage": {
						"encoding": "inplace",
						"label": "struct UserProfileManager.User",
						"members": [
							{
								"astId": 3,
								"contract": "User Profile Manager/UserProfileManager.sol:UserProfileManager",
								"label": "name",
								"offset": 0,
								"slot": "0",
								"type": "t_string_storage"
							},
							{
								"astId": 5,
								"contract": "User Profile Manager/UserProfileManager.sol:UserProfileManager",
								"label": "balance",
								"offset": 0,
								"slot": "1",
								"type": "t_uint256"
							}
						],
						"numberOfBytes": "64"
					},
					"t_uint256": {
						"encoding": "inplace",
						"label": "uint256",
						"numberOfBytes": "32"
					}
				}
			},
			"userdoc": {
				"kind": "user",
				"methods": {},
				"version": 1
			}
		}
	}
}