{
	"Memory Management Problems/StoreandRetrieveUserData.sol": {
		"StoreandRetrieveUserData": {
			"abi": [
				{
					"inputs": [
						{
							"internalType": "address",
							"name": "_user",
							"type": "address"
						},
						{
							"internalType": "string",
							"name": "_name",
							"type": "string"
						}
					],
					"name": "addUsers",
					"outputs": [],
					"stateMutability": "nonpayable",
					"type": "function"
				},
				{
					"inputs": [
						{
							"internalType": "address",
							"name": "_user",
							"type": "address"
						}
					],
					"name": "getUser",
					"outputs": [
						{
							"internalType": "string",
							"name": "",
							"type": "string"
						},
						{
							"internalType": "uint256",
							"name": "",
							"type": "uint256"
						}
					],
					"stateMutability": "view",
					"type": "function"
				}
			],
			"devdoc": {
				"kind": "dev",
				"methods": {},
				"version": 1
			},
			"evm": {
				"assembly": "    /* \"Memory Management Problems/StoreandRetrieveUserData.sol\":57:531  contract StoreandRetrieveUserData {... */\n  mstore(0x40, 0x80)\n  callvalue\n  dup1\n  iszero\n  tag_1\n  jumpi\n  0x00\n  dup1\n  revert\ntag_1:\n  pop\n  dataSize(sub_0)\n  dup1\n  dataOffset(sub_0)\n  0x00\n  codecopy\n  0x00\n  return\nstop\n\nsub_0: assembly {\n        /* \"Memory Management Problems/StoreandRetrieveUserData.sol\":57:531  contract StoreandRetrieveUserData {... */\n      mstore(0x40, 0x80)\n      callvalue\n      dup1\n      iszero\n      tag_1\n      jumpi\n      0x00\n      dup1\n      revert\n    tag_1:\n      pop\n      jumpi(tag_2, lt(calldatasize, 0x04))\n      shr(0xe0, calldataload(0x00))\n      dup1\n      0x6afbec5e\n      eq\n      tag_3\n      jumpi\n      dup1\n      0x6f77926b\n      eq\n      tag_4\n      jumpi\n    tag_2:\n      0x00\n      dup1\n      revert\n        /* \"Memory Management Problems/StoreandRetrieveUserData.sol\":233:344  function addUsers(address _user, string calldata _name) external {... */\n    tag_3:\n      tag_5\n      0x04\n      dup1\n      calldatasize\n      sub\n      dup2\n      add\n      swap1\n      tag_6\n      swap2\n      swap1\n      tag_7\n      jump\t// in\n    tag_6:\n      tag_8\n      jump\t// in\n    tag_5:\n      stop\n        /* \"Memory Management Problems/StoreandRetrieveUserData.sol\":350:529  function getUser(address _user) external view returns(string memory, uint256){... */\n    tag_4:\n      tag_9\n      0x04\n      dup1\n      calldatasize\n      sub\n      dup2\n      add\n      swap1\n      tag_10\n      swap2\n      swap1\n      tag_11\n      jump\t// in\n    tag_10:\n      tag_12\n      jump\t// in\n    tag_9:\n      mload(0x40)\n      tag_13\n      swap3\n      swap2\n      swap1\n      tag_14\n      jump\t// in\n    tag_13:\n      mload(0x40)\n      dup1\n      swap2\n      sub\n      swap1\n      return\n        /* \"Memory Management Problems/StoreandRetrieveUserData.sol\":233:344  function addUsers(address _user, string calldata _name) external {... */\n    tag_8:\n        /* \"Memory Management Problems/StoreandRetrieveUserData.sol\":323:337  User(_name, 0) */\n      mload(0x40)\n      dup1\n      0x40\n      add\n      0x40\n      mstore\n      dup1\n        /* \"Memory Management Problems/StoreandRetrieveUserData.sol\":328:333  _name */\n      dup4\n      dup4\n        /* \"Memory Management Problems/StoreandRetrieveUserData.sol\":323:337  User(_name, 0) */\n      dup1\n      dup1\n      0x1f\n      add\n      0x20\n      dup1\n      swap2\n      div\n      mul\n      0x20\n      add\n      mload(0x40)\n      swap1\n      dup2\n      add\n      0x40\n      mstore\n      dup1\n      swap4\n      swap3\n      swap2\n      swap1\n      dup2\n      dup2\n      mstore\n      0x20\n      add\n      dup4\n      dup4\n      dup1\n      dup3\n      dup5\n      calldatacopy\n      0x00\n      dup2\n      dup5\n      add\n      mstore\n      not(0x1f)\n      0x1f\n      dup3\n      add\n      and\n      swap1\n      pop\n      dup1\n      dup4\n      add\n      swap3\n      pop\n      pop\n      pop\n      pop\n      pop\n      pop\n      pop\n      dup2\n      mstore\n      0x20\n      add\n        /* \"Memory Management Problems/StoreandRetrieveUserData.sol\":335:336  0 */\n      0x00\n        /* \"Memory Management Problems/StoreandRetrieveUserData.sol\":323:337  User(_name, 0) */\n      dup2\n      mstore\n      pop\n        /* \"Memory Management Problems/StoreandRetrieveUserData.sol\":308:313  users */\n      0x00\n        /* \"Memory Management Problems/StoreandRetrieveUserData.sol\":308:320  users[_user] */\n      dup1\n        /* \"Memory Management Problems/StoreandRetrieveUserData.sol\":314:319  _user */\n      dup6\n        /* \"Memory Management Problems/StoreandRetrieveUserData.sol\":308:320  users[_user] */\n      0xffffffffffffffffffffffffffffffffffffffff\n      and\n      0xffffffffffffffffffffffffffffffffffffffff\n      and\n      dup2\n      mstore\n      0x20\n      add\n      swap1\n      dup2\n      mstore\n      0x20\n      add\n      0x00\n      keccak256\n        /* \"Memory Management Problems/StoreandRetrieveUserData.sol\":308:337  users[_user] = User(_name, 0) */\n      0x00\n      dup3\n      add\n      mload\n      dup2\n      0x00\n      add\n      swap1\n      dup2\n      tag_16\n      swap2\n      swap1\n      tag_17\n      jump\t// in\n    tag_16:\n      pop\n      0x20\n      dup3\n      add\n      mload\n      dup2\n      0x01\n      add\n      sstore\n      swap1\n      pop\n      pop\n        /* \"Memory Management Problems/StoreandRetrieveUserData.sol\":233:344  function addUsers(address _user, string calldata _name) external {... */\n      pop\n      pop\n      pop\n      jump\t// out\n        /* \"Memory Management Problems/StoreandRetrieveUserData.sol\":350:529  function getUser(address _user) external view returns(string memory, uint256){... */\n    tag_12:\n        /* \"Memory Management Problems/StoreandRetrieveUserData.sol\":404:417  string memory */\n      0x60\n        /* \"Memory Management Problems/StoreandRetrieveUserData.sol\":419:426  uint256 */\n      0x00\n        /* \"Memory Management Problems/StoreandRetrieveUserData.sol\":437:457  User memory tempUser */\n      dup1\n        /* \"Memory Management Problems/StoreandRetrieveUserData.sol\":460:465  users */\n      0x00\n        /* \"Memory Management Problems/StoreandRetrieveUserData.sol\":460:472  users[_user] */\n      dup1\n        /* \"Memory Management Problems/StoreandRetrieveUserData.sol\":466:471  _user */\n      dup6\n        /* \"Memory Management Problems/StoreandRetrieveUserData.sol\":460:472  users[_user] */\n      0xffffffffffffffffffffffffffffffffffffffff\n      and\n      0xffffffffffffffffffffffffffffffffffffffff\n      and\n      dup2\n      mstore\n      0x20\n      add\n      swap1\n      dup2\n      mstore\n      0x20\n      add\n      0x00\n      keccak256\n        /* \"Memory Management Problems/StoreandRetrieveUserData.sol\":437:472  User memory tempUser = users[_user] */\n      mload(0x40)\n      dup1\n      0x40\n      add\n      0x40\n      mstore\n      swap1\n      dup2\n      0x00\n      dup3\n      add\n      dup1\n      sload\n      tag_19\n      swap1\n      tag_20\n      jump\t// in\n    tag_19:\n      dup1\n      0x1f\n      add\n      0x20\n      dup1\n      swap2\n      div\n      mul\n      0x20\n      add\n      mload(0x40)\n      swap1\n      dup2\n      add\n      0x40\n      mstore\n      dup1\n      swap3\n      swap2\n      swap1\n      dup2\n      dup2\n      mstore\n      0x20\n      add\n      dup3\n      dup1\n      sload\n      tag_21\n      swap1\n      tag_20\n      jump\t// in\n    tag_21:\n      dup1\n      iszero\n      tag_22\n      jumpi\n      dup1\n      0x1f\n      lt\n      tag_23\n      jumpi\n      0x0100\n      dup1\n      dup4\n      sload\n      div\n      mul\n      dup4\n      mstore\n      swap2\n      0x20\n      add\n      swap2\n      jump(tag_22)\n    tag_23:\n      dup3\n      add\n      swap2\n      swap1\n      0x00\n      mstore\n      keccak256(0x00, 0x20)\n      swap1\n    tag_24:\n      dup2\n      sload\n      dup2\n      mstore\n      swap1\n      0x01\n      add\n      swap1\n      0x20\n      add\n      dup1\n      dup4\n      gt\n      tag_24\n      jumpi\n      dup3\n      swap1\n      sub\n      0x1f\n      and\n      dup3\n      add\n      swap2\n    tag_22:\n      pop\n      pop\n      pop\n      pop\n      pop\n      dup2\n      mstore\n      0x20\n      add\n      0x01\n      dup3\n      add\n      sload\n      dup2\n      mstore\n      pop\n      pop\n      swap1\n      pop\n        /* \"Memory Management Problems/StoreandRetrieveUserData.sol\":490:498  tempUser */\n      dup1\n        /* \"Memory Management Problems/StoreandRetrieveUserData.sol\":490:503  tempUser.name */\n      0x00\n      add\n      mload\n        /* \"Memory Management Problems/StoreandRetrieveUserData.sol\":505:513  tempUser */\n      dup2\n        /* \"Memory Management Problems/StoreandRetrieveUserData.sol\":505:521  tempUser.balance */\n      0x20\n      add\n      mload\n        /* \"Memory Management Problems/StoreandRetrieveUserData.sol\":483:522  return(tempUser.name, tempUser.balance) */\n      swap3\n      pop\n      swap3\n      pop\n      pop\n        /* \"Memory Management Problems/StoreandRetrieveUserData.sol\":350:529  function getUser(address _user) external view returns(string memory, uint256){... */\n      swap2\n      pop\n      swap2\n      jump\t// out\n        /* \"#utility.yul\":88:205   */\n    tag_26:\n        /* \"#utility.yul\":197:198   */\n      0x00\n        /* \"#utility.yul\":194:195   */\n      dup1\n        /* \"#utility.yul\":187:199   */\n      revert\n        /* \"#utility.yul\":211:328   */\n    tag_27:\n        /* \"#utility.yul\":320:321   */\n      0x00\n        /* \"#utility.yul\":317:318   */\n      dup1\n        /* \"#utility.yul\":310:322   */\n      revert\n        /* \"#utility.yul\":334:460   */\n    tag_28:\n        /* \"#utility.yul\":371:378   */\n      0x00\n        /* \"#utility.yul\":411:453   */\n      0xffffffffffffffffffffffffffffffffffffffff\n        /* \"#utility.yul\":404:409   */\n      dup3\n        /* \"#utility.yul\":400:454   */\n      and\n        /* \"#utility.yul\":389:454   */\n      swap1\n      pop\n        /* \"#utility.yul\":334:460   */\n      swap2\n      swap1\n      pop\n      jump\t// out\n        /* \"#utility.yul\":466:562   */\n    tag_29:\n        /* \"#utility.yul\":503:510   */\n      0x00\n        /* \"#utility.yul\":532:556   */\n      tag_66\n        /* \"#utility.yul\":550:555   */\n      dup3\n        /* \"#utility.yul\":532:556   */\n      tag_28\n      jump\t// in\n    tag_66:\n        /* \"#utility.yul\":521:556   */\n      swap1\n      pop\n        /* \"#utility.yul\":466:562   */\n      swap2\n      swap1\n      pop\n      jump\t// out\n        /* \"#utility.yul\":568:690   */\n    tag_30:\n        /* \"#utility.yul\":641:665   */\n      tag_68\n        /* \"#utility.yul\":659:664   */\n      dup2\n        /* \"#utility.yul\":641:665   */\n      tag_29\n      jump\t// in\n    tag_68:\n        /* \"#utility.yul\":634:639   */\n      dup2\n        /* \"#utility.yul\":631:666   */\n      eq\n        /* \"#utility.yul\":621:684   */\n      tag_69\n      jumpi\n        /* \"#utility.yul\":680:681   */\n      0x00\n        /* \"#utility.yul\":677:678   */\n      dup1\n        /* \"#utility.yul\":670:682   */\n      revert\n        /* \"#utility.yul\":621:684   */\n    tag_69:\n        /* \"#utility.yul\":568:690   */\n      pop\n      jump\t// out\n        /* \"#utility.yul\":696:835   */\n    tag_31:\n        /* \"#utility.yul\":742:747   */\n      0x00\n        /* \"#utility.yul\":780:786   */\n      dup2\n        /* \"#utility.yul\":767:787   */\n      calldataload\n        /* \"#utility.yul\":758:787   */\n      swap1\n      pop\n        /* \"#utility.yul\":796:829   */\n      tag_71\n        /* \"#utility.yul\":823:828   */\n      dup2\n        /* \"#utility.yul\":796:829   */\n      tag_30\n      jump\t// in\n    tag_71:\n        /* \"#utility.yul\":696:835   */\n      swap3\n      swap2\n      pop\n      pop\n      jump\t// out\n        /* \"#utility.yul\":841:958   */\n    tag_32:\n        /* \"#utility.yul\":950:951   */\n      0x00\n        /* \"#utility.yul\":947:948   */\n      dup1\n        /* \"#utility.yul\":940:952   */\n      revert\n        /* \"#utility.yul\":964:1081   */\n    tag_33:\n        /* \"#utility.yul\":1073:1074   */\n      0x00\n        /* \"#utility.yul\":1070:1071   */\n      dup1\n        /* \"#utility.yul\":1063:1075   */\n      revert\n        /* \"#utility.yul\":1087:1204   */\n    tag_34:\n        /* \"#utility.yul\":1196:1197   */\n      0x00\n        /* \"#utility.yul\":1193:1194   */\n      dup1\n        /* \"#utility.yul\":1186:1198   */\n      revert\n        /* \"#utility.yul\":1224:1777   */\n    tag_35:\n        /* \"#utility.yul\":1282:1290   */\n      0x00\n        /* \"#utility.yul\":1292:1298   */\n      dup1\n        /* \"#utility.yul\":1342:1345   */\n      dup4\n        /* \"#utility.yul\":1335:1339   */\n      0x1f\n        /* \"#utility.yul\":1327:1333   */\n      dup5\n        /* \"#utility.yul\":1323:1340   */\n      add\n        /* \"#utility.yul\":1319:1346   */\n      slt\n        /* \"#utility.yul\":1309:1431   */\n      tag_76\n      jumpi\n        /* \"#utility.yul\":1350:1429   */\n      tag_77\n      tag_32\n      jump\t// in\n    tag_77:\n        /* \"#utility.yul\":1309:1431   */\n    tag_76:\n        /* \"#utility.yul\":1463:1469   */\n      dup3\n        /* \"#utility.yul\":1450:1470   */\n      calldataload\n        /* \"#utility.yul\":1440:1470   */\n      swap1\n      pop\n        /* \"#utility.yul\":1493:1511   */\n      0xffffffffffffffff\n        /* \"#utility.yul\":1485:1491   */\n      dup2\n        /* \"#utility.yul\":1482:1512   */\n      gt\n        /* \"#utility.yul\":1479:1596   */\n      iszero\n      tag_78\n      jumpi\n        /* \"#utility.yul\":1515:1594   */\n      tag_79\n      tag_33\n      jump\t// in\n    tag_79:\n        /* \"#utility.yul\":1479:1596   */\n    tag_78:\n        /* \"#utility.yul\":1629:1633   */\n      0x20\n        /* \"#utility.yul\":1621:1627   */\n      dup4\n        /* \"#utility.yul\":1617:1634   */\n      add\n        /* \"#utility.yul\":1605:1634   */\n      swap2\n      pop\n        /* \"#utility.yul\":1683:1686   */\n      dup4\n        /* \"#utility.yul\":1675:1679   */\n      0x01\n        /* \"#utility.yul\":1667:1673   */\n      dup3\n        /* \"#utility.yul\":1663:1680   */\n      mul\n        /* \"#utility.yul\":1653:1661   */\n      dup4\n        /* \"#utility.yul\":1649:1681   */\n      add\n        /* \"#utility.yul\":1646:1687   */\n      gt\n        /* \"#utility.yul\":1643:1771   */\n      iszero\n      tag_80\n      jumpi\n        /* \"#utility.yul\":1690:1769   */\n      tag_81\n      tag_34\n      jump\t// in\n    tag_81:\n        /* \"#utility.yul\":1643:1771   */\n    tag_80:\n        /* \"#utility.yul\":1224:1777   */\n      swap3\n      pop\n      swap3\n      swap1\n      pop\n      jump\t// out\n        /* \"#utility.yul\":1783:2457   */\n    tag_7:\n        /* \"#utility.yul\":1863:1869   */\n      0x00\n        /* \"#utility.yul\":1871:1877   */\n      dup1\n        /* \"#utility.yul\":1879:1885   */\n      0x00\n        /* \"#utility.yul\":1928:1930   */\n      0x40\n        /* \"#utility.yul\":1916:1925   */\n      dup5\n        /* \"#utility.yul\":1907:1914   */\n      dup7\n        /* \"#utility.yul\":1903:1926   */\n      sub\n        /* \"#utility.yul\":1899:1931   */\n      slt\n        /* \"#utility.yul\":1896:2015   */\n      iszero\n      tag_83\n      jumpi\n        /* \"#utility.yul\":1934:2013   */\n      tag_84\n      tag_26\n      jump\t// in\n    tag_84:\n        /* \"#utility.yul\":1896:2015   */\n    tag_83:\n        /* \"#utility.yul\":2054:2055   */\n      0x00\n        /* \"#utility.yul\":2079:2132   */\n      tag_85\n        /* \"#utility.yul\":2124:2131   */\n      dup7\n        /* \"#utility.yul\":2115:2121   */\n      dup3\n        /* \"#utility.yul\":2104:2113   */\n      dup8\n        /* \"#utility.yul\":2100:2122   */\n      add\n        /* \"#utility.yul\":2079:2132   */\n      tag_31\n      jump\t// in\n    tag_85:\n        /* \"#utility.yul\":2069:2132   */\n      swap4\n      pop\n        /* \"#utility.yul\":2025:2142   */\n      pop\n        /* \"#utility.yul\":2209:2211   */\n      0x20\n        /* \"#utility.yul\":2198:2207   */\n      dup5\n        /* \"#utility.yul\":2194:2212   */\n      add\n        /* \"#utility.yul\":2181:2213   */\n      calldataload\n        /* \"#utility.yul\":2240:2258   */\n      0xffffffffffffffff\n        /* \"#utility.yul\":2232:2238   */\n      dup2\n        /* \"#utility.yul\":2229:2259   */\n      gt\n        /* \"#utility.yul\":2226:2343   */\n      iszero\n      tag_86\n      jumpi\n        /* \"#utility.yul\":2262:2341   */\n      tag_87\n      tag_27\n      jump\t// in\n    tag_87:\n        /* \"#utility.yul\":2226:2343   */\n    tag_86:\n        /* \"#utility.yul\":2375:2440   */\n      tag_88\n        /* \"#utility.yul\":2432:2439   */\n      dup7\n        /* \"#utility.yul\":2423:2429   */\n      dup3\n        /* \"#utility.yul\":2412:2421   */\n      dup8\n        /* \"#utility.yul\":2408:2430   */\n      add\n        /* \"#utility.yul\":2375:2440   */\n      tag_35\n      jump\t// in\n    tag_88:\n        /* \"#utility.yul\":2357:2440   */\n      swap3\n      pop\n      swap3\n      pop\n        /* \"#utility.yul\":2152:2450   */\n      pop\n        /* \"#utility.yul\":1783:2457   */\n      swap3\n      pop\n      swap3\n      pop\n      swap3\n      jump\t// out\n        /* \"#utility.yul\":2463:2792   */\n    tag_11:\n        /* \"#utility.yul\":2522:2528   */\n      0x00\n        /* \"#utility.yul\":2571:2573   */\n      0x20\n        /* \"#utility.yul\":2559:2568   */\n      dup3\n        /* \"#utility.yul\":2550:2557   */\n      dup5\n        /* \"#utility.yul\":2546:2569   */\n      sub\n        /* \"#utility.yul\":2542:2574   */\n      slt\n        /* \"#utility.yul\":2539:2658   */\n      iszero\n      tag_90\n      jumpi\n        /* \"#utility.yul\":2577:2656   */\n      tag_91\n      tag_26\n      jump\t// in\n    tag_91:\n        /* \"#utility.yul\":2539:2658   */\n    tag_90:\n        /* \"#utility.yul\":2697:2698   */\n      0x00\n        /* \"#utility.yul\":2722:2775   */\n      tag_92\n        /* \"#utility.yul\":2767:2774   */\n      dup5\n        /* \"#utility.yul\":2758:2764   */\n      dup3\n        /* \"#utility.yul\":2747:2756   */\n      dup6\n        /* \"#utility.yul\":2743:2765   */\n      add\n        /* \"#utility.yul\":2722:2775   */\n      tag_31\n      jump\t// in\n    tag_92:\n        /* \"#utility.yul\":2712:2775   */\n      swap2\n      pop\n        /* \"#utility.yul\":2668:2785   */\n      pop\n        /* \"#utility.yul\":2463:2792   */\n      swap3\n      swap2\n      pop\n      pop\n      jump\t// out\n        /* \"#utility.yul\":2798:2897   */\n    tag_36:\n        /* \"#utility.yul\":2850:2856   */\n      0x00\n        /* \"#utility.yul\":2884:2889   */\n      dup2\n        /* \"#utility.yul\":2878:2890   */\n      mload\n        /* \"#utility.yul\":2868:2890   */\n      swap1\n      pop\n        /* \"#utility.yul\":2798:2897   */\n      swap2\n      swap1\n      pop\n      jump\t// out\n        /* \"#utility.yul\":2903:3072   */\n    tag_37:\n        /* \"#utility.yul\":2987:2998   */\n      0x00\n        /* \"#utility.yul\":3021:3027   */\n      dup3\n        /* \"#utility.yul\":3016:3019   */\n      dup3\n        /* \"#utility.yul\":3009:3028   */\n      mstore\n        /* \"#utility.yul\":3061:3065   */\n      0x20\n        /* \"#utility.yul\":3056:3059   */\n      dup3\n        /* \"#utility.yul\":3052:3066   */\n      add\n        /* \"#utility.yul\":3037:3066   */\n      swap1\n      pop\n        /* \"#utility.yul\":2903:3072   */\n      swap3\n      swap2\n      pop\n      pop\n      jump\t// out\n        /* \"#utility.yul\":3078:3217   */\n    tag_38:\n        /* \"#utility.yul\":3167:3173   */\n      dup3\n        /* \"#utility.yul\":3162:3165   */\n      dup2\n        /* \"#utility.yul\":3157:3160   */\n      dup4\n        /* \"#utility.yul\":3151:3174   */\n      mcopy\n        /* \"#utility.yul\":3208:3209   */\n      0x00\n        /* \"#utility.yul\":3199:3205   */\n      dup4\n        /* \"#utility.yul\":3194:3197   */\n      dup4\n        /* \"#utility.yul\":3190:3206   */\n      add\n        /* \"#utility.yul\":3183:3210   */\n      mstore\n        /* \"#utility.yul\":3078:3217   */\n      pop\n      pop\n      pop\n      jump\t// out\n        /* \"#utility.yul\":3223:3325   */\n    tag_39:\n        /* \"#utility.yul\":3264:3270   */\n      0x00\n        /* \"#utility.yul\":3315:3317   */\n      0x1f\n        /* \"#utility.yul\":3311:3318   */\n      not\n        /* \"#utility.yul\":3306:3308   */\n      0x1f\n        /* \"#utility.yul\":3299:3304   */\n      dup4\n        /* \"#utility.yul\":3295:3309   */\n      add\n        /* \"#utility.yul\":3291:3319   */\n      and\n        /* \"#utility.yul\":3281:3319   */\n      swap1\n      pop\n        /* \"#utility.yul\":3223:3325   */\n      swap2\n      swap1\n      pop\n      jump\t// out\n        /* \"#utility.yul\":3331:3708   */\n    tag_40:\n        /* \"#utility.yul\":3419:3422   */\n      0x00\n        /* \"#utility.yul\":3447:3486   */\n      tag_98\n        /* \"#utility.yul\":3480:3485   */\n      dup3\n        /* \"#utility.yul\":3447:3486   */\n      tag_36\n      jump\t// in\n    tag_98:\n        /* \"#utility.yul\":3502:3573   */\n      tag_99\n        /* \"#utility.yul\":3566:3572   */\n      dup2\n        /* \"#utility.yul\":3561:3564   */\n      dup6\n        /* \"#utility.yul\":3502:3573   */\n      tag_37\n      jump\t// in\n    tag_99:\n        /* \"#utility.yul\":3495:3573   */\n      swap4\n      pop\n        /* \"#utility.yul\":3582:3647   */\n      tag_100\n        /* \"#utility.yul\":3640:3646   */\n      dup2\n        /* \"#utility.yul\":3635:3638   */\n      dup6\n        /* \"#utility.yul\":3628:3632   */\n      0x20\n        /* \"#utility.yul\":3621:3626   */\n      dup7\n        /* \"#utility.yul\":3617:3633   */\n      add\n        /* \"#utility.yul\":3582:3647   */\n      tag_38\n      jump\t// in\n    tag_100:\n        /* \"#utility.yul\":3672:3701   */\n      tag_101\n        /* \"#utility.yul\":3694:3700   */\n      dup2\n        /* \"#utility.yul\":3672:3701   */\n      tag_39\n      jump\t// in\n    tag_101:\n        /* \"#utility.yul\":3667:3670   */\n      dup5\n        /* \"#utility.yul\":3663:3702   */\n      add\n        /* \"#utility.yul\":3656:3702   */\n      swap2\n      pop\n        /* \"#utility.yul\":3423:3708   */\n      pop\n        /* \"#utility.yul\":3331:3708   */\n      swap3\n      swap2\n      pop\n      pop\n      jump\t// out\n        /* \"#utility.yul\":3714:3791   */\n    tag_41:\n        /* \"#utility.yul\":3751:3758   */\n      0x00\n        /* \"#utility.yul\":3780:3785   */\n      dup2\n        /* \"#utility.yul\":3769:3785   */\n      swap1\n      pop\n        /* \"#utility.yul\":3714:3791   */\n      swap2\n      swap1\n      pop\n      jump\t// out\n        /* \"#utility.yul\":3797:3915   */\n    tag_42:\n        /* \"#utility.yul\":3884:3908   */\n      tag_104\n        /* \"#utility.yul\":3902:3907   */\n      dup2\n        /* \"#utility.yul\":3884:3908   */\n      tag_41\n      jump\t// in\n    tag_104:\n        /* \"#utility.yul\":3879:3882   */\n      dup3\n        /* \"#utility.yul\":3872:3909   */\n      mstore\n        /* \"#utility.yul\":3797:3915   */\n      pop\n      pop\n      jump\t// out\n        /* \"#utility.yul\":3921:4344   */\n    tag_14:\n        /* \"#utility.yul\":4062:4066   */\n      0x00\n        /* \"#utility.yul\":4100:4102   */\n      0x40\n        /* \"#utility.yul\":4089:4098   */\n      dup3\n        /* \"#utility.yul\":4085:4103   */\n      add\n        /* \"#utility.yul\":4077:4103   */\n      swap1\n      pop\n        /* \"#utility.yul\":4149:4158   */\n      dup2\n        /* \"#utility.yul\":4143:4147   */\n      dup2\n        /* \"#utility.yul\":4139:4159   */\n      sub\n        /* \"#utility.yul\":4135:4136   */\n      0x00\n        /* \"#utility.yul\":4124:4133   */\n      dup4\n        /* \"#utility.yul\":4120:4137   */\n      add\n        /* \"#utility.yul\":4113:4160   */\n      mstore\n        /* \"#utility.yul\":4177:4255   */\n      tag_106\n        /* \"#utility.yul\":4250:4254   */\n      dup2\n        /* \"#utility.yul\":4241:4247   */\n      dup6\n        /* \"#utility.yul\":4177:4255   */\n      tag_40\n      jump\t// in\n    tag_106:\n        /* \"#utility.yul\":4169:4255   */\n      swap1\n      pop\n        /* \"#utility.yul\":4265:4337   */\n      tag_107\n        /* \"#utility.yul\":4333:4335   */\n      0x20\n        /* \"#utility.yul\":4322:4331   */\n      dup4\n        /* \"#utility.yul\":4318:4336   */\n      add\n        /* \"#utility.yul\":4309:4315   */\n      dup5\n        /* \"#utility.yul\":4265:4337   */\n      tag_42\n      jump\t// in\n    tag_107:\n        /* \"#utility.yul\":3921:4344   */\n      swap4\n      swap3\n      pop\n      pop\n      pop\n      jump\t// out\n        /* \"#utility.yul\":4350:4530   */\n    tag_43:\n        /* \"#utility.yul\":4398:4475   */\n      0x4e487b7100000000000000000000000000000000000000000000000000000000\n        /* \"#utility.yul\":4395:4396   */\n      0x00\n        /* \"#utility.yul\":4388:4476   */\n      mstore\n        /* \"#utility.yul\":4495:4499   */\n      0x41\n        /* \"#utility.yul\":4492:4493   */\n      0x04\n        /* \"#utility.yul\":4485:4500   */\n      mstore\n        /* \"#utility.yul\":4519:4523   */\n      0x24\n        /* \"#utility.yul\":4516:4517   */\n      0x00\n        /* \"#utility.yul\":4509:4524   */\n      revert\n        /* \"#utility.yul\":4536:4716   */\n    tag_44:\n        /* \"#utility.yul\":4584:4661   */\n      0x4e487b7100000000000000000000000000000000000000000000000000000000\n        /* \"#utility.yul\":4581:4582   */\n      0x00\n        /* \"#utility.yul\":4574:4662   */\n      mstore\n        /* \"#utility.yul\":4681:4685   */\n      0x22\n        /* \"#utility.yul\":4678:4679   */\n      0x04\n        /* \"#utility.yul\":4671:4686   */\n      mstore\n        /* \"#utility.yul\":4705:4709   */\n      0x24\n        /* \"#utility.yul\":4702:4703   */\n      0x00\n        /* \"#utility.yul\":4695:4710   */\n      revert\n        /* \"#utility.yul\":4722:5042   */\n    tag_20:\n        /* \"#utility.yul\":4766:4772   */\n      0x00\n        /* \"#utility.yul\":4803:4804   */\n      0x02\n        /* \"#utility.yul\":4797:4801   */\n      dup3\n        /* \"#utility.yul\":4793:4805   */\n      div\n        /* \"#utility.yul\":4783:4805   */\n      swap1\n      pop\n        /* \"#utility.yul\":4850:4851   */\n      0x01\n        /* \"#utility.yul\":4844:4848   */\n      dup3\n        /* \"#utility.yul\":4840:4852   */\n      and\n        /* \"#utility.yul\":4871:4889   */\n      dup1\n        /* \"#utility.yul\":4861:4942   */\n      tag_111\n      jumpi\n        /* \"#utility.yul\":4927:4931   */\n      0x7f\n        /* \"#utility.yul\":4919:4925   */\n      dup3\n        /* \"#utility.yul\":4915:4932   */\n      and\n        /* \"#utility.yul\":4905:4932   */\n      swap2\n      pop\n        /* \"#utility.yul\":4861:4942   */\n    tag_111:\n        /* \"#utility.yul\":4989:4991   */\n      0x20\n        /* \"#utility.yul\":4981:4987   */\n      dup3\n        /* \"#utility.yul\":4978:4992   */\n      lt\n        /* \"#utility.yul\":4958:4976   */\n      dup2\n        /* \"#utility.yul\":4955:4993   */\n      sub\n        /* \"#utility.yul\":4952:5036   */\n      tag_112\n      jumpi\n        /* \"#utility.yul\":5008:5026   */\n      tag_113\n      tag_44\n      jump\t// in\n    tag_113:\n        /* \"#utility.yul\":4952:5036   */\n    tag_112:\n        /* \"#utility.yul\":4773:5042   */\n      pop\n        /* \"#utility.yul\":4722:5042   */\n      swap2\n      swap1\n      pop\n      jump\t// out\n        /* \"#utility.yul\":5048:5189   */\n    tag_45:\n        /* \"#utility.yul\":5097:5101   */\n      0x00\n        /* \"#utility.yul\":5120:5123   */\n      dup2\n        /* \"#utility.yul\":5112:5123   */\n      swap1\n      pop\n        /* \"#utility.yul\":5143:5146   */\n      dup2\n        /* \"#utility.yul\":5140:5141   */\n      0x00\n        /* \"#utility.yul\":5133:5147   */\n      mstore\n        /* \"#utility.yul\":5177:5181   */\n      0x20\n        /* \"#utility.yul\":5174:5175   */\n      0x00\n        /* \"#utility.yul\":5164:5182   */\n      keccak256\n        /* \"#utility.yul\":5156:5182   */\n      swap1\n      pop\n        /* \"#utility.yul\":5048:5189   */\n      swap2\n      swap1\n      pop\n      jump\t// out\n        /* \"#utility.yul\":5195:5288   */\n    tag_46:\n        /* \"#utility.yul\":5232:5238   */\n      0x00\n        /* \"#utility.yul\":5279:5281   */\n      0x20\n        /* \"#utility.yul\":5274:5276   */\n      0x1f\n        /* \"#utility.yul\":5267:5272   */\n      dup4\n        /* \"#utility.yul\":5263:5277   */\n      add\n        /* \"#utility.yul\":5259:5282   */\n      div\n        /* \"#utility.yul\":5249:5282   */\n      swap1\n      pop\n        /* \"#utility.yul\":5195:5288   */\n      swap2\n      swap1\n      pop\n      jump\t// out\n        /* \"#utility.yul\":5294:5401   */\n    tag_47:\n        /* \"#utility.yul\":5338:5346   */\n      0x00\n        /* \"#utility.yul\":5388:5393   */\n      dup3\n        /* \"#utility.yul\":5382:5386   */\n      dup3\n        /* \"#utility.yul\":5378:5394   */\n      shl\n        /* \"#utility.yul\":5357:5394   */\n      swap1\n      pop\n        /* \"#utility.yul\":5294:5401   */\n      swap3\n      swap2\n      pop\n      pop\n      jump\t// out\n        /* \"#utility.yul\":5407:5800   */\n    tag_48:\n        /* \"#utility.yul\":5476:5482   */\n      0x00\n        /* \"#utility.yul\":5526:5527   */\n      0x08\n        /* \"#utility.yul\":5514:5524   */\n      dup4\n        /* \"#utility.yul\":5510:5528   */\n      mul\n        /* \"#utility.yul\":5549:5646   */\n      tag_118\n        /* \"#utility.yul\":5579:5645   */\n      0xffffffffffffffffffffffffffffffffffffffffffffffffffffffffffffffff\n        /* \"#utility.yul\":5568:5577   */\n      dup3\n        /* \"#utility.yul\":5549:5646   */\n      tag_47\n      jump\t// in\n    tag_118:\n        /* \"#utility.yul\":5667:5706   */\n      tag_119\n        /* \"#utility.yul\":5697:5705   */\n      dup7\n        /* \"#utility.yul\":5686:5695   */\n      dup4\n        /* \"#utility.yul\":5667:5706   */\n      tag_47\n      jump\t// in\n    tag_119:\n        /* \"#utility.yul\":5655:5706   */\n      swap6\n      pop\n        /* \"#utility.yul\":5739:5743   */\n      dup1\n        /* \"#utility.yul\":5735:5744   */\n      not\n        /* \"#utility.yul\":5728:5733   */\n      dup5\n        /* \"#utility.yul\":5724:5745   */\n      and\n        /* \"#utility.yul\":5715:5745   */\n      swap4\n      pop\n        /* \"#utility.yul\":5788:5792   */\n      dup1\n        /* \"#utility.yul\":5778:5786   */\n      dup7\n        /* \"#utility.yul\":5774:5793   */\n      and\n        /* \"#utility.yul\":5767:5772   */\n      dup5\n        /* \"#utility.yul\":5764:5794   */\n      or\n        /* \"#utility.yul\":5754:5794   */\n      swap3\n      pop\n        /* \"#utility.yul\":5483:5800   */\n      pop\n      pop\n        /* \"#utility.yul\":5407:5800   */\n      swap4\n      swap3\n      pop\n      pop\n      pop\n      jump\t// out\n        /* \"#utility.yul\":5806:5866   */\n    tag_49:\n        /* \"#utility.yul\":5834:5837   */\n      0x00\n        /* \"#utility.yul\":5855:5860   */\n      dup2\n        /* \"#utility.yul\":5848:5860   */\n      swap1\n      pop\n        /* \"#utility.yul\":5806:5866   */\n      swap2\n      swap1\n      pop\n      jump\t// out\n        /* \"#utility.yul\":5872:6014   */\n    tag_50:\n        /* \"#utility.yul\":5922:5931   */\n      0x00\n        /* \"#utility.yul\":5955:6008   */\n      tag_122\n        /* \"#utility.yul\":5973:6007   */\n      tag_123\n        /* \"#utility.yul\":5982:6006   */\n      tag_124\n        /* \"#utility.yul\":6000:6005   */\n      dup5\n        /* \"#utility.yul\":5982:6006   */\n      tag_41\n      jump\t// in\n    tag_124:\n        /* \"#utility.yul\":5973:6007   */\n      tag_49\n      jump\t// in\n    tag_123:\n        /* \"#utility.yul\":5955:6008   */\n      tag_41\n      jump\t// in\n    tag_122:\n        /* \"#utility.yul\":5942:6008   */\n      swap1\n      pop\n        /* \"#utility.yul\":5872:6014   */\n      swap2\n      swap1\n      pop\n      jump\t// out\n        /* \"#utility.yul\":6020:6095   */\n    tag_51:\n        /* \"#utility.yul\":6063:6066   */\n      0x00\n        /* \"#utility.yul\":6084:6089   */\n      dup2\n        /* \"#utility.yul\":6077:6089   */\n      swap1\n      pop\n        /* \"#utility.yul\":6020:6095   */\n      swap2\n      swap1\n      pop\n      jump\t// out\n        /* \"#utility.yul\":6101:6370   */\n    tag_52:\n        /* \"#utility.yul\":6211:6250   */\n      tag_127\n        /* \"#utility.yul\":6242:6249   */\n      dup4\n        /* \"#utility.yul\":6211:6250   */\n      tag_50\n      jump\t// in\n    tag_127:\n        /* \"#utility.yul\":6272:6363   */\n      tag_128\n        /* \"#utility.yul\":6321:6362   */\n      tag_129\n        /* \"#utility.yul\":6345:6361   */\n      dup3\n        /* \"#utility.yul\":6321:6362   */\n      tag_51\n      jump\t// in\n    tag_129:\n        /* \"#utility.yul\":6313:6319   */\n      dup5\n        /* \"#utility.yul\":6306:6310   */\n      dup5\n        /* \"#utility.yul\":6300:6311   */\n      sload\n        /* \"#utility.yul\":6272:6363   */\n      tag_48\n      jump\t// in\n    tag_128:\n        /* \"#utility.yul\":6266:6270   */\n      dup3\n        /* \"#utility.yul\":6259:6364   */\n      sstore\n        /* \"#utility.yul\":6177:6370   */\n      pop\n        /* \"#utility.yul\":6101:6370   */\n      pop\n      pop\n      pop\n      jump\t// out\n        /* \"#utility.yul\":6376:6449   */\n    tag_53:\n        /* \"#utility.yul\":6421:6424   */\n      0x00\n        /* \"#utility.yul\":6376:6449   */\n      swap1\n      jump\t// out\n        /* \"#utility.yul\":6455:6644   */\n    tag_54:\n        /* \"#utility.yul\":6532:6564   */\n      tag_132\n      tag_53\n      jump\t// in\n    tag_132:\n        /* \"#utility.yul\":6573:6638   */\n      tag_133\n        /* \"#utility.yul\":6631:6637   */\n      dup2\n        /* \"#utility.yul\":6623:6629   */\n      dup5\n        /* \"#utility.yul\":6617:6621   */\n      dup5\n        /* \"#utility.yul\":6573:6638   */\n      tag_52\n      jump\t// in\n    tag_133:\n        /* \"#utility.yul\":6508:6644   */\n      pop\n        /* \"#utility.yul\":6455:6644   */\n      pop\n      pop\n      jump\t// out\n        /* \"#utility.yul\":6650:6836   */\n    tag_55:\n        /* \"#utility.yul\":6710:6830   */\n    tag_135:\n        /* \"#utility.yul\":6727:6730   */\n      dup2\n        /* \"#utility.yul\":6720:6725   */\n      dup2\n        /* \"#utility.yul\":6717:6731   */\n      lt\n        /* \"#utility.yul\":6710:6830   */\n      iszero\n      tag_137\n      jumpi\n        /* \"#utility.yul\":6781:6820   */\n      tag_138\n        /* \"#utility.yul\":6818:6819   */\n      0x00\n        /* \"#utility.yul\":6811:6816   */\n      dup3\n        /* \"#utility.yul\":6781:6820   */\n      tag_54\n      jump\t// in\n    tag_138:\n        /* \"#utility.yul\":6754:6755   */\n      0x01\n        /* \"#utility.yul\":6747:6752   */\n      dup2\n        /* \"#utility.yul\":6743:6756   */\n      add\n        /* \"#utility.yul\":6734:6756   */\n      swap1\n      pop\n        /* \"#utility.yul\":6710:6830   */\n      jump(tag_135)\n    tag_137:\n        /* \"#utility.yul\":6650:6836   */\n      pop\n      pop\n      jump\t// out\n        /* \"#utility.yul\":6842:7385   */\n    tag_56:\n        /* \"#utility.yul\":6943:6945   */\n      0x1f\n        /* \"#utility.yul\":6938:6941   */\n      dup3\n        /* \"#utility.yul\":6935:6946   */\n      gt\n        /* \"#utility.yul\":6932:7378   */\n      iszero\n      tag_140\n      jumpi\n        /* \"#utility.yul\":6977:7015   */\n      tag_141\n        /* \"#utility.yul\":7009:7014   */\n      dup2\n        /* \"#utility.yul\":6977:7015   */\n      tag_45\n      jump\t// in\n    tag_141:\n        /* \"#utility.yul\":7061:7090   */\n      tag_142\n        /* \"#utility.yul\":7079:7089   */\n      dup5\n        /* \"#utility.yul\":7061:7090   */\n      tag_46\n      jump\t// in\n    tag_142:\n        /* \"#utility.yul\":7051:7059   */\n      dup2\n        /* \"#utility.yul\":7047:7091   */\n      add\n        /* \"#utility.yul\":7244:7246   */\n      0x20\n        /* \"#utility.yul\":7232:7242   */\n      dup6\n        /* \"#utility.yul\":7229:7247   */\n      lt\n        /* \"#utility.yul\":7226:7275   */\n      iszero\n      tag_143\n      jumpi\n        /* \"#utility.yul\":7265:7273   */\n      dup2\n        /* \"#utility.yul\":7250:7273   */\n      swap1\n      pop\n        /* \"#utility.yul\":7226:7275   */\n    tag_143:\n        /* \"#utility.yul\":7288:7368   */\n      tag_144\n        /* \"#utility.yul\":7344:7366   */\n      tag_145\n        /* \"#utility.yul\":7362:7365   */\n      dup6\n        /* \"#utility.yul\":7344:7366   */\n      tag_46\n      jump\t// in\n    tag_145:\n        /* \"#utility.yul\":7334:7342   */\n      dup4\n        /* \"#utility.yul\":7330:7367   */\n      add\n        /* \"#utility.yul\":7317:7328   */\n      dup3\n        /* \"#utility.yul\":7288:7368   */\n      tag_55\n      jump\t// in\n    tag_144:\n        /* \"#utility.yul\":6947:7378   */\n      pop\n      pop\n        /* \"#utility.yul\":6932:7378   */\n    tag_140:\n        /* \"#utility.yul\":6842:7385   */\n      pop\n      pop\n      pop\n      jump\t// out\n        /* \"#utility.yul\":7391:7508   */\n    tag_57:\n        /* \"#utility.yul\":7445:7453   */\n      0x00\n        /* \"#utility.yul\":7495:7500   */\n      dup3\n        /* \"#utility.yul\":7489:7493   */\n      dup3\n        /* \"#utility.yul\":7485:7501   */\n      shr\n        /* \"#utility.yul\":7464:7501   */\n      swap1\n      pop\n        /* \"#utility.yul\":7391:7508   */\n      swap3\n      swap2\n      pop\n      pop\n      jump\t// out\n        /* \"#utility.yul\":7514:7683   */\n    tag_58:\n        /* \"#utility.yul\":7558:7564   */\n      0x00\n        /* \"#utility.yul\":7591:7642   */\n      tag_148\n        /* \"#utility.yul\":7639:7640   */\n      0x00\n        /* \"#utility.yul\":7635:7641   */\n      not\n        /* \"#utility.yul\":7627:7632   */\n      dup5\n        /* \"#utility.yul\":7624:7625   */\n      0x08\n        /* \"#utility.yul\":7620:7633   */\n      mul\n        /* \"#utility.yul\":7591:7642   */\n      tag_57\n      jump\t// in\n    tag_148:\n        /* \"#utility.yul\":7587:7643   */\n      not\n        /* \"#utility.yul\":7672:7676   */\n      dup1\n        /* \"#utility.yul\":7666:7670   */\n      dup4\n        /* \"#utility.yul\":7662:7677   */\n      and\n        /* \"#utility.yul\":7652:7677   */\n      swap2\n      pop\n        /* \"#utility.yul\":7565:7683   */\n      pop\n        /* \"#utility.yul\":7514:7683   */\n      swap3\n      swap2\n      pop\n      pop\n      jump\t// out\n        /* \"#utility.yul\":7688:7983   */\n    tag_59:\n        /* \"#utility.yul\":7764:7768   */\n      0x00\n        /* \"#utility.yul\":7910:7939   */\n      tag_150\n        /* \"#utility.yul\":7935:7938   */\n      dup4\n        /* \"#utility.yul\":7929:7933   */\n      dup4\n        /* \"#utility.yul\":7910:7939   */\n      tag_58\n      jump\t// in\n    tag_150:\n        /* \"#utility.yul\":7902:7939   */\n      swap2\n      pop\n        /* \"#utility.yul\":7972:7975   */\n      dup3\n        /* \"#utility.yul\":7969:7970   */\n      0x02\n        /* \"#utility.yul\":7965:7976   */\n      mul\n        /* \"#utility.yul\":7959:7963   */\n      dup3\n        /* \"#utility.yul\":7956:7977   */\n      or\n        /* \"#utility.yul\":7948:7977   */\n      swap1\n      pop\n        /* \"#utility.yul\":7688:7983   */\n      swap3\n      swap2\n      pop\n      pop\n      jump\t// out\n        /* \"#utility.yul\":7988:9383   */\n    tag_17:\n        /* \"#utility.yul\":8105:8142   */\n      tag_152\n        /* \"#utility.yul\":8138:8141   */\n      dup3\n        /* \"#utility.yul\":8105:8142   */\n      tag_36\n      jump\t// in\n    tag_152:\n        /* \"#utility.yul\":8207:8225   */\n      0xffffffffffffffff\n        /* \"#utility.yul\":8199:8205   */\n      dup2\n        /* \"#utility.yul\":8196:8226   */\n      gt\n        /* \"#utility.yul\":8193:8249   */\n      iszero\n      tag_153\n      jumpi\n        /* \"#utility.yul\":8229:8247   */\n      tag_154\n      tag_43\n      jump\t// in\n    tag_154:\n        /* \"#utility.yul\":8193:8249   */\n    tag_153:\n        /* \"#utility.yul\":8273:8311   */\n      tag_155\n        /* \"#utility.yul\":8305:8309   */\n      dup3\n        /* \"#utility.yul\":8299:8310   */\n      sload\n        /* \"#utility.yul\":8273:8311   */\n      tag_20\n      jump\t// in\n    tag_155:\n        /* \"#utility.yul\":8358:8425   */\n      tag_156\n        /* \"#utility.yul\":8418:8424   */\n      dup3\n        /* \"#utility.yul\":8410:8416   */\n      dup3\n        /* \"#utility.yul\":8404:8408   */\n      dup6\n        /* \"#utility.yul\":8358:8425   */\n      tag_56\n      jump\t// in\n    tag_156:\n        /* \"#utility.yul\":8452:8453   */\n      0x00\n        /* \"#utility.yul\":8476:8480   */\n      0x20\n        /* \"#utility.yul\":8463:8480   */\n      swap1\n      pop\n        /* \"#utility.yul\":8508:8510   */\n      0x1f\n        /* \"#utility.yul\":8500:8506   */\n      dup4\n        /* \"#utility.yul\":8497:8511   */\n      gt\n        /* \"#utility.yul\":8525:8526   */\n      0x01\n        /* \"#utility.yul\":8520:9138   */\n      dup2\n      eq\n      tag_158\n      jumpi\n        /* \"#utility.yul\":9182:9183   */\n      0x00\n        /* \"#utility.yul\":9199:9205   */\n      dup5\n        /* \"#utility.yul\":9196:9273   */\n      iszero\n      tag_159\n      jumpi\n        /* \"#utility.yul\":9248:9257   */\n      dup3\n        /* \"#utility.yul\":9243:9246   */\n      dup8\n        /* \"#utility.yul\":9239:9258   */\n      add\n        /* \"#utility.yul\":9233:9259   */\n      mload\n        /* \"#utility.yul\":9224:9259   */\n      swap1\n      pop\n        /* \"#utility.yul\":9196:9273   */\n    tag_159:\n        /* \"#utility.yul\":9299:9366   */\n      tag_160\n        /* \"#utility.yul\":9359:9365   */\n      dup6\n        /* \"#utility.yul\":9352:9357   */\n      dup3\n        /* \"#utility.yul\":9299:9366   */\n      tag_59\n      jump\t// in\n    tag_160:\n        /* \"#utility.yul\":9293:9297   */\n      dup7\n        /* \"#utility.yul\":9286:9367   */\n      sstore\n        /* \"#utility.yul\":9155:9377   */\n      pop\n        /* \"#utility.yul\":8490:9377   */\n      jump(tag_157)\n        /* \"#utility.yul\":8520:9138   */\n    tag_158:\n        /* \"#utility.yul\":8572:8576   */\n      0x1f\n        /* \"#utility.yul\":8568:8577   */\n      not\n        /* \"#utility.yul\":8560:8566   */\n      dup5\n        /* \"#utility.yul\":8556:8578   */\n      and\n        /* \"#utility.yul\":8606:8643   */\n      tag_161\n        /* \"#utility.yul\":8638:8642   */\n      dup7\n        /* \"#utility.yul\":8606:8643   */\n      tag_45\n      jump\t// in\n    tag_161:\n        /* \"#utility.yul\":8665:8666   */\n      0x00\n        /* \"#utility.yul\":8679:8887   */\n    tag_162:\n        /* \"#utility.yul\":8693:8700   */\n      dup3\n        /* \"#utility.yul\":8690:8691   */\n      dup2\n        /* \"#utility.yul\":8687:8701   */\n      lt\n        /* \"#utility.yul\":8679:8887   */\n      iszero\n      tag_164\n      jumpi\n        /* \"#utility.yul\":8772:8781   */\n      dup5\n        /* \"#utility.yul\":8767:8770   */\n      dup10\n        /* \"#utility.yul\":8763:8782   */\n      add\n        /* \"#utility.yul\":8757:8783   */\n      mload\n        /* \"#utility.yul\":8749:8755   */\n      dup3\n        /* \"#utility.yul\":8742:8784   */\n      sstore\n        /* \"#utility.yul\":8823:8824   */\n      0x01\n        /* \"#utility.yul\":8815:8821   */\n      dup3\n        /* \"#utility.yul\":8811:8825   */\n      add\n        /* \"#utility.yul\":8801:8825   */\n      swap2\n      pop\n        /* \"#utility.yul\":8870:8872   */\n      0x20\n        /* \"#utility.yul\":8859:8868   */\n      dup6\n        /* \"#utility.yul\":8855:8873   */\n      add\n        /* \"#utility.yul\":8842:8873   */\n      swap5\n      pop\n        /* \"#utility.yul\":8716:8720   */\n      0x20\n        /* \"#utility.yul\":8713:8714   */\n      dup2\n        /* \"#utility.yul\":8709:8721   */\n      add\n        /* \"#utility.yul\":8704:8721   */\n      swap1\n      pop\n        /* \"#utility.yul\":8679:8887   */\n      jump(tag_162)\n    tag_164:\n        /* \"#utility.yul\":8915:8921   */\n      dup7\n        /* \"#utility.yul\":8906:8913   */\n      dup4\n        /* \"#utility.yul\":8903:8922   */\n      lt\n        /* \"#utility.yul\":8900:9079   */\n      iszero\n      tag_165\n      jumpi\n        /* \"#utility.yul\":8973:8982   */\n      dup5\n        /* \"#utility.yul\":8968:8971   */\n      dup10\n        /* \"#utility.yul\":8964:8983   */\n      add\n        /* \"#utility.yul\":8958:8984   */\n      mload\n        /* \"#utility.yul\":9016:9064   */\n      tag_166\n        /* \"#utility.yul\":9058:9062   */\n      0x1f\n        /* \"#utility.yul\":9050:9056   */\n      dup10\n        /* \"#utility.yul\":9046:9063   */\n      and\n        /* \"#utility.yul\":9035:9044   */\n      dup3\n        /* \"#utility.yul\":9016:9064   */\n      tag_58\n      jump\t// in\n    tag_166:\n        /* \"#utility.yul\":9008:9014   */\n      dup4\n        /* \"#utility.yul\":9001:9065   */\n      sstore\n        /* \"#utility.yul\":8923:9079   */\n      pop\n        /* \"#utility.yul\":8900:9079   */\n    tag_165:\n        /* \"#utility.yul\":9125:9126   */\n      0x01\n        /* \"#utility.yul\":9121:9122   */\n      0x02\n        /* \"#utility.yul\":9113:9119   */\n      dup9\n        /* \"#utility.yul\":9109:9123   */\n      mul\n        /* \"#utility.yul\":9105:9127   */\n      add\n        /* \"#utility.yul\":9099:9103   */\n      dup9\n        /* \"#utility.yul\":9092:9128   */\n      sstore\n        /* \"#utility.yul\":8527:9138   */\n      pop\n      pop\n      pop\n        /* \"#utility.yul\":8490:9377   */\n    tag_157:\n      pop\n        /* \"#utility.yul\":8080:9383   */\n      pop\n      pop\n      pop\n        /* \"#utility.yul\":7988:9383   */\n      pop\n      pop\n      jump\t// out\n\n    auxdata: 0xa2646970667358221220b9307fde3265ab8f91755e99b0e000dbe42668b433a82e6a95c30202010bb21764736f6c634300081a0033\n}\n",
				"bytecode": {
					"linkReferences": {},
					"object": "6080604052348015600e575f80fd5b506107658061001c5f395ff3fe608060405234801561000f575f80fd5b5060043610610034575f3560e01c80636afbec5e146100385780636f77926b14610054575b5f80fd5b610052600480360381019061004d91906102fb565b610085565b005b61006e60048036038101906100699190610358565b61013f565b60405161007c92919061040b565b60405180910390f35b604051806040016040528083838080601f0160208091040260200160405190810160405280939291908181526020018383808284375f81840152601f19601f8201169050808301925050505050505081526020015f8152505f808573ffffffffffffffffffffffffffffffffffffffff1673ffffffffffffffffffffffffffffffffffffffff1681526020019081526020015f205f820151815f01908161012c9190610660565b5060208201518160010155905050505050565b60605f805f808573ffffffffffffffffffffffffffffffffffffffff1673ffffffffffffffffffffffffffffffffffffffff1681526020019081526020015f206040518060400160405290815f8201805461019990610493565b80601f01602080910402602001604051908101604052809291908181526020018280546101c590610493565b80156102105780601f106101e757610100808354040283529160200191610210565b820191905f5260205f20905b8154815290600101906020018083116101f357829003601f168201915b505050505081526020016001820154815250509050805f015181602001519250925050915091565b5f80fd5b5f80fd5b5f73ffffffffffffffffffffffffffffffffffffffff82169050919050565b5f61026982610240565b9050919050565b6102798161025f565b8114610283575f80fd5b50565b5f8135905061029481610270565b92915050565b5f80fd5b5f80fd5b5f80fd5b5f8083601f8401126102bb576102ba61029a565b5b8235905067ffffffffffffffff8111156102d8576102d761029e565b5b6020830191508360018202830111156102f4576102f36102a2565b5b9250929050565b5f805f6040848603121561031257610311610238565b5b5f61031f86828701610286565b935050602084013567ffffffffffffffff8111156103405761033f61023c565b5b61034c868287016102a6565b92509250509250925092565b5f6020828403121561036d5761036c610238565b5b5f61037a84828501610286565b91505092915050565b5f81519050919050565b5f82825260208201905092915050565b8281835e5f83830152505050565b5f601f19601f8301169050919050565b5f6103c582610383565b6103cf818561038d565b93506103df81856020860161039d565b6103e8816103ab565b840191505092915050565b5f819050919050565b610405816103f3565b82525050565b5f6040820190508181035f83015261042381856103bb565b905061043260208301846103fc565b9392505050565b7f4e487b71000000000000000000000000000000000000000000000000000000005f52604160045260245ffd5b7f4e487b71000000000000000000000000000000000000000000000000000000005f52602260045260245ffd5b5f60028204905060018216806104aa57607f821691505b6020821081036104bd576104bc610466565b5b50919050565b5f819050815f5260205f209050919050565b5f6020601f8301049050919050565b5f82821b905092915050565b5f6008830261051f7fffffffffffffffffffffffffffffffffffffffffffffffffffffffffffffffff826104e4565b61052986836104e4565b95508019841693508086168417925050509392505050565b5f819050919050565b5f61056461055f61055a846103f3565b610541565b6103f3565b9050919050565b5f819050919050565b61057d8361054a565b6105916105898261056b565b8484546104f0565b825550505050565b5f90565b6105a5610599565b6105b0818484610574565b505050565b5b818110156105d3576105c85f8261059d565b6001810190506105b6565b5050565b601f821115610618576105e9816104c3565b6105f2846104d5565b81016020851015610601578190505b61061561060d856104d5565b8301826105b5565b50505b505050565b5f82821c905092915050565b5f6106385f198460080261061d565b1980831691505092915050565b5f6106508383610629565b9150826002028217905092915050565b61066982610383565b67ffffffffffffffff81111561068257610681610439565b5b61068c8254610493565b6106978282856105d7565b5f60209050601f8311600181146106c8575f84156106b6578287015190505b6106c08582610645565b865550610727565b601f1984166106d6866104c3565b5f5b828110156106fd578489015182556001820191506020850194506020810190506106d8565b8683101561071a5784890151610716601f891682610629565b8355505b6001600288020188555050505b50505050505056fea2646970667358221220b9307fde3265ab8f91755e99b0e000dbe42668b433a82e6a95c30202010bb21764736f6c634300081a0033",
					"opcodes": "PUSH1 0x80 PUSH1 0x40 MSTORE CALLVALUE DUP1 ISZERO PUSH1 0xE JUMPI PUSH0 DUP1 REVERT JUMPDEST POP PUSH2 0x765 DUP1 PUSH2 0x1C PUSH0 CODECOPY PUSH0 RETURN INVALID PUSH1 0x80 PUSH1 0x40 MSTORE CALLVALUE DUP1 ISZERO PUSH2 0xF JUMPI PUSH0 DUP1 REVERT JUMPDEST POP PUSH1 0x4 CALLDATASIZE LT PUSH2 0x34 JUMPI PUSH0 CALLDATALOAD PUSH1 0xE0 SHR DUP1 PUSH4 0x6AFBEC5E EQ PUSH2 0x38 JUMPI DUP1 PUSH4 0x6F77926B EQ PUSH2 0x54 JUMPI JUMPDEST PUSH0 DUP1 REVERT JUMPDEST PUSH2 0x52 PUSH1 0x4 DUP1 CALLDATASIZE SUB DUP2 ADD SWAP1 PUSH2 0x4D SWAP2 SWAP1 PUSH2 0x2FB JUMP JUMPDEST PUSH2 0x85 JUMP JUMPDEST STOP JUMPDEST PUSH2 0x6E PUSH1 0x4 DUP1 CALLDATASIZE SUB DUP2 ADD SWAP1 PUSH2 0x69 SWAP2 SWAP1 PUSH2 0x358 JUMP JUMPDEST PUSH2 0x13F JUMP JUMPDEST PUSH1 0x40 MLOAD PUSH2 0x7C SWAP3 SWAP2 SWAP1 PUSH2 0x40B JUMP JUMPDEST PUSH1 0x40 MLOAD DUP1 SWAP2 SUB SWAP1 RETURN JUMPDEST PUSH1 0x40 MLOAD DUP1 PUSH1 0x40 ADD PUSH1 0x40 MSTORE DUP1 DUP4 DUP4 DUP1 DUP1 PUSH1 0x1F ADD PUSH1 0x20 DUP1 SWAP2 DIV MUL PUSH1 0x20 ADD PUSH1 0x40 MLOAD SWAP1 DUP2 ADD PUSH1 0x40 MSTORE DUP1 SWAP4 SWAP3 SWAP2 SWAP1 DUP2 DUP2 MSTORE PUSH1 0x20 ADD DUP4 DUP4 DUP1 DUP3 DUP5 CALLDATACOPY PUSH0 DUP2 DUP5 ADD MSTORE PUSH1 0x1F NOT PUSH1 0x1F DUP3 ADD AND SWAP1 POP DUP1 DUP4 ADD SWAP3 POP POP POP POP POP POP POP DUP2 MSTORE PUSH1 0x20 ADD PUSH0 DUP2 MSTORE POP PUSH0 DUP1 DUP6 PUSH20 0xFFFFFFFFFFFFFFFFFFFFFFFFFFFFFFFFFFFFFFFF AND PUSH20 0xFFFFFFFFFFFFFFFFFFFFFFFFFFFFFFFFFFFFFFFF AND DUP2 MSTORE PUSH1 0x20 ADD SWAP1 DUP2 MSTORE PUSH1 0x20 ADD PUSH0 KECCAK256 PUSH0 DUP3 ADD MLOAD DUP2 PUSH0 ADD SWAP1 DUP2 PUSH2 0x12C SWAP2 SWAP1 PUSH2 0x660 JUMP JUMPDEST POP PUSH1 0x20 DUP3 ADD MLOAD DUP2 PUSH1 0x1 ADD SSTORE SWAP1 POP POP POP POP POP JUMP JUMPDEST PUSH1 0x60 PUSH0 DUP1 PUSH0 DUP1 DUP6 PUSH20 0xFFFFFFFFFFFFFFFFFFFFFFFFFFFFFFFFFFFFFFFF AND PUSH20 0xFFFFFFFFFFFFFFFFFFFFFFFFFFFFFFFFFFFFFFFF AND DUP2 MSTORE PUSH1 0x20 ADD SWAP1 DUP2 MSTORE PUSH1 0x20 ADD PUSH0 KECCAK256 PUSH1 0x40 MLOAD DUP1 PUSH1 0x40 ADD PUSH1 0x40 MSTORE SWAP1 DUP2 PUSH0 DUP3 ADD DUP1 SLOAD PUSH2 0x199 SWAP1 PUSH2 0x493 JUMP JUMPDEST DUP1 PUSH1 0x1F ADD PUSH1 0x20 DUP1 SWAP2 DIV MUL PUSH1 0x20 ADD PUSH1 0x40 MLOAD SWAP1 DUP2 ADD PUSH1 0x40 MSTORE DUP1 SWAP3 SWAP2 SWAP1 DUP2 DUP2 MSTORE PUSH1 0x20 ADD DUP3 DUP1 SLOAD PUSH2 0x1C5 SWAP1 PUSH2 0x493 JUMP JUMPDEST DUP1 ISZERO PUSH2 0x210 JUMPI DUP1 PUSH1 0x1F LT PUSH2 0x1E7 JUMPI PUSH2 0x100 DUP1 DUP4 SLOAD DIV MUL DUP4 MSTORE SWAP2 PUSH1 0x20 ADD SWAP2 PUSH2 0x210 JUMP JUMPDEST DUP3 ADD SWAP2 SWAP1 PUSH0 MSTORE PUSH1 0x20 PUSH0 KECCAK256 SWAP1 JUMPDEST DUP2 SLOAD DUP2 MSTORE SWAP1 PUSH1 0x1 ADD SWAP1 PUSH1 0x20 ADD DUP1 DUP4 GT PUSH2 0x1F3 JUMPI DUP3 SWAP1 SUB PUSH1 0x1F AND DUP3 ADD SWAP2 JUMPDEST POP POP POP POP POP DUP2 MSTORE PUSH1 0x20 ADD PUSH1 0x1 DUP3 ADD SLOAD DUP2 MSTORE POP POP SWAP1 POP DUP1 PUSH0 ADD MLOAD DUP2 PUSH1 0x20 ADD MLOAD SWAP3 POP SWAP3 POP POP SWAP2 POP SWAP2 JUMP JUMPDEST PUSH0 DUP1 REVERT JUMPDEST PUSH0 DUP1 REVERT JUMPDEST PUSH0 PUSH20 0xFFFFFFFFFFFFFFFFFFFFFFFFFFFFFFFFFFFFFFFF DUP3 AND SWAP1 POP SWAP2 SWAP1 POP JUMP JUMPDEST PUSH0 PUSH2 0x269 DUP3 PUSH2 0x240 JUMP JUMPDEST SWAP1 POP SWAP2 SWAP1 POP JUMP JUMPDEST PUSH2 0x279 DUP2 PUSH2 0x25F JUMP JUMPDEST DUP2 EQ PUSH2 0x283 JUMPI PUSH0 DUP1 REVERT JUMPDEST POP JUMP JUMPDEST PUSH0 DUP2 CALLDATALOAD SWAP1 POP PUSH2 0x294 DUP2 PUSH2 0x270 JUMP JUMPDEST SWAP3 SWAP2 POP POP JUMP JUMPDEST PUSH0 DUP1 REVERT JUMPDEST PUSH0 DUP1 REVERT JUMPDEST PUSH0 DUP1 REVERT JUMPDEST PUSH0 DUP1 DUP4 PUSH1 0x1F DUP5 ADD SLT PUSH2 0x2BB JUMPI PUSH2 0x2BA PUSH2 0x29A JUMP JUMPDEST JUMPDEST DUP3 CALLDATALOAD SWAP1 POP PUSH8 0xFFFFFFFFFFFFFFFF DUP2 GT ISZERO PUSH2 0x2D8 JUMPI PUSH2 0x2D7 PUSH2 0x29E JUMP JUMPDEST JUMPDEST PUSH1 0x20 DUP4 ADD SWAP2 POP DUP4 PUSH1 0x1 DUP3 MUL DUP4 ADD GT ISZERO PUSH2 0x2F4 JUMPI PUSH2 0x2F3 PUSH2 0x2A2 JUMP JUMPDEST JUMPDEST SWAP3 POP SWAP3 SWAP1 POP JUMP JUMPDEST PUSH0 DUP1 PUSH0 PUSH1 0x40 DUP5 DUP7 SUB SLT ISZERO PUSH2 0x312 JUMPI PUSH2 0x311 PUSH2 0x238 JUMP JUMPDEST JUMPDEST PUSH0 PUSH2 0x31F DUP7 DUP3 DUP8 ADD PUSH2 0x286 JUMP JUMPDEST SWAP4 POP POP PUSH1 0x20 DUP5 ADD CALLDATALOAD PUSH8 0xFFFFFFFFFFFFFFFF DUP2 GT ISZERO PUSH2 0x340 JUMPI PUSH2 0x33F PUSH2 0x23C JUMP JUMPDEST JUMPDEST PUSH2 0x34C DUP7 DUP3 DUP8 ADD PUSH2 0x2A6 JUMP JUMPDEST SWAP3 POP SWAP3 POP POP SWAP3 POP SWAP3 POP SWAP3 JUMP JUMPDEST PUSH0 PUSH1 0x20 DUP3 DUP5 SUB SLT ISZERO PUSH2 0x36D JUMPI PUSH2 0x36C PUSH2 0x238 JUMP JUMPDEST JUMPDEST PUSH0 PUSH2 0x37A DUP5 DUP3 DUP6 ADD PUSH2 0x286 JUMP JUMPDEST SWAP2 POP POP SWAP3 SWAP2 POP POP JUMP JUMPDEST PUSH0 DUP2 MLOAD SWAP1 POP SWAP2 SWAP1 POP JUMP JUMPDEST PUSH0 DUP3 DUP3 MSTORE PUSH1 0x20 DUP3 ADD SWAP1 POP SWAP3 SWAP2 POP POP JUMP JUMPDEST DUP3 DUP2 DUP4 MCOPY PUSH0 DUP4 DUP4 ADD MSTORE POP POP POP JUMP JUMPDEST PUSH0 PUSH1 0x1F NOT PUSH1 0x1F DUP4 ADD AND SWAP1 POP SWAP2 SWAP1 POP JUMP JUMPDEST PUSH0 PUSH2 0x3C5 DUP3 PUSH2 0x383 JUMP JUMPDEST PUSH2 0x3CF DUP2 DUP6 PUSH2 0x38D JUMP JUMPDEST SWAP4 POP PUSH2 0x3DF DUP2 DUP6 PUSH1 0x20 DUP7 ADD PUSH2 0x39D JUMP JUMPDEST PUSH2 0x3E8 DUP2 PUSH2 0x3AB JUMP JUMPDEST DUP5 ADD SWAP2 POP POP SWAP3 SWAP2 POP POP JUMP JUMPDEST PUSH0 DUP2 SWAP1 POP SWAP2 SWAP1 POP JUMP JUMPDEST PUSH2 0x405 DUP2 PUSH2 0x3F3 JUMP JUMPDEST DUP3 MSTORE POP POP JUMP JUMPDEST PUSH0 PUSH1 0x40 DUP3 ADD SWAP1 POP DUP2 DUP2 SUB PUSH0 DUP4 ADD MSTORE PUSH2 0x423 DUP2 DUP6 PUSH2 0x3BB JUMP JUMPDEST SWAP1 POP PUSH2 0x432 PUSH1 0x20 DUP4 ADD DUP5 PUSH2 0x3FC JUMP JUMPDEST SWAP4 SWAP3 POP POP POP JUMP JUMPDEST PUSH32 0x4E487B7100000000000000000000000000000000000000000000000000000000 PUSH0 MSTORE PUSH1 0x41 PUSH1 0x4 MSTORE PUSH1 0x24 PUSH0 REVERT JUMPDEST PUSH32 0x4E487B7100000000000000000000000000000000000000000000000000000000 PUSH0 MSTORE PUSH1 0x22 PUSH1 0x4 MSTORE PUSH1 0x24 PUSH0 REVERT JUMPDEST PUSH0 PUSH1 0x2 DUP3 DIV SWAP1 POP PUSH1 0x1 DUP3 AND DUP1 PUSH2 0x4AA JUMPI PUSH1 0x7F DUP3 AND SWAP2 POP JUMPDEST PUSH1 0x20 DUP3 LT DUP2 SUB PUSH2 0x4BD JUMPI PUSH2 0x4BC PUSH2 0x466 JUMP JUMPDEST JUMPDEST POP SWAP2 SWAP1 POP JUMP JUMPDEST PUSH0 DUP2 SWAP1 POP DUP2 PUSH0 MSTORE PUSH1 0x20 PUSH0 KECCAK256 SWAP1 POP SWAP2 SWAP1 POP JUMP JUMPDEST PUSH0 PUSH1 0x20 PUSH1 0x1F DUP4 ADD DIV SWAP1 POP SWAP2 SWAP1 POP JUMP JUMPDEST PUSH0 DUP3 DUP3 SHL SWAP1 POP SWAP3 SWAP2 POP POP JUMP JUMPDEST PUSH0 PUSH1 0x8 DUP4 MUL PUSH2 0x51F PUSH32 0xFFFFFFFFFFFFFFFFFFFFFFFFFFFFFFFFFFFFFFFFFFFFFFFFFFFFFFFFFFFFFFFF DUP3 PUSH2 0x4E4 JUMP JUMPDEST PUSH2 0x529 DUP7 DUP4 PUSH2 0x4E4 JUMP JUMPDEST SWAP6 POP DUP1 NOT DUP5 AND SWAP4 POP DUP1 DUP7 AND DUP5 OR SWAP3 POP POP POP SWAP4 SWAP3 POP POP POP JUMP JUMPDEST PUSH0 DUP2 SWAP1 POP SWAP2 SWAP1 POP JUMP JUMPDEST PUSH0 PUSH2 0x564 PUSH2 0x55F PUSH2 0x55A DUP5 PUSH2 0x3F3 JUMP JUMPDEST PUSH2 0x541 JUMP JUMPDEST PUSH2 0x3F3 JUMP JUMPDEST SWAP1 POP SWAP2 SWAP1 POP JUMP JUMPDEST PUSH0 DUP2 SWAP1 POP SWAP2 SWAP1 POP JUMP JUMPDEST PUSH2 0x57D DUP4 PUSH2 0x54A JUMP JUMPDEST PUSH2 0x591 PUSH2 0x589 DUP3 PUSH2 0x56B JUMP JUMPDEST DUP5 DUP5 SLOAD PUSH2 0x4F0 JUMP JUMPDEST DUP3 SSTORE POP POP POP POP JUMP JUMPDEST PUSH0 SWAP1 JUMP JUMPDEST PUSH2 0x5A5 PUSH2 0x599 JUMP JUMPDEST PUSH2 0x5B0 DUP2 DUP5 DUP5 PUSH2 0x574 JUMP JUMPDEST POP POP POP JUMP JUMPDEST JUMPDEST DUP2 DUP2 LT ISZERO PUSH2 0x5D3 JUMPI PUSH2 0x5C8 PUSH0 DUP3 PUSH2 0x59D JUMP JUMPDEST PUSH1 0x1 DUP2 ADD SWAP1 POP PUSH2 0x5B6 JUMP JUMPDEST POP POP JUMP JUMPDEST PUSH1 0x1F DUP3 GT ISZERO PUSH2 0x618 JUMPI PUSH2 0x5E9 DUP2 PUSH2 0x4C3 JUMP JUMPDEST PUSH2 0x5F2 DUP5 PUSH2 0x4D5 JUMP JUMPDEST DUP2 ADD PUSH1 0x20 DUP6 LT ISZERO PUSH2 0x601 JUMPI DUP2 SWAP1 POP JUMPDEST PUSH2 0x615 PUSH2 0x60D DUP6 PUSH2 0x4D5 JUMP JUMPDEST DUP4 ADD DUP3 PUSH2 0x5B5 JUMP JUMPDEST POP POP JUMPDEST POP POP POP JUMP JUMPDEST PUSH0 DUP3 DUP3 SHR SWAP1 POP SWAP3 SWAP2 POP POP JUMP JUMPDEST PUSH0 PUSH2 0x638 PUSH0 NOT DUP5 PUSH1 0x8 MUL PUSH2 0x61D JUMP JUMPDEST NOT DUP1 DUP4 AND SWAP2 POP POP SWAP3 SWAP2 POP POP JUMP JUMPDEST PUSH0 PUSH2 0x650 DUP4 DUP4 PUSH2 0x629 JUMP JUMPDEST SWAP2 POP DUP3 PUSH1 0x2 MUL DUP3 OR SWAP1 POP SWAP3 SWAP2 POP POP JUMP JUMPDEST PUSH2 0x669 DUP3 PUSH2 0x383 JUMP JUMPDEST PUSH8 0xFFFFFFFFFFFFFFFF DUP2 GT ISZERO PUSH2 0x682 JUMPI PUSH2 0x681 PUSH2 0x439 JUMP JUMPDEST JUMPDEST PUSH2 0x68C DUP3 SLOAD PUSH2 0x493 JUMP JUMPDEST PUSH2 0x697 DUP3 DUP3 DUP6 PUSH2 0x5D7 JUMP JUMPDEST PUSH0 PUSH1 0x20 SWAP1 POP PUSH1 0x1F DUP4 GT PUSH1 0x1 DUP2 EQ PUSH2 0x6C8 JUMPI PUSH0 DUP5 ISZERO PUSH2 0x6B6 JUMPI DUP3 DUP8 ADD MLOAD SWAP1 POP JUMPDEST PUSH2 0x6C0 DUP6 DUP3 PUSH2 0x645 JUMP JUMPDEST DUP7 SSTORE POP PUSH2 0x727 JUMP JUMPDEST PUSH1 0x1F NOT DUP5 AND PUSH2 0x6D6 DUP7 PUSH2 0x4C3 JUMP JUMPDEST PUSH0 JUMPDEST DUP3 DUP2 LT ISZERO PUSH2 0x6FD JUMPI DUP5 DUP10 ADD MLOAD DUP3 SSTORE PUSH1 0x1 DUP3 ADD SWAP2 POP PUSH1 0x20 DUP6 ADD SWAP5 POP PUSH1 0x20 DUP2 ADD SWAP1 POP PUSH2 0x6D8 JUMP JUMPDEST DUP7 DUP4 LT ISZERO PUSH2 0x71A JUMPI DUP5 DUP10 ADD MLOAD PUSH2 0x716 PUSH1 0x1F DUP10 AND DUP3 PUSH2 0x629 JUMP JUMPDEST DUP4 SSTORE POP JUMPDEST PUSH1 0x1 PUSH1 0x2 DUP9 MUL ADD DUP9 SSTORE POP POP POP JUMPDEST POP POP POP POP POP POP JUMP INVALID LOG2 PUSH5 0x6970667358 0x22 SLT KECCAK256 0xB9 ADDRESS PUSH32 0xDE3265AB8F91755E99B0E000DBE42668B433A82E6A95C30202010BB21764736F PUSH13 0x634300081A0033000000000000 "
				},
				"gasEstimates": {
					"creation": {
						"codeDepositCost": "378600",
						"executionCost": "416",
						"totalCost": "379016"
					},
					"external": {
						"addUsers(address,string)": "infinite",
						"getUser(address)": "infinite"
					}
				},
				"methodIdentifiers": {
					"addUsers(address,string)": "6afbec5e",
					"getUser(address)": "6f77926b"
				}
			},
			"storageLayout": {
				"storage": [
					{
						"astId": 11,
						"contract": "Memory Management Problems/StoreandRetrieveUserData.sol:StoreandRetrieveUserData",
						"label": "users",
						"offset": 0,
						"slot": "0",
						"type": "t_mapping(t_address,t_struct(User)6_storage)"
					}
				],
				"types": {
					"t_address": {
						"encoding": "inplace",
						"label": "address",
						"numberOfBytes": "20"
					},
					"t_mapping(t_address,t_struct(User)6_storage)": {
						"encoding": "mapping",
						"key": "t_address",
						"label": "mapping(address => struct StoreandRetrieveUserData.User)",
						"numberOfBytes": "32",
						"value": "t_struct(User)6_storage"
					},
					"t_string_storage": {
						"encoding": "bytes",
						"label": "string",
						"numberOfBytes": "32"
					},
					"t_struct(User)6_storage": {
						"encoding": "inplace",
						"label": "struct StoreandRetrieveUserData.User",
						"members": [
							{
								"astId": 3,
								"contract": "Memory Management Problems/StoreandRetrieveUserData.sol:StoreandRetrieveUserData",
								"label": "name",
								"offset": 0,
								"slot": "0",
								"type": "t_string_storage"
							},
							{
								"astId": 5,
								"contract": "Memory Management Problems/StoreandRetrieveUserData.sol:StoreandRetrieveUserData",
								"label": "balance",
								"offset": 0,
								"slot": "1",
								"type": "t_uint256"
							}
						],
						"numberOfBytes": "64"
					},
					"t_uint256": {
						"encoding": "inplace",
						"label": "uint256",
						"numberOfBytes": "32"
					}
				}
			},
			"userdoc": {
				"kind": "user",
				"methods": {},
				"version": 1
			}
		}
	}
}