{
	"Nested Struce and Memory/NestedStructAndMemory.sol": {
		"NestedStructAndMemory": {
			"abi": [
				{
					"inputs": [
						{
							"internalType": "address",
							"name": "_user",
							"type": "address"
						}
					],
					"name": "fetchProfile",
					"outputs": [
						{
							"internalType": "string",
							"name": "",
							"type": "string"
						},
						{
							"internalType": "uint256",
							"name": "",
							"type": "uint256"
						},
						{
							"internalType": "bool",
							"name": "",
							"type": "bool"
						}
					],
					"stateMutability": "view",
					"type": "function"
				},
				{
					"inputs": [
						{
							"internalType": "address",
							"name": "_user",
							"type": "address"
						},
						{
							"internalType": "string",
							"name": "_name",
							"type": "string"
						},
						{
							"internalType": "uint256",
							"name": "_age",
							"type": "uint256"
						}
					],
					"name": "setProfiles",
					"outputs": [],
					"stateMutability": "nonpayable",
					"type": "function"
				}
			],
			"devdoc": {
				"kind": "dev",
				"methods": {},
				"version": 1
			},
			"evm": {
				"assembly": "    /* \"Nested Struce and Memory/NestedStructAndMemory.sol\":60:616  contract NestedStructAndMemory{... */\n  mstore(0x40, 0x80)\n  callvalue\n  dup1\n  iszero\n  tag_1\n  jumpi\n  0x00\n  dup1\n  revert\ntag_1:\n  pop\n  dataSize(sub_0)\n  dup1\n  dataOffset(sub_0)\n  0x00\n  codecopy\n  0x00\n  return\nstop\n\nsub_0: assembly {\n        /* \"Nested Struce and Memory/NestedStructAndMemory.sol\":60:616  contract NestedStructAndMemory{... */\n      mstore(0x40, 0x80)\n      callvalue\n      dup1\n      iszero\n      tag_1\n      jumpi\n      0x00\n      dup1\n      revert\n    tag_1:\n      pop\n      jumpi(tag_2, lt(calldatasize, 0x04))\n      shr(0xe0, calldataload(0x00))\n      dup1\n      0x5443375d\n      eq\n      tag_3\n      jumpi\n      dup1\n      0xa7ad65e8\n      eq\n      tag_4\n      jumpi\n    tag_2:\n      0x00\n      dup1\n      revert\n        /* \"Nested Struce and Memory/NestedStructAndMemory.sol\":406:613  function fetchProfile(address _user) external view returns(string memory, uint, bool){... */\n    tag_3:\n      tag_5\n      0x04\n      dup1\n      calldatasize\n      sub\n      dup2\n      add\n      swap1\n      tag_6\n      swap2\n      swap1\n      tag_7\n      jump\t// in\n    tag_6:\n      tag_8\n      jump\t// in\n    tag_5:\n      mload(0x40)\n      tag_9\n      swap4\n      swap3\n      swap2\n      swap1\n      tag_10\n      jump\t// in\n    tag_9:\n      mload(0x40)\n      dup1\n      swap2\n      sub\n      swap1\n      return\n        /* \"Nested Struce and Memory/NestedStructAndMemory.sol\":253:398  function setProfiles(address _user, string calldata _name, uint _age) external {... */\n    tag_4:\n      tag_11\n      0x04\n      dup1\n      calldatasize\n      sub\n      dup2\n      add\n      swap1\n      tag_12\n      swap2\n      swap1\n      tag_13\n      jump\t// in\n    tag_12:\n      tag_14\n      jump\t// in\n    tag_11:\n      stop\n        /* \"Nested Struce and Memory/NestedStructAndMemory.sol\":406:613  function fetchProfile(address _user) external view returns(string memory, uint, bool){... */\n    tag_8:\n        /* \"Nested Struce and Memory/NestedStructAndMemory.sol\":465:478  string memory */\n      0x60\n        /* \"Nested Struce and Memory/NestedStructAndMemory.sol\":480:484  uint */\n      0x00\n        /* \"Nested Struce and Memory/NestedStructAndMemory.sol\":486:490  bool */\n      dup1\n        /* \"Nested Struce and Memory/NestedStructAndMemory.sol\":502:528  UserProfile memory temUser */\n      0x00\n        /* \"Nested Struce and Memory/NestedStructAndMemory.sol\":531:539  profiles */\n      dup1\n        /* \"Nested Struce and Memory/NestedStructAndMemory.sol\":531:546  profiles[_user] */\n      0x00\n        /* \"Nested Struce and Memory/NestedStructAndMemory.sol\":540:545  _user */\n      dup7\n        /* \"Nested Struce and Memory/NestedStructAndMemory.sol\":531:546  profiles[_user] */\n      0xffffffffffffffffffffffffffffffffffffffff\n      and\n      0xffffffffffffffffffffffffffffffffffffffff\n      and\n      dup2\n      mstore\n      0x20\n      add\n      swap1\n      dup2\n      mstore\n      0x20\n      add\n      0x00\n      keccak256\n        /* \"Nested Struce and Memory/NestedStructAndMemory.sol\":502:546  UserProfile memory temUser = profiles[_user] */\n      mload(0x40)\n      dup1\n      0x60\n      add\n      0x40\n      mstore\n      swap1\n      dup2\n      0x00\n      dup3\n      add\n      dup1\n      sload\n      tag_16\n      swap1\n      tag_17\n      jump\t// in\n    tag_16:\n      dup1\n      0x1f\n      add\n      0x20\n      dup1\n      swap2\n      div\n      mul\n      0x20\n      add\n      mload(0x40)\n      swap1\n      dup2\n      add\n      0x40\n      mstore\n      dup1\n      swap3\n      swap2\n      swap1\n      dup2\n      dup2\n      mstore\n      0x20\n      add\n      dup3\n      dup1\n      sload\n      tag_18\n      swap1\n      tag_17\n      jump\t// in\n    tag_18:\n      dup1\n      iszero\n      tag_19\n      jumpi\n      dup1\n      0x1f\n      lt\n      tag_20\n      jumpi\n      0x0100\n      dup1\n      dup4\n      sload\n      div\n      mul\n      dup4\n      mstore\n      swap2\n      0x20\n      add\n      swap2\n      jump(tag_19)\n    tag_20:\n      dup3\n      add\n      swap2\n      swap1\n      0x00\n      mstore\n      keccak256(0x00, 0x20)\n      swap1\n    tag_21:\n      dup2\n      sload\n      dup2\n      mstore\n      swap1\n      0x01\n      add\n      swap1\n      0x20\n      add\n      dup1\n      dup4\n      gt\n      tag_21\n      jumpi\n      dup3\n      swap1\n      sub\n      0x1f\n      and\n      dup3\n      add\n      swap2\n    tag_19:\n      pop\n      pop\n      pop\n      pop\n      pop\n      dup2\n      mstore\n      0x20\n      add\n      0x01\n      dup3\n      add\n      sload\n      dup2\n      mstore\n      0x20\n      add\n      0x02\n      dup3\n      add\n      0x00\n      swap1\n      sload\n      swap1\n      0x0100\n      exp\n      swap1\n      div\n      0xff\n      and\n      iszero\n      iszero\n      iszero\n      iszero\n      dup2\n      mstore\n      pop\n      pop\n      swap1\n      pop\n        /* \"Nested Struce and Memory/NestedStructAndMemory.sol\":565:572  temUser */\n      dup1\n        /* \"Nested Struce and Memory/NestedStructAndMemory.sol\":565:577  temUser.name */\n      0x00\n      add\n      mload\n        /* \"Nested Struce and Memory/NestedStructAndMemory.sol\":578:585  temUser */\n      dup2\n        /* \"Nested Struce and Memory/NestedStructAndMemory.sol\":578:589  temUser.age */\n      0x20\n      add\n      mload\n        /* \"Nested Struce and Memory/NestedStructAndMemory.sol\":590:597  temUser */\n      dup3\n        /* \"Nested Struce and Memory/NestedStructAndMemory.sol\":590:604  temUser.active */\n      0x40\n      add\n      mload\n        /* \"Nested Struce and Memory/NestedStructAndMemory.sol\":557:605  return (temUser.name,temUser.age,temUser.active) */\n      swap4\n      pop\n      swap4\n      pop\n      swap4\n      pop\n      pop\n        /* \"Nested Struce and Memory/NestedStructAndMemory.sol\":406:613  function fetchProfile(address _user) external view returns(string memory, uint, bool){... */\n      swap2\n      swap4\n      swap1\n      swap3\n      pop\n      jump\t// out\n        /* \"Nested Struce and Memory/NestedStructAndMemory.sol\":253:398  function setProfiles(address _user, string calldata _name, uint _age) external {... */\n    tag_14:\n        /* \"Nested Struce and Memory/NestedStructAndMemory.sol\":361:390  UserProfile(_name,_age,false) */\n      mload(0x40)\n      dup1\n      0x60\n      add\n      0x40\n      mstore\n      dup1\n        /* \"Nested Struce and Memory/NestedStructAndMemory.sol\":373:378  _name */\n      dup5\n      dup5\n        /* \"Nested Struce and Memory/NestedStructAndMemory.sol\":361:390  UserProfile(_name,_age,false) */\n      dup1\n      dup1\n      0x1f\n      add\n      0x20\n      dup1\n      swap2\n      div\n      mul\n      0x20\n      add\n      mload(0x40)\n      swap1\n      dup2\n      add\n      0x40\n      mstore\n      dup1\n      swap4\n      swap3\n      swap2\n      swap1\n      dup2\n      dup2\n      mstore\n      0x20\n      add\n      dup4\n      dup4\n      dup1\n      dup3\n      dup5\n      calldatacopy\n      0x00\n      dup2\n      dup5\n      add\n      mstore\n      not(0x1f)\n      0x1f\n      dup3\n      add\n      and\n      swap1\n      pop\n      dup1\n      dup4\n      add\n      swap3\n      pop\n      pop\n      pop\n      pop\n      pop\n      pop\n      pop\n      dup2\n      mstore\n      0x20\n      add\n        /* \"Nested Struce and Memory/NestedStructAndMemory.sol\":379:383  _age */\n      dup3\n        /* \"Nested Struce and Memory/NestedStructAndMemory.sol\":361:390  UserProfile(_name,_age,false) */\n      dup2\n      mstore\n      0x20\n      add\n        /* \"Nested Struce and Memory/NestedStructAndMemory.sol\":384:389  false */\n      0x00\n        /* \"Nested Struce and Memory/NestedStructAndMemory.sol\":361:390  UserProfile(_name,_age,false) */\n      iszero\n      iszero\n      dup2\n      mstore\n      pop\n        /* \"Nested Struce and Memory/NestedStructAndMemory.sol\":343:351  profiles */\n      0x00\n        /* \"Nested Struce and Memory/NestedStructAndMemory.sol\":343:358  profiles[_user] */\n      dup1\n        /* \"Nested Struce and Memory/NestedStructAndMemory.sol\":352:357  _user */\n      dup7\n        /* \"Nested Struce and Memory/NestedStructAndMemory.sol\":343:358  profiles[_user] */\n      0xffffffffffffffffffffffffffffffffffffffff\n      and\n      0xffffffffffffffffffffffffffffffffffffffff\n      and\n      dup2\n      mstore\n      0x20\n      add\n      swap1\n      dup2\n      mstore\n      0x20\n      add\n      0x00\n      keccak256\n        /* \"Nested Struce and Memory/NestedStructAndMemory.sol\":343:390  profiles[_user] = UserProfile(_name,_age,false) */\n      0x00\n      dup3\n      add\n      mload\n      dup2\n      0x00\n      add\n      swap1\n      dup2\n      tag_23\n      swap2\n      swap1\n      tag_24\n      jump\t// in\n    tag_23:\n      pop\n      0x20\n      dup3\n      add\n      mload\n      dup2\n      0x01\n      add\n      sstore\n      0x40\n      dup3\n      add\n      mload\n      dup2\n      0x02\n      add\n      exp(0x0100, 0x00)\n      dup2\n      sload\n      dup2\n      0xff\n      mul\n      not\n      and\n      swap1\n      dup4\n      iszero\n      iszero\n      mul\n      or\n      swap1\n      sstore\n      pop\n      swap1\n      pop\n      pop\n        /* \"Nested Struce and Memory/NestedStructAndMemory.sol\":253:398  function setProfiles(address _user, string calldata _name, uint _age) external {... */\n      pop\n      pop\n      pop\n      pop\n      jump\t// out\n        /* \"#utility.yul\":88:205   */\n    tag_26:\n        /* \"#utility.yul\":197:198   */\n      0x00\n        /* \"#utility.yul\":194:195   */\n      dup1\n        /* \"#utility.yul\":187:199   */\n      revert\n        /* \"#utility.yul\":211:328   */\n    tag_27:\n        /* \"#utility.yul\":320:321   */\n      0x00\n        /* \"#utility.yul\":317:318   */\n      dup1\n        /* \"#utility.yul\":310:322   */\n      revert\n        /* \"#utility.yul\":334:460   */\n    tag_28:\n        /* \"#utility.yul\":371:378   */\n      0x00\n        /* \"#utility.yul\":411:453   */\n      0xffffffffffffffffffffffffffffffffffffffff\n        /* \"#utility.yul\":404:409   */\n      dup3\n        /* \"#utility.yul\":400:454   */\n      and\n        /* \"#utility.yul\":389:454   */\n      swap1\n      pop\n        /* \"#utility.yul\":334:460   */\n      swap2\n      swap1\n      pop\n      jump\t// out\n        /* \"#utility.yul\":466:562   */\n    tag_29:\n        /* \"#utility.yul\":503:510   */\n      0x00\n        /* \"#utility.yul\":532:556   */\n      tag_70\n        /* \"#utility.yul\":550:555   */\n      dup3\n        /* \"#utility.yul\":532:556   */\n      tag_28\n      jump\t// in\n    tag_70:\n        /* \"#utility.yul\":521:556   */\n      swap1\n      pop\n        /* \"#utility.yul\":466:562   */\n      swap2\n      swap1\n      pop\n      jump\t// out\n        /* \"#utility.yul\":568:690   */\n    tag_30:\n        /* \"#utility.yul\":641:665   */\n      tag_72\n        /* \"#utility.yul\":659:664   */\n      dup2\n        /* \"#utility.yul\":641:665   */\n      tag_29\n      jump\t// in\n    tag_72:\n        /* \"#utility.yul\":634:639   */\n      dup2\n        /* \"#utility.yul\":631:666   */\n      eq\n        /* \"#utility.yul\":621:684   */\n      tag_73\n      jumpi\n        /* \"#utility.yul\":680:681   */\n      0x00\n        /* \"#utility.yul\":677:678   */\n      dup1\n        /* \"#utility.yul\":670:682   */\n      revert\n        /* \"#utility.yul\":621:684   */\n    tag_73:\n        /* \"#utility.yul\":568:690   */\n      pop\n      jump\t// out\n        /* \"#utility.yul\":696:835   */\n    tag_31:\n        /* \"#utility.yul\":742:747   */\n      0x00\n        /* \"#utility.yul\":780:786   */\n      dup2\n        /* \"#utility.yul\":767:787   */\n      calldataload\n        /* \"#utility.yul\":758:787   */\n      swap1\n      pop\n        /* \"#utility.yul\":796:829   */\n      tag_75\n        /* \"#utility.yul\":823:828   */\n      dup2\n        /* \"#utility.yul\":796:829   */\n      tag_30\n      jump\t// in\n    tag_75:\n        /* \"#utility.yul\":696:835   */\n      swap3\n      swap2\n      pop\n      pop\n      jump\t// out\n        /* \"#utility.yul\":841:1170   */\n    tag_7:\n        /* \"#utility.yul\":900:906   */\n      0x00\n        /* \"#utility.yul\":949:951   */\n      0x20\n        /* \"#utility.yul\":937:946   */\n      dup3\n        /* \"#utility.yul\":928:935   */\n      dup5\n        /* \"#utility.yul\":924:947   */\n      sub\n        /* \"#utility.yul\":920:952   */\n      slt\n        /* \"#utility.yul\":917:1036   */\n      iszero\n      tag_77\n      jumpi\n        /* \"#utility.yul\":955:1034   */\n      tag_78\n      tag_26\n      jump\t// in\n    tag_78:\n        /* \"#utility.yul\":917:1036   */\n    tag_77:\n        /* \"#utility.yul\":1075:1076   */\n      0x00\n        /* \"#utility.yul\":1100:1153   */\n      tag_79\n        /* \"#utility.yul\":1145:1152   */\n      dup5\n        /* \"#utility.yul\":1136:1142   */\n      dup3\n        /* \"#utility.yul\":1125:1134   */\n      dup6\n        /* \"#utility.yul\":1121:1143   */\n      add\n        /* \"#utility.yul\":1100:1153   */\n      tag_31\n      jump\t// in\n    tag_79:\n        /* \"#utility.yul\":1090:1153   */\n      swap2\n      pop\n        /* \"#utility.yul\":1046:1163   */\n      pop\n        /* \"#utility.yul\":841:1170   */\n      swap3\n      swap2\n      pop\n      pop\n      jump\t// out\n        /* \"#utility.yul\":1176:1275   */\n    tag_32:\n        /* \"#utility.yul\":1228:1234   */\n      0x00\n        /* \"#utility.yul\":1262:1267   */\n      dup2\n        /* \"#utility.yul\":1256:1268   */\n      mload\n        /* \"#utility.yul\":1246:1268   */\n      swap1\n      pop\n        /* \"#utility.yul\":1176:1275   */\n      swap2\n      swap1\n      pop\n      jump\t// out\n        /* \"#utility.yul\":1281:1450   */\n    tag_33:\n        /* \"#utility.yul\":1365:1376   */\n      0x00\n        /* \"#utility.yul\":1399:1405   */\n      dup3\n        /* \"#utility.yul\":1394:1397   */\n      dup3\n        /* \"#utility.yul\":1387:1406   */\n      mstore\n        /* \"#utility.yul\":1439:1443   */\n      0x20\n        /* \"#utility.yul\":1434:1437   */\n      dup3\n        /* \"#utility.yul\":1430:1444   */\n      add\n        /* \"#utility.yul\":1415:1444   */\n      swap1\n      pop\n        /* \"#utility.yul\":1281:1450   */\n      swap3\n      swap2\n      pop\n      pop\n      jump\t// out\n        /* \"#utility.yul\":1456:1595   */\n    tag_34:\n        /* \"#utility.yul\":1545:1551   */\n      dup3\n        /* \"#utility.yul\":1540:1543   */\n      dup2\n        /* \"#utility.yul\":1535:1538   */\n      dup4\n        /* \"#utility.yul\":1529:1552   */\n      mcopy\n        /* \"#utility.yul\":1586:1587   */\n      0x00\n        /* \"#utility.yul\":1577:1583   */\n      dup4\n        /* \"#utility.yul\":1572:1575   */\n      dup4\n        /* \"#utility.yul\":1568:1584   */\n      add\n        /* \"#utility.yul\":1561:1588   */\n      mstore\n        /* \"#utility.yul\":1456:1595   */\n      pop\n      pop\n      pop\n      jump\t// out\n        /* \"#utility.yul\":1601:1703   */\n    tag_35:\n        /* \"#utility.yul\":1642:1648   */\n      0x00\n        /* \"#utility.yul\":1693:1695   */\n      0x1f\n        /* \"#utility.yul\":1689:1696   */\n      not\n        /* \"#utility.yul\":1684:1686   */\n      0x1f\n        /* \"#utility.yul\":1677:1682   */\n      dup4\n        /* \"#utility.yul\":1673:1687   */\n      add\n        /* \"#utility.yul\":1669:1697   */\n      and\n        /* \"#utility.yul\":1659:1697   */\n      swap1\n      pop\n        /* \"#utility.yul\":1601:1703   */\n      swap2\n      swap1\n      pop\n      jump\t// out\n        /* \"#utility.yul\":1709:2086   */\n    tag_36:\n        /* \"#utility.yul\":1797:1800   */\n      0x00\n        /* \"#utility.yul\":1825:1864   */\n      tag_85\n        /* \"#utility.yul\":1858:1863   */\n      dup3\n        /* \"#utility.yul\":1825:1864   */\n      tag_32\n      jump\t// in\n    tag_85:\n        /* \"#utility.yul\":1880:1951   */\n      tag_86\n        /* \"#utility.yul\":1944:1950   */\n      dup2\n        /* \"#utility.yul\":1939:1942   */\n      dup6\n        /* \"#utility.yul\":1880:1951   */\n      tag_33\n      jump\t// in\n    tag_86:\n        /* \"#utility.yul\":1873:1951   */\n      swap4\n      pop\n        /* \"#utility.yul\":1960:2025   */\n      tag_87\n        /* \"#utility.yul\":2018:2024   */\n      dup2\n        /* \"#utility.yul\":2013:2016   */\n      dup6\n        /* \"#utility.yul\":2006:2010   */\n      0x20\n        /* \"#utility.yul\":1999:2004   */\n      dup7\n        /* \"#utility.yul\":1995:2011   */\n      add\n        /* \"#utility.yul\":1960:2025   */\n      tag_34\n      jump\t// in\n    tag_87:\n        /* \"#utility.yul\":2050:2079   */\n      tag_88\n        /* \"#utility.yul\":2072:2078   */\n      dup2\n        /* \"#utility.yul\":2050:2079   */\n      tag_35\n      jump\t// in\n    tag_88:\n        /* \"#utility.yul\":2045:2048   */\n      dup5\n        /* \"#utility.yul\":2041:2080   */\n      add\n        /* \"#utility.yul\":2034:2080   */\n      swap2\n      pop\n        /* \"#utility.yul\":1801:2086   */\n      pop\n        /* \"#utility.yul\":1709:2086   */\n      swap3\n      swap2\n      pop\n      pop\n      jump\t// out\n        /* \"#utility.yul\":2092:2169   */\n    tag_37:\n        /* \"#utility.yul\":2129:2136   */\n      0x00\n        /* \"#utility.yul\":2158:2163   */\n      dup2\n        /* \"#utility.yul\":2147:2163   */\n      swap1\n      pop\n        /* \"#utility.yul\":2092:2169   */\n      swap2\n      swap1\n      pop\n      jump\t// out\n        /* \"#utility.yul\":2175:2293   */\n    tag_38:\n        /* \"#utility.yul\":2262:2286   */\n      tag_91\n        /* \"#utility.yul\":2280:2285   */\n      dup2\n        /* \"#utility.yul\":2262:2286   */\n      tag_37\n      jump\t// in\n    tag_91:\n        /* \"#utility.yul\":2257:2260   */\n      dup3\n        /* \"#utility.yul\":2250:2287   */\n      mstore\n        /* \"#utility.yul\":2175:2293   */\n      pop\n      pop\n      jump\t// out\n        /* \"#utility.yul\":2299:2389   */\n    tag_39:\n        /* \"#utility.yul\":2333:2340   */\n      0x00\n        /* \"#utility.yul\":2376:2381   */\n      dup2\n        /* \"#utility.yul\":2369:2382   */\n      iszero\n        /* \"#utility.yul\":2362:2383   */\n      iszero\n        /* \"#utility.yul\":2351:2383   */\n      swap1\n      pop\n        /* \"#utility.yul\":2299:2389   */\n      swap2\n      swap1\n      pop\n      jump\t// out\n        /* \"#utility.yul\":2395:2504   */\n    tag_40:\n        /* \"#utility.yul\":2476:2497   */\n      tag_94\n        /* \"#utility.yul\":2491:2496   */\n      dup2\n        /* \"#utility.yul\":2476:2497   */\n      tag_39\n      jump\t// in\n    tag_94:\n        /* \"#utility.yul\":2471:2474   */\n      dup3\n        /* \"#utility.yul\":2464:2498   */\n      mstore\n        /* \"#utility.yul\":2395:2504   */\n      pop\n      pop\n      jump\t// out\n        /* \"#utility.yul\":2510:3031   */\n    tag_10:\n        /* \"#utility.yul\":2673:2677   */\n      0x00\n        /* \"#utility.yul\":2711:2713   */\n      0x60\n        /* \"#utility.yul\":2700:2709   */\n      dup3\n        /* \"#utility.yul\":2696:2714   */\n      add\n        /* \"#utility.yul\":2688:2714   */\n      swap1\n      pop\n        /* \"#utility.yul\":2760:2769   */\n      dup2\n        /* \"#utility.yul\":2754:2758   */\n      dup2\n        /* \"#utility.yul\":2750:2770   */\n      sub\n        /* \"#utility.yul\":2746:2747   */\n      0x00\n        /* \"#utility.yul\":2735:2744   */\n      dup4\n        /* \"#utility.yul\":2731:2748   */\n      add\n        /* \"#utility.yul\":2724:2771   */\n      mstore\n        /* \"#utility.yul\":2788:2866   */\n      tag_96\n        /* \"#utility.yul\":2861:2865   */\n      dup2\n        /* \"#utility.yul\":2852:2858   */\n      dup7\n        /* \"#utility.yul\":2788:2866   */\n      tag_36\n      jump\t// in\n    tag_96:\n        /* \"#utility.yul\":2780:2866   */\n      swap1\n      pop\n        /* \"#utility.yul\":2876:2948   */\n      tag_97\n        /* \"#utility.yul\":2944:2946   */\n      0x20\n        /* \"#utility.yul\":2933:2942   */\n      dup4\n        /* \"#utility.yul\":2929:2947   */\n      add\n        /* \"#utility.yul\":2920:2926   */\n      dup6\n        /* \"#utility.yul\":2876:2948   */\n      tag_38\n      jump\t// in\n    tag_97:\n        /* \"#utility.yul\":2958:3024   */\n      tag_98\n        /* \"#utility.yul\":3020:3022   */\n      0x40\n        /* \"#utility.yul\":3009:3018   */\n      dup4\n        /* \"#utility.yul\":3005:3023   */\n      add\n        /* \"#utility.yul\":2996:3002   */\n      dup5\n        /* \"#utility.yul\":2958:3024   */\n      tag_40\n      jump\t// in\n    tag_98:\n        /* \"#utility.yul\":2510:3031   */\n      swap5\n      swap4\n      pop\n      pop\n      pop\n      pop\n      jump\t// out\n        /* \"#utility.yul\":3037:3154   */\n    tag_41:\n        /* \"#utility.yul\":3146:3147   */\n      0x00\n        /* \"#utility.yul\":3143:3144   */\n      dup1\n        /* \"#utility.yul\":3136:3148   */\n      revert\n        /* \"#utility.yul\":3160:3277   */\n    tag_42:\n        /* \"#utility.yul\":3269:3270   */\n      0x00\n        /* \"#utility.yul\":3266:3267   */\n      dup1\n        /* \"#utility.yul\":3259:3271   */\n      revert\n        /* \"#utility.yul\":3283:3400   */\n    tag_43:\n        /* \"#utility.yul\":3392:3393   */\n      0x00\n        /* \"#utility.yul\":3389:3390   */\n      dup1\n        /* \"#utility.yul\":3382:3394   */\n      revert\n        /* \"#utility.yul\":3420:3973   */\n    tag_44:\n        /* \"#utility.yul\":3478:3486   */\n      0x00\n        /* \"#utility.yul\":3488:3494   */\n      dup1\n        /* \"#utility.yul\":3538:3541   */\n      dup4\n        /* \"#utility.yul\":3531:3535   */\n      0x1f\n        /* \"#utility.yul\":3523:3529   */\n      dup5\n        /* \"#utility.yul\":3519:3536   */\n      add\n        /* \"#utility.yul\":3515:3542   */\n      slt\n        /* \"#utility.yul\":3505:3627   */\n      tag_103\n      jumpi\n        /* \"#utility.yul\":3546:3625   */\n      tag_104\n      tag_41\n      jump\t// in\n    tag_104:\n        /* \"#utility.yul\":3505:3627   */\n    tag_103:\n        /* \"#utility.yul\":3659:3665   */\n      dup3\n        /* \"#utility.yul\":3646:3666   */\n      calldataload\n        /* \"#utility.yul\":3636:3666   */\n      swap1\n      pop\n        /* \"#utility.yul\":3689:3707   */\n      0xffffffffffffffff\n        /* \"#utility.yul\":3681:3687   */\n      dup2\n        /* \"#utility.yul\":3678:3708   */\n      gt\n        /* \"#utility.yul\":3675:3792   */\n      iszero\n      tag_105\n      jumpi\n        /* \"#utility.yul\":3711:3790   */\n      tag_106\n      tag_42\n      jump\t// in\n    tag_106:\n        /* \"#utility.yul\":3675:3792   */\n    tag_105:\n        /* \"#utility.yul\":3825:3829   */\n      0x20\n        /* \"#utility.yul\":3817:3823   */\n      dup4\n        /* \"#utility.yul\":3813:3830   */\n      add\n        /* \"#utility.yul\":3801:3830   */\n      swap2\n      pop\n        /* \"#utility.yul\":3879:3882   */\n      dup4\n        /* \"#utility.yul\":3871:3875   */\n      0x01\n        /* \"#utility.yul\":3863:3869   */\n      dup3\n        /* \"#utility.yul\":3859:3876   */\n      mul\n        /* \"#utility.yul\":3849:3857   */\n      dup4\n        /* \"#utility.yul\":3845:3877   */\n      add\n        /* \"#utility.yul\":3842:3883   */\n      gt\n        /* \"#utility.yul\":3839:3967   */\n      iszero\n      tag_107\n      jumpi\n        /* \"#utility.yul\":3886:3965   */\n      tag_108\n      tag_43\n      jump\t// in\n    tag_108:\n        /* \"#utility.yul\":3839:3967   */\n    tag_107:\n        /* \"#utility.yul\":3420:3973   */\n      swap3\n      pop\n      swap3\n      swap1\n      pop\n      jump\t// out\n        /* \"#utility.yul\":3979:4101   */\n    tag_45:\n        /* \"#utility.yul\":4052:4076   */\n      tag_110\n        /* \"#utility.yul\":4070:4075   */\n      dup2\n        /* \"#utility.yul\":4052:4076   */\n      tag_37\n      jump\t// in\n    tag_110:\n        /* \"#utility.yul\":4045:4050   */\n      dup2\n        /* \"#utility.yul\":4042:4077   */\n      eq\n        /* \"#utility.yul\":4032:4095   */\n      tag_111\n      jumpi\n        /* \"#utility.yul\":4091:4092   */\n      0x00\n        /* \"#utility.yul\":4088:4089   */\n      dup1\n        /* \"#utility.yul\":4081:4093   */\n      revert\n        /* \"#utility.yul\":4032:4095   */\n    tag_111:\n        /* \"#utility.yul\":3979:4101   */\n      pop\n      jump\t// out\n        /* \"#utility.yul\":4107:4246   */\n    tag_46:\n        /* \"#utility.yul\":4153:4158   */\n      0x00\n        /* \"#utility.yul\":4191:4197   */\n      dup2\n        /* \"#utility.yul\":4178:4198   */\n      calldataload\n        /* \"#utility.yul\":4169:4198   */\n      swap1\n      pop\n        /* \"#utility.yul\":4207:4240   */\n      tag_113\n        /* \"#utility.yul\":4234:4239   */\n      dup2\n        /* \"#utility.yul\":4207:4240   */\n      tag_45\n      jump\t// in\n    tag_113:\n        /* \"#utility.yul\":4107:4246   */\n      swap3\n      swap2\n      pop\n      pop\n      jump\t// out\n        /* \"#utility.yul\":4252:5071   */\n    tag_13:\n        /* \"#utility.yul\":4341:4347   */\n      0x00\n        /* \"#utility.yul\":4349:4355   */\n      dup1\n        /* \"#utility.yul\":4357:4363   */\n      0x00\n        /* \"#utility.yul\":4365:4371   */\n      dup1\n        /* \"#utility.yul\":4414:4416   */\n      0x60\n        /* \"#utility.yul\":4402:4411   */\n      dup6\n        /* \"#utility.yul\":4393:4400   */\n      dup8\n        /* \"#utility.yul\":4389:4412   */\n      sub\n        /* \"#utility.yul\":4385:4417   */\n      slt\n        /* \"#utility.yul\":4382:4501   */\n      iszero\n      tag_115\n      jumpi\n        /* \"#utility.yul\":4420:4499   */\n      tag_116\n      tag_26\n      jump\t// in\n    tag_116:\n        /* \"#utility.yul\":4382:4501   */\n    tag_115:\n        /* \"#utility.yul\":4540:4541   */\n      0x00\n        /* \"#utility.yul\":4565:4618   */\n      tag_117\n        /* \"#utility.yul\":4610:4617   */\n      dup8\n        /* \"#utility.yul\":4601:4607   */\n      dup3\n        /* \"#utility.yul\":4590:4599   */\n      dup9\n        /* \"#utility.yul\":4586:4608   */\n      add\n        /* \"#utility.yul\":4565:4618   */\n      tag_31\n      jump\t// in\n    tag_117:\n        /* \"#utility.yul\":4555:4618   */\n      swap5\n      pop\n        /* \"#utility.yul\":4511:4628   */\n      pop\n        /* \"#utility.yul\":4695:4697   */\n      0x20\n        /* \"#utility.yul\":4684:4693   */\n      dup6\n        /* \"#utility.yul\":4680:4698   */\n      add\n        /* \"#utility.yul\":4667:4699   */\n      calldataload\n        /* \"#utility.yul\":4726:4744   */\n      0xffffffffffffffff\n        /* \"#utility.yul\":4718:4724   */\n      dup2\n        /* \"#utility.yul\":4715:4745   */\n      gt\n        /* \"#utility.yul\":4712:4829   */\n      iszero\n      tag_118\n      jumpi\n        /* \"#utility.yul\":4748:4827   */\n      tag_119\n      tag_27\n      jump\t// in\n    tag_119:\n        /* \"#utility.yul\":4712:4829   */\n    tag_118:\n        /* \"#utility.yul\":4861:4926   */\n      tag_120\n        /* \"#utility.yul\":4918:4925   */\n      dup8\n        /* \"#utility.yul\":4909:4915   */\n      dup3\n        /* \"#utility.yul\":4898:4907   */\n      dup9\n        /* \"#utility.yul\":4894:4916   */\n      add\n        /* \"#utility.yul\":4861:4926   */\n      tag_44\n      jump\t// in\n    tag_120:\n        /* \"#utility.yul\":4843:4926   */\n      swap4\n      pop\n      swap4\n      pop\n        /* \"#utility.yul\":4638:4936   */\n      pop\n        /* \"#utility.yul\":4975:4977   */\n      0x40\n        /* \"#utility.yul\":5001:5054   */\n      tag_121\n        /* \"#utility.yul\":5046:5053   */\n      dup8\n        /* \"#utility.yul\":5037:5043   */\n      dup3\n        /* \"#utility.yul\":5026:5035   */\n      dup9\n        /* \"#utility.yul\":5022:5044   */\n      add\n        /* \"#utility.yul\":5001:5054   */\n      tag_46\n      jump\t// in\n    tag_121:\n        /* \"#utility.yul\":4991:5054   */\n      swap2\n      pop\n        /* \"#utility.yul\":4946:5064   */\n      pop\n        /* \"#utility.yul\":4252:5071   */\n      swap3\n      swap6\n      swap2\n      swap5\n      pop\n      swap3\n      pop\n      jump\t// out\n        /* \"#utility.yul\":5077:5257   */\n    tag_47:\n        /* \"#utility.yul\":5125:5202   */\n      0x4e487b7100000000000000000000000000000000000000000000000000000000\n        /* \"#utility.yul\":5122:5123   */\n      0x00\n        /* \"#utility.yul\":5115:5203   */\n      mstore\n        /* \"#utility.yul\":5222:5226   */\n      0x22\n        /* \"#utility.yul\":5219:5220   */\n      0x04\n        /* \"#utility.yul\":5212:5227   */\n      mstore\n        /* \"#utility.yul\":5246:5250   */\n      0x24\n        /* \"#utility.yul\":5243:5244   */\n      0x00\n        /* \"#utility.yul\":5236:5251   */\n      revert\n        /* \"#utility.yul\":5263:5583   */\n    tag_17:\n        /* \"#utility.yul\":5307:5313   */\n      0x00\n        /* \"#utility.yul\":5344:5345   */\n      0x02\n        /* \"#utility.yul\":5338:5342   */\n      dup3\n        /* \"#utility.yul\":5334:5346   */\n      div\n        /* \"#utility.yul\":5324:5346   */\n      swap1\n      pop\n        /* \"#utility.yul\":5391:5392   */\n      0x01\n        /* \"#utility.yul\":5385:5389   */\n      dup3\n        /* \"#utility.yul\":5381:5393   */\n      and\n        /* \"#utility.yul\":5412:5430   */\n      dup1\n        /* \"#utility.yul\":5402:5483   */\n      tag_124\n      jumpi\n        /* \"#utility.yul\":5468:5472   */\n      0x7f\n        /* \"#utility.yul\":5460:5466   */\n      dup3\n        /* \"#utility.yul\":5456:5473   */\n      and\n        /* \"#utility.yul\":5446:5473   */\n      swap2\n      pop\n        /* \"#utility.yul\":5402:5483   */\n    tag_124:\n        /* \"#utility.yul\":5530:5532   */\n      0x20\n        /* \"#utility.yul\":5522:5528   */\n      dup3\n        /* \"#utility.yul\":5519:5533   */\n      lt\n        /* \"#utility.yul\":5499:5517   */\n      dup2\n        /* \"#utility.yul\":5496:5534   */\n      sub\n        /* \"#utility.yul\":5493:5577   */\n      tag_125\n      jumpi\n        /* \"#utility.yul\":5549:5567   */\n      tag_126\n      tag_47\n      jump\t// in\n    tag_126:\n        /* \"#utility.yul\":5493:5577   */\n    tag_125:\n        /* \"#utility.yul\":5314:5583   */\n      pop\n        /* \"#utility.yul\":5263:5583   */\n      swap2\n      swap1\n      pop\n      jump\t// out\n        /* \"#utility.yul\":5589:5769   */\n    tag_48:\n        /* \"#utility.yul\":5637:5714   */\n      0x4e487b7100000000000000000000000000000000000000000000000000000000\n        /* \"#utility.yul\":5634:5635   */\n      0x00\n        /* \"#utility.yul\":5627:5715   */\n      mstore\n        /* \"#utility.yul\":5734:5738   */\n      0x41\n        /* \"#utility.yul\":5731:5732   */\n      0x04\n        /* \"#utility.yul\":5724:5739   */\n      mstore\n        /* \"#utility.yul\":5758:5762   */\n      0x24\n        /* \"#utility.yul\":5755:5756   */\n      0x00\n        /* \"#utility.yul\":5748:5763   */\n      revert\n        /* \"#utility.yul\":5775:5916   */\n    tag_49:\n        /* \"#utility.yul\":5824:5828   */\n      0x00\n        /* \"#utility.yul\":5847:5850   */\n      dup2\n        /* \"#utility.yul\":5839:5850   */\n      swap1\n      pop\n        /* \"#utility.yul\":5870:5873   */\n      dup2\n        /* \"#utility.yul\":5867:5868   */\n      0x00\n        /* \"#utility.yul\":5860:5874   */\n      mstore\n        /* \"#utility.yul\":5904:5908   */\n      0x20\n        /* \"#utility.yul\":5901:5902   */\n      0x00\n        /* \"#utility.yul\":5891:5909   */\n      keccak256\n        /* \"#utility.yul\":5883:5909   */\n      swap1\n      pop\n        /* \"#utility.yul\":5775:5916   */\n      swap2\n      swap1\n      pop\n      jump\t// out\n        /* \"#utility.yul\":5922:6015   */\n    tag_50:\n        /* \"#utility.yul\":5959:5965   */\n      0x00\n        /* \"#utility.yul\":6006:6008   */\n      0x20\n        /* \"#utility.yul\":6001:6003   */\n      0x1f\n        /* \"#utility.yul\":5994:5999   */\n      dup4\n        /* \"#utility.yul\":5990:6004   */\n      add\n        /* \"#utility.yul\":5986:6009   */\n      div\n        /* \"#utility.yul\":5976:6009   */\n      swap1\n      pop\n        /* \"#utility.yul\":5922:6015   */\n      swap2\n      swap1\n      pop\n      jump\t// out\n        /* \"#utility.yul\":6021:6128   */\n    tag_51:\n        /* \"#utility.yul\":6065:6073   */\n      0x00\n        /* \"#utility.yul\":6115:6120   */\n      dup3\n        /* \"#utility.yul\":6109:6113   */\n      dup3\n        /* \"#utility.yul\":6105:6121   */\n      shl\n        /* \"#utility.yul\":6084:6121   */\n      swap1\n      pop\n        /* \"#utility.yul\":6021:6128   */\n      swap3\n      swap2\n      pop\n      pop\n      jump\t// out\n        /* \"#utility.yul\":6134:6527   */\n    tag_52:\n        /* \"#utility.yul\":6203:6209   */\n      0x00\n        /* \"#utility.yul\":6253:6254   */\n      0x08\n        /* \"#utility.yul\":6241:6251   */\n      dup4\n        /* \"#utility.yul\":6237:6255   */\n      mul\n        /* \"#utility.yul\":6276:6373   */\n      tag_132\n        /* \"#utility.yul\":6306:6372   */\n      0xffffffffffffffffffffffffffffffffffffffffffffffffffffffffffffffff\n        /* \"#utility.yul\":6295:6304   */\n      dup3\n        /* \"#utility.yul\":6276:6373   */\n      tag_51\n      jump\t// in\n    tag_132:\n        /* \"#utility.yul\":6394:6433   */\n      tag_133\n        /* \"#utility.yul\":6424:6432   */\n      dup7\n        /* \"#utility.yul\":6413:6422   */\n      dup4\n        /* \"#utility.yul\":6394:6433   */\n      tag_51\n      jump\t// in\n    tag_133:\n        /* \"#utility.yul\":6382:6433   */\n      swap6\n      pop\n        /* \"#utility.yul\":6466:6470   */\n      dup1\n        /* \"#utility.yul\":6462:6471   */\n      not\n        /* \"#utility.yul\":6455:6460   */\n      dup5\n        /* \"#utility.yul\":6451:6472   */\n      and\n        /* \"#utility.yul\":6442:6472   */\n      swap4\n      pop\n        /* \"#utility.yul\":6515:6519   */\n      dup1\n        /* \"#utility.yul\":6505:6513   */\n      dup7\n        /* \"#utility.yul\":6501:6520   */\n      and\n        /* \"#utility.yul\":6494:6499   */\n      dup5\n        /* \"#utility.yul\":6491:6521   */\n      or\n        /* \"#utility.yul\":6481:6521   */\n      swap3\n      pop\n        /* \"#utility.yul\":6210:6527   */\n      pop\n      pop\n        /* \"#utility.yul\":6134:6527   */\n      swap4\n      swap3\n      pop\n      pop\n      pop\n      jump\t// out\n        /* \"#utility.yul\":6533:6593   */\n    tag_53:\n        /* \"#utility.yul\":6561:6564   */\n      0x00\n        /* \"#utility.yul\":6582:6587   */\n      dup2\n        /* \"#utility.yul\":6575:6587   */\n      swap1\n      pop\n        /* \"#utility.yul\":6533:6593   */\n      swap2\n      swap1\n      pop\n      jump\t// out\n        /* \"#utility.yul\":6599:6741   */\n    tag_54:\n        /* \"#utility.yul\":6649:6658   */\n      0x00\n        /* \"#utility.yul\":6682:6735   */\n      tag_136\n        /* \"#utility.yul\":6700:6734   */\n      tag_137\n        /* \"#utility.yul\":6709:6733   */\n      tag_138\n        /* \"#utility.yul\":6727:6732   */\n      dup5\n        /* \"#utility.yul\":6709:6733   */\n      tag_37\n      jump\t// in\n    tag_138:\n        /* \"#utility.yul\":6700:6734   */\n      tag_53\n      jump\t// in\n    tag_137:\n        /* \"#utility.yul\":6682:6735   */\n      tag_37\n      jump\t// in\n    tag_136:\n        /* \"#utility.yul\":6669:6735   */\n      swap1\n      pop\n        /* \"#utility.yul\":6599:6741   */\n      swap2\n      swap1\n      pop\n      jump\t// out\n        /* \"#utility.yul\":6747:6822   */\n    tag_55:\n        /* \"#utility.yul\":6790:6793   */\n      0x00\n        /* \"#utility.yul\":6811:6816   */\n      dup2\n        /* \"#utility.yul\":6804:6816   */\n      swap1\n      pop\n        /* \"#utility.yul\":6747:6822   */\n      swap2\n      swap1\n      pop\n      jump\t// out\n        /* \"#utility.yul\":6828:7097   */\n    tag_56:\n        /* \"#utility.yul\":6938:6977   */\n      tag_141\n        /* \"#utility.yul\":6969:6976   */\n      dup4\n        /* \"#utility.yul\":6938:6977   */\n      tag_54\n      jump\t// in\n    tag_141:\n        /* \"#utility.yul\":6999:7090   */\n      tag_142\n        /* \"#utility.yul\":7048:7089   */\n      tag_143\n        /* \"#utility.yul\":7072:7088   */\n      dup3\n        /* \"#utility.yul\":7048:7089   */\n      tag_55\n      jump\t// in\n    tag_143:\n        /* \"#utility.yul\":7040:7046   */\n      dup5\n        /* \"#utility.yul\":7033:7037   */\n      dup5\n        /* \"#utility.yul\":7027:7038   */\n      sload\n        /* \"#utility.yul\":6999:7090   */\n      tag_52\n      jump\t// in\n    tag_142:\n        /* \"#utility.yul\":6993:6997   */\n      dup3\n        /* \"#utility.yul\":6986:7091   */\n      sstore\n        /* \"#utility.yul\":6904:7097   */\n      pop\n        /* \"#utility.yul\":6828:7097   */\n      pop\n      pop\n      pop\n      jump\t// out\n        /* \"#utility.yul\":7103:7176   */\n    tag_57:\n        /* \"#utility.yul\":7148:7151   */\n      0x00\n        /* \"#utility.yul\":7103:7176   */\n      swap1\n      jump\t// out\n        /* \"#utility.yul\":7182:7371   */\n    tag_58:\n        /* \"#utility.yul\":7259:7291   */\n      tag_146\n      tag_57\n      jump\t// in\n    tag_146:\n        /* \"#utility.yul\":7300:7365   */\n      tag_147\n        /* \"#utility.yul\":7358:7364   */\n      dup2\n        /* \"#utility.yul\":7350:7356   */\n      dup5\n        /* \"#utility.yul\":7344:7348   */\n      dup5\n        /* \"#utility.yul\":7300:7365   */\n      tag_56\n      jump\t// in\n    tag_147:\n        /* \"#utility.yul\":7235:7371   */\n      pop\n        /* \"#utility.yul\":7182:7371   */\n      pop\n      pop\n      jump\t// out\n        /* \"#utility.yul\":7377:7563   */\n    tag_59:\n        /* \"#utility.yul\":7437:7557   */\n    tag_149:\n        /* \"#utility.yul\":7454:7457   */\n      dup2\n        /* \"#utility.yul\":7447:7452   */\n      dup2\n        /* \"#utility.yul\":7444:7458   */\n      lt\n        /* \"#utility.yul\":7437:7557   */\n      iszero\n      tag_151\n      jumpi\n        /* \"#utility.yul\":7508:7547   */\n      tag_152\n        /* \"#utility.yul\":7545:7546   */\n      0x00\n        /* \"#utility.yul\":7538:7543   */\n      dup3\n        /* \"#utility.yul\":7508:7547   */\n      tag_58\n      jump\t// in\n    tag_152:\n        /* \"#utility.yul\":7481:7482   */\n      0x01\n        /* \"#utility.yul\":7474:7479   */\n      dup2\n        /* \"#utility.yul\":7470:7483   */\n      add\n        /* \"#utility.yul\":7461:7483   */\n      swap1\n      pop\n        /* \"#utility.yul\":7437:7557   */\n      jump(tag_149)\n    tag_151:\n        /* \"#utility.yul\":7377:7563   */\n      pop\n      pop\n      jump\t// out\n        /* \"#utility.yul\":7569:8112   */\n    tag_60:\n        /* \"#utility.yul\":7670:7672   */\n      0x1f\n        /* \"#utility.yul\":7665:7668   */\n      dup3\n        /* \"#utility.yul\":7662:7673   */\n      gt\n        /* \"#utility.yul\":7659:8105   */\n      iszero\n      tag_154\n      jumpi\n        /* \"#utility.yul\":7704:7742   */\n      tag_155\n        /* \"#utility.yul\":7736:7741   */\n      dup2\n        /* \"#utility.yul\":7704:7742   */\n      tag_49\n      jump\t// in\n    tag_155:\n        /* \"#utility.yul\":7788:7817   */\n      tag_156\n        /* \"#utility.yul\":7806:7816   */\n      dup5\n        /* \"#utility.yul\":7788:7817   */\n      tag_50\n      jump\t// in\n    tag_156:\n        /* \"#utility.yul\":7778:7786   */\n      dup2\n        /* \"#utility.yul\":7774:7818   */\n      add\n        /* \"#utility.yul\":7971:7973   */\n      0x20\n        /* \"#utility.yul\":7959:7969   */\n      dup6\n        /* \"#utility.yul\":7956:7974   */\n      lt\n        /* \"#utility.yul\":7953:8002   */\n      iszero\n      tag_157\n      jumpi\n        /* \"#utility.yul\":7992:8000   */\n      dup2\n        /* \"#utility.yul\":7977:8000   */\n      swap1\n      pop\n        /* \"#utility.yul\":7953:8002   */\n    tag_157:\n        /* \"#utility.yul\":8015:8095   */\n      tag_158\n        /* \"#utility.yul\":8071:8093   */\n      tag_159\n        /* \"#utility.yul\":8089:8092   */\n      dup6\n        /* \"#utility.yul\":8071:8093   */\n      tag_50\n      jump\t// in\n    tag_159:\n        /* \"#utility.yul\":8061:8069   */\n      dup4\n        /* \"#utility.yul\":8057:8094   */\n      add\n        /* \"#utility.yul\":8044:8055   */\n      dup3\n        /* \"#utility.yul\":8015:8095   */\n      tag_59\n      jump\t// in\n    tag_158:\n        /* \"#utility.yul\":7674:8105   */\n      pop\n      pop\n        /* \"#utility.yul\":7659:8105   */\n    tag_154:\n        /* \"#utility.yul\":7569:8112   */\n      pop\n      pop\n      pop\n      jump\t// out\n        /* \"#utility.yul\":8118:8235   */\n    tag_61:\n        /* \"#utility.yul\":8172:8180   */\n      0x00\n        /* \"#utility.yul\":8222:8227   */\n      dup3\n        /* \"#utility.yul\":8216:8220   */\n      dup3\n        /* \"#utility.yul\":8212:8228   */\n      shr\n        /* \"#utility.yul\":8191:8228   */\n      swap1\n      pop\n        /* \"#utility.yul\":8118:8235   */\n      swap3\n      swap2\n      pop\n      pop\n      jump\t// out\n        /* \"#utility.yul\":8241:8410   */\n    tag_62:\n        /* \"#utility.yul\":8285:8291   */\n      0x00\n        /* \"#utility.yul\":8318:8369   */\n      tag_162\n        /* \"#utility.yul\":8366:8367   */\n      0x00\n        /* \"#utility.yul\":8362:8368   */\n      not\n        /* \"#utility.yul\":8354:8359   */\n      dup5\n        /* \"#utility.yul\":8351:8352   */\n      0x08\n        /* \"#utility.yul\":8347:8360   */\n      mul\n        /* \"#utility.yul\":8318:8369   */\n      tag_61\n      jump\t// in\n    tag_162:\n        /* \"#utility.yul\":8314:8370   */\n      not\n        /* \"#utility.yul\":8399:8403   */\n      dup1\n        /* \"#utility.yul\":8393:8397   */\n      dup4\n        /* \"#utility.yul\":8389:8404   */\n      and\n        /* \"#utility.yul\":8379:8404   */\n      swap2\n      pop\n        /* \"#utility.yul\":8292:8410   */\n      pop\n        /* \"#utility.yul\":8241:8410   */\n      swap3\n      swap2\n      pop\n      pop\n      jump\t// out\n        /* \"#utility.yul\":8415:8710   */\n    tag_63:\n        /* \"#utility.yul\":8491:8495   */\n      0x00\n        /* \"#utility.yul\":8637:8666   */\n      tag_164\n        /* \"#utility.yul\":8662:8665   */\n      dup4\n        /* \"#utility.yul\":8656:8660   */\n      dup4\n        /* \"#utility.yul\":8637:8666   */\n      tag_62\n      jump\t// in\n    tag_164:\n        /* \"#utility.yul\":8629:8666   */\n      swap2\n      pop\n        /* \"#utility.yul\":8699:8702   */\n      dup3\n        /* \"#utility.yul\":8696:8697   */\n      0x02\n        /* \"#utility.yul\":8692:8703   */\n      mul\n        /* \"#utility.yul\":8686:8690   */\n      dup3\n        /* \"#utility.yul\":8683:8704   */\n      or\n        /* \"#utility.yul\":8675:8704   */\n      swap1\n      pop\n        /* \"#utility.yul\":8415:8710   */\n      swap3\n      swap2\n      pop\n      pop\n      jump\t// out\n        /* \"#utility.yul\":8715:10110   */\n    tag_24:\n        /* \"#utility.yul\":8832:8869   */\n      tag_166\n        /* \"#utility.yul\":8865:8868   */\n      dup3\n        /* \"#utility.yul\":8832:8869   */\n      tag_32\n      jump\t// in\n    tag_166:\n        /* \"#utility.yul\":8934:8952   */\n      0xffffffffffffffff\n        /* \"#utility.yul\":8926:8932   */\n      dup2\n        /* \"#utility.yul\":8923:8953   */\n      gt\n        /* \"#utility.yul\":8920:8976   */\n      iszero\n      tag_167\n      jumpi\n        /* \"#utility.yul\":8956:8974   */\n      tag_168\n      tag_48\n      jump\t// in\n    tag_168:\n        /* \"#utility.yul\":8920:8976   */\n    tag_167:\n        /* \"#utility.yul\":9000:9038   */\n      tag_169\n        /* \"#utility.yul\":9032:9036   */\n      dup3\n        /* \"#utility.yul\":9026:9037   */\n      sload\n        /* \"#utility.yul\":9000:9038   */\n      tag_17\n      jump\t// in\n    tag_169:\n        /* \"#utility.yul\":9085:9152   */\n      tag_170\n        /* \"#utility.yul\":9145:9151   */\n      dup3\n        /* \"#utility.yul\":9137:9143   */\n      dup3\n        /* \"#utility.yul\":9131:9135   */\n      dup6\n        /* \"#utility.yul\":9085:9152   */\n      tag_60\n      jump\t// in\n    tag_170:\n        /* \"#utility.yul\":9179:9180   */\n      0x00\n        /* \"#utility.yul\":9203:9207   */\n      0x20\n        /* \"#utility.yul\":9190:9207   */\n      swap1\n      pop\n        /* \"#utility.yul\":9235:9237   */\n      0x1f\n        /* \"#utility.yul\":9227:9233   */\n      dup4\n        /* \"#utility.yul\":9224:9238   */\n      gt\n        /* \"#utility.yul\":9252:9253   */\n      0x01\n        /* \"#utility.yul\":9247:9865   */\n      dup2\n      eq\n      tag_172\n      jumpi\n        /* \"#utility.yul\":9909:9910   */\n      0x00\n        /* \"#utility.yul\":9926:9932   */\n      dup5\n        /* \"#utility.yul\":9923:10000   */\n      iszero\n      tag_173\n      jumpi\n        /* \"#utility.yul\":9975:9984   */\n      dup3\n        /* \"#utility.yul\":9970:9973   */\n      dup8\n        /* \"#utility.yul\":9966:9985   */\n      add\n        /* \"#utility.yul\":9960:9986   */\n      mload\n        /* \"#utility.yul\":9951:9986   */\n      swap1\n      pop\n        /* \"#utility.yul\":9923:10000   */\n    tag_173:\n        /* \"#utility.yul\":10026:10093   */\n      tag_174\n        /* \"#utility.yul\":10086:10092   */\n      dup6\n        /* \"#utility.yul\":10079:10084   */\n      dup3\n        /* \"#utility.yul\":10026:10093   */\n      tag_63\n      jump\t// in\n    tag_174:\n        /* \"#utility.yul\":10020:10024   */\n      dup7\n        /* \"#utility.yul\":10013:10094   */\n      sstore\n        /* \"#utility.yul\":9882:10104   */\n      pop\n        /* \"#utility.yul\":9217:10104   */\n      jump(tag_171)\n        /* \"#utility.yul\":9247:9865   */\n    tag_172:\n        /* \"#utility.yul\":9299:9303   */\n      0x1f\n        /* \"#utility.yul\":9295:9304   */\n      not\n        /* \"#utility.yul\":9287:9293   */\n      dup5\n        /* \"#utility.yul\":9283:9305   */\n      and\n        /* \"#utility.yul\":9333:9370   */\n      tag_175\n        /* \"#utility.yul\":9365:9369   */\n      dup7\n        /* \"#utility.yul\":9333:9370   */\n      tag_49\n      jump\t// in\n    tag_175:\n        /* \"#utility.yul\":9392:9393   */\n      0x00\n        /* \"#utility.yul\":9406:9614   */\n    tag_176:\n        /* \"#utility.yul\":9420:9427   */\n      dup3\n        /* \"#utility.yul\":9417:9418   */\n      dup2\n        /* \"#utility.yul\":9414:9428   */\n      lt\n        /* \"#utility.yul\":9406:9614   */\n      iszero\n      tag_178\n      jumpi\n        /* \"#utility.yul\":9499:9508   */\n      dup5\n        /* \"#utility.yul\":9494:9497   */\n      dup10\n        /* \"#utility.yul\":9490:9509   */\n      add\n        /* \"#utility.yul\":9484:9510   */\n      mload\n        /* \"#utility.yul\":9476:9482   */\n      dup3\n        /* \"#utility.yul\":9469:9511   */\n      sstore\n        /* \"#utility.yul\":9550:9551   */\n      0x01\n        /* \"#utility.yul\":9542:9548   */\n      dup3\n        /* \"#utility.yul\":9538:9552   */\n      add\n        /* \"#utility.yul\":9528:9552   */\n      swap2\n      pop\n        /* \"#utility.yul\":9597:9599   */\n      0x20\n        /* \"#utility.yul\":9586:9595   */\n      dup6\n        /* \"#utility.yul\":9582:9600   */\n      add\n        /* \"#utility.yul\":9569:9600   */\n      swap5\n      pop\n        /* \"#utility.yul\":9443:9447   */\n      0x20\n        /* \"#utility.yul\":9440:9441   */\n      dup2\n        /* \"#utility.yul\":9436:9448   */\n      add\n        /* \"#utility.yul\":9431:9448   */\n      swap1\n      pop\n        /* \"#utility.yul\":9406:9614   */\n      jump(tag_176)\n    tag_178:\n        /* \"#utility.yul\":9642:9648   */\n      dup7\n        /* \"#utility.yul\":9633:9640   */\n      dup4\n        /* \"#utility.yul\":9630:9649   */\n      lt\n        /* \"#utility.yul\":9627:9806   */\n      iszero\n      tag_179\n      jumpi\n        /* \"#utility.yul\":9700:9709   */\n      dup5\n        /* \"#utility.yul\":9695:9698   */\n      dup10\n        /* \"#utility.yul\":9691:9710   */\n      add\n        /* \"#utility.yul\":9685:9711   */\n      mload\n        /* \"#utility.yul\":9743:9791   */\n      tag_180\n        /* \"#utility.yul\":9785:9789   */\n      0x1f\n        /* \"#utility.yul\":9777:9783   */\n      dup10\n        /* \"#utility.yul\":9773:9790   */\n      and\n        /* \"#utility.yul\":9762:9771   */\n      dup3\n        /* \"#utility.yul\":9743:9791   */\n      tag_62\n      jump\t// in\n    tag_180:\n        /* \"#utility.yul\":9735:9741   */\n      dup4\n        /* \"#utility.yul\":9728:9792   */\n      sstore\n        /* \"#utility.yul\":9650:9806   */\n      pop\n        /* \"#utility.yul\":9627:9806   */\n    tag_179:\n        /* \"#utility.yul\":9852:9853   */\n      0x01\n        /* \"#utility.yul\":9848:9849   */\n      0x02\n        /* \"#utility.yul\":9840:9846   */\n      dup9\n        /* \"#utility.yul\":9836:9850   */\n      mul\n        /* \"#utility.yul\":9832:9854   */\n      add\n        /* \"#utility.yul\":9826:9830   */\n      dup9\n        /* \"#utility.yul\":9819:9855   */\n      sstore\n        /* \"#utility.yul\":9254:9865   */\n      pop\n      pop\n      pop\n        /* \"#utility.yul\":9217:10104   */\n    tag_171:\n      pop\n        /* \"#utility.yul\":8807:10110   */\n      pop\n      pop\n      pop\n        /* \"#utility.yul\":8715:10110   */\n      pop\n      pop\n      jump\t// out\n\n    auxdata: 0xa264697066735822122089f4ed931d8af829358cc7a9022e7d71c32772daaf8fb25e16187492f54b18ee64736f6c634300081a0033\n}\n",
				"bytecode": {
					"linkReferences": {},
					"object": "6080604052348015600e575f80fd5b506108188061001c5f395ff3fe608060405234801561000f575f80fd5b5060043610610034575f3560e01c80635443375d14610038578063a7ad65e81461006a575b5f80fd5b610052600480360381019061004d91906102e7565b610086565b604051610061939291906103b4565b60405180910390f35b610084600480360381019061007f919061047b565b6101a3565b005b60605f805f805f8673ffffffffffffffffffffffffffffffffffffffff1673ffffffffffffffffffffffffffffffffffffffff1681526020019081526020015f206040518060600160405290815f820180546100e190610519565b80601f016020809104026020016040519081016040528092919081815260200182805461010d90610519565b80156101585780601f1061012f57610100808354040283529160200191610158565b820191905f5260205f20905b81548152906001019060200180831161013b57829003601f168201915b5050505050815260200160018201548152602001600282015f9054906101000a900460ff1615151515815250509050805f015181602001518260400151935093509350509193909250565b604051806060016040528084848080601f0160208091040260200160405190810160405280939291908181526020018383808284375f81840152601f19601f8201169050808301925050505050505081526020018281526020015f15158152505f808673ffffffffffffffffffffffffffffffffffffffff1673ffffffffffffffffffffffffffffffffffffffff1681526020019081526020015f205f820151815f0190816102529190610713565b50602082015181600101556040820151816002015f6101000a81548160ff02191690831515021790555090505050505050565b5f80fd5b5f80fd5b5f73ffffffffffffffffffffffffffffffffffffffff82169050919050565b5f6102b68261028d565b9050919050565b6102c6816102ac565b81146102d0575f80fd5b50565b5f813590506102e1816102bd565b92915050565b5f602082840312156102fc576102fb610285565b5b5f610309848285016102d3565b91505092915050565b5f81519050919050565b5f82825260208201905092915050565b8281835e5f83830152505050565b5f601f19601f8301169050919050565b5f61035482610312565b61035e818561031c565b935061036e81856020860161032c565b6103778161033a565b840191505092915050565b5f819050919050565b61039481610382565b82525050565b5f8115159050919050565b6103ae8161039a565b82525050565b5f6060820190508181035f8301526103cc818661034a565b90506103db602083018561038b565b6103e860408301846103a5565b949350505050565b5f80fd5b5f80fd5b5f80fd5b5f8083601f840112610411576104106103f0565b5b8235905067ffffffffffffffff81111561042e5761042d6103f4565b5b60208301915083600182028301111561044a576104496103f8565b5b9250929050565b61045a81610382565b8114610464575f80fd5b50565b5f8135905061047581610451565b92915050565b5f805f806060858703121561049357610492610285565b5b5f6104a0878288016102d3565b945050602085013567ffffffffffffffff8111156104c1576104c0610289565b5b6104cd878288016103fc565b935093505060406104e087828801610467565b91505092959194509250565b7f4e487b71000000000000000000000000000000000000000000000000000000005f52602260045260245ffd5b5f600282049050600182168061053057607f821691505b602082108103610543576105426104ec565b5b50919050565b7f4e487b71000000000000000000000000000000000000000000000000000000005f52604160045260245ffd5b5f819050815f5260205f209050919050565b5f6020601f8301049050919050565b5f82821b905092915050565b5f600883026105d27fffffffffffffffffffffffffffffffffffffffffffffffffffffffffffffffff82610597565b6105dc8683610597565b95508019841693508086168417925050509392505050565b5f819050919050565b5f61061761061261060d84610382565b6105f4565b610382565b9050919050565b5f819050919050565b610630836105fd565b61064461063c8261061e565b8484546105a3565b825550505050565b5f90565b61065861064c565b610663818484610627565b505050565b5b818110156106865761067b5f82610650565b600181019050610669565b5050565b601f8211156106cb5761069c81610576565b6106a584610588565b810160208510156106b4578190505b6106c86106c085610588565b830182610668565b50505b505050565b5f82821c905092915050565b5f6106eb5f19846008026106d0565b1980831691505092915050565b5f61070383836106dc565b9150826002028217905092915050565b61071c82610312565b67ffffffffffffffff81111561073557610734610549565b5b61073f8254610519565b61074a82828561068a565b5f60209050601f83116001811461077b575f8415610769578287015190505b61077385826106f8565b8655506107da565b601f19841661078986610576565b5f5b828110156107b05784890151825560018201915060208501945060208101905061078b565b868310156107cd57848901516107c9601f8916826106dc565b8355505b6001600288020188555050505b50505050505056fea264697066735822122089f4ed931d8af829358cc7a9022e7d71c32772daaf8fb25e16187492f54b18ee64736f6c634300081a0033",
					"opcodes": "PUSH1 0x80 PUSH1 0x40 MSTORE CALLVALUE DUP1 ISZERO PUSH1 0xE JUMPI PUSH0 DUP1 REVERT JUMPDEST POP PUSH2 0x818 DUP1 PUSH2 0x1C PUSH0 CODECOPY PUSH0 RETURN INVALID PUSH1 0x80 PUSH1 0x40 MSTORE CALLVALUE DUP1 ISZERO PUSH2 0xF JUMPI PUSH0 DUP1 REVERT JUMPDEST POP PUSH1 0x4 CALLDATASIZE LT PUSH2 0x34 JUMPI PUSH0 CALLDATALOAD PUSH1 0xE0 SHR DUP1 PUSH4 0x5443375D EQ PUSH2 0x38 JUMPI DUP1 PUSH4 0xA7AD65E8 EQ PUSH2 0x6A JUMPI JUMPDEST PUSH0 DUP1 REVERT JUMPDEST PUSH2 0x52 PUSH1 0x4 DUP1 CALLDATASIZE SUB DUP2 ADD SWAP1 PUSH2 0x4D SWAP2 SWAP1 PUSH2 0x2E7 JUMP JUMPDEST PUSH2 0x86 JUMP JUMPDEST PUSH1 0x40 MLOAD PUSH2 0x61 SWAP4 SWAP3 SWAP2 SWAP1 PUSH2 0x3B4 JUMP JUMPDEST PUSH1 0x40 MLOAD DUP1 SWAP2 SUB SWAP1 RETURN JUMPDEST PUSH2 0x84 PUSH1 0x4 DUP1 CALLDATASIZE SUB DUP2 ADD SWAP1 PUSH2 0x7F SWAP2 SWAP1 PUSH2 0x47B JUMP JUMPDEST PUSH2 0x1A3 JUMP JUMPDEST STOP JUMPDEST PUSH1 0x60 PUSH0 DUP1 PUSH0 DUP1 PUSH0 DUP7 PUSH20 0xFFFFFFFFFFFFFFFFFFFFFFFFFFFFFFFFFFFFFFFF AND PUSH20 0xFFFFFFFFFFFFFFFFFFFFFFFFFFFFFFFFFFFFFFFF AND DUP2 MSTORE PUSH1 0x20 ADD SWAP1 DUP2 MSTORE PUSH1 0x20 ADD PUSH0 KECCAK256 PUSH1 0x40 MLOAD DUP1 PUSH1 0x60 ADD PUSH1 0x40 MSTORE SWAP1 DUP2 PUSH0 DUP3 ADD DUP1 SLOAD PUSH2 0xE1 SWAP1 PUSH2 0x519 JUMP JUMPDEST DUP1 PUSH1 0x1F ADD PUSH1 0x20 DUP1 SWAP2 DIV MUL PUSH1 0x20 ADD PUSH1 0x40 MLOAD SWAP1 DUP2 ADD PUSH1 0x40 MSTORE DUP1 SWAP3 SWAP2 SWAP1 DUP2 DUP2 MSTORE PUSH1 0x20 ADD DUP3 DUP1 SLOAD PUSH2 0x10D SWAP1 PUSH2 0x519 JUMP JUMPDEST DUP1 ISZERO PUSH2 0x158 JUMPI DUP1 PUSH1 0x1F LT PUSH2 0x12F JUMPI PUSH2 0x100 DUP1 DUP4 SLOAD DIV MUL DUP4 MSTORE SWAP2 PUSH1 0x20 ADD SWAP2 PUSH2 0x158 JUMP JUMPDEST DUP3 ADD SWAP2 SWAP1 PUSH0 MSTORE PUSH1 0x20 PUSH0 KECCAK256 SWAP1 JUMPDEST DUP2 SLOAD DUP2 MSTORE SWAP1 PUSH1 0x1 ADD SWAP1 PUSH1 0x20 ADD DUP1 DUP4 GT PUSH2 0x13B JUMPI DUP3 SWAP1 SUB PUSH1 0x1F AND DUP3 ADD SWAP2 JUMPDEST POP POP POP POP POP DUP2 MSTORE PUSH1 0x20 ADD PUSH1 0x1 DUP3 ADD SLOAD DUP2 MSTORE PUSH1 0x20 ADD PUSH1 0x2 DUP3 ADD PUSH0 SWAP1 SLOAD SWAP1 PUSH2 0x100 EXP SWAP1 DIV PUSH1 0xFF AND ISZERO ISZERO ISZERO ISZERO DUP2 MSTORE POP POP SWAP1 POP DUP1 PUSH0 ADD MLOAD DUP2 PUSH1 0x20 ADD MLOAD DUP3 PUSH1 0x40 ADD MLOAD SWAP4 POP SWAP4 POP SWAP4 POP POP SWAP2 SWAP4 SWAP1 SWAP3 POP JUMP JUMPDEST PUSH1 0x40 MLOAD DUP1 PUSH1 0x60 ADD PUSH1 0x40 MSTORE DUP1 DUP5 DUP5 DUP1 DUP1 PUSH1 0x1F ADD PUSH1 0x20 DUP1 SWAP2 DIV MUL PUSH1 0x20 ADD PUSH1 0x40 MLOAD SWAP1 DUP2 ADD PUSH1 0x40 MSTORE DUP1 SWAP4 SWAP3 SWAP2 SWAP1 DUP2 DUP2 MSTORE PUSH1 0x20 ADD DUP4 DUP4 DUP1 DUP3 DUP5 CALLDATACOPY PUSH0 DUP2 DUP5 ADD MSTORE PUSH1 0x1F NOT PUSH1 0x1F DUP3 ADD AND SWAP1 POP DUP1 DUP4 ADD SWAP3 POP POP POP POP POP POP POP DUP2 MSTORE PUSH1 0x20 ADD DUP3 DUP2 MSTORE PUSH1 0x20 ADD PUSH0 ISZERO ISZERO DUP2 MSTORE POP PUSH0 DUP1 DUP7 PUSH20 0xFFFFFFFFFFFFFFFFFFFFFFFFFFFFFFFFFFFFFFFF AND PUSH20 0xFFFFFFFFFFFFFFFFFFFFFFFFFFFFFFFFFFFFFFFF AND DUP2 MSTORE PUSH1 0x20 ADD SWAP1 DUP2 MSTORE PUSH1 0x20 ADD PUSH0 KECCAK256 PUSH0 DUP3 ADD MLOAD DUP2 PUSH0 ADD SWAP1 DUP2 PUSH2 0x252 SWAP2 SWAP1 PUSH2 0x713 JUMP JUMPDEST POP PUSH1 0x20 DUP3 ADD MLOAD DUP2 PUSH1 0x1 ADD SSTORE PUSH1 0x40 DUP3 ADD MLOAD DUP2 PUSH1 0x2 ADD PUSH0 PUSH2 0x100 EXP DUP2 SLOAD DUP2 PUSH1 0xFF MUL NOT AND SWAP1 DUP4 ISZERO ISZERO MUL OR SWAP1 SSTORE POP SWAP1 POP POP POP POP POP POP JUMP JUMPDEST PUSH0 DUP1 REVERT JUMPDEST PUSH0 DUP1 REVERT JUMPDEST PUSH0 PUSH20 0xFFFFFFFFFFFFFFFFFFFFFFFFFFFFFFFFFFFFFFFF DUP3 AND SWAP1 POP SWAP2 SWAP1 POP JUMP JUMPDEST PUSH0 PUSH2 0x2B6 DUP3 PUSH2 0x28D JUMP JUMPDEST SWAP1 POP SWAP2 SWAP1 POP JUMP JUMPDEST PUSH2 0x2C6 DUP2 PUSH2 0x2AC JUMP JUMPDEST DUP2 EQ PUSH2 0x2D0 JUMPI PUSH0 DUP1 REVERT JUMPDEST POP JUMP JUMPDEST PUSH0 DUP2 CALLDATALOAD SWAP1 POP PUSH2 0x2E1 DUP2 PUSH2 0x2BD JUMP JUMPDEST SWAP3 SWAP2 POP POP JUMP JUMPDEST PUSH0 PUSH1 0x20 DUP3 DUP5 SUB SLT ISZERO PUSH2 0x2FC JUMPI PUSH2 0x2FB PUSH2 0x285 JUMP JUMPDEST JUMPDEST PUSH0 PUSH2 0x309 DUP5 DUP3 DUP6 ADD PUSH2 0x2D3 JUMP JUMPDEST SWAP2 POP POP SWAP3 SWAP2 POP POP JUMP JUMPDEST PUSH0 DUP2 MLOAD SWAP1 POP SWAP2 SWAP1 POP JUMP JUMPDEST PUSH0 DUP3 DUP3 MSTORE PUSH1 0x20 DUP3 ADD SWAP1 POP SWAP3 SWAP2 POP POP JUMP JUMPDEST DUP3 DUP2 DUP4 MCOPY PUSH0 DUP4 DUP4 ADD MSTORE POP POP POP JUMP JUMPDEST PUSH0 PUSH1 0x1F NOT PUSH1 0x1F DUP4 ADD AND SWAP1 POP SWAP2 SWAP1 POP JUMP JUMPDEST PUSH0 PUSH2 0x354 DUP3 PUSH2 0x312 JUMP JUMPDEST PUSH2 0x35E DUP2 DUP6 PUSH2 0x31C JUMP JUMPDEST SWAP4 POP PUSH2 0x36E DUP2 DUP6 PUSH1 0x20 DUP7 ADD PUSH2 0x32C JUMP JUMPDEST PUSH2 0x377 DUP2 PUSH2 0x33A JUMP JUMPDEST DUP5 ADD SWAP2 POP POP SWAP3 SWAP2 POP POP JUMP JUMPDEST PUSH0 DUP2 SWAP1 POP SWAP2 SWAP1 POP JUMP JUMPDEST PUSH2 0x394 DUP2 PUSH2 0x382 JUMP JUMPDEST DUP3 MSTORE POP POP JUMP JUMPDEST PUSH0 DUP2 ISZERO ISZERO SWAP1 POP SWAP2 SWAP1 POP JUMP JUMPDEST PUSH2 0x3AE DUP2 PUSH2 0x39A JUMP JUMPDEST DUP3 MSTORE POP POP JUMP JUMPDEST PUSH0 PUSH1 0x60 DUP3 ADD SWAP1 POP DUP2 DUP2 SUB PUSH0 DUP4 ADD MSTORE PUSH2 0x3CC DUP2 DUP7 PUSH2 0x34A JUMP JUMPDEST SWAP1 POP PUSH2 0x3DB PUSH1 0x20 DUP4 ADD DUP6 PUSH2 0x38B JUMP JUMPDEST PUSH2 0x3E8 PUSH1 0x40 DUP4 ADD DUP5 PUSH2 0x3A5 JUMP JUMPDEST SWAP5 SWAP4 POP POP POP POP JUMP JUMPDEST PUSH0 DUP1 REVERT JUMPDEST PUSH0 DUP1 REVERT JUMPDEST PUSH0 DUP1 REVERT JUMPDEST PUSH0 DUP1 DUP4 PUSH1 0x1F DUP5 ADD SLT PUSH2 0x411 JUMPI PUSH2 0x410 PUSH2 0x3F0 JUMP JUMPDEST JUMPDEST DUP3 CALLDATALOAD SWAP1 POP PUSH8 0xFFFFFFFFFFFFFFFF DUP2 GT ISZERO PUSH2 0x42E JUMPI PUSH2 0x42D PUSH2 0x3F4 JUMP JUMPDEST JUMPDEST PUSH1 0x20 DUP4 ADD SWAP2 POP DUP4 PUSH1 0x1 DUP3 MUL DUP4 ADD GT ISZERO PUSH2 0x44A JUMPI PUSH2 0x449 PUSH2 0x3F8 JUMP JUMPDEST JUMPDEST SWAP3 POP SWAP3 SWAP1 POP JUMP JUMPDEST PUSH2 0x45A DUP2 PUSH2 0x382 JUMP JUMPDEST DUP2 EQ PUSH2 0x464 JUMPI PUSH0 DUP1 REVERT JUMPDEST POP JUMP JUMPDEST PUSH0 DUP2 CALLDATALOAD SWAP1 POP PUSH2 0x475 DUP2 PUSH2 0x451 JUMP JUMPDEST SWAP3 SWAP2 POP POP JUMP JUMPDEST PUSH0 DUP1 PUSH0 DUP1 PUSH1 0x60 DUP6 DUP8 SUB SLT ISZERO PUSH2 0x493 JUMPI PUSH2 0x492 PUSH2 0x285 JUMP JUMPDEST JUMPDEST PUSH0 PUSH2 0x4A0 DUP8 DUP3 DUP9 ADD PUSH2 0x2D3 JUMP JUMPDEST SWAP5 POP POP PUSH1 0x20 DUP6 ADD CALLDATALOAD PUSH8 0xFFFFFFFFFFFFFFFF DUP2 GT ISZERO PUSH2 0x4C1 JUMPI PUSH2 0x4C0 PUSH2 0x289 JUMP JUMPDEST JUMPDEST PUSH2 0x4CD DUP8 DUP3 DUP9 ADD PUSH2 0x3FC JUMP JUMPDEST SWAP4 POP SWAP4 POP POP PUSH1 0x40 PUSH2 0x4E0 DUP8 DUP3 DUP9 ADD PUSH2 0x467 JUMP JUMPDEST SWAP2 POP POP SWAP3 SWAP6 SWAP2 SWAP5 POP SWAP3 POP JUMP JUMPDEST PUSH32 0x4E487B7100000000000000000000000000000000000000000000000000000000 PUSH0 MSTORE PUSH1 0x22 PUSH1 0x4 MSTORE PUSH1 0x24 PUSH0 REVERT JUMPDEST PUSH0 PUSH1 0x2 DUP3 DIV SWAP1 POP PUSH1 0x1 DUP3 AND DUP1 PUSH2 0x530 JUMPI PUSH1 0x7F DUP3 AND SWAP2 POP JUMPDEST PUSH1 0x20 DUP3 LT DUP2 SUB PUSH2 0x543 JUMPI PUSH2 0x542 PUSH2 0x4EC JUMP JUMPDEST JUMPDEST POP SWAP2 SWAP1 POP JUMP JUMPDEST PUSH32 0x4E487B7100000000000000000000000000000000000000000000000000000000 PUSH0 MSTORE PUSH1 0x41 PUSH1 0x4 MSTORE PUSH1 0x24 PUSH0 REVERT JUMPDEST PUSH0 DUP2 SWAP1 POP DUP2 PUSH0 MSTORE PUSH1 0x20 PUSH0 KECCAK256 SWAP1 POP SWAP2 SWAP1 POP JUMP JUMPDEST PUSH0 PUSH1 0x20 PUSH1 0x1F DUP4 ADD DIV SWAP1 POP SWAP2 SWAP1 POP JUMP JUMPDEST PUSH0 DUP3 DUP3 SHL SWAP1 POP SWAP3 SWAP2 POP POP JUMP JUMPDEST PUSH0 PUSH1 0x8 DUP4 MUL PUSH2 0x5D2 PUSH32 0xFFFFFFFFFFFFFFFFFFFFFFFFFFFFFFFFFFFFFFFFFFFFFFFFFFFFFFFFFFFFFFFF DUP3 PUSH2 0x597 JUMP JUMPDEST PUSH2 0x5DC DUP7 DUP4 PUSH2 0x597 JUMP JUMPDEST SWAP6 POP DUP1 NOT DUP5 AND SWAP4 POP DUP1 DUP7 AND DUP5 OR SWAP3 POP POP POP SWAP4 SWAP3 POP POP POP JUMP JUMPDEST PUSH0 DUP2 SWAP1 POP SWAP2 SWAP1 POP JUMP JUMPDEST PUSH0 PUSH2 0x617 PUSH2 0x612 PUSH2 0x60D DUP5 PUSH2 0x382 JUMP JUMPDEST PUSH2 0x5F4 JUMP JUMPDEST PUSH2 0x382 JUMP JUMPDEST SWAP1 POP SWAP2 SWAP1 POP JUMP JUMPDEST PUSH0 DUP2 SWAP1 POP SWAP2 SWAP1 POP JUMP JUMPDEST PUSH2 0x630 DUP4 PUSH2 0x5FD JUMP JUMPDEST PUSH2 0x644 PUSH2 0x63C DUP3 PUSH2 0x61E JUMP JUMPDEST DUP5 DUP5 SLOAD PUSH2 0x5A3 JUMP JUMPDEST DUP3 SSTORE POP POP POP POP JUMP JUMPDEST PUSH0 SWAP1 JUMP JUMPDEST PUSH2 0x658 PUSH2 0x64C JUMP JUMPDEST PUSH2 0x663 DUP2 DUP5 DUP5 PUSH2 0x627 JUMP JUMPDEST POP POP POP JUMP JUMPDEST JUMPDEST DUP2 DUP2 LT ISZERO PUSH2 0x686 JUMPI PUSH2 0x67B PUSH0 DUP3 PUSH2 0x650 JUMP JUMPDEST PUSH1 0x1 DUP2 ADD SWAP1 POP PUSH2 0x669 JUMP JUMPDEST POP POP JUMP JUMPDEST PUSH1 0x1F DUP3 GT ISZERO PUSH2 0x6CB JUMPI PUSH2 0x69C DUP2 PUSH2 0x576 JUMP JUMPDEST PUSH2 0x6A5 DUP5 PUSH2 0x588 JUMP JUMPDEST DUP2 ADD PUSH1 0x20 DUP6 LT ISZERO PUSH2 0x6B4 JUMPI DUP2 SWAP1 POP JUMPDEST PUSH2 0x6C8 PUSH2 0x6C0 DUP6 PUSH2 0x588 JUMP JUMPDEST DUP4 ADD DUP3 PUSH2 0x668 JUMP JUMPDEST POP POP JUMPDEST POP POP POP JUMP JUMPDEST PUSH0 DUP3 DUP3 SHR SWAP1 POP SWAP3 SWAP2 POP POP JUMP JUMPDEST PUSH0 PUSH2 0x6EB PUSH0 NOT DUP5 PUSH1 0x8 MUL PUSH2 0x6D0 JUMP JUMPDEST NOT DUP1 DUP4 AND SWAP2 POP POP SWAP3 SWAP2 POP POP JUMP JUMPDEST PUSH0 PUSH2 0x703 DUP4 DUP4 PUSH2 0x6DC JUMP JUMPDEST SWAP2 POP DUP3 PUSH1 0x2 MUL DUP3 OR SWAP1 POP SWAP3 SWAP2 POP POP JUMP JUMPDEST PUSH2 0x71C DUP3 PUSH2 0x312 JUMP JUMPDEST PUSH8 0xFFFFFFFFFFFFFFFF DUP2 GT ISZERO PUSH2 0x735 JUMPI PUSH2 0x734 PUSH2 0x549 JUMP JUMPDEST JUMPDEST PUSH2 0x73F DUP3 SLOAD PUSH2 0x519 JUMP JUMPDEST PUSH2 0x74A DUP3 DUP3 DUP6 PUSH2 0x68A JUMP JUMPDEST PUSH0 PUSH1 0x20 SWAP1 POP PUSH1 0x1F DUP4 GT PUSH1 0x1 DUP2 EQ PUSH2 0x77B JUMPI PUSH0 DUP5 ISZERO PUSH2 0x769 JUMPI DUP3 DUP8 ADD MLOAD SWAP1 POP JUMPDEST PUSH2 0x773 DUP6 DUP3 PUSH2 0x6F8 JUMP JUMPDEST DUP7 SSTORE POP PUSH2 0x7DA JUMP JUMPDEST PUSH1 0x1F NOT DUP5 AND PUSH2 0x789 DUP7 PUSH2 0x576 JUMP JUMPDEST PUSH0 JUMPDEST DUP3 DUP2 LT ISZERO PUSH2 0x7B0 JUMPI DUP5 DUP10 ADD MLOAD DUP3 SSTORE PUSH1 0x1 DUP3 ADD SWAP2 POP PUSH1 0x20 DUP6 ADD SWAP5 POP PUSH1 0x20 DUP2 ADD SWAP1 POP PUSH2 0x78B JUMP JUMPDEST DUP7 DUP4 LT ISZERO PUSH2 0x7CD JUMPI DUP5 DUP10 ADD MLOAD PUSH2 0x7C9 PUSH1 0x1F DUP10 AND DUP3 PUSH2 0x6DC JUMP JUMPDEST DUP4 SSTORE POP JUMPDEST PUSH1 0x1 PUSH1 0x2 DUP9 MUL ADD DUP9 SSTORE POP POP POP JUMPDEST POP POP POP POP POP POP JUMP INVALID LOG2 PUSH5 0x6970667358 0x22 SLT KECCAK256 DUP10 DELEGATECALL 0xED SWAP4 SAR DUP11 0xF8 0x29 CALLDATALOAD DUP13 0xC7 0xA9 MUL 0x2E PUSH30 0x71C32772DAAF8FB25E16187492F54B18EE64736F6C634300081A00330000 "
				},
				"gasEstimates": {
					"creation": {
						"codeDepositCost": "414400",
						"executionCost": "447",
						"totalCost": "414847"
					},
					"external": {
						"fetchProfile(address)": "infinite",
						"setProfiles(address,string,uint256)": "infinite"
					}
				},
				"methodIdentifiers": {
					"fetchProfile(address)": "5443375d",
					"setProfiles(address,string,uint256)": "a7ad65e8"
				}
			},
			"storageLayout": {
				"storage": [
					{
						"astId": 13,
						"contract": "Nested Struce and Memory/NestedStructAndMemory.sol:NestedStructAndMemory",
						"label": "profiles",
						"offset": 0,
						"slot": "0",
						"type": "t_mapping(t_address,t_struct(UserProfile)8_storage)"
					}
				],
				"types": {
					"t_address": {
						"encoding": "inplace",
						"label": "address",
						"numberOfBytes": "20"
					},
					"t_bool": {
						"encoding": "inplace",
						"label": "bool",
						"numberOfBytes": "1"
					},
					"t_mapping(t_address,t_struct(UserProfile)8_storage)": {
						"encoding": "mapping",
						"key": "t_address",
						"label": "mapping(address => struct NestedStructAndMemory.UserProfile)",
						"numberOfBytes": "32",
						"value": "t_struct(UserProfile)8_storage"
					},
					"t_string_storage": {
						"encoding": "bytes",
						"label": "string",
						"numberOfBytes": "32"
					},
					"t_struct(UserProfile)8_storage": {
						"encoding": "inplace",
						"label": "struct NestedStructAndMemory.UserProfile",
						"members": [
							{
								"astId": 3,
								"contract": "Nested Struce and Memory/NestedStructAndMemory.sol:NestedStructAndMemory",
								"label": "name",
								"offset": 0,
								"slot": "0",
								"type": "t_string_storage"
							},
							{
								"astId": 5,
								"contract": "Nested Struce and Memory/NestedStructAndMemory.sol:NestedStructAndMemory",
								"label": "age",
								"offset": 0,
								"slot": "1",
								"type": "t_uint256"
							},
							{
								"astId": 7,
								"contract": "Nested Struce and Memory/NestedStructAndMemory.sol:NestedStructAndMemory",
								"label": "active",
								"offset": 0,
								"slot": "2",
								"type": "t_bool"
							}
						],
						"numberOfBytes": "96"
					},
					"t_uint256": {
						"encoding": "inplace",
						"label": "uint256",
						"numberOfBytes": "32"
					}
				}
			},
			"userdoc": {
				"kind": "user",
				"methods": {},
				"version": 1
			}
		}
	}
}