{
	"Advance Pattern/advance.sol": {
		"advance": {
			"abi": [
				{
					"inputs": [
						{
							"internalType": "address[]",
							"name": "_users",
							"type": "address[]"
						},
						{
							"internalType": "string[]",
							"name": "_names",
							"type": "string[]"
						}
					],
					"name": "addUser",
					"outputs": [],
					"stateMutability": "nonpayable",
					"type": "function"
				},
				{
					"inputs": [],
					"name": "getActiveUsers",
					"outputs": [
						{
							"internalType": "address[]",
							"name": "",
							"type": "address[]"
						},
						{
							"internalType": "string[]",
							"name": "",
							"type": "string[]"
						}
					],
					"stateMutability": "view",
					"type": "function"
				},
				{
					"inputs": [
						{
							"internalType": "uint256[]",
							"name": "data",
							"type": "uint256[]"
						}
					],
					"name": "processLargeArray",
					"outputs": [
						{
							"internalType": "uint256",
							"name": "",
							"type": "uint256"
						}
					],
					"stateMutability": "pure",
					"type": "function"
				},
				{
					"inputs": [
						{
							"internalType": "uint256",
							"name": "amount",
							"type": "uint256"
						}
					],
					"name": "updateBalance",
					"outputs": [],
					"stateMutability": "nonpayable",
					"type": "function"
				}
			],
			"devdoc": {
				"kind": "dev",
				"methods": {},
				"version": 1
			},
			"evm": {
				"assembly": "    /* \"Advance Pattern/advance.sol\":57:2667  contract advance {... */\n  mstore(0x40, 0x80)\n  callvalue\n  dup1\n  iszero\n  tag_1\n  jumpi\n  0x00\n  dup1\n  revert\ntag_1:\n  pop\n  dataSize(sub_0)\n  dup1\n  dataOffset(sub_0)\n  0x00\n  codecopy\n  0x00\n  return\nstop\n\nsub_0: assembly {\n        /* \"Advance Pattern/advance.sol\":57:2667  contract advance {... */\n      mstore(0x40, 0x80)\n      callvalue\n      dup1\n      iszero\n      tag_1\n      jumpi\n      0x00\n      dup1\n      revert\n    tag_1:\n      pop\n      jumpi(tag_2, lt(calldatasize, 0x04))\n      shr(0xe0, calldataload(0x00))\n      dup1\n      0xab7bcf18\n      eq\n      tag_3\n      jumpi\n      dup1\n      0xba7b37d4\n      eq\n      tag_4\n      jumpi\n      dup1\n      0xbb394844\n      eq\n      tag_5\n      jumpi\n      dup1\n      0xf5593607\n      eq\n      tag_6\n      jumpi\n    tag_2:\n      0x00\n      dup1\n      revert\n        /* \"Advance Pattern/advance.sol\":266:700  function addUser(address[] calldata _users, string[] calldata _names)... */\n    tag_3:\n      tag_7\n      0x04\n      dup1\n      calldatasize\n      sub\n      dup2\n      add\n      swap1\n      tag_8\n      swap2\n      swap1\n      tag_9\n      jump\t// in\n    tag_8:\n      tag_10\n      jump\t// in\n    tag_7:\n      stop\n        /* \"Advance Pattern/advance.sol\":706:1571  function updateBalance(uint256 amount) external {... */\n    tag_4:\n      tag_11\n      0x04\n      dup1\n      calldatasize\n      sub\n      dup2\n      add\n      swap1\n      tag_12\n      swap2\n      swap1\n      tag_13\n      jump\t// in\n    tag_12:\n      tag_14\n      jump\t// in\n    tag_11:\n      stop\n        /* \"Advance Pattern/advance.sol\":2400:2665  function processLargeArray(uint256[] calldata data)... */\n    tag_5:\n      tag_15\n      0x04\n      dup1\n      calldatasize\n      sub\n      dup2\n      add\n      swap1\n      tag_16\n      swap2\n      swap1\n      tag_17\n      jump\t// in\n    tag_16:\n      tag_18\n      jump\t// in\n    tag_15:\n      mload(0x40)\n      tag_19\n      swap2\n      swap1\n      tag_20\n      jump\t// in\n    tag_19:\n      mload(0x40)\n      dup1\n      swap2\n      sub\n      swap1\n      return\n        /* \"Advance Pattern/advance.sol\":1577:2394  function getActiveUsers()... */\n    tag_6:\n      tag_21\n      tag_22\n      jump\t// in\n    tag_21:\n      mload(0x40)\n      tag_23\n      swap3\n      swap2\n      swap1\n      tag_24\n      jump\t// in\n    tag_23:\n      mload(0x40)\n      dup1\n      swap2\n      sub\n      swap1\n      return\n        /* \"Advance Pattern/advance.sol\":266:700  function addUser(address[] calldata _users, string[] calldata _names)... */\n    tag_10:\n        /* \"Advance Pattern/advance.sol\":392:398  _names */\n      dup2\n      dup2\n        /* \"Advance Pattern/advance.sol\":392:405  _names.length */\n      swap1\n      pop\n        /* \"Advance Pattern/advance.sol\":375:381  _users */\n      dup5\n      dup5\n        /* \"Advance Pattern/advance.sol\":375:388  _users.length */\n      swap1\n      pop\n        /* \"Advance Pattern/advance.sol\":375:405  _users.length == _names.length */\n      eq\n        /* \"Advance Pattern/advance.sol\":367:435  require(_users.length == _names.length, \"Array must be same Length\") */\n      tag_26\n      jumpi\n      mload(0x40)\n      0x08c379a000000000000000000000000000000000000000000000000000000000\n      dup2\n      mstore\n      0x04\n      add\n      tag_27\n      swap1\n      tag_28\n      jump\t// in\n    tag_27:\n      mload(0x40)\n      dup1\n      swap2\n      sub\n      swap1\n      revert\n    tag_26:\n        /* \"Advance Pattern/advance.sol\":451:460  uint256 i */\n      0x00\n        /* \"Advance Pattern/advance.sol\":446:694  for (uint256 i = 0; i < _users.length; i++) {... */\n    tag_29:\n        /* \"Advance Pattern/advance.sol\":470:476  _users */\n      dup5\n      dup5\n        /* \"Advance Pattern/advance.sol\":470:483  _users.length */\n      swap1\n      pop\n        /* \"Advance Pattern/advance.sol\":466:467  i */\n      dup2\n        /* \"Advance Pattern/advance.sol\":466:483  i < _users.length */\n      lt\n        /* \"Advance Pattern/advance.sol\":446:694  for (uint256 i = 0; i < _users.length; i++) {... */\n      iszero\n      tag_30\n      jumpi\n        /* \"Advance Pattern/advance.sol\":526:644  userProfile({... */\n      mload(0x40)\n      dup1\n      0x60\n      add\n      0x40\n      mstore\n      dup1\n        /* \"Advance Pattern/advance.sol\":562:568  _names */\n      dup5\n      dup5\n        /* \"Advance Pattern/advance.sol\":569:570  i */\n      dup5\n        /* \"Advance Pattern/advance.sol\":562:571  _names[i] */\n      dup2\n      dup2\n      lt\n      tag_32\n      jumpi\n      tag_33\n      tag_34\n      jump\t// in\n    tag_33:\n    tag_32:\n      swap1\n      pop\n      0x20\n      mul\n      dup2\n      add\n      swap1\n      tag_35\n      swap2\n      swap1\n      tag_36\n      jump\t// in\n    tag_35:\n        /* \"Advance Pattern/advance.sol\":526:644  userProfile({... */\n      dup1\n      dup1\n      0x1f\n      add\n      0x20\n      dup1\n      swap2\n      div\n      mul\n      0x20\n      add\n      mload(0x40)\n      swap1\n      dup2\n      add\n      0x40\n      mstore\n      dup1\n      swap4\n      swap3\n      swap2\n      swap1\n      dup2\n      dup2\n      mstore\n      0x20\n      add\n      dup4\n      dup4\n      dup1\n      dup3\n      dup5\n      calldatacopy\n      0x00\n      dup2\n      dup5\n      add\n      mstore\n      not(0x1f)\n      0x1f\n      dup3\n      add\n      and\n      swap1\n      pop\n      dup1\n      dup4\n      add\n      swap3\n      pop\n      pop\n      pop\n      pop\n      pop\n      pop\n      pop\n      dup2\n      mstore\n      0x20\n      add\n        /* \"Advance Pattern/advance.sol\":598:599  0 */\n      0x00\n        /* \"Advance Pattern/advance.sol\":526:644  userProfile({... */\n      dup2\n      mstore\n      0x20\n      add\n        /* \"Advance Pattern/advance.sol\":625:629  true */\n      0x01\n        /* \"Advance Pattern/advance.sol\":526:644  userProfile({... */\n      iszero\n      iszero\n      dup2\n      mstore\n      pop\n        /* \"Advance Pattern/advance.sol\":504:512  profiles */\n      0x00\n        /* \"Advance Pattern/advance.sol\":504:523  profiles[_users[i]] */\n      dup1\n        /* \"Advance Pattern/advance.sol\":513:519  _users */\n      dup8\n      dup8\n        /* \"Advance Pattern/advance.sol\":520:521  i */\n      dup6\n        /* \"Advance Pattern/advance.sol\":513:522  _users[i] */\n      dup2\n      dup2\n      lt\n      tag_37\n      jumpi\n      tag_38\n      tag_34\n      jump\t// in\n    tag_38:\n    tag_37:\n      swap1\n      pop\n      0x20\n      mul\n      add\n      0x20\n      dup2\n      add\n      swap1\n      tag_39\n      swap2\n      swap1\n      tag_40\n      jump\t// in\n    tag_39:\n        /* \"Advance Pattern/advance.sol\":504:523  profiles[_users[i]] */\n      0xffffffffffffffffffffffffffffffffffffffff\n      and\n      0xffffffffffffffffffffffffffffffffffffffff\n      and\n      dup2\n      mstore\n      0x20\n      add\n      swap1\n      dup2\n      mstore\n      0x20\n      add\n      0x00\n      keccak256\n        /* \"Advance Pattern/advance.sol\":504:644  profiles[_users[i]] = userProfile({... */\n      0x00\n      dup3\n      add\n      mload\n      dup2\n      0x00\n      add\n      swap1\n      dup2\n      tag_41\n      swap2\n      swap1\n      tag_42\n      jump\t// in\n    tag_41:\n      pop\n      0x20\n      dup3\n      add\n      mload\n      dup2\n      0x01\n      add\n      sstore\n      0x40\n      dup3\n      add\n      mload\n      dup2\n      0x02\n      add\n      exp(0x0100, 0x00)\n      dup2\n      sload\n      dup2\n      0xff\n      mul\n      not\n      and\n      swap1\n      dup4\n      iszero\n      iszero\n      mul\n      or\n      swap1\n      sstore\n      pop\n      swap1\n      pop\n      pop\n        /* \"Advance Pattern/advance.sol\":659:667  userList */\n      0x01\n        /* \"Advance Pattern/advance.sol\":673:679  _users */\n      dup6\n      dup6\n        /* \"Advance Pattern/advance.sol\":680:681  i */\n      dup4\n        /* \"Advance Pattern/advance.sol\":673:682  _users[i] */\n      dup2\n      dup2\n      lt\n      tag_43\n      jumpi\n      tag_44\n      tag_34\n      jump\t// in\n    tag_44:\n    tag_43:\n      swap1\n      pop\n      0x20\n      mul\n      add\n      0x20\n      dup2\n      add\n      swap1\n      tag_45\n      swap2\n      swap1\n      tag_40\n      jump\t// in\n    tag_45:\n        /* \"Advance Pattern/advance.sol\":659:683  userList.push(_users[i]) */\n      swap1\n      dup1\n      0x01\n      dup2\n      sload\n      add\n      dup1\n      dup3\n      sstore\n      dup1\n      swap2\n      pop\n      pop\n      0x01\n      swap1\n      sub\n      swap1\n      0x00\n      mstore\n      keccak256(0x00, 0x20)\n      add\n      0x00\n      swap1\n      swap2\n      swap1\n      swap2\n      swap1\n      swap2\n      0x0100\n      exp\n      dup2\n      sload\n      dup2\n      0xffffffffffffffffffffffffffffffffffffffff\n      mul\n      not\n      and\n      swap1\n      dup4\n      0xffffffffffffffffffffffffffffffffffffffff\n      and\n      mul\n      or\n      swap1\n      sstore\n      pop\n        /* \"Advance Pattern/advance.sol\":485:488  i++ */\n      dup1\n      dup1\n      0x01\n      add\n      swap2\n      pop\n      pop\n        /* \"Advance Pattern/advance.sol\":446:694  for (uint256 i = 0; i < _users.length; i++) {... */\n      jump(tag_29)\n    tag_30:\n      pop\n        /* \"Advance Pattern/advance.sol\":266:700  function addUser(address[] calldata _users, string[] calldata _names)... */\n      pop\n      pop\n      pop\n      pop\n      jump\t// out\n        /* \"Advance Pattern/advance.sol\":706:1571  function updateBalance(uint256 amount) external {... */\n    tag_14:\n        /* \"Advance Pattern/advance.sol\":764:796  userProfile[] memory activeUsers */\n      0x00\n        /* \"Advance Pattern/advance.sol\":817:825  userList */\n      0x01\n        /* \"Advance Pattern/advance.sol\":817:832  userList.length */\n      dup1\n      sload\n      swap1\n      pop\n        /* \"Advance Pattern/advance.sol\":799:833  new userProfile[](userList.length) */\n      0xffffffffffffffff\n      dup2\n      gt\n      iszero\n      tag_48\n      jumpi\n      tag_49\n      tag_50\n      jump\t// in\n    tag_49:\n    tag_48:\n      mload(0x40)\n      swap1\n      dup1\n      dup3\n      mstore\n      dup1\n      0x20\n      mul\n      0x20\n      add\n      dup3\n      add\n      0x40\n      mstore\n      dup1\n      iszero\n      tag_51\n      jumpi\n      dup2\n      0x20\n      add\n    tag_52:\n      tag_53\n      tag_54\n      jump\t// in\n    tag_53:\n      dup2\n      mstore\n      0x20\n      add\n      swap1\n      0x01\n      swap1\n      sub\n      swap1\n      dup2\n      tag_52\n      jumpi\n      swap1\n      pop\n    tag_51:\n      pop\n        /* \"Advance Pattern/advance.sol\":764:833  userProfile[] memory activeUsers = new userProfile[](userList.length) */\n      swap1\n      pop\n        /* \"Advance Pattern/advance.sol\":843:862  uint256 activeCount */\n      0x00\n        /* \"Advance Pattern/advance.sol\":931:940  uint256 i */\n      dup1\n        /* \"Advance Pattern/advance.sol\":926:1142  for (uint256 i = 0; i < userList.length; i++) {... */\n    tag_55:\n        /* \"Advance Pattern/advance.sol\":950:958  userList */\n      0x01\n        /* \"Advance Pattern/advance.sol\":950:965  userList.length */\n      dup1\n      sload\n      swap1\n      pop\n        /* \"Advance Pattern/advance.sol\":946:947  i */\n      dup2\n        /* \"Advance Pattern/advance.sol\":946:965  i < userList.length */\n      lt\n        /* \"Advance Pattern/advance.sol\":926:1142  for (uint256 i = 0; i < userList.length; i++) {... */\n      iszero\n      tag_56\n      jumpi\n        /* \"Advance Pattern/advance.sol\":990:998  profiles */\n      0x00\n        /* \"Advance Pattern/advance.sol\":990:1011  profiles[userList[i]] */\n      dup1\n        /* \"Advance Pattern/advance.sol\":999:1007  userList */\n      0x01\n        /* \"Advance Pattern/advance.sol\":1008:1009  i */\n      dup4\n        /* \"Advance Pattern/advance.sol\":999:1010  userList[i] */\n      dup2\n      sload\n      dup2\n      lt\n      tag_58\n      jumpi\n      tag_59\n      tag_34\n      jump\t// in\n    tag_59:\n    tag_58:\n      swap1\n      0x00\n      mstore\n      keccak256(0x00, 0x20)\n      add\n      0x00\n      swap1\n      sload\n      swap1\n      0x0100\n      exp\n      swap1\n      div\n      0xffffffffffffffffffffffffffffffffffffffff\n      and\n        /* \"Advance Pattern/advance.sol\":990:1011  profiles[userList[i]] */\n      0xffffffffffffffffffffffffffffffffffffffff\n      and\n      0xffffffffffffffffffffffffffffffffffffffff\n      and\n      dup2\n      mstore\n      0x20\n      add\n      swap1\n      dup2\n      mstore\n      0x20\n      add\n      0x00\n      keccak256\n        /* \"Advance Pattern/advance.sol\":990:1018  profiles[userList[i]].active */\n      0x02\n      add\n      0x00\n      swap1\n      sload\n      swap1\n      0x0100\n      exp\n      swap1\n      div\n      0xff\n      and\n        /* \"Advance Pattern/advance.sol\":986:1132  if (profiles[userList[i]].active) {... */\n      iszero\n      tag_61\n      jumpi\n        /* \"Advance Pattern/advance.sol\":1065:1073  profiles */\n      0x00\n        /* \"Advance Pattern/advance.sol\":1065:1086  profiles[userList[i]] */\n      dup1\n        /* \"Advance Pattern/advance.sol\":1074:1082  userList */\n      0x01\n        /* \"Advance Pattern/advance.sol\":1083:1084  i */\n      dup4\n        /* \"Advance Pattern/advance.sol\":1074:1085  userList[i] */\n      dup2\n      sload\n      dup2\n      lt\n      tag_62\n      jumpi\n      tag_63\n      tag_34\n      jump\t// in\n    tag_63:\n    tag_62:\n      swap1\n      0x00\n      mstore\n      keccak256(0x00, 0x20)\n      add\n      0x00\n      swap1\n      sload\n      swap1\n      0x0100\n      exp\n      swap1\n      div\n      0xffffffffffffffffffffffffffffffffffffffff\n      and\n        /* \"Advance Pattern/advance.sol\":1065:1086  profiles[userList[i]] */\n      0xffffffffffffffffffffffffffffffffffffffff\n      and\n      0xffffffffffffffffffffffffffffffffffffffff\n      and\n      dup2\n      mstore\n      0x20\n      add\n      swap1\n      dup2\n      mstore\n      0x20\n      add\n      0x00\n      keccak256\n        /* \"Advance Pattern/advance.sol\":1038:1086  activeUsers[activeCount] = profiles[userList[i]] */\n      mload(0x40)\n      dup1\n      0x60\n      add\n      0x40\n      mstore\n      swap1\n      dup2\n      0x00\n      dup3\n      add\n      dup1\n      sload\n      tag_65\n      swap1\n      tag_66\n      jump\t// in\n    tag_65:\n      dup1\n      0x1f\n      add\n      0x20\n      dup1\n      swap2\n      div\n      mul\n      0x20\n      add\n      mload(0x40)\n      swap1\n      dup2\n      add\n      0x40\n      mstore\n      dup1\n      swap3\n      swap2\n      swap1\n      dup2\n      dup2\n      mstore\n      0x20\n      add\n      dup3\n      dup1\n      sload\n      tag_67\n      swap1\n      tag_66\n      jump\t// in\n    tag_67:\n      dup1\n      iszero\n      tag_68\n      jumpi\n      dup1\n      0x1f\n      lt\n      tag_69\n      jumpi\n      0x0100\n      dup1\n      dup4\n      sload\n      div\n      mul\n      dup4\n      mstore\n      swap2\n      0x20\n      add\n      swap2\n      jump(tag_68)\n    tag_69:\n      dup3\n      add\n      swap2\n      swap1\n      0x00\n      mstore\n      keccak256(0x00, 0x20)\n      swap1\n    tag_70:\n      dup2\n      sload\n      dup2\n      mstore\n      swap1\n      0x01\n      add\n      swap1\n      0x20\n      add\n      dup1\n      dup4\n      gt\n      tag_70\n      jumpi\n      dup3\n      swap1\n      sub\n      0x1f\n      and\n      dup3\n      add\n      swap2\n    tag_68:\n      pop\n      pop\n      pop\n      pop\n      pop\n      dup2\n      mstore\n      0x20\n      add\n      0x01\n      dup3\n      add\n      sload\n      dup2\n      mstore\n      0x20\n      add\n      0x02\n      dup3\n      add\n      0x00\n      swap1\n      sload\n      swap1\n      0x0100\n      exp\n      swap1\n      div\n      0xff\n      and\n      iszero\n      iszero\n      iszero\n      iszero\n      dup2\n      mstore\n      pop\n      pop\n        /* \"Advance Pattern/advance.sol\":1038:1049  activeUsers */\n      dup4\n        /* \"Advance Pattern/advance.sol\":1050:1061  activeCount */\n      dup4\n        /* \"Advance Pattern/advance.sol\":1038:1062  activeUsers[activeCount] */\n      dup2\n      mload\n      dup2\n      lt\n      tag_71\n      jumpi\n      tag_72\n      tag_34\n      jump\t// in\n    tag_72:\n    tag_71:\n      0x20\n      mul\n      0x20\n      add\n      add\n        /* \"Advance Pattern/advance.sol\":1038:1086  activeUsers[activeCount] = profiles[userList[i]] */\n      dup2\n      swap1\n      mstore\n      pop\n        /* \"Advance Pattern/advance.sol\":1104:1117  activeCount++ */\n      dup2\n      dup1\n      tag_73\n      swap1\n      tag_74\n      jump\t// in\n    tag_73:\n      swap3\n      pop\n      pop\n        /* \"Advance Pattern/advance.sol\":986:1132  if (profiles[userList[i]].active) {... */\n    tag_61:\n        /* \"Advance Pattern/advance.sol\":967:970  i++ */\n      dup1\n      dup1\n      0x01\n      add\n      swap2\n      pop\n      pop\n        /* \"Advance Pattern/advance.sol\":926:1142  for (uint256 i = 0; i < userList.length; i++) {... */\n      jump(tag_55)\n    tag_56:\n      pop\n        /* \"Advance Pattern/advance.sol\":1186:1195  uint256 i */\n      0x00\n        /* \"Advance Pattern/advance.sol\":1181:1280  for (uint256 i = 0; i < activeCount; i++) {... */\n    tag_75:\n        /* \"Advance Pattern/advance.sol\":1205:1216  activeCount */\n      dup2\n        /* \"Advance Pattern/advance.sol\":1201:1202  i */\n      dup2\n        /* \"Advance Pattern/advance.sol\":1201:1216  i < activeCount */\n      lt\n        /* \"Advance Pattern/advance.sol\":1181:1280  for (uint256 i = 0; i < activeCount; i++) {... */\n      iszero\n      tag_76\n      jumpi\n        /* \"Advance Pattern/advance.sol\":1263:1269  amount */\n      dup4\n        /* \"Advance Pattern/advance.sol\":1237:1248  activeUsers */\n      dup4\n        /* \"Advance Pattern/advance.sol\":1249:1250  i */\n      dup3\n        /* \"Advance Pattern/advance.sol\":1237:1251  activeUsers[i] */\n      dup2\n      mload\n      dup2\n      lt\n      tag_78\n      jumpi\n      tag_79\n      tag_34\n      jump\t// in\n    tag_79:\n    tag_78:\n      0x20\n      mul\n      0x20\n      add\n      add\n      mload\n        /* \"Advance Pattern/advance.sol\":1237:1259  activeUsers[i].balance */\n      0x20\n      add\n        /* \"Advance Pattern/advance.sol\":1237:1269  activeUsers[i].balance += amount */\n      dup2\n      dup2\n      mload\n      tag_80\n      swap2\n      swap1\n      tag_81\n      jump\t// in\n    tag_80:\n      swap2\n      pop\n      dup2\n      dup2\n      mstore\n      pop\n      pop\n        /* \"Advance Pattern/advance.sol\":1218:1221  i++ */\n      dup1\n      dup1\n      0x01\n      add\n      swap2\n      pop\n      pop\n        /* \"Advance Pattern/advance.sol\":1181:1280  for (uint256 i = 0; i < activeCount; i++) {... */\n      jump(tag_75)\n    tag_76:\n      pop\n        /* \"Advance Pattern/advance.sol\":1336:1345  uint256 i */\n      0x00\n        /* \"Advance Pattern/advance.sol\":1331:1565  for (uint256 i = 0; i < activeCount; i++) {... */\n    tag_82:\n        /* \"Advance Pattern/advance.sol\":1355:1366  activeCount */\n      dup2\n        /* \"Advance Pattern/advance.sol\":1351:1352  i */\n      dup2\n        /* \"Advance Pattern/advance.sol\":1351:1366  i < activeCount */\n      lt\n        /* \"Advance Pattern/advance.sol\":1331:1565  for (uint256 i = 0; i < activeCount; i++) {... */\n      iszero\n      tag_83\n      jumpi\n        /* \"Advance Pattern/advance.sol\":1387:1406  address userAddress */\n      0x00\n        /* \"Advance Pattern/advance.sol\":1409:1417  userList */\n      0x01\n        /* \"Advance Pattern/advance.sol\":1418:1419  i */\n      dup3\n        /* \"Advance Pattern/advance.sol\":1409:1420  userList[i] */\n      dup2\n      sload\n      dup2\n      lt\n      tag_85\n      jumpi\n      tag_86\n      tag_34\n      jump\t// in\n    tag_86:\n    tag_85:\n      swap1\n      0x00\n      mstore\n      keccak256(0x00, 0x20)\n      add\n      0x00\n      swap1\n      sload\n      swap1\n      0x0100\n      exp\n      swap1\n      div\n      0xffffffffffffffffffffffffffffffffffffffff\n      and\n        /* \"Advance Pattern/advance.sol\":1387:1420  address userAddress = userList[i] */\n      swap1\n      pop\n        /* \"Advance Pattern/advance.sol\":1438:1446  profiles */\n      0x00\n        /* \"Advance Pattern/advance.sol\":1438:1459  profiles[userAddress] */\n      dup1\n        /* \"Advance Pattern/advance.sol\":1447:1458  userAddress */\n      dup3\n        /* \"Advance Pattern/advance.sol\":1438:1459  profiles[userAddress] */\n      0xffffffffffffffffffffffffffffffffffffffff\n      and\n      0xffffffffffffffffffffffffffffffffffffffff\n      and\n      dup2\n      mstore\n      0x20\n      add\n      swap1\n      dup2\n      mstore\n      0x20\n      add\n      0x00\n      keccak256\n        /* \"Advance Pattern/advance.sol\":1438:1466  profiles[userAddress].active */\n      0x02\n      add\n      0x00\n      swap1\n      sload\n      swap1\n      0x0100\n      exp\n      swap1\n      div\n      0xff\n      and\n        /* \"Advance Pattern/advance.sol\":1434:1555  if (profiles[userAddress].active) {... */\n      iszero\n      tag_88\n      jumpi\n        /* \"Advance Pattern/advance.sol\":1518:1529  activeUsers */\n      dup4\n        /* \"Advance Pattern/advance.sol\":1530:1531  i */\n      dup3\n        /* \"Advance Pattern/advance.sol\":1518:1532  activeUsers[i] */\n      dup2\n      mload\n      dup2\n      lt\n      tag_89\n      jumpi\n      tag_90\n      tag_34\n      jump\t// in\n    tag_90:\n    tag_89:\n      0x20\n      mul\n      0x20\n      add\n      add\n      mload\n        /* \"Advance Pattern/advance.sol\":1518:1540  activeUsers[i].balance */\n      0x20\n      add\n      mload\n        /* \"Advance Pattern/advance.sol\":1486:1494  profiles */\n      0x00\n        /* \"Advance Pattern/advance.sol\":1486:1507  profiles[userAddress] */\n      dup1\n        /* \"Advance Pattern/advance.sol\":1495:1506  userAddress */\n      dup4\n        /* \"Advance Pattern/advance.sol\":1486:1507  profiles[userAddress] */\n      0xffffffffffffffffffffffffffffffffffffffff\n      and\n      0xffffffffffffffffffffffffffffffffffffffff\n      and\n      dup2\n      mstore\n      0x20\n      add\n      swap1\n      dup2\n      mstore\n      0x20\n      add\n      0x00\n      keccak256\n        /* \"Advance Pattern/advance.sol\":1486:1515  profiles[userAddress].balance */\n      0x01\n      add\n        /* \"Advance Pattern/advance.sol\":1486:1540  profiles[userAddress].balance = activeUsers[i].balance */\n      dup2\n      swap1\n      sstore\n      pop\n        /* \"Advance Pattern/advance.sol\":1434:1555  if (profiles[userAddress].active) {... */\n    tag_88:\n        /* \"Advance Pattern/advance.sol\":1373:1565  {... */\n      pop\n        /* \"Advance Pattern/advance.sol\":1368:1371  i++ */\n      dup1\n      dup1\n      0x01\n      add\n      swap2\n      pop\n      pop\n        /* \"Advance Pattern/advance.sol\":1331:1565  for (uint256 i = 0; i < activeCount; i++) {... */\n      jump(tag_82)\n    tag_83:\n      pop\n        /* \"Advance Pattern/advance.sol\":754:1571  {... */\n      pop\n      pop\n        /* \"Advance Pattern/advance.sol\":706:1571  function updateBalance(uint256 amount) external {... */\n      pop\n      jump\t// out\n        /* \"Advance Pattern/advance.sol\":2400:2665  function processLargeArray(uint256[] calldata data)... */\n    tag_18:\n        /* \"Advance Pattern/advance.sol\":2499:2506  uint256 */\n      0x00\n        /* \"Advance Pattern/advance.sol\":2522:2536  uint256 result */\n      dup1\n        /* \"Advance Pattern/advance.sol\":2539:2540  0 */\n      0x00\n        /* \"Advance Pattern/advance.sol\":2522:2540  uint256 result = 0 */\n      swap1\n      pop\n        /* \"Advance Pattern/advance.sol\":2556:2565  uint256 i */\n      0x00\n        /* \"Advance Pattern/advance.sol\":2551:2635  for (uint256 i = 0; i < data.length; i++) {... */\n    tag_92:\n        /* \"Advance Pattern/advance.sol\":2575:2579  data */\n      dup5\n      dup5\n        /* \"Advance Pattern/advance.sol\":2575:2586  data.length */\n      swap1\n      pop\n        /* \"Advance Pattern/advance.sol\":2571:2572  i */\n      dup2\n        /* \"Advance Pattern/advance.sol\":2571:2586  i < data.length */\n      lt\n        /* \"Advance Pattern/advance.sol\":2551:2635  for (uint256 i = 0; i < data.length; i++) {... */\n      iszero\n      tag_93\n      jumpi\n        /* \"Advance Pattern/advance.sol\":2617:2621  data */\n      dup5\n      dup5\n        /* \"Advance Pattern/advance.sol\":2622:2623  i */\n      dup3\n        /* \"Advance Pattern/advance.sol\":2617:2624  data[i] */\n      dup2\n      dup2\n      lt\n      tag_95\n      jumpi\n      tag_96\n      tag_34\n      jump\t// in\n    tag_96:\n    tag_95:\n      swap1\n      pop\n      0x20\n      mul\n      add\n      calldataload\n        /* \"Advance Pattern/advance.sol\":2607:2624  result += data[i] */\n      dup3\n      tag_97\n      swap2\n      swap1\n      tag_81\n      jump\t// in\n    tag_97:\n      swap2\n      pop\n        /* \"Advance Pattern/advance.sol\":2588:2591  i++ */\n      dup1\n      dup1\n      0x01\n      add\n      swap2\n      pop\n      pop\n        /* \"Advance Pattern/advance.sol\":2551:2635  for (uint256 i = 0; i < data.length; i++) {... */\n      jump(tag_92)\n    tag_93:\n      pop\n        /* \"Advance Pattern/advance.sol\":2652:2658  result */\n      dup1\n        /* \"Advance Pattern/advance.sol\":2645:2658  return result */\n      swap2\n      pop\n      pop\n        /* \"Advance Pattern/advance.sol\":2400:2665  function processLargeArray(uint256[] calldata data)... */\n      swap3\n      swap2\n      pop\n      pop\n      jump\t// out\n        /* \"Advance Pattern/advance.sol\":1577:2394  function getActiveUsers()... */\n    tag_22:\n        /* \"Advance Pattern/advance.sol\":1650:1666  address[] memory */\n      0x60\n        /* \"Advance Pattern/advance.sol\":1668:1683  string[] memory */\n      dup1\n        /* \"Advance Pattern/advance.sol\":1699:1718  uint256 activeCount */\n      0x00\n        /* \"Advance Pattern/advance.sol\":1737:1746  uint256 i */\n      dup1\n        /* \"Advance Pattern/advance.sol\":1732:1882  for (uint256 i = 0; i < userList.length; i++) {... */\n    tag_99:\n        /* \"Advance Pattern/advance.sol\":1756:1764  userList */\n      0x01\n        /* \"Advance Pattern/advance.sol\":1756:1771  userList.length */\n      dup1\n      sload\n      swap1\n      pop\n        /* \"Advance Pattern/advance.sol\":1752:1753  i */\n      dup2\n        /* \"Advance Pattern/advance.sol\":1752:1771  i < userList.length */\n      lt\n        /* \"Advance Pattern/advance.sol\":1732:1882  for (uint256 i = 0; i < userList.length; i++) {... */\n      iszero\n      tag_100\n      jumpi\n        /* \"Advance Pattern/advance.sol\":1796:1804  profiles */\n      0x00\n        /* \"Advance Pattern/advance.sol\":1796:1817  profiles[userList[i]] */\n      dup1\n        /* \"Advance Pattern/advance.sol\":1805:1813  userList */\n      0x01\n        /* \"Advance Pattern/advance.sol\":1814:1815  i */\n      dup4\n        /* \"Advance Pattern/advance.sol\":1805:1816  userList[i] */\n      dup2\n      sload\n      dup2\n      lt\n      tag_102\n      jumpi\n      tag_103\n      tag_34\n      jump\t// in\n    tag_103:\n    tag_102:\n      swap1\n      0x00\n      mstore\n      keccak256(0x00, 0x20)\n      add\n      0x00\n      swap1\n      sload\n      swap1\n      0x0100\n      exp\n      swap1\n      div\n      0xffffffffffffffffffffffffffffffffffffffff\n      and\n        /* \"Advance Pattern/advance.sol\":1796:1817  profiles[userList[i]] */\n      0xffffffffffffffffffffffffffffffffffffffff\n      and\n      0xffffffffffffffffffffffffffffffffffffffff\n      and\n      dup2\n      mstore\n      0x20\n      add\n      swap1\n      dup2\n      mstore\n      0x20\n      add\n      0x00\n      keccak256\n        /* \"Advance Pattern/advance.sol\":1796:1824  profiles[userList[i]].active */\n      0x02\n      add\n      0x00\n      swap1\n      sload\n      swap1\n      0x0100\n      exp\n      swap1\n      div\n      0xff\n      and\n        /* \"Advance Pattern/advance.sol\":1792:1872  if (profiles[userList[i]].active) {... */\n      iszero\n      tag_105\n      jumpi\n        /* \"Advance Pattern/advance.sol\":1844:1857  activeCount++ */\n      dup2\n      dup1\n      tag_106\n      swap1\n      tag_74\n      jump\t// in\n    tag_106:\n      swap3\n      pop\n      pop\n        /* \"Advance Pattern/advance.sol\":1792:1872  if (profiles[userList[i]].active) {... */\n    tag_105:\n        /* \"Advance Pattern/advance.sol\":1773:1776  i++ */\n      dup1\n      dup1\n      0x01\n      add\n      swap2\n      pop\n      pop\n        /* \"Advance Pattern/advance.sol\":1732:1882  for (uint256 i = 0; i < userList.length; i++) {... */\n      jump(tag_99)\n    tag_100:\n      pop\n        /* \"Advance Pattern/advance.sol\":1892:1922  address[] memory activeAddress */\n      0x00\n        /* \"Advance Pattern/advance.sol\":1939:1950  activeCount */\n      dup2\n        /* \"Advance Pattern/advance.sol\":1925:1951  new address[](activeCount) */\n      0xffffffffffffffff\n      dup2\n      gt\n      iszero\n      tag_107\n      jumpi\n      tag_108\n      tag_50\n      jump\t// in\n    tag_108:\n    tag_107:\n      mload(0x40)\n      swap1\n      dup1\n      dup3\n      mstore\n      dup1\n      0x20\n      mul\n      0x20\n      add\n      dup3\n      add\n      0x40\n      mstore\n      dup1\n      iszero\n      tag_109\n      jumpi\n      dup2\n      0x20\n      add\n      0x20\n      dup3\n      mul\n      dup1\n      calldatasize\n      dup4\n      calldatacopy\n      dup1\n      dup3\n      add\n      swap2\n      pop\n      pop\n      swap1\n      pop\n    tag_109:\n      pop\n        /* \"Advance Pattern/advance.sol\":1892:1951  address[] memory activeAddress = new address[](activeCount) */\n      swap1\n      pop\n        /* \"Advance Pattern/advance.sol\":1961:1988  string[] memory activeNames */\n      0x00\n        /* \"Advance Pattern/advance.sol\":2004:2015  activeCount */\n      dup3\n        /* \"Advance Pattern/advance.sol\":1991:2016  new string[](activeCount) */\n      0xffffffffffffffff\n      dup2\n      gt\n      iszero\n      tag_110\n      jumpi\n      tag_111\n      tag_50\n      jump\t// in\n    tag_111:\n    tag_110:\n      mload(0x40)\n      swap1\n      dup1\n      dup3\n      mstore\n      dup1\n      0x20\n      mul\n      0x20\n      add\n      dup3\n      add\n      0x40\n      mstore\n      dup1\n      iszero\n      tag_112\n      jumpi\n      dup2\n      0x20\n      add\n    tag_113:\n      0x60\n      dup2\n      mstore\n      0x20\n      add\n      swap1\n      0x01\n      swap1\n      sub\n      swap1\n      dup2\n      tag_113\n      jumpi\n      swap1\n      pop\n    tag_112:\n      pop\n        /* \"Advance Pattern/advance.sol\":1961:2016  string[] memory activeNames = new string[](activeCount) */\n      swap1\n      pop\n        /* \"Advance Pattern/advance.sol\":2027:2047  uint256 currentIndex */\n      0x00\n        /* \"Advance Pattern/advance.sol\":2066:2075  uint256 i */\n      dup1\n        /* \"Advance Pattern/advance.sol\":2061:2343  for (uint256 i = 0; i < userList.length; i++) {... */\n    tag_114:\n        /* \"Advance Pattern/advance.sol\":2085:2093  userList */\n      0x01\n        /* \"Advance Pattern/advance.sol\":2085:2100  userList.length */\n      dup1\n      sload\n      swap1\n      pop\n        /* \"Advance Pattern/advance.sol\":2081:2082  i */\n      dup2\n        /* \"Advance Pattern/advance.sol\":2081:2100  i < userList.length */\n      lt\n        /* \"Advance Pattern/advance.sol\":2061:2343  for (uint256 i = 0; i < userList.length; i++) {... */\n      iszero\n      tag_115\n      jumpi\n        /* \"Advance Pattern/advance.sol\":2125:2133  profiles */\n      0x00\n        /* \"Advance Pattern/advance.sol\":2125:2146  profiles[userList[i]] */\n      dup1\n        /* \"Advance Pattern/advance.sol\":2134:2142  userList */\n      0x01\n        /* \"Advance Pattern/advance.sol\":2143:2144  i */\n      dup4\n        /* \"Advance Pattern/advance.sol\":2134:2145  userList[i] */\n      dup2\n      sload\n      dup2\n      lt\n      tag_117\n      jumpi\n      tag_118\n      tag_34\n      jump\t// in\n    tag_118:\n    tag_117:\n      swap1\n      0x00\n      mstore\n      keccak256(0x00, 0x20)\n      add\n      0x00\n      swap1\n      sload\n      swap1\n      0x0100\n      exp\n      swap1\n      div\n      0xffffffffffffffffffffffffffffffffffffffff\n      and\n        /* \"Advance Pattern/advance.sol\":2125:2146  profiles[userList[i]] */\n      0xffffffffffffffffffffffffffffffffffffffff\n      and\n      0xffffffffffffffffffffffffffffffffffffffff\n      and\n      dup2\n      mstore\n      0x20\n      add\n      swap1\n      dup2\n      mstore\n      0x20\n      add\n      0x00\n      keccak256\n        /* \"Advance Pattern/advance.sol\":2125:2153  profiles[userList[i]].active */\n      0x02\n      add\n      0x00\n      swap1\n      sload\n      swap1\n      0x0100\n      exp\n      swap1\n      div\n      0xff\n      and\n        /* \"Advance Pattern/advance.sol\":2121:2333  if (profiles[userList[i]].active) {... */\n      iszero\n      tag_120\n      jumpi\n        /* \"Advance Pattern/advance.sol\":2203:2211  userList */\n      0x01\n        /* \"Advance Pattern/advance.sol\":2212:2213  i */\n      dup2\n        /* \"Advance Pattern/advance.sol\":2203:2214  userList[i] */\n      dup2\n      sload\n      dup2\n      lt\n      tag_121\n      jumpi\n      tag_122\n      tag_34\n      jump\t// in\n    tag_122:\n    tag_121:\n      swap1\n      0x00\n      mstore\n      keccak256(0x00, 0x20)\n      add\n      0x00\n      swap1\n      sload\n      swap1\n      0x0100\n      exp\n      swap1\n      div\n      0xffffffffffffffffffffffffffffffffffffffff\n      and\n        /* \"Advance Pattern/advance.sol\":2173:2186  activeAddress */\n      dup5\n        /* \"Advance Pattern/advance.sol\":2187:2199  currentIndex */\n      dup4\n        /* \"Advance Pattern/advance.sol\":2173:2200  activeAddress[currentIndex] */\n      dup2\n      mload\n      dup2\n      lt\n      tag_124\n      jumpi\n      tag_125\n      tag_34\n      jump\t// in\n    tag_125:\n    tag_124:\n      0x20\n      mul\n      0x20\n      add\n      add\n        /* \"Advance Pattern/advance.sol\":2173:2214  activeAddress[currentIndex] = userList[i] */\n      swap1\n      0xffffffffffffffffffffffffffffffffffffffff\n      and\n      swap1\n      dup2\n      0xffffffffffffffffffffffffffffffffffffffff\n      and\n      dup2\n      mstore\n      pop\n      pop\n        /* \"Advance Pattern/advance.sol\":2260:2268  profiles */\n      0x00\n        /* \"Advance Pattern/advance.sol\":2260:2281  profiles[userList[i]] */\n      dup1\n        /* \"Advance Pattern/advance.sol\":2269:2277  userList */\n      0x01\n        /* \"Advance Pattern/advance.sol\":2278:2279  i */\n      dup4\n        /* \"Advance Pattern/advance.sol\":2269:2280  userList[i] */\n      dup2\n      sload\n      dup2\n      lt\n      tag_126\n      jumpi\n      tag_127\n      tag_34\n      jump\t// in\n    tag_127:\n    tag_126:\n      swap1\n      0x00\n      mstore\n      keccak256(0x00, 0x20)\n      add\n      0x00\n      swap1\n      sload\n      swap1\n      0x0100\n      exp\n      swap1\n      div\n      0xffffffffffffffffffffffffffffffffffffffff\n      and\n        /* \"Advance Pattern/advance.sol\":2260:2281  profiles[userList[i]] */\n      0xffffffffffffffffffffffffffffffffffffffff\n      and\n      0xffffffffffffffffffffffffffffffffffffffff\n      and\n      dup2\n      mstore\n      0x20\n      add\n      swap1\n      dup2\n      mstore\n      0x20\n      add\n      0x00\n      keccak256\n        /* \"Advance Pattern/advance.sol\":2260:2286  profiles[userList[i]].name */\n      0x00\n      add\n        /* \"Advance Pattern/advance.sol\":2232:2286  activeNames[currentIndex] = profiles[userList[i]].name */\n      dup1\n      sload\n      tag_129\n      swap1\n      tag_66\n      jump\t// in\n    tag_129:\n      dup1\n      0x1f\n      add\n      0x20\n      dup1\n      swap2\n      div\n      mul\n      0x20\n      add\n      mload(0x40)\n      swap1\n      dup2\n      add\n      0x40\n      mstore\n      dup1\n      swap3\n      swap2\n      swap1\n      dup2\n      dup2\n      mstore\n      0x20\n      add\n      dup3\n      dup1\n      sload\n      tag_130\n      swap1\n      tag_66\n      jump\t// in\n    tag_130:\n      dup1\n      iszero\n      tag_131\n      jumpi\n      dup1\n      0x1f\n      lt\n      tag_132\n      jumpi\n      0x0100\n      dup1\n      dup4\n      sload\n      div\n      mul\n      dup4\n      mstore\n      swap2\n      0x20\n      add\n      swap2\n      jump(tag_131)\n    tag_132:\n      dup3\n      add\n      swap2\n      swap1\n      0x00\n      mstore\n      keccak256(0x00, 0x20)\n      swap1\n    tag_133:\n      dup2\n      sload\n      dup2\n      mstore\n      swap1\n      0x01\n      add\n      swap1\n      0x20\n      add\n      dup1\n      dup4\n      gt\n      tag_133\n      jumpi\n      dup3\n      swap1\n      sub\n      0x1f\n      and\n      dup3\n      add\n      swap2\n    tag_131:\n      pop\n      pop\n      pop\n      pop\n      pop\n        /* \"Advance Pattern/advance.sol\":2232:2243  activeNames */\n      dup4\n        /* \"Advance Pattern/advance.sol\":2244:2256  currentIndex */\n      dup4\n        /* \"Advance Pattern/advance.sol\":2232:2257  activeNames[currentIndex] */\n      dup2\n      mload\n      dup2\n      lt\n      tag_134\n      jumpi\n      tag_135\n      tag_34\n      jump\t// in\n    tag_135:\n    tag_134:\n      0x20\n      mul\n      0x20\n      add\n      add\n        /* \"Advance Pattern/advance.sol\":2232:2286  activeNames[currentIndex] = profiles[userList[i]].name */\n      dup2\n      swap1\n      mstore\n      pop\n        /* \"Advance Pattern/advance.sol\":2304:2318  currentIndex++ */\n      dup2\n      dup1\n      tag_136\n      swap1\n      tag_74\n      jump\t// in\n    tag_136:\n      swap3\n      pop\n      pop\n        /* \"Advance Pattern/advance.sol\":2121:2333  if (profiles[userList[i]].active) {... */\n    tag_120:\n        /* \"Advance Pattern/advance.sol\":2102:2105  i++ */\n      dup1\n      dup1\n      0x01\n      add\n      swap2\n      pop\n      pop\n        /* \"Advance Pattern/advance.sol\":2061:2343  for (uint256 i = 0; i < userList.length; i++) {... */\n      jump(tag_114)\n    tag_115:\n      pop\n        /* \"Advance Pattern/advance.sol\":2360:2373  activeAddress */\n      dup3\n        /* \"Advance Pattern/advance.sol\":2375:2386  activeNames */\n      dup3\n        /* \"Advance Pattern/advance.sol\":2352:2387  return (activeAddress, activeNames) */\n      swap6\n      pop\n      swap6\n      pop\n      pop\n      pop\n      pop\n      pop\n        /* \"Advance Pattern/advance.sol\":1577:2394  function getActiveUsers()... */\n      swap1\n      swap2\n      jump\t// out\n    tag_54:\n      mload(0x40)\n      dup1\n      0x60\n      add\n      0x40\n      mstore\n      dup1\n      0x60\n      dup2\n      mstore\n      0x20\n      add\n      0x00\n      dup2\n      mstore\n      0x20\n      add\n      iszero(iszero(0x00))\n      dup2\n      mstore\n      pop\n      swap1\n      jump\t// out\n        /* \"#utility.yul\":88:205   */\n    tag_138:\n        /* \"#utility.yul\":197:198   */\n      0x00\n        /* \"#utility.yul\":194:195   */\n      dup1\n        /* \"#utility.yul\":187:199   */\n      revert\n        /* \"#utility.yul\":211:328   */\n    tag_139:\n        /* \"#utility.yul\":320:321   */\n      0x00\n        /* \"#utility.yul\":317:318   */\n      dup1\n        /* \"#utility.yul\":310:322   */\n      revert\n        /* \"#utility.yul\":334:451   */\n    tag_140:\n        /* \"#utility.yul\":443:444   */\n      0x00\n        /* \"#utility.yul\":440:441   */\n      dup1\n        /* \"#utility.yul\":433:445   */\n      revert\n        /* \"#utility.yul\":457:574   */\n    tag_141:\n        /* \"#utility.yul\":566:567   */\n      0x00\n        /* \"#utility.yul\":563:564   */\n      dup1\n        /* \"#utility.yul\":556:568   */\n      revert\n        /* \"#utility.yul\":580:697   */\n    tag_142:\n        /* \"#utility.yul\":689:690   */\n      0x00\n        /* \"#utility.yul\":686:687   */\n      dup1\n        /* \"#utility.yul\":679:691   */\n      revert\n        /* \"#utility.yul\":720:1288   */\n    tag_143:\n        /* \"#utility.yul\":793:801   */\n      0x00\n        /* \"#utility.yul\":803:809   */\n      dup1\n        /* \"#utility.yul\":853:856   */\n      dup4\n        /* \"#utility.yul\":846:850   */\n      0x1f\n        /* \"#utility.yul\":838:844   */\n      dup5\n        /* \"#utility.yul\":834:851   */\n      add\n        /* \"#utility.yul\":830:857   */\n      slt\n        /* \"#utility.yul\":820:942   */\n      tag_203\n      jumpi\n        /* \"#utility.yul\":861:940   */\n      tag_204\n      tag_140\n      jump\t// in\n    tag_204:\n        /* \"#utility.yul\":820:942   */\n    tag_203:\n        /* \"#utility.yul\":974:980   */\n      dup3\n        /* \"#utility.yul\":961:981   */\n      calldataload\n        /* \"#utility.yul\":951:981   */\n      swap1\n      pop\n        /* \"#utility.yul\":1004:1022   */\n      0xffffffffffffffff\n        /* \"#utility.yul\":996:1002   */\n      dup2\n        /* \"#utility.yul\":993:1023   */\n      gt\n        /* \"#utility.yul\":990:1107   */\n      iszero\n      tag_205\n      jumpi\n        /* \"#utility.yul\":1026:1105   */\n      tag_206\n      tag_141\n      jump\t// in\n    tag_206:\n        /* \"#utility.yul\":990:1107   */\n    tag_205:\n        /* \"#utility.yul\":1140:1144   */\n      0x20\n        /* \"#utility.yul\":1132:1138   */\n      dup4\n        /* \"#utility.yul\":1128:1145   */\n      add\n        /* \"#utility.yul\":1116:1145   */\n      swap2\n      pop\n        /* \"#utility.yul\":1194:1197   */\n      dup4\n        /* \"#utility.yul\":1186:1190   */\n      0x20\n        /* \"#utility.yul\":1178:1184   */\n      dup3\n        /* \"#utility.yul\":1174:1191   */\n      mul\n        /* \"#utility.yul\":1164:1172   */\n      dup4\n        /* \"#utility.yul\":1160:1192   */\n      add\n        /* \"#utility.yul\":1157:1198   */\n      gt\n        /* \"#utility.yul\":1154:1282   */\n      iszero\n      tag_207\n      jumpi\n        /* \"#utility.yul\":1201:1280   */\n      tag_208\n      tag_142\n      jump\t// in\n    tag_208:\n        /* \"#utility.yul\":1154:1282   */\n    tag_207:\n        /* \"#utility.yul\":720:1288   */\n      swap3\n      pop\n      swap3\n      swap1\n      pop\n      jump\t// out\n        /* \"#utility.yul\":1310:1890   */\n    tag_144:\n        /* \"#utility.yul\":1395:1403   */\n      0x00\n        /* \"#utility.yul\":1405:1411   */\n      dup1\n        /* \"#utility.yul\":1455:1458   */\n      dup4\n        /* \"#utility.yul\":1448:1452   */\n      0x1f\n        /* \"#utility.yul\":1440:1446   */\n      dup5\n        /* \"#utility.yul\":1436:1453   */\n      add\n        /* \"#utility.yul\":1432:1459   */\n      slt\n        /* \"#utility.yul\":1422:1544   */\n      tag_210\n      jumpi\n        /* \"#utility.yul\":1463:1542   */\n      tag_211\n      tag_140\n      jump\t// in\n    tag_211:\n        /* \"#utility.yul\":1422:1544   */\n    tag_210:\n        /* \"#utility.yul\":1576:1582   */\n      dup3\n        /* \"#utility.yul\":1563:1583   */\n      calldataload\n        /* \"#utility.yul\":1553:1583   */\n      swap1\n      pop\n        /* \"#utility.yul\":1606:1624   */\n      0xffffffffffffffff\n        /* \"#utility.yul\":1598:1604   */\n      dup2\n        /* \"#utility.yul\":1595:1625   */\n      gt\n        /* \"#utility.yul\":1592:1709   */\n      iszero\n      tag_212\n      jumpi\n        /* \"#utility.yul\":1628:1707   */\n      tag_213\n      tag_141\n      jump\t// in\n    tag_213:\n        /* \"#utility.yul\":1592:1709   */\n    tag_212:\n        /* \"#utility.yul\":1742:1746   */\n      0x20\n        /* \"#utility.yul\":1734:1740   */\n      dup4\n        /* \"#utility.yul\":1730:1747   */\n      add\n        /* \"#utility.yul\":1718:1747   */\n      swap2\n      pop\n        /* \"#utility.yul\":1796:1799   */\n      dup4\n        /* \"#utility.yul\":1788:1792   */\n      0x20\n        /* \"#utility.yul\":1780:1786   */\n      dup3\n        /* \"#utility.yul\":1776:1793   */\n      mul\n        /* \"#utility.yul\":1766:1774   */\n      dup4\n        /* \"#utility.yul\":1762:1794   */\n      add\n        /* \"#utility.yul\":1759:1800   */\n      gt\n        /* \"#utility.yul\":1756:1884   */\n      iszero\n      tag_214\n      jumpi\n        /* \"#utility.yul\":1803:1882   */\n      tag_215\n      tag_142\n      jump\t// in\n    tag_215:\n        /* \"#utility.yul\":1756:1884   */\n    tag_214:\n        /* \"#utility.yul\":1310:1890   */\n      swap3\n      pop\n      swap3\n      swap1\n      pop\n      jump\t// out\n        /* \"#utility.yul\":1896:2854   */\n    tag_9:\n        /* \"#utility.yul\":2030:2036   */\n      0x00\n        /* \"#utility.yul\":2038:2044   */\n      dup1\n        /* \"#utility.yul\":2046:2052   */\n      0x00\n        /* \"#utility.yul\":2054:2060   */\n      dup1\n        /* \"#utility.yul\":2103:2105   */\n      0x40\n        /* \"#utility.yul\":2091:2100   */\n      dup6\n        /* \"#utility.yul\":2082:2089   */\n      dup8\n        /* \"#utility.yul\":2078:2101   */\n      sub\n        /* \"#utility.yul\":2074:2106   */\n      slt\n        /* \"#utility.yul\":2071:2190   */\n      iszero\n      tag_217\n      jumpi\n        /* \"#utility.yul\":2109:2188   */\n      tag_218\n      tag_138\n      jump\t// in\n    tag_218:\n        /* \"#utility.yul\":2071:2190   */\n    tag_217:\n        /* \"#utility.yul\":2257:2258   */\n      0x00\n        /* \"#utility.yul\":2246:2255   */\n      dup6\n        /* \"#utility.yul\":2242:2259   */\n      add\n        /* \"#utility.yul\":2229:2260   */\n      calldataload\n        /* \"#utility.yul\":2287:2305   */\n      0xffffffffffffffff\n        /* \"#utility.yul\":2279:2285   */\n      dup2\n        /* \"#utility.yul\":2276:2306   */\n      gt\n        /* \"#utility.yul\":2273:2390   */\n      iszero\n      tag_219\n      jumpi\n        /* \"#utility.yul\":2309:2388   */\n      tag_220\n      tag_139\n      jump\t// in\n    tag_220:\n        /* \"#utility.yul\":2273:2390   */\n    tag_219:\n        /* \"#utility.yul\":2422:2502   */\n      tag_221\n        /* \"#utility.yul\":2494:2501   */\n      dup8\n        /* \"#utility.yul\":2485:2491   */\n      dup3\n        /* \"#utility.yul\":2474:2483   */\n      dup9\n        /* \"#utility.yul\":2470:2492   */\n      add\n        /* \"#utility.yul\":2422:2502   */\n      tag_143\n      jump\t// in\n    tag_221:\n        /* \"#utility.yul\":2404:2502   */\n      swap5\n      pop\n      swap5\n      pop\n        /* \"#utility.yul\":2200:2512   */\n      pop\n        /* \"#utility.yul\":2579:2581   */\n      0x20\n        /* \"#utility.yul\":2568:2577   */\n      dup6\n        /* \"#utility.yul\":2564:2582   */\n      add\n        /* \"#utility.yul\":2551:2583   */\n      calldataload\n        /* \"#utility.yul\":2610:2628   */\n      0xffffffffffffffff\n        /* \"#utility.yul\":2602:2608   */\n      dup2\n        /* \"#utility.yul\":2599:2629   */\n      gt\n        /* \"#utility.yul\":2596:2713   */\n      iszero\n      tag_222\n      jumpi\n        /* \"#utility.yul\":2632:2711   */\n      tag_223\n      tag_139\n      jump\t// in\n    tag_223:\n        /* \"#utility.yul\":2596:2713   */\n    tag_222:\n        /* \"#utility.yul\":2745:2837   */\n      tag_224\n        /* \"#utility.yul\":2829:2836   */\n      dup8\n        /* \"#utility.yul\":2820:2826   */\n      dup3\n        /* \"#utility.yul\":2809:2818   */\n      dup9\n        /* \"#utility.yul\":2805:2827   */\n      add\n        /* \"#utility.yul\":2745:2837   */\n      tag_144\n      jump\t// in\n    tag_224:\n        /* \"#utility.yul\":2727:2837   */\n      swap3\n      pop\n      swap3\n      pop\n        /* \"#utility.yul\":2522:2847   */\n      pop\n        /* \"#utility.yul\":1896:2854   */\n      swap3\n      swap6\n      swap2\n      swap5\n      pop\n      swap3\n      pop\n      jump\t// out\n        /* \"#utility.yul\":2860:2937   */\n    tag_145:\n        /* \"#utility.yul\":2897:2904   */\n      0x00\n        /* \"#utility.yul\":2926:2931   */\n      dup2\n        /* \"#utility.yul\":2915:2931   */\n      swap1\n      pop\n        /* \"#utility.yul\":2860:2937   */\n      swap2\n      swap1\n      pop\n      jump\t// out\n        /* \"#utility.yul\":2943:3065   */\n    tag_146:\n        /* \"#utility.yul\":3016:3040   */\n      tag_227\n        /* \"#utility.yul\":3034:3039   */\n      dup2\n        /* \"#utility.yul\":3016:3040   */\n      tag_145\n      jump\t// in\n    tag_227:\n        /* \"#utility.yul\":3009:3014   */\n      dup2\n        /* \"#utility.yul\":3006:3041   */\n      eq\n        /* \"#utility.yul\":2996:3059   */\n      tag_228\n      jumpi\n        /* \"#utility.yul\":3055:3056   */\n      0x00\n        /* \"#utility.yul\":3052:3053   */\n      dup1\n        /* \"#utility.yul\":3045:3057   */\n      revert\n        /* \"#utility.yul\":2996:3059   */\n    tag_228:\n        /* \"#utility.yul\":2943:3065   */\n      pop\n      jump\t// out\n        /* \"#utility.yul\":3071:3210   */\n    tag_147:\n        /* \"#utility.yul\":3117:3122   */\n      0x00\n        /* \"#utility.yul\":3155:3161   */\n      dup2\n        /* \"#utility.yul\":3142:3162   */\n      calldataload\n        /* \"#utility.yul\":3133:3162   */\n      swap1\n      pop\n        /* \"#utility.yul\":3171:3204   */\n      tag_230\n        /* \"#utility.yul\":3198:3203   */\n      dup2\n        /* \"#utility.yul\":3171:3204   */\n      tag_146\n      jump\t// in\n    tag_230:\n        /* \"#utility.yul\":3071:3210   */\n      swap3\n      swap2\n      pop\n      pop\n      jump\t// out\n        /* \"#utility.yul\":3216:3545   */\n    tag_13:\n        /* \"#utility.yul\":3275:3281   */\n      0x00\n        /* \"#utility.yul\":3324:3326   */\n      0x20\n        /* \"#utility.yul\":3312:3321   */\n      dup3\n        /* \"#utility.yul\":3303:3310   */\n      dup5\n        /* \"#utility.yul\":3299:3322   */\n      sub\n        /* \"#utility.yul\":3295:3327   */\n      slt\n        /* \"#utility.yul\":3292:3411   */\n      iszero\n      tag_232\n      jumpi\n        /* \"#utility.yul\":3330:3409   */\n      tag_233\n      tag_138\n      jump\t// in\n    tag_233:\n        /* \"#utility.yul\":3292:3411   */\n    tag_232:\n        /* \"#utility.yul\":3450:3451   */\n      0x00\n        /* \"#utility.yul\":3475:3528   */\n      tag_234\n        /* \"#utility.yul\":3520:3527   */\n      dup5\n        /* \"#utility.yul\":3511:3517   */\n      dup3\n        /* \"#utility.yul\":3500:3509   */\n      dup6\n        /* \"#utility.yul\":3496:3518   */\n      add\n        /* \"#utility.yul\":3475:3528   */\n      tag_147\n      jump\t// in\n    tag_234:\n        /* \"#utility.yul\":3465:3528   */\n      swap2\n      pop\n        /* \"#utility.yul\":3421:3538   */\n      pop\n        /* \"#utility.yul\":3216:3545   */\n      swap3\n      swap2\n      pop\n      pop\n      jump\t// out\n        /* \"#utility.yul\":3568:4136   */\n    tag_148:\n        /* \"#utility.yul\":3641:3649   */\n      0x00\n        /* \"#utility.yul\":3651:3657   */\n      dup1\n        /* \"#utility.yul\":3701:3704   */\n      dup4\n        /* \"#utility.yul\":3694:3698   */\n      0x1f\n        /* \"#utility.yul\":3686:3692   */\n      dup5\n        /* \"#utility.yul\":3682:3699   */\n      add\n        /* \"#utility.yul\":3678:3705   */\n      slt\n        /* \"#utility.yul\":3668:3790   */\n      tag_236\n      jumpi\n        /* \"#utility.yul\":3709:3788   */\n      tag_237\n      tag_140\n      jump\t// in\n    tag_237:\n        /* \"#utility.yul\":3668:3790   */\n    tag_236:\n        /* \"#utility.yul\":3822:3828   */\n      dup3\n        /* \"#utility.yul\":3809:3829   */\n      calldataload\n        /* \"#utility.yul\":3799:3829   */\n      swap1\n      pop\n        /* \"#utility.yul\":3852:3870   */\n      0xffffffffffffffff\n        /* \"#utility.yul\":3844:3850   */\n      dup2\n        /* \"#utility.yul\":3841:3871   */\n      gt\n        /* \"#utility.yul\":3838:3955   */\n      iszero\n      tag_238\n      jumpi\n        /* \"#utility.yul\":3874:3953   */\n      tag_239\n      tag_141\n      jump\t// in\n    tag_239:\n        /* \"#utility.yul\":3838:3955   */\n    tag_238:\n        /* \"#utility.yul\":3988:3992   */\n      0x20\n        /* \"#utility.yul\":3980:3986   */\n      dup4\n        /* \"#utility.yul\":3976:3993   */\n      add\n        /* \"#utility.yul\":3964:3993   */\n      swap2\n      pop\n        /* \"#utility.yul\":4042:4045   */\n      dup4\n        /* \"#utility.yul\":4034:4038   */\n      0x20\n        /* \"#utility.yul\":4026:4032   */\n      dup3\n        /* \"#utility.yul\":4022:4039   */\n      mul\n        /* \"#utility.yul\":4012:4020   */\n      dup4\n        /* \"#utility.yul\":4008:4040   */\n      add\n        /* \"#utility.yul\":4005:4046   */\n      gt\n        /* \"#utility.yul\":4002:4130   */\n      iszero\n      tag_240\n      jumpi\n        /* \"#utility.yul\":4049:4128   */\n      tag_241\n      tag_142\n      jump\t// in\n    tag_241:\n        /* \"#utility.yul\":4002:4130   */\n    tag_240:\n        /* \"#utility.yul\":3568:4136   */\n      swap3\n      pop\n      swap3\n      swap1\n      pop\n      jump\t// out\n        /* \"#utility.yul\":4142:4701   */\n    tag_17:\n        /* \"#utility.yul\":4228:4234   */\n      0x00\n        /* \"#utility.yul\":4236:4242   */\n      dup1\n        /* \"#utility.yul\":4285:4287   */\n      0x20\n        /* \"#utility.yul\":4273:4282   */\n      dup4\n        /* \"#utility.yul\":4264:4271   */\n      dup6\n        /* \"#utility.yul\":4260:4283   */\n      sub\n        /* \"#utility.yul\":4256:4288   */\n      slt\n        /* \"#utility.yul\":4253:4372   */\n      iszero\n      tag_243\n      jumpi\n        /* \"#utility.yul\":4291:4370   */\n      tag_244\n      tag_138\n      jump\t// in\n    tag_244:\n        /* \"#utility.yul\":4253:4372   */\n    tag_243:\n        /* \"#utility.yul\":4439:4440   */\n      0x00\n        /* \"#utility.yul\":4428:4437   */\n      dup4\n        /* \"#utility.yul\":4424:4441   */\n      add\n        /* \"#utility.yul\":4411:4442   */\n      calldataload\n        /* \"#utility.yul\":4469:4487   */\n      0xffffffffffffffff\n        /* \"#utility.yul\":4461:4467   */\n      dup2\n        /* \"#utility.yul\":4458:4488   */\n      gt\n        /* \"#utility.yul\":4455:4572   */\n      iszero\n      tag_245\n      jumpi\n        /* \"#utility.yul\":4491:4570   */\n      tag_246\n      tag_139\n      jump\t// in\n    tag_246:\n        /* \"#utility.yul\":4455:4572   */\n    tag_245:\n        /* \"#utility.yul\":4604:4684   */\n      tag_247\n        /* \"#utility.yul\":4676:4683   */\n      dup6\n        /* \"#utility.yul\":4667:4673   */\n      dup3\n        /* \"#utility.yul\":4656:4665   */\n      dup7\n        /* \"#utility.yul\":4652:4674   */\n      add\n        /* \"#utility.yul\":4604:4684   */\n      tag_148\n      jump\t// in\n    tag_247:\n        /* \"#utility.yul\":4586:4684   */\n      swap3\n      pop\n      swap3\n      pop\n        /* \"#utility.yul\":4382:4694   */\n      pop\n        /* \"#utility.yul\":4142:4701   */\n      swap3\n      pop\n      swap3\n      swap1\n      pop\n      jump\t// out\n        /* \"#utility.yul\":4707:4825   */\n    tag_149:\n        /* \"#utility.yul\":4794:4818   */\n      tag_249\n        /* \"#utility.yul\":4812:4817   */\n      dup2\n        /* \"#utility.yul\":4794:4818   */\n      tag_145\n      jump\t// in\n    tag_249:\n        /* \"#utility.yul\":4789:4792   */\n      dup3\n        /* \"#utility.yul\":4782:4819   */\n      mstore\n        /* \"#utility.yul\":4707:4825   */\n      pop\n      pop\n      jump\t// out\n        /* \"#utility.yul\":4831:5053   */\n    tag_20:\n        /* \"#utility.yul\":4924:4928   */\n      0x00\n        /* \"#utility.yul\":4962:4964   */\n      0x20\n        /* \"#utility.yul\":4951:4960   */\n      dup3\n        /* \"#utility.yul\":4947:4965   */\n      add\n        /* \"#utility.yul\":4939:4965   */\n      swap1\n      pop\n        /* \"#utility.yul\":4975:5046   */\n      tag_251\n        /* \"#utility.yul\":5043:5044   */\n      0x00\n        /* \"#utility.yul\":5032:5041   */\n      dup4\n        /* \"#utility.yul\":5028:5045   */\n      add\n        /* \"#utility.yul\":5019:5025   */\n      dup5\n        /* \"#utility.yul\":4975:5046   */\n      tag_149\n      jump\t// in\n    tag_251:\n        /* \"#utility.yul\":4831:5053   */\n      swap3\n      swap2\n      pop\n      pop\n      jump\t// out\n        /* \"#utility.yul\":5059:5173   */\n    tag_150:\n        /* \"#utility.yul\":5126:5132   */\n      0x00\n        /* \"#utility.yul\":5160:5165   */\n      dup2\n        /* \"#utility.yul\":5154:5166   */\n      mload\n        /* \"#utility.yul\":5144:5166   */\n      swap1\n      pop\n        /* \"#utility.yul\":5059:5173   */\n      swap2\n      swap1\n      pop\n      jump\t// out\n        /* \"#utility.yul\":5179:5363   */\n    tag_151:\n        /* \"#utility.yul\":5278:5289   */\n      0x00\n        /* \"#utility.yul\":5312:5318   */\n      dup3\n        /* \"#utility.yul\":5307:5310   */\n      dup3\n        /* \"#utility.yul\":5300:5319   */\n      mstore\n        /* \"#utility.yul\":5352:5356   */\n      0x20\n        /* \"#utility.yul\":5347:5350   */\n      dup3\n        /* \"#utility.yul\":5343:5357   */\n      add\n        /* \"#utility.yul\":5328:5357   */\n      swap1\n      pop\n        /* \"#utility.yul\":5179:5363   */\n      swap3\n      swap2\n      pop\n      pop\n      jump\t// out\n        /* \"#utility.yul\":5369:5501   */\n    tag_152:\n        /* \"#utility.yul\":5436:5440   */\n      0x00\n        /* \"#utility.yul\":5459:5462   */\n      dup2\n        /* \"#utility.yul\":5451:5462   */\n      swap1\n      pop\n        /* \"#utility.yul\":5489:5493   */\n      0x20\n        /* \"#utility.yul\":5484:5487   */\n      dup3\n        /* \"#utility.yul\":5480:5494   */\n      add\n        /* \"#utility.yul\":5472:5494   */\n      swap1\n      pop\n        /* \"#utility.yul\":5369:5501   */\n      swap2\n      swap1\n      pop\n      jump\t// out\n        /* \"#utility.yul\":5507:5633   */\n    tag_153:\n        /* \"#utility.yul\":5544:5551   */\n      0x00\n        /* \"#utility.yul\":5584:5626   */\n      0xffffffffffffffffffffffffffffffffffffffff\n        /* \"#utility.yul\":5577:5582   */\n      dup3\n        /* \"#utility.yul\":5573:5627   */\n      and\n        /* \"#utility.yul\":5562:5627   */\n      swap1\n      pop\n        /* \"#utility.yul\":5507:5633   */\n      swap2\n      swap1\n      pop\n      jump\t// out\n        /* \"#utility.yul\":5639:5735   */\n    tag_154:\n        /* \"#utility.yul\":5676:5683   */\n      0x00\n        /* \"#utility.yul\":5705:5729   */\n      tag_257\n        /* \"#utility.yul\":5723:5728   */\n      dup3\n        /* \"#utility.yul\":5705:5729   */\n      tag_153\n      jump\t// in\n    tag_257:\n        /* \"#utility.yul\":5694:5729   */\n      swap1\n      pop\n        /* \"#utility.yul\":5639:5735   */\n      swap2\n      swap1\n      pop\n      jump\t// out\n        /* \"#utility.yul\":5741:5849   */\n    tag_155:\n        /* \"#utility.yul\":5818:5842   */\n      tag_259\n        /* \"#utility.yul\":5836:5841   */\n      dup2\n        /* \"#utility.yul\":5818:5842   */\n      tag_154\n      jump\t// in\n    tag_259:\n        /* \"#utility.yul\":5813:5816   */\n      dup3\n        /* \"#utility.yul\":5806:5843   */\n      mstore\n        /* \"#utility.yul\":5741:5849   */\n      pop\n      pop\n      jump\t// out\n        /* \"#utility.yul\":5855:6034   */\n    tag_156:\n        /* \"#utility.yul\":5924:5934   */\n      0x00\n        /* \"#utility.yul\":5945:5991   */\n      tag_261\n        /* \"#utility.yul\":5987:5990   */\n      dup4\n        /* \"#utility.yul\":5979:5985   */\n      dup4\n        /* \"#utility.yul\":5945:5991   */\n      tag_155\n      jump\t// in\n    tag_261:\n        /* \"#utility.yul\":6023:6027   */\n      0x20\n        /* \"#utility.yul\":6018:6021   */\n      dup4\n        /* \"#utility.yul\":6014:6028   */\n      add\n        /* \"#utility.yul\":6000:6028   */\n      swap1\n      pop\n        /* \"#utility.yul\":5855:6034   */\n      swap3\n      swap2\n      pop\n      pop\n      jump\t// out\n        /* \"#utility.yul\":6040:6153   */\n    tag_157:\n        /* \"#utility.yul\":6110:6114   */\n      0x00\n        /* \"#utility.yul\":6142:6146   */\n      0x20\n        /* \"#utility.yul\":6137:6140   */\n      dup3\n        /* \"#utility.yul\":6133:6147   */\n      add\n        /* \"#utility.yul\":6125:6147   */\n      swap1\n      pop\n        /* \"#utility.yul\":6040:6153   */\n      swap2\n      swap1\n      pop\n      jump\t// out\n        /* \"#utility.yul\":6189:6921   */\n    tag_158:\n        /* \"#utility.yul\":6308:6311   */\n      0x00\n        /* \"#utility.yul\":6337:6391   */\n      tag_264\n        /* \"#utility.yul\":6385:6390   */\n      dup3\n        /* \"#utility.yul\":6337:6391   */\n      tag_150\n      jump\t// in\n    tag_264:\n        /* \"#utility.yul\":6407:6493   */\n      tag_265\n        /* \"#utility.yul\":6486:6492   */\n      dup2\n        /* \"#utility.yul\":6481:6484   */\n      dup6\n        /* \"#utility.yul\":6407:6493   */\n      tag_151\n      jump\t// in\n    tag_265:\n        /* \"#utility.yul\":6400:6493   */\n      swap4\n      pop\n        /* \"#utility.yul\":6517:6573   */\n      tag_266\n        /* \"#utility.yul\":6567:6572   */\n      dup4\n        /* \"#utility.yul\":6517:6573   */\n      tag_152\n      jump\t// in\n    tag_266:\n        /* \"#utility.yul\":6596:6603   */\n      dup1\n        /* \"#utility.yul\":6627:6628   */\n      0x00\n        /* \"#utility.yul\":6612:6896   */\n    tag_267:\n        /* \"#utility.yul\":6637:6643   */\n      dup4\n        /* \"#utility.yul\":6634:6635   */\n      dup2\n        /* \"#utility.yul\":6631:6644   */\n      lt\n        /* \"#utility.yul\":6612:6896   */\n      iszero\n      tag_269\n      jumpi\n        /* \"#utility.yul\":6713:6719   */\n      dup2\n        /* \"#utility.yul\":6707:6720   */\n      mload\n        /* \"#utility.yul\":6740:6803   */\n      tag_270\n        /* \"#utility.yul\":6799:6802   */\n      dup9\n        /* \"#utility.yul\":6784:6797   */\n      dup3\n        /* \"#utility.yul\":6740:6803   */\n      tag_156\n      jump\t// in\n    tag_270:\n        /* \"#utility.yul\":6733:6803   */\n      swap8\n      pop\n        /* \"#utility.yul\":6826:6886   */\n      tag_271\n        /* \"#utility.yul\":6879:6885   */\n      dup4\n        /* \"#utility.yul\":6826:6886   */\n      tag_157\n      jump\t// in\n    tag_271:\n        /* \"#utility.yul\":6816:6886   */\n      swap3\n      pop\n        /* \"#utility.yul\":6672:6896   */\n      pop\n        /* \"#utility.yul\":6659:6660   */\n      0x01\n        /* \"#utility.yul\":6656:6657   */\n      dup2\n        /* \"#utility.yul\":6652:6661   */\n      add\n        /* \"#utility.yul\":6647:6661   */\n      swap1\n      pop\n        /* \"#utility.yul\":6612:6896   */\n      jump(tag_267)\n    tag_269:\n        /* \"#utility.yul\":6616:6630   */\n      pop\n        /* \"#utility.yul\":6912:6915   */\n      dup6\n        /* \"#utility.yul\":6905:6915   */\n      swap4\n      pop\n        /* \"#utility.yul\":6313:6921   */\n      pop\n      pop\n      pop\n        /* \"#utility.yul\":6189:6921   */\n      swap3\n      swap2\n      pop\n      pop\n      jump\t// out\n        /* \"#utility.yul\":6927:7051   */\n    tag_159:\n        /* \"#utility.yul\":7004:7010   */\n      0x00\n        /* \"#utility.yul\":7038:7043   */\n      dup2\n        /* \"#utility.yul\":7032:7044   */\n      mload\n        /* \"#utility.yul\":7022:7044   */\n      swap1\n      pop\n        /* \"#utility.yul\":6927:7051   */\n      swap2\n      swap1\n      pop\n      jump\t// out\n        /* \"#utility.yul\":7057:7251   */\n    tag_160:\n        /* \"#utility.yul\":7166:7177   */\n      0x00\n        /* \"#utility.yul\":7200:7206   */\n      dup3\n        /* \"#utility.yul\":7195:7198   */\n      dup3\n        /* \"#utility.yul\":7188:7207   */\n      mstore\n        /* \"#utility.yul\":7240:7244   */\n      0x20\n        /* \"#utility.yul\":7235:7238   */\n      dup3\n        /* \"#utility.yul\":7231:7245   */\n      add\n        /* \"#utility.yul\":7216:7245   */\n      swap1\n      pop\n        /* \"#utility.yul\":7057:7251   */\n      swap3\n      swap2\n      pop\n      pop\n      jump\t// out\n        /* \"#utility.yul\":7257:7399   */\n    tag_161:\n        /* \"#utility.yul\":7334:7338   */\n      0x00\n        /* \"#utility.yul\":7357:7360   */\n      dup2\n        /* \"#utility.yul\":7349:7360   */\n      swap1\n      pop\n        /* \"#utility.yul\":7387:7391   */\n      0x20\n        /* \"#utility.yul\":7382:7385   */\n      dup3\n        /* \"#utility.yul\":7378:7392   */\n      add\n        /* \"#utility.yul\":7370:7392   */\n      swap1\n      pop\n        /* \"#utility.yul\":7257:7399   */\n      swap2\n      swap1\n      pop\n      jump\t// out\n        /* \"#utility.yul\":7405:7504   */\n    tag_162:\n        /* \"#utility.yul\":7457:7463   */\n      0x00\n        /* \"#utility.yul\":7491:7496   */\n      dup2\n        /* \"#utility.yul\":7485:7497   */\n      mload\n        /* \"#utility.yul\":7475:7497   */\n      swap1\n      pop\n        /* \"#utility.yul\":7405:7504   */\n      swap2\n      swap1\n      pop\n      jump\t// out\n        /* \"#utility.yul\":7510:7669   */\n    tag_163:\n        /* \"#utility.yul\":7584:7595   */\n      0x00\n        /* \"#utility.yul\":7618:7624   */\n      dup3\n        /* \"#utility.yul\":7613:7616   */\n      dup3\n        /* \"#utility.yul\":7606:7625   */\n      mstore\n        /* \"#utility.yul\":7658:7662   */\n      0x20\n        /* \"#utility.yul\":7653:7656   */\n      dup3\n        /* \"#utility.yul\":7649:7663   */\n      add\n        /* \"#utility.yul\":7634:7663   */\n      swap1\n      pop\n        /* \"#utility.yul\":7510:7669   */\n      swap3\n      swap2\n      pop\n      pop\n      jump\t// out\n        /* \"#utility.yul\":7675:7814   */\n    tag_164:\n        /* \"#utility.yul\":7764:7770   */\n      dup3\n        /* \"#utility.yul\":7759:7762   */\n      dup2\n        /* \"#utility.yul\":7754:7757   */\n      dup4\n        /* \"#utility.yul\":7748:7771   */\n      mcopy\n        /* \"#utility.yul\":7805:7806   */\n      0x00\n        /* \"#utility.yul\":7796:7802   */\n      dup4\n        /* \"#utility.yul\":7791:7794   */\n      dup4\n        /* \"#utility.yul\":7787:7803   */\n      add\n        /* \"#utility.yul\":7780:7807   */\n      mstore\n        /* \"#utility.yul\":7675:7814   */\n      pop\n      pop\n      pop\n      jump\t// out\n        /* \"#utility.yul\":7820:7922   */\n    tag_165:\n        /* \"#utility.yul\":7861:7867   */\n      0x00\n        /* \"#utility.yul\":7912:7914   */\n      0x1f\n        /* \"#utility.yul\":7908:7915   */\n      not\n        /* \"#utility.yul\":7903:7905   */\n      0x1f\n        /* \"#utility.yul\":7896:7901   */\n      dup4\n        /* \"#utility.yul\":7892:7906   */\n      add\n        /* \"#utility.yul\":7888:7916   */\n      and\n        /* \"#utility.yul\":7878:7916   */\n      swap1\n      pop\n        /* \"#utility.yul\":7820:7922   */\n      swap2\n      swap1\n      pop\n      jump\t// out\n        /* \"#utility.yul\":7928:8285   */\n    tag_166:\n        /* \"#utility.yul\":8006:8009   */\n      0x00\n        /* \"#utility.yul\":8034:8073   */\n      tag_280\n        /* \"#utility.yul\":8067:8072   */\n      dup3\n        /* \"#utility.yul\":8034:8073   */\n      tag_162\n      jump\t// in\n    tag_280:\n        /* \"#utility.yul\":8089:8150   */\n      tag_281\n        /* \"#utility.yul\":8143:8149   */\n      dup2\n        /* \"#utility.yul\":8138:8141   */\n      dup6\n        /* \"#utility.yul\":8089:8150   */\n      tag_163\n      jump\t// in\n    tag_281:\n        /* \"#utility.yul\":8082:8150   */\n      swap4\n      pop\n        /* \"#utility.yul\":8159:8224   */\n      tag_282\n        /* \"#utility.yul\":8217:8223   */\n      dup2\n        /* \"#utility.yul\":8212:8215   */\n      dup6\n        /* \"#utility.yul\":8205:8209   */\n      0x20\n        /* \"#utility.yul\":8198:8203   */\n      dup7\n        /* \"#utility.yul\":8194:8210   */\n      add\n        /* \"#utility.yul\":8159:8224   */\n      tag_164\n      jump\t// in\n    tag_282:\n        /* \"#utility.yul\":8249:8278   */\n      tag_283\n        /* \"#utility.yul\":8271:8277   */\n      dup2\n        /* \"#utility.yul\":8249:8278   */\n      tag_165\n      jump\t// in\n    tag_283:\n        /* \"#utility.yul\":8244:8247   */\n      dup5\n        /* \"#utility.yul\":8240:8279   */\n      add\n        /* \"#utility.yul\":8233:8279   */\n      swap2\n      pop\n        /* \"#utility.yul\":8010:8285   */\n      pop\n        /* \"#utility.yul\":7928:8285   */\n      swap3\n      swap2\n      pop\n      pop\n      jump\t// out\n        /* \"#utility.yul\":8291:8487   */\n    tag_167:\n        /* \"#utility.yul\":8380:8390   */\n      0x00\n        /* \"#utility.yul\":8415:8481   */\n      tag_285\n        /* \"#utility.yul\":8477:8480   */\n      dup4\n        /* \"#utility.yul\":8469:8475   */\n      dup4\n        /* \"#utility.yul\":8415:8481   */\n      tag_166\n      jump\t// in\n    tag_285:\n        /* \"#utility.yul\":8401:8481   */\n      swap1\n      pop\n        /* \"#utility.yul\":8291:8487   */\n      swap3\n      swap2\n      pop\n      pop\n      jump\t// out\n        /* \"#utility.yul\":8493:8616   */\n    tag_168:\n        /* \"#utility.yul\":8573:8577   */\n      0x00\n        /* \"#utility.yul\":8605:8609   */\n      0x20\n        /* \"#utility.yul\":8600:8603   */\n      dup3\n        /* \"#utility.yul\":8596:8610   */\n      add\n        /* \"#utility.yul\":8588:8610   */\n      swap1\n      pop\n        /* \"#utility.yul\":8493:8616   */\n      swap2\n      swap1\n      pop\n      jump\t// out\n        /* \"#utility.yul\":8650:9641   */\n    tag_169:\n        /* \"#utility.yul\":8789:8792   */\n      0x00\n        /* \"#utility.yul\":8818:8882   */\n      tag_288\n        /* \"#utility.yul\":8876:8881   */\n      dup3\n        /* \"#utility.yul\":8818:8882   */\n      tag_159\n      jump\t// in\n    tag_288:\n        /* \"#utility.yul\":8898:8994   */\n      tag_289\n        /* \"#utility.yul\":8987:8993   */\n      dup2\n        /* \"#utility.yul\":8982:8985   */\n      dup6\n        /* \"#utility.yul\":8898:8994   */\n      tag_160\n      jump\t// in\n    tag_289:\n        /* \"#utility.yul\":8891:8994   */\n      swap4\n      pop\n        /* \"#utility.yul\":9020:9023   */\n      dup4\n        /* \"#utility.yul\":9065:9069   */\n      0x20\n        /* \"#utility.yul\":9057:9063   */\n      dup3\n        /* \"#utility.yul\":9053:9070   */\n      mul\n        /* \"#utility.yul\":9048:9051   */\n      dup6\n        /* \"#utility.yul\":9044:9071   */\n      add\n        /* \"#utility.yul\":9095:9161   */\n      tag_290\n        /* \"#utility.yul\":9155:9160   */\n      dup6\n        /* \"#utility.yul\":9095:9161   */\n      tag_161\n      jump\t// in\n    tag_290:\n        /* \"#utility.yul\":9184:9191   */\n      dup1\n        /* \"#utility.yul\":9215:9216   */\n      0x00\n        /* \"#utility.yul\":9200:9596   */\n    tag_291:\n        /* \"#utility.yul\":9225:9231   */\n      dup6\n        /* \"#utility.yul\":9222:9223   */\n      dup2\n        /* \"#utility.yul\":9219:9232   */\n      lt\n        /* \"#utility.yul\":9200:9596   */\n      iszero\n      tag_293\n      jumpi\n        /* \"#utility.yul\":9296:9305   */\n      dup5\n        /* \"#utility.yul\":9290:9294   */\n      dup5\n        /* \"#utility.yul\":9286:9306   */\n      sub\n        /* \"#utility.yul\":9281:9284   */\n      dup10\n        /* \"#utility.yul\":9274:9307   */\n      mstore\n        /* \"#utility.yul\":9347:9353   */\n      dup2\n        /* \"#utility.yul\":9341:9354   */\n      mload\n        /* \"#utility.yul\":9375:9459   */\n      tag_294\n        /* \"#utility.yul\":9454:9458   */\n      dup6\n        /* \"#utility.yul\":9439:9452   */\n      dup3\n        /* \"#utility.yul\":9375:9459   */\n      tag_167\n      jump\t// in\n    tag_294:\n        /* \"#utility.yul\":9367:9459   */\n      swap5\n      pop\n        /* \"#utility.yul\":9482:9552   */\n      tag_295\n        /* \"#utility.yul\":9545:9551   */\n      dup4\n        /* \"#utility.yul\":9482:9552   */\n      tag_168\n      jump\t// in\n    tag_295:\n        /* \"#utility.yul\":9472:9552   */\n      swap3\n      pop\n        /* \"#utility.yul\":9581:9585   */\n      0x20\n        /* \"#utility.yul\":9576:9579   */\n      dup11\n        /* \"#utility.yul\":9572:9586   */\n      add\n        /* \"#utility.yul\":9565:9586   */\n      swap10\n      pop\n        /* \"#utility.yul\":9260:9596   */\n      pop\n        /* \"#utility.yul\":9247:9248   */\n      0x01\n        /* \"#utility.yul\":9244:9245   */\n      dup2\n        /* \"#utility.yul\":9240:9249   */\n      add\n        /* \"#utility.yul\":9235:9249   */\n      swap1\n      pop\n        /* \"#utility.yul\":9200:9596   */\n      jump(tag_291)\n    tag_293:\n        /* \"#utility.yul\":9204:9218   */\n      pop\n        /* \"#utility.yul\":9612:9616   */\n      dup3\n        /* \"#utility.yul\":9605:9616   */\n      swap8\n      pop\n        /* \"#utility.yul\":9632:9635   */\n      dup8\n        /* \"#utility.yul\":9625:9635   */\n      swap6\n      pop\n        /* \"#utility.yul\":8794:9641   */\n      pop\n      pop\n      pop\n      pop\n      pop\n        /* \"#utility.yul\":8650:9641   */\n      swap3\n      swap2\n      pop\n      pop\n      jump\t// out\n        /* \"#utility.yul\":9647:10321   */\n    tag_24:\n        /* \"#utility.yul\":9888:9892   */\n      0x00\n        /* \"#utility.yul\":9926:9928   */\n      0x40\n        /* \"#utility.yul\":9915:9924   */\n      dup3\n        /* \"#utility.yul\":9911:9929   */\n      add\n        /* \"#utility.yul\":9903:9929   */\n      swap1\n      pop\n        /* \"#utility.yul\":9975:9984   */\n      dup2\n        /* \"#utility.yul\":9969:9973   */\n      dup2\n        /* \"#utility.yul\":9965:9985   */\n      sub\n        /* \"#utility.yul\":9961:9962   */\n      0x00\n        /* \"#utility.yul\":9950:9959   */\n      dup4\n        /* \"#utility.yul\":9946:9963   */\n      add\n        /* \"#utility.yul\":9939:9986   */\n      mstore\n        /* \"#utility.yul\":10003:10111   */\n      tag_297\n        /* \"#utility.yul\":10106:10110   */\n      dup2\n        /* \"#utility.yul\":10097:10103   */\n      dup6\n        /* \"#utility.yul\":10003:10111   */\n      tag_158\n      jump\t// in\n    tag_297:\n        /* \"#utility.yul\":9995:10111   */\n      swap1\n      pop\n        /* \"#utility.yul\":10158:10167   */\n      dup2\n        /* \"#utility.yul\":10152:10156   */\n      dup2\n        /* \"#utility.yul\":10148:10168   */\n      sub\n        /* \"#utility.yul\":10143:10145   */\n      0x20\n        /* \"#utility.yul\":10132:10141   */\n      dup4\n        /* \"#utility.yul\":10128:10146   */\n      add\n        /* \"#utility.yul\":10121:10169   */\n      mstore\n        /* \"#utility.yul\":10186:10314   */\n      tag_298\n        /* \"#utility.yul\":10309:10313   */\n      dup2\n        /* \"#utility.yul\":10300:10306   */\n      dup5\n        /* \"#utility.yul\":10186:10314   */\n      tag_169\n      jump\t// in\n    tag_298:\n        /* \"#utility.yul\":10178:10314   */\n      swap1\n      pop\n        /* \"#utility.yul\":9647:10321   */\n      swap4\n      swap3\n      pop\n      pop\n      pop\n      jump\t// out\n        /* \"#utility.yul\":10327:10496   */\n    tag_170:\n        /* \"#utility.yul\":10411:10422   */\n      0x00\n        /* \"#utility.yul\":10445:10451   */\n      dup3\n        /* \"#utility.yul\":10440:10443   */\n      dup3\n        /* \"#utility.yul\":10433:10452   */\n      mstore\n        /* \"#utility.yul\":10485:10489   */\n      0x20\n        /* \"#utility.yul\":10480:10483   */\n      dup3\n        /* \"#utility.yul\":10476:10490   */\n      add\n        /* \"#utility.yul\":10461:10490   */\n      swap1\n      pop\n        /* \"#utility.yul\":10327:10496   */\n      swap3\n      swap2\n      pop\n      pop\n      jump\t// out\n        /* \"#utility.yul\":10502:10677   */\n    tag_171:\n        /* \"#utility.yul\":10642:10669   */\n      0x4172726179206d7573742062652073616d65204c656e67746800000000000000\n        /* \"#utility.yul\":10638:10639   */\n      0x00\n        /* \"#utility.yul\":10630:10636   */\n      dup3\n        /* \"#utility.yul\":10626:10640   */\n      add\n        /* \"#utility.yul\":10619:10670   */\n      mstore\n        /* \"#utility.yul\":10502:10677   */\n      pop\n      jump\t// out\n        /* \"#utility.yul\":10683:11049   */\n    tag_172:\n        /* \"#utility.yul\":10825:10828   */\n      0x00\n        /* \"#utility.yul\":10846:10913   */\n      tag_302\n        /* \"#utility.yul\":10910:10912   */\n      0x19\n        /* \"#utility.yul\":10905:10908   */\n      dup4\n        /* \"#utility.yul\":10846:10913   */\n      tag_170\n      jump\t// in\n    tag_302:\n        /* \"#utility.yul\":10839:10913   */\n      swap2\n      pop\n        /* \"#utility.yul\":10922:11015   */\n      tag_303\n        /* \"#utility.yul\":11011:11014   */\n      dup3\n        /* \"#utility.yul\":10922:11015   */\n      tag_171\n      jump\t// in\n    tag_303:\n        /* \"#utility.yul\":11040:11042   */\n      0x20\n        /* \"#utility.yul\":11035:11038   */\n      dup3\n        /* \"#utility.yul\":11031:11043   */\n      add\n        /* \"#utility.yul\":11024:11043   */\n      swap1\n      pop\n        /* \"#utility.yul\":10683:11049   */\n      swap2\n      swap1\n      pop\n      jump\t// out\n        /* \"#utility.yul\":11055:11474   */\n    tag_28:\n        /* \"#utility.yul\":11221:11225   */\n      0x00\n        /* \"#utility.yul\":11259:11261   */\n      0x20\n        /* \"#utility.yul\":11248:11257   */\n      dup3\n        /* \"#utility.yul\":11244:11262   */\n      add\n        /* \"#utility.yul\":11236:11262   */\n      swap1\n      pop\n        /* \"#utility.yul\":11308:11317   */\n      dup2\n        /* \"#utility.yul\":11302:11306   */\n      dup2\n        /* \"#utility.yul\":11298:11318   */\n      sub\n        /* \"#utility.yul\":11294:11295   */\n      0x00\n        /* \"#utility.yul\":11283:11292   */\n      dup4\n        /* \"#utility.yul\":11279:11296   */\n      add\n        /* \"#utility.yul\":11272:11319   */\n      mstore\n        /* \"#utility.yul\":11336:11467   */\n      tag_305\n        /* \"#utility.yul\":11462:11466   */\n      dup2\n        /* \"#utility.yul\":11336:11467   */\n      tag_172\n      jump\t// in\n    tag_305:\n        /* \"#utility.yul\":11328:11467   */\n      swap1\n      pop\n        /* \"#utility.yul\":11055:11474   */\n      swap2\n      swap1\n      pop\n      jump\t// out\n        /* \"#utility.yul\":11480:11660   */\n    tag_34:\n        /* \"#utility.yul\":11528:11605   */\n      0x4e487b7100000000000000000000000000000000000000000000000000000000\n        /* \"#utility.yul\":11525:11526   */\n      0x00\n        /* \"#utility.yul\":11518:11606   */\n      mstore\n        /* \"#utility.yul\":11625:11629   */\n      0x32\n        /* \"#utility.yul\":11622:11623   */\n      0x04\n        /* \"#utility.yul\":11615:11630   */\n      mstore\n        /* \"#utility.yul\":11649:11653   */\n      0x24\n        /* \"#utility.yul\":11646:11647   */\n      0x00\n        /* \"#utility.yul\":11639:11654   */\n      revert\n        /* \"#utility.yul\":11666:11783   */\n    tag_173:\n        /* \"#utility.yul\":11775:11776   */\n      0x00\n        /* \"#utility.yul\":11772:11773   */\n      dup1\n        /* \"#utility.yul\":11765:11777   */\n      revert\n        /* \"#utility.yul\":11789:11906   */\n    tag_174:\n        /* \"#utility.yul\":11898:11899   */\n      0x00\n        /* \"#utility.yul\":11895:11896   */\n      dup1\n        /* \"#utility.yul\":11888:11900   */\n      revert\n        /* \"#utility.yul\":11912:12029   */\n    tag_175:\n        /* \"#utility.yul\":12021:12022   */\n      0x00\n        /* \"#utility.yul\":12018:12019   */\n      dup1\n        /* \"#utility.yul\":12011:12023   */\n      revert\n        /* \"#utility.yul\":12035:12760   */\n    tag_36:\n        /* \"#utility.yul\":12113:12117   */\n      0x00\n        /* \"#utility.yul\":12119:12125   */\n      dup1\n        /* \"#utility.yul\":12175:12186   */\n      dup4\n        /* \"#utility.yul\":12162:12187   */\n      calldataload\n        /* \"#utility.yul\":12275:12276   */\n      0x01\n        /* \"#utility.yul\":12269:12273   */\n      0x20\n        /* \"#utility.yul\":12265:12277   */\n      sub\n        /* \"#utility.yul\":12254:12262   */\n      dup5\n        /* \"#utility.yul\":12238:12252   */\n      calldatasize\n        /* \"#utility.yul\":12234:12263   */\n      sub\n        /* \"#utility.yul\":12230:12278   */\n      sub\n        /* \"#utility.yul\":12210:12228   */\n      dup2\n        /* \"#utility.yul\":12206:12279   */\n      slt\n        /* \"#utility.yul\":12196:12364   */\n      tag_311\n      jumpi\n        /* \"#utility.yul\":12283:12362   */\n      tag_312\n      tag_173\n      jump\t// in\n    tag_312:\n        /* \"#utility.yul\":12196:12364   */\n    tag_311:\n        /* \"#utility.yul\":12395:12413   */\n      dup1\n        /* \"#utility.yul\":12385:12393   */\n      dup5\n        /* \"#utility.yul\":12381:12414   */\n      add\n        /* \"#utility.yul\":12373:12414   */\n      swap3\n      pop\n        /* \"#utility.yul\":12447:12451   */\n      dup3\n        /* \"#utility.yul\":12434:12452   */\n      calldataload\n        /* \"#utility.yul\":12424:12452   */\n      swap2\n      pop\n        /* \"#utility.yul\":12475:12493   */\n      0xffffffffffffffff\n        /* \"#utility.yul\":12467:12473   */\n      dup3\n        /* \"#utility.yul\":12464:12494   */\n      gt\n        /* \"#utility.yul\":12461:12578   */\n      iszero\n      tag_313\n      jumpi\n        /* \"#utility.yul\":12497:12576   */\n      tag_314\n      tag_174\n      jump\t// in\n    tag_314:\n        /* \"#utility.yul\":12461:12578   */\n    tag_313:\n        /* \"#utility.yul\":12605:12607   */\n      0x20\n        /* \"#utility.yul\":12599:12603   */\n      dup4\n        /* \"#utility.yul\":12595:12608   */\n      add\n        /* \"#utility.yul\":12587:12608   */\n      swap3\n      pop\n        /* \"#utility.yul\":12662:12666   */\n      0x01\n        /* \"#utility.yul\":12654:12660   */\n      dup3\n        /* \"#utility.yul\":12650:12667   */\n      mul\n        /* \"#utility.yul\":12634:12648   */\n      calldatasize\n        /* \"#utility.yul\":12630:12668   */\n      sub\n        /* \"#utility.yul\":12624:12628   */\n      dup4\n        /* \"#utility.yul\":12620:12669   */\n      sgt\n        /* \"#utility.yul\":12617:12753   */\n      iszero\n      tag_315\n      jumpi\n        /* \"#utility.yul\":12672:12751   */\n      tag_316\n      tag_175\n      jump\t// in\n    tag_316:\n        /* \"#utility.yul\":12617:12753   */\n    tag_315:\n        /* \"#utility.yul\":12126:12760   */\n      pop\n        /* \"#utility.yul\":12035:12760   */\n      swap3\n      pop\n      swap3\n      swap1\n      pop\n      jump\t// out\n        /* \"#utility.yul\":12766:12888   */\n    tag_176:\n        /* \"#utility.yul\":12839:12863   */\n      tag_318\n        /* \"#utility.yul\":12857:12862   */\n      dup2\n        /* \"#utility.yul\":12839:12863   */\n      tag_154\n      jump\t// in\n    tag_318:\n        /* \"#utility.yul\":12832:12837   */\n      dup2\n        /* \"#utility.yul\":12829:12864   */\n      eq\n        /* \"#utility.yul\":12819:12882   */\n      tag_319\n      jumpi\n        /* \"#utility.yul\":12878:12879   */\n      0x00\n        /* \"#utility.yul\":12875:12876   */\n      dup1\n        /* \"#utility.yul\":12868:12880   */\n      revert\n        /* \"#utility.yul\":12819:12882   */\n    tag_319:\n        /* \"#utility.yul\":12766:12888   */\n      pop\n      jump\t// out\n        /* \"#utility.yul\":12894:13033   */\n    tag_177:\n        /* \"#utility.yul\":12940:12945   */\n      0x00\n        /* \"#utility.yul\":12978:12984   */\n      dup2\n        /* \"#utility.yul\":12965:12985   */\n      calldataload\n        /* \"#utility.yul\":12956:12985   */\n      swap1\n      pop\n        /* \"#utility.yul\":12994:13027   */\n      tag_321\n        /* \"#utility.yul\":13021:13026   */\n      dup2\n        /* \"#utility.yul\":12994:13027   */\n      tag_176\n      jump\t// in\n    tag_321:\n        /* \"#utility.yul\":12894:13033   */\n      swap3\n      swap2\n      pop\n      pop\n      jump\t// out\n        /* \"#utility.yul\":13039:13368   */\n    tag_40:\n        /* \"#utility.yul\":13098:13104   */\n      0x00\n        /* \"#utility.yul\":13147:13149   */\n      0x20\n        /* \"#utility.yul\":13135:13144   */\n      dup3\n        /* \"#utility.yul\":13126:13133   */\n      dup5\n        /* \"#utility.yul\":13122:13145   */\n      sub\n        /* \"#utility.yul\":13118:13150   */\n      slt\n        /* \"#utility.yul\":13115:13234   */\n      iszero\n      tag_323\n      jumpi\n        /* \"#utility.yul\":13153:13232   */\n      tag_324\n      tag_138\n      jump\t// in\n    tag_324:\n        /* \"#utility.yul\":13115:13234   */\n    tag_323:\n        /* \"#utility.yul\":13273:13274   */\n      0x00\n        /* \"#utility.yul\":13298:13351   */\n      tag_325\n        /* \"#utility.yul\":13343:13350   */\n      dup5\n        /* \"#utility.yul\":13334:13340   */\n      dup3\n        /* \"#utility.yul\":13323:13332   */\n      dup6\n        /* \"#utility.yul\":13319:13341   */\n      add\n        /* \"#utility.yul\":13298:13351   */\n      tag_177\n      jump\t// in\n    tag_325:\n        /* \"#utility.yul\":13288:13351   */\n      swap2\n      pop\n        /* \"#utility.yul\":13244:13361   */\n      pop\n        /* \"#utility.yul\":13039:13368   */\n      swap3\n      swap2\n      pop\n      pop\n      jump\t// out\n        /* \"#utility.yul\":13374:13554   */\n    tag_50:\n        /* \"#utility.yul\":13422:13499   */\n      0x4e487b7100000000000000000000000000000000000000000000000000000000\n        /* \"#utility.yul\":13419:13420   */\n      0x00\n        /* \"#utility.yul\":13412:13500   */\n      mstore\n        /* \"#utility.yul\":13519:13523   */\n      0x41\n        /* \"#utility.yul\":13516:13517   */\n      0x04\n        /* \"#utility.yul\":13509:13524   */\n      mstore\n        /* \"#utility.yul\":13543:13547   */\n      0x24\n        /* \"#utility.yul\":13540:13541   */\n      0x00\n        /* \"#utility.yul\":13533:13548   */\n      revert\n        /* \"#utility.yul\":13560:13740   */\n    tag_178:\n        /* \"#utility.yul\":13608:13685   */\n      0x4e487b7100000000000000000000000000000000000000000000000000000000\n        /* \"#utility.yul\":13605:13606   */\n      0x00\n        /* \"#utility.yul\":13598:13686   */\n      mstore\n        /* \"#utility.yul\":13705:13709   */\n      0x22\n        /* \"#utility.yul\":13702:13703   */\n      0x04\n        /* \"#utility.yul\":13695:13710   */\n      mstore\n        /* \"#utility.yul\":13729:13733   */\n      0x24\n        /* \"#utility.yul\":13726:13727   */\n      0x00\n        /* \"#utility.yul\":13719:13734   */\n      revert\n        /* \"#utility.yul\":13746:14066   */\n    tag_66:\n        /* \"#utility.yul\":13790:13796   */\n      0x00\n        /* \"#utility.yul\":13827:13828   */\n      0x02\n        /* \"#utility.yul\":13821:13825   */\n      dup3\n        /* \"#utility.yul\":13817:13829   */\n      div\n        /* \"#utility.yul\":13807:13829   */\n      swap1\n      pop\n        /* \"#utility.yul\":13874:13875   */\n      0x01\n        /* \"#utility.yul\":13868:13872   */\n      dup3\n        /* \"#utility.yul\":13864:13876   */\n      and\n        /* \"#utility.yul\":13895:13913   */\n      dup1\n        /* \"#utility.yul\":13885:13966   */\n      tag_329\n      jumpi\n        /* \"#utility.yul\":13951:13955   */\n      0x7f\n        /* \"#utility.yul\":13943:13949   */\n      dup3\n        /* \"#utility.yul\":13939:13956   */\n      and\n        /* \"#utility.yul\":13929:13956   */\n      swap2\n      pop\n        /* \"#utility.yul\":13885:13966   */\n    tag_329:\n        /* \"#utility.yul\":14013:14015   */\n      0x20\n        /* \"#utility.yul\":14005:14011   */\n      dup3\n        /* \"#utility.yul\":14002:14016   */\n      lt\n        /* \"#utility.yul\":13982:14000   */\n      dup2\n        /* \"#utility.yul\":13979:14017   */\n      sub\n        /* \"#utility.yul\":13976:14060   */\n      tag_330\n      jumpi\n        /* \"#utility.yul\":14032:14050   */\n      tag_331\n      tag_178\n      jump\t// in\n    tag_331:\n        /* \"#utility.yul\":13976:14060   */\n    tag_330:\n        /* \"#utility.yul\":13797:14066   */\n      pop\n        /* \"#utility.yul\":13746:14066   */\n      swap2\n      swap1\n      pop\n      jump\t// out\n        /* \"#utility.yul\":14072:14213   */\n    tag_179:\n        /* \"#utility.yul\":14121:14125   */\n      0x00\n        /* \"#utility.yul\":14144:14147   */\n      dup2\n        /* \"#utility.yul\":14136:14147   */\n      swap1\n      pop\n        /* \"#utility.yul\":14167:14170   */\n      dup2\n        /* \"#utility.yul\":14164:14165   */\n      0x00\n        /* \"#utility.yul\":14157:14171   */\n      mstore\n        /* \"#utility.yul\":14201:14205   */\n      0x20\n        /* \"#utility.yul\":14198:14199   */\n      0x00\n        /* \"#utility.yul\":14188:14206   */\n      keccak256\n        /* \"#utility.yul\":14180:14206   */\n      swap1\n      pop\n        /* \"#utility.yul\":14072:14213   */\n      swap2\n      swap1\n      pop\n      jump\t// out\n        /* \"#utility.yul\":14219:14312   */\n    tag_180:\n        /* \"#utility.yul\":14256:14262   */\n      0x00\n        /* \"#utility.yul\":14303:14305   */\n      0x20\n        /* \"#utility.yul\":14298:14300   */\n      0x1f\n        /* \"#utility.yul\":14291:14296   */\n      dup4\n        /* \"#utility.yul\":14287:14301   */\n      add\n        /* \"#utility.yul\":14283:14306   */\n      div\n        /* \"#utility.yul\":14273:14306   */\n      swap1\n      pop\n        /* \"#utility.yul\":14219:14312   */\n      swap2\n      swap1\n      pop\n      jump\t// out\n        /* \"#utility.yul\":14318:14425   */\n    tag_181:\n        /* \"#utility.yul\":14362:14370   */\n      0x00\n        /* \"#utility.yul\":14412:14417   */\n      dup3\n        /* \"#utility.yul\":14406:14410   */\n      dup3\n        /* \"#utility.yul\":14402:14418   */\n      shl\n        /* \"#utility.yul\":14381:14418   */\n      swap1\n      pop\n        /* \"#utility.yul\":14318:14425   */\n      swap3\n      swap2\n      pop\n      pop\n      jump\t// out\n        /* \"#utility.yul\":14431:14824   */\n    tag_182:\n        /* \"#utility.yul\":14500:14506   */\n      0x00\n        /* \"#utility.yul\":14550:14551   */\n      0x08\n        /* \"#utility.yul\":14538:14548   */\n      dup4\n        /* \"#utility.yul\":14534:14552   */\n      mul\n        /* \"#utility.yul\":14573:14670   */\n      tag_336\n        /* \"#utility.yul\":14603:14669   */\n      0xffffffffffffffffffffffffffffffffffffffffffffffffffffffffffffffff\n        /* \"#utility.yul\":14592:14601   */\n      dup3\n        /* \"#utility.yul\":14573:14670   */\n      tag_181\n      jump\t// in\n    tag_336:\n        /* \"#utility.yul\":14691:14730   */\n      tag_337\n        /* \"#utility.yul\":14721:14729   */\n      dup7\n        /* \"#utility.yul\":14710:14719   */\n      dup4\n        /* \"#utility.yul\":14691:14730   */\n      tag_181\n      jump\t// in\n    tag_337:\n        /* \"#utility.yul\":14679:14730   */\n      swap6\n      pop\n        /* \"#utility.yul\":14763:14767   */\n      dup1\n        /* \"#utility.yul\":14759:14768   */\n      not\n        /* \"#utility.yul\":14752:14757   */\n      dup5\n        /* \"#utility.yul\":14748:14769   */\n      and\n        /* \"#utility.yul\":14739:14769   */\n      swap4\n      pop\n        /* \"#utility.yul\":14812:14816   */\n      dup1\n        /* \"#utility.yul\":14802:14810   */\n      dup7\n        /* \"#utility.yul\":14798:14817   */\n      and\n        /* \"#utility.yul\":14791:14796   */\n      dup5\n        /* \"#utility.yul\":14788:14818   */\n      or\n        /* \"#utility.yul\":14778:14818   */\n      swap3\n      pop\n        /* \"#utility.yul\":14507:14824   */\n      pop\n      pop\n        /* \"#utility.yul\":14431:14824   */\n      swap4\n      swap3\n      pop\n      pop\n      pop\n      jump\t// out\n        /* \"#utility.yul\":14830:14890   */\n    tag_183:\n        /* \"#utility.yul\":14858:14861   */\n      0x00\n        /* \"#utility.yul\":14879:14884   */\n      dup2\n        /* \"#utility.yul\":14872:14884   */\n      swap1\n      pop\n        /* \"#utility.yul\":14830:14890   */\n      swap2\n      swap1\n      pop\n      jump\t// out\n        /* \"#utility.yul\":14896:15038   */\n    tag_184:\n        /* \"#utility.yul\":14946:14955   */\n      0x00\n        /* \"#utility.yul\":14979:15032   */\n      tag_340\n        /* \"#utility.yul\":14997:15031   */\n      tag_341\n        /* \"#utility.yul\":15006:15030   */\n      tag_342\n        /* \"#utility.yul\":15024:15029   */\n      dup5\n        /* \"#utility.yul\":15006:15030   */\n      tag_145\n      jump\t// in\n    tag_342:\n        /* \"#utility.yul\":14997:15031   */\n      tag_183\n      jump\t// in\n    tag_341:\n        /* \"#utility.yul\":14979:15032   */\n      tag_145\n      jump\t// in\n    tag_340:\n        /* \"#utility.yul\":14966:15032   */\n      swap1\n      pop\n        /* \"#utility.yul\":14896:15038   */\n      swap2\n      swap1\n      pop\n      jump\t// out\n        /* \"#utility.yul\":15044:15119   */\n    tag_185:\n        /* \"#utility.yul\":15087:15090   */\n      0x00\n        /* \"#utility.yul\":15108:15113   */\n      dup2\n        /* \"#utility.yul\":15101:15113   */\n      swap1\n      pop\n        /* \"#utility.yul\":15044:15119   */\n      swap2\n      swap1\n      pop\n      jump\t// out\n        /* \"#utility.yul\":15125:15394   */\n    tag_186:\n        /* \"#utility.yul\":15235:15274   */\n      tag_345\n        /* \"#utility.yul\":15266:15273   */\n      dup4\n        /* \"#utility.yul\":15235:15274   */\n      tag_184\n      jump\t// in\n    tag_345:\n        /* \"#utility.yul\":15296:15387   */\n      tag_346\n        /* \"#utility.yul\":15345:15386   */\n      tag_347\n        /* \"#utility.yul\":15369:15385   */\n      dup3\n        /* \"#utility.yul\":15345:15386   */\n      tag_185\n      jump\t// in\n    tag_347:\n        /* \"#utility.yul\":15337:15343   */\n      dup5\n        /* \"#utility.yul\":15330:15334   */\n      dup5\n        /* \"#utility.yul\":15324:15335   */\n      sload\n        /* \"#utility.yul\":15296:15387   */\n      tag_182\n      jump\t// in\n    tag_346:\n        /* \"#utility.yul\":15290:15294   */\n      dup3\n        /* \"#utility.yul\":15283:15388   */\n      sstore\n        /* \"#utility.yul\":15201:15394   */\n      pop\n        /* \"#utility.yul\":15125:15394   */\n      pop\n      pop\n      pop\n      jump\t// out\n        /* \"#utility.yul\":15400:15473   */\n    tag_187:\n        /* \"#utility.yul\":15445:15448   */\n      0x00\n        /* \"#utility.yul\":15400:15473   */\n      swap1\n      jump\t// out\n        /* \"#utility.yul\":15479:15668   */\n    tag_188:\n        /* \"#utility.yul\":15556:15588   */\n      tag_350\n      tag_187\n      jump\t// in\n    tag_350:\n        /* \"#utility.yul\":15597:15662   */\n      tag_351\n        /* \"#utility.yul\":15655:15661   */\n      dup2\n        /* \"#utility.yul\":15647:15653   */\n      dup5\n        /* \"#utility.yul\":15641:15645   */\n      dup5\n        /* \"#utility.yul\":15597:15662   */\n      tag_186\n      jump\t// in\n    tag_351:\n        /* \"#utility.yul\":15532:15668   */\n      pop\n        /* \"#utility.yul\":15479:15668   */\n      pop\n      pop\n      jump\t// out\n        /* \"#utility.yul\":15674:15860   */\n    tag_189:\n        /* \"#utility.yul\":15734:15854   */\n    tag_353:\n        /* \"#utility.yul\":15751:15754   */\n      dup2\n        /* \"#utility.yul\":15744:15749   */\n      dup2\n        /* \"#utility.yul\":15741:15755   */\n      lt\n        /* \"#utility.yul\":15734:15854   */\n      iszero\n      tag_355\n      jumpi\n        /* \"#utility.yul\":15805:15844   */\n      tag_356\n        /* \"#utility.yul\":15842:15843   */\n      0x00\n        /* \"#utility.yul\":15835:15840   */\n      dup3\n        /* \"#utility.yul\":15805:15844   */\n      tag_188\n      jump\t// in\n    tag_356:\n        /* \"#utility.yul\":15778:15779   */\n      0x01\n        /* \"#utility.yul\":15771:15776   */\n      dup2\n        /* \"#utility.yul\":15767:15780   */\n      add\n        /* \"#utility.yul\":15758:15780   */\n      swap1\n      pop\n        /* \"#utility.yul\":15734:15854   */\n      jump(tag_353)\n    tag_355:\n        /* \"#utility.yul\":15674:15860   */\n      pop\n      pop\n      jump\t// out\n        /* \"#utility.yul\":15866:16409   */\n    tag_190:\n        /* \"#utility.yul\":15967:15969   */\n      0x1f\n        /* \"#utility.yul\":15962:15965   */\n      dup3\n        /* \"#utility.yul\":15959:15970   */\n      gt\n        /* \"#utility.yul\":15956:16402   */\n      iszero\n      tag_358\n      jumpi\n        /* \"#utility.yul\":16001:16039   */\n      tag_359\n        /* \"#utility.yul\":16033:16038   */\n      dup2\n        /* \"#utility.yul\":16001:16039   */\n      tag_179\n      jump\t// in\n    tag_359:\n        /* \"#utility.yul\":16085:16114   */\n      tag_360\n        /* \"#utility.yul\":16103:16113   */\n      dup5\n        /* \"#utility.yul\":16085:16114   */\n      tag_180\n      jump\t// in\n    tag_360:\n        /* \"#utility.yul\":16075:16083   */\n      dup2\n        /* \"#utility.yul\":16071:16115   */\n      add\n        /* \"#utility.yul\":16268:16270   */\n      0x20\n        /* \"#utility.yul\":16256:16266   */\n      dup6\n        /* \"#utility.yul\":16253:16271   */\n      lt\n        /* \"#utility.yul\":16250:16299   */\n      iszero\n      tag_361\n      jumpi\n        /* \"#utility.yul\":16289:16297   */\n      dup2\n        /* \"#utility.yul\":16274:16297   */\n      swap1\n      pop\n        /* \"#utility.yul\":16250:16299   */\n    tag_361:\n        /* \"#utility.yul\":16312:16392   */\n      tag_362\n        /* \"#utility.yul\":16368:16390   */\n      tag_363\n        /* \"#utility.yul\":16386:16389   */\n      dup6\n        /* \"#utility.yul\":16368:16390   */\n      tag_180\n      jump\t// in\n    tag_363:\n        /* \"#utility.yul\":16358:16366   */\n      dup4\n        /* \"#utility.yul\":16354:16391   */\n      add\n        /* \"#utility.yul\":16341:16352   */\n      dup3\n        /* \"#utility.yul\":16312:16392   */\n      tag_189\n      jump\t// in\n    tag_362:\n        /* \"#utility.yul\":15971:16402   */\n      pop\n      pop\n        /* \"#utility.yul\":15956:16402   */\n    tag_358:\n        /* \"#utility.yul\":15866:16409   */\n      pop\n      pop\n      pop\n      jump\t// out\n        /* \"#utility.yul\":16415:16532   */\n    tag_191:\n        /* \"#utility.yul\":16469:16477   */\n      0x00\n        /* \"#utility.yul\":16519:16524   */\n      dup3\n        /* \"#utility.yul\":16513:16517   */\n      dup3\n        /* \"#utility.yul\":16509:16525   */\n      shr\n        /* \"#utility.yul\":16488:16525   */\n      swap1\n      pop\n        /* \"#utility.yul\":16415:16532   */\n      swap3\n      swap2\n      pop\n      pop\n      jump\t// out\n        /* \"#utility.yul\":16538:16707   */\n    tag_192:\n        /* \"#utility.yul\":16582:16588   */\n      0x00\n        /* \"#utility.yul\":16615:16666   */\n      tag_366\n        /* \"#utility.yul\":16663:16664   */\n      0x00\n        /* \"#utility.yul\":16659:16665   */\n      not\n        /* \"#utility.yul\":16651:16656   */\n      dup5\n        /* \"#utility.yul\":16648:16649   */\n      0x08\n        /* \"#utility.yul\":16644:16657   */\n      mul\n        /* \"#utility.yul\":16615:16666   */\n      tag_191\n      jump\t// in\n    tag_366:\n        /* \"#utility.yul\":16611:16667   */\n      not\n        /* \"#utility.yul\":16696:16700   */\n      dup1\n        /* \"#utility.yul\":16690:16694   */\n      dup4\n        /* \"#utility.yul\":16686:16701   */\n      and\n        /* \"#utility.yul\":16676:16701   */\n      swap2\n      pop\n        /* \"#utility.yul\":16589:16707   */\n      pop\n        /* \"#utility.yul\":16538:16707   */\n      swap3\n      swap2\n      pop\n      pop\n      jump\t// out\n        /* \"#utility.yul\":16712:17007   */\n    tag_193:\n        /* \"#utility.yul\":16788:16792   */\n      0x00\n        /* \"#utility.yul\":16934:16963   */\n      tag_368\n        /* \"#utility.yul\":16959:16962   */\n      dup4\n        /* \"#utility.yul\":16953:16957   */\n      dup4\n        /* \"#utility.yul\":16934:16963   */\n      tag_192\n      jump\t// in\n    tag_368:\n        /* \"#utility.yul\":16926:16963   */\n      swap2\n      pop\n        /* \"#utility.yul\":16996:16999   */\n      dup3\n        /* \"#utility.yul\":16993:16994   */\n      0x02\n        /* \"#utility.yul\":16989:17000   */\n      mul\n        /* \"#utility.yul\":16983:16987   */\n      dup3\n        /* \"#utility.yul\":16980:17001   */\n      or\n        /* \"#utility.yul\":16972:17001   */\n      swap1\n      pop\n        /* \"#utility.yul\":16712:17007   */\n      swap3\n      swap2\n      pop\n      pop\n      jump\t// out\n        /* \"#utility.yul\":17012:18407   */\n    tag_42:\n        /* \"#utility.yul\":17129:17166   */\n      tag_370\n        /* \"#utility.yul\":17162:17165   */\n      dup3\n        /* \"#utility.yul\":17129:17166   */\n      tag_162\n      jump\t// in\n    tag_370:\n        /* \"#utility.yul\":17231:17249   */\n      0xffffffffffffffff\n        /* \"#utility.yul\":17223:17229   */\n      dup2\n        /* \"#utility.yul\":17220:17250   */\n      gt\n        /* \"#utility.yul\":17217:17273   */\n      iszero\n      tag_371\n      jumpi\n        /* \"#utility.yul\":17253:17271   */\n      tag_372\n      tag_50\n      jump\t// in\n    tag_372:\n        /* \"#utility.yul\":17217:17273   */\n    tag_371:\n        /* \"#utility.yul\":17297:17335   */\n      tag_373\n        /* \"#utility.yul\":17329:17333   */\n      dup3\n        /* \"#utility.yul\":17323:17334   */\n      sload\n        /* \"#utility.yul\":17297:17335   */\n      tag_66\n      jump\t// in\n    tag_373:\n        /* \"#utility.yul\":17382:17449   */\n      tag_374\n        /* \"#utility.yul\":17442:17448   */\n      dup3\n        /* \"#utility.yul\":17434:17440   */\n      dup3\n        /* \"#utility.yul\":17428:17432   */\n      dup6\n        /* \"#utility.yul\":17382:17449   */\n      tag_190\n      jump\t// in\n    tag_374:\n        /* \"#utility.yul\":17476:17477   */\n      0x00\n        /* \"#utility.yul\":17500:17504   */\n      0x20\n        /* \"#utility.yul\":17487:17504   */\n      swap1\n      pop\n        /* \"#utility.yul\":17532:17534   */\n      0x1f\n        /* \"#utility.yul\":17524:17530   */\n      dup4\n        /* \"#utility.yul\":17521:17535   */\n      gt\n        /* \"#utility.yul\":17549:17550   */\n      0x01\n        /* \"#utility.yul\":17544:18162   */\n      dup2\n      eq\n      tag_376\n      jumpi\n        /* \"#utility.yul\":18206:18207   */\n      0x00\n        /* \"#utility.yul\":18223:18229   */\n      dup5\n        /* \"#utility.yul\":18220:18297   */\n      iszero\n      tag_377\n      jumpi\n        /* \"#utility.yul\":18272:18281   */\n      dup3\n        /* \"#utility.yul\":18267:18270   */\n      dup8\n        /* \"#utility.yul\":18263:18282   */\n      add\n        /* \"#utility.yul\":18257:18283   */\n      mload\n        /* \"#utility.yul\":18248:18283   */\n      swap1\n      pop\n        /* \"#utility.yul\":18220:18297   */\n    tag_377:\n        /* \"#utility.yul\":18323:18390   */\n      tag_378\n        /* \"#utility.yul\":18383:18389   */\n      dup6\n        /* \"#utility.yul\":18376:18381   */\n      dup3\n        /* \"#utility.yul\":18323:18390   */\n      tag_193\n      jump\t// in\n    tag_378:\n        /* \"#utility.yul\":18317:18321   */\n      dup7\n        /* \"#utility.yul\":18310:18391   */\n      sstore\n        /* \"#utility.yul\":18179:18401   */\n      pop\n        /* \"#utility.yul\":17514:18401   */\n      jump(tag_375)\n        /* \"#utility.yul\":17544:18162   */\n    tag_376:\n        /* \"#utility.yul\":17596:17600   */\n      0x1f\n        /* \"#utility.yul\":17592:17601   */\n      not\n        /* \"#utility.yul\":17584:17590   */\n      dup5\n        /* \"#utility.yul\":17580:17602   */\n      and\n        /* \"#utility.yul\":17630:17667   */\n      tag_379\n        /* \"#utility.yul\":17662:17666   */\n      dup7\n        /* \"#utility.yul\":17630:17667   */\n      tag_179\n      jump\t// in\n    tag_379:\n        /* \"#utility.yul\":17689:17690   */\n      0x00\n        /* \"#utility.yul\":17703:17911   */\n    tag_380:\n        /* \"#utility.yul\":17717:17724   */\n      dup3\n        /* \"#utility.yul\":17714:17715   */\n      dup2\n        /* \"#utility.yul\":17711:17725   */\n      lt\n        /* \"#utility.yul\":17703:17911   */\n      iszero\n      tag_382\n      jumpi\n        /* \"#utility.yul\":17796:17805   */\n      dup5\n        /* \"#utility.yul\":17791:17794   */\n      dup10\n        /* \"#utility.yul\":17787:17806   */\n      add\n        /* \"#utility.yul\":17781:17807   */\n      mload\n        /* \"#utility.yul\":17773:17779   */\n      dup3\n        /* \"#utility.yul\":17766:17808   */\n      sstore\n        /* \"#utility.yul\":17847:17848   */\n      0x01\n        /* \"#utility.yul\":17839:17845   */\n      dup3\n        /* \"#utility.yul\":17835:17849   */\n      add\n        /* \"#utility.yul\":17825:17849   */\n      swap2\n      pop\n        /* \"#utility.yul\":17894:17896   */\n      0x20\n        /* \"#utility.yul\":17883:17892   */\n      dup6\n        /* \"#utility.yul\":17879:17897   */\n      add\n        /* \"#utility.yul\":17866:17897   */\n      swap5\n      pop\n        /* \"#utility.yul\":17740:17744   */\n      0x20\n        /* \"#utility.yul\":17737:17738   */\n      dup2\n        /* \"#utility.yul\":17733:17745   */\n      add\n        /* \"#utility.yul\":17728:17745   */\n      swap1\n      pop\n        /* \"#utility.yul\":17703:17911   */\n      jump(tag_380)\n    tag_382:\n        /* \"#utility.yul\":17939:17945   */\n      dup7\n        /* \"#utility.yul\":17930:17937   */\n      dup4\n        /* \"#utility.yul\":17927:17946   */\n      lt\n        /* \"#utility.yul\":17924:18103   */\n      iszero\n      tag_383\n      jumpi\n        /* \"#utility.yul\":17997:18006   */\n      dup5\n        /* \"#utility.yul\":17992:17995   */\n      dup10\n        /* \"#utility.yul\":17988:18007   */\n      add\n        /* \"#utility.yul\":17982:18008   */\n      mload\n        /* \"#utility.yul\":18040:18088   */\n      tag_384\n        /* \"#utility.yul\":18082:18086   */\n      0x1f\n        /* \"#utility.yul\":18074:18080   */\n      dup10\n        /* \"#utility.yul\":18070:18087   */\n      and\n        /* \"#utility.yul\":18059:18068   */\n      dup3\n        /* \"#utility.yul\":18040:18088   */\n      tag_192\n      jump\t// in\n    tag_384:\n        /* \"#utility.yul\":18032:18038   */\n      dup4\n        /* \"#utility.yul\":18025:18089   */\n      sstore\n        /* \"#utility.yul\":17947:18103   */\n      pop\n        /* \"#utility.yul\":17924:18103   */\n    tag_383:\n        /* \"#utility.yul\":18149:18150   */\n      0x01\n        /* \"#utility.yul\":18145:18146   */\n      0x02\n        /* \"#utility.yul\":18137:18143   */\n      dup9\n        /* \"#utility.yul\":18133:18147   */\n      mul\n        /* \"#utility.yul\":18129:18151   */\n      add\n        /* \"#utility.yul\":18123:18127   */\n      dup9\n        /* \"#utility.yul\":18116:18152   */\n      sstore\n        /* \"#utility.yul\":17551:18162   */\n      pop\n      pop\n      pop\n        /* \"#utility.yul\":17514:18401   */\n    tag_375:\n      pop\n        /* \"#utility.yul\":17104:18407   */\n      pop\n      pop\n      pop\n        /* \"#utility.yul\":17012:18407   */\n      pop\n      pop\n      jump\t// out\n        /* \"#utility.yul\":18413:18593   */\n    tag_194:\n        /* \"#utility.yul\":18461:18538   */\n      0x4e487b7100000000000000000000000000000000000000000000000000000000\n        /* \"#utility.yul\":18458:18459   */\n      0x00\n        /* \"#utility.yul\":18451:18539   */\n      mstore\n        /* \"#utility.yul\":18558:18562   */\n      0x11\n        /* \"#utility.yul\":18555:18556   */\n      0x04\n        /* \"#utility.yul\":18548:18563   */\n      mstore\n        /* \"#utility.yul\":18582:18586   */\n      0x24\n        /* \"#utility.yul\":18579:18580   */\n      0x00\n        /* \"#utility.yul\":18572:18587   */\n      revert\n        /* \"#utility.yul\":18599:18832   */\n    tag_74:\n        /* \"#utility.yul\":18638:18641   */\n      0x00\n        /* \"#utility.yul\":18661:18685   */\n      tag_387\n        /* \"#utility.yul\":18679:18684   */\n      dup3\n        /* \"#utility.yul\":18661:18685   */\n      tag_145\n      jump\t// in\n    tag_387:\n        /* \"#utility.yul\":18652:18685   */\n      swap2\n      pop\n        /* \"#utility.yul\":18707:18773   */\n      0xffffffffffffffffffffffffffffffffffffffffffffffffffffffffffffffff\n        /* \"#utility.yul\":18700:18705   */\n      dup3\n        /* \"#utility.yul\":18697:18774   */\n      sub\n        /* \"#utility.yul\":18694:18797   */\n      tag_388\n      jumpi\n        /* \"#utility.yul\":18777:18795   */\n      tag_389\n      tag_194\n      jump\t// in\n    tag_389:\n        /* \"#utility.yul\":18694:18797   */\n    tag_388:\n        /* \"#utility.yul\":18824:18825   */\n      0x01\n        /* \"#utility.yul\":18817:18822   */\n      dup3\n        /* \"#utility.yul\":18813:18826   */\n      add\n        /* \"#utility.yul\":18806:18826   */\n      swap1\n      pop\n        /* \"#utility.yul\":18599:18832   */\n      swap2\n      swap1\n      pop\n      jump\t// out\n        /* \"#utility.yul\":18838:19029   */\n    tag_81:\n        /* \"#utility.yul\":18878:18881   */\n      0x00\n        /* \"#utility.yul\":18897:18917   */\n      tag_391\n        /* \"#utility.yul\":18915:18916   */\n      dup3\n        /* \"#utility.yul\":18897:18917   */\n      tag_145\n      jump\t// in\n    tag_391:\n        /* \"#utility.yul\":18892:18917   */\n      swap2\n      pop\n        /* \"#utility.yul\":18931:18951   */\n      tag_392\n        /* \"#utility.yul\":18949:18950   */\n      dup4\n        /* \"#utility.yul\":18931:18951   */\n      tag_145\n      jump\t// in\n    tag_392:\n        /* \"#utility.yul\":18926:18951   */\n      swap3\n      pop\n        /* \"#utility.yul\":18974:18975   */\n      dup3\n        /* \"#utility.yul\":18971:18972   */\n      dup3\n        /* \"#utility.yul\":18967:18976   */\n      add\n        /* \"#utility.yul\":18960:18976   */\n      swap1\n      pop\n        /* \"#utility.yul\":18995:18998   */\n      dup1\n        /* \"#utility.yul\":18992:18993   */\n      dup3\n        /* \"#utility.yul\":18989:18999   */\n      gt\n        /* \"#utility.yul\":18986:19022   */\n      iszero\n      tag_393\n      jumpi\n        /* \"#utility.yul\":19002:19020   */\n      tag_394\n      tag_194\n      jump\t// in\n    tag_394:\n        /* \"#utility.yul\":18986:19022   */\n    tag_393:\n        /* \"#utility.yul\":18838:19029   */\n      swap3\n      swap2\n      pop\n      pop\n      jump\t// out\n\n    auxdata: 0xa2646970667358221220148b40fc039f9d394bae78f679b7178bf460e17b1b043e8871a9f961e9b54e0b64736f6c634300081a0033\n}\n",
				"bytecode": {
					"linkReferences": {},
					"object": "6080604052348015600e575f80fd5b506114cd8061001c5f395ff3fe608060405234801561000f575f80fd5b506004361061004a575f3560e01c8063ab7bcf181461004e578063ba7b37d41461006a578063bb39484414610086578063f5593607146100b6575b5f80fd5b61006860048036038101906100639190610ba7565b6100d5565b005b610084600480360381019061007f9190610c58565b6102ec565b005b6100a0600480360381019061009b9190610cd8565b6106b0565b6040516100ad9190610d32565b60405180910390f35b6100be610701565b6040516100cc929190610f5d565b60405180910390f35b81819050848490501461011d576040517f08c379a000000000000000000000000000000000000000000000000000000000815260040161011490610fec565b60405180910390fd5b5f5b848490508110156102e55760405180606001604052808484848181106101485761014761100a565b5b905060200281019061015a9190611043565b8080601f0160208091040260200160405190810160405280939291908181526020018383808284375f81840152601f19601f8201169050808301925050505050505081526020015f8152602001600115158152505f808787858181106101c3576101c261100a565b5b90506020020160208101906101d891906110cf565b73ffffffffffffffffffffffffffffffffffffffff1673ffffffffffffffffffffffffffffffffffffffff1681526020019081526020015f205f820151815f0190816102249190611321565b50602082015181600101556040820151816002015f6101000a81548160ff02191690831515021790555090505060018585838181106102665761026561100a565b5b905060200201602081019061027b91906110cf565b908060018154018082558091505060019003905f5260205f20015f9091909190916101000a81548173ffffffffffffffffffffffffffffffffffffffff021916908373ffffffffffffffffffffffffffffffffffffffff160217905550808060010191505061011f565b5050505050565b5f60018054905067ffffffffffffffff81111561030c5761030b6110fa565b5b60405190808252806020026020018201604052801561034557816020015b610332610ac8565b81526020019060019003908161032a5790505b5090505f805b600180549050811015610553575f806001838154811061036e5761036d61100a565b5b905f5260205f20015f9054906101000a900473ffffffffffffffffffffffffffffffffffffffff1673ffffffffffffffffffffffffffffffffffffffff1673ffffffffffffffffffffffffffffffffffffffff1681526020019081526020015f206002015f9054906101000a900460ff1615610546575f80600183815481106103fa576103f961100a565b5b905f5260205f20015f9054906101000a900473ffffffffffffffffffffffffffffffffffffffff1673ffffffffffffffffffffffffffffffffffffffff1673ffffffffffffffffffffffffffffffffffffffff1681526020019081526020015f206040518060600160405290815f8201805461047590611154565b80601f01602080910402602001604051908101604052809291908181526020018280546104a190611154565b80156104ec5780601f106104c3576101008083540402835291602001916104ec565b820191905f5260205f20905b8154815290600101906020018083116104cf57829003601f168201915b5050505050815260200160018201548152602001600282015f9054906101000a900460ff16151515158152505083838151811061052c5761052b61100a565b5b602002602001018190525081806105429061141d565b9250505b808060010191505061034b565b505f5b8181101561059e57838382815181106105725761057161100a565b5b602002602001015160200181815161058a9190611464565b915081815250508080600101915050610556565b505f5b818110156106aa575f600182815481106105be576105bd61100a565b5b905f5260205f20015f9054906101000a900473ffffffffffffffffffffffffffffffffffffffff1690505f808273ffffffffffffffffffffffffffffffffffffffff1673ffffffffffffffffffffffffffffffffffffffff1681526020019081526020015f206002015f9054906101000a900460ff161561069c5783828151811061064c5761064b61100a565b5b6020026020010151602001515f808373ffffffffffffffffffffffffffffffffffffffff1673ffffffffffffffffffffffffffffffffffffffff1681526020019081526020015f20600101819055505b5080806001019150506105a1565b50505050565b5f805f90505f5b848490508110156106f6578484828181106106d5576106d461100a565b5b90506020020135826106e79190611464565b915080806001019150506106b7565b508091505092915050565b6060805f805b6001805490508110156107bc575f806001838154811061072a5761072961100a565b5b905f5260205f20015f9054906101000a900473ffffffffffffffffffffffffffffffffffffffff1673ffffffffffffffffffffffffffffffffffffffff1673ffffffffffffffffffffffffffffffffffffffff1681526020019081526020015f206002015f9054906101000a900460ff16156107af5781806107ab9061141d565b9250505b8080600101915050610707565b505f8167ffffffffffffffff8111156107d8576107d76110fa565b5b6040519080825280602002602001820160405280156108065781602001602082028036833780820191505090505b5090505f8267ffffffffffffffff811115610824576108236110fa565b5b60405190808252806020026020018201604052801561085757816020015b60608152602001906001900390816108425790505b5090505f805b600180549050811015610ab9575f80600183815481106108805761087f61100a565b5b905f5260205f20015f9054906101000a900473ffffffffffffffffffffffffffffffffffffffff1673ffffffffffffffffffffffffffffffffffffffff1673ffffffffffffffffffffffffffffffffffffffff1681526020019081526020015f206002015f9054906101000a900460ff1615610aac576001818154811061090a5761090961100a565b5b905f5260205f20015f9054906101000a900473ffffffffffffffffffffffffffffffffffffffff168483815181106109455761094461100a565b5b602002602001019073ffffffffffffffffffffffffffffffffffffffff16908173ffffffffffffffffffffffffffffffffffffffff16815250505f80600183815481106109955761099461100a565b5b905f5260205f20015f9054906101000a900473ffffffffffffffffffffffffffffffffffffffff1673ffffffffffffffffffffffffffffffffffffffff1673ffffffffffffffffffffffffffffffffffffffff1681526020019081526020015f205f018054610a0390611154565b80601f0160208091040260200160405190810160405280929190818152602001828054610a2f90611154565b8015610a7a5780601f10610a5157610100808354040283529160200191610a7a565b820191905f5260205f20905b815481529060010190602001808311610a5d57829003601f168201915b5050505050838381518110610a9257610a9161100a565b5b60200260200101819052508180610aa89061141d565b9250505b808060010191505061085d565b50828295509550505050509091565b6040518060600160405280606081526020015f81526020015f151581525090565b5f80fd5b5f80fd5b5f80fd5b5f80fd5b5f80fd5b5f8083601f840112610b1257610b11610af1565b5b8235905067ffffffffffffffff811115610b2f57610b2e610af5565b5b602083019150836020820283011115610b4b57610b4a610af9565b5b9250929050565b5f8083601f840112610b6757610b66610af1565b5b8235905067ffffffffffffffff811115610b8457610b83610af5565b5b602083019150836020820283011115610ba057610b9f610af9565b5b9250929050565b5f805f8060408587031215610bbf57610bbe610ae9565b5b5f85013567ffffffffffffffff811115610bdc57610bdb610aed565b5b610be887828801610afd565b9450945050602085013567ffffffffffffffff811115610c0b57610c0a610aed565b5b610c1787828801610b52565b925092505092959194509250565b5f819050919050565b610c3781610c25565b8114610c41575f80fd5b50565b5f81359050610c5281610c2e565b92915050565b5f60208284031215610c6d57610c6c610ae9565b5b5f610c7a84828501610c44565b91505092915050565b5f8083601f840112610c9857610c97610af1565b5b8235905067ffffffffffffffff811115610cb557610cb4610af5565b5b602083019150836020820283011115610cd157610cd0610af9565b5b9250929050565b5f8060208385031215610cee57610ced610ae9565b5b5f83013567ffffffffffffffff811115610d0b57610d0a610aed565b5b610d1785828601610c83565b92509250509250929050565b610d2c81610c25565b82525050565b5f602082019050610d455f830184610d23565b92915050565b5f81519050919050565b5f82825260208201905092915050565b5f819050602082019050919050565b5f73ffffffffffffffffffffffffffffffffffffffff82169050919050565b5f610d9d82610d74565b9050919050565b610dad81610d93565b82525050565b5f610dbe8383610da4565b60208301905092915050565b5f602082019050919050565b5f610de082610d4b565b610dea8185610d55565b9350610df583610d65565b805f5b83811015610e25578151610e0c8882610db3565b9750610e1783610dca565b925050600181019050610df8565b5085935050505092915050565b5f81519050919050565b5f82825260208201905092915050565b5f819050602082019050919050565b5f81519050919050565b5f82825260208201905092915050565b8281835e5f83830152505050565b5f601f19601f8301169050919050565b5f610e9d82610e5b565b610ea78185610e65565b9350610eb7818560208601610e75565b610ec081610e83565b840191505092915050565b5f610ed68383610e93565b905092915050565b5f602082019050919050565b5f610ef482610e32565b610efe8185610e3c565b935083602082028501610f1085610e4c565b805f5b85811015610f4b5784840389528151610f2c8582610ecb565b9450610f3783610ede565b925060208a01995050600181019050610f13565b50829750879550505050505092915050565b5f6040820190508181035f830152610f758185610dd6565b90508181036020830152610f898184610eea565b90509392505050565b5f82825260208201905092915050565b7f4172726179206d7573742062652073616d65204c656e677468000000000000005f82015250565b5f610fd6601983610f92565b9150610fe182610fa2565b602082019050919050565b5f6020820190508181035f83015261100381610fca565b9050919050565b7f4e487b71000000000000000000000000000000000000000000000000000000005f52603260045260245ffd5b5f80fd5b5f80fd5b5f80fd5b5f808335600160200384360303811261105f5761105e611037565b5b80840192508235915067ffffffffffffffff8211156110815761108061103b565b5b60208301925060018202360383131561109d5761109c61103f565b5b509250929050565b6110ae81610d93565b81146110b8575f80fd5b50565b5f813590506110c9816110a5565b92915050565b5f602082840312156110e4576110e3610ae9565b5b5f6110f1848285016110bb565b91505092915050565b7f4e487b71000000000000000000000000000000000000000000000000000000005f52604160045260245ffd5b7f4e487b71000000000000000000000000000000000000000000000000000000005f52602260045260245ffd5b5f600282049050600182168061116b57607f821691505b60208210810361117e5761117d611127565b5b50919050565b5f819050815f5260205f209050919050565b5f6020601f8301049050919050565b5f82821b905092915050565b5f600883026111e07fffffffffffffffffffffffffffffffffffffffffffffffffffffffffffffffff826111a5565b6111ea86836111a5565b95508019841693508086168417925050509392505050565b5f819050919050565b5f61122561122061121b84610c25565b611202565b610c25565b9050919050565b5f819050919050565b61123e8361120b565b61125261124a8261122c565b8484546111b1565b825550505050565b5f90565b61126661125a565b611271818484611235565b505050565b5b81811015611294576112895f8261125e565b600181019050611277565b5050565b601f8211156112d9576112aa81611184565b6112b384611196565b810160208510156112c2578190505b6112d66112ce85611196565b830182611276565b50505b505050565b5f82821c905092915050565b5f6112f95f19846008026112de565b1980831691505092915050565b5f61131183836112ea565b9150826002028217905092915050565b61132a82610e5b565b67ffffffffffffffff811115611343576113426110fa565b5b61134d8254611154565b611358828285611298565b5f60209050601f831160018114611389575f8415611377578287015190505b6113818582611306565b8655506113e8565b601f19841661139786611184565b5f5b828110156113be57848901518255600182019150602085019450602081019050611399565b868310156113db57848901516113d7601f8916826112ea565b8355505b6001600288020188555050505b505050505050565b7f4e487b71000000000000000000000000000000000000000000000000000000005f52601160045260245ffd5b5f61142782610c25565b91507fffffffffffffffffffffffffffffffffffffffffffffffffffffffffffffffff8203611459576114586113f0565b5b600182019050919050565b5f61146e82610c25565b915061147983610c25565b9250828201905080821115611491576114906113f0565b5b9291505056fea2646970667358221220148b40fc039f9d394bae78f679b7178bf460e17b1b043e8871a9f961e9b54e0b64736f6c634300081a0033",
					"opcodes": "PUSH1 0x80 PUSH1 0x40 MSTORE CALLVALUE DUP1 ISZERO PUSH1 0xE JUMPI PUSH0 DUP1 REVERT JUMPDEST POP PUSH2 0x14CD DUP1 PUSH2 0x1C PUSH0 CODECOPY PUSH0 RETURN INVALID PUSH1 0x80 PUSH1 0x40 MSTORE CALLVALUE DUP1 ISZERO PUSH2 0xF JUMPI PUSH0 DUP1 REVERT JUMPDEST POP PUSH1 0x4 CALLDATASIZE LT PUSH2 0x4A JUMPI PUSH0 CALLDATALOAD PUSH1 0xE0 SHR DUP1 PUSH4 0xAB7BCF18 EQ PUSH2 0x4E JUMPI DUP1 PUSH4 0xBA7B37D4 EQ PUSH2 0x6A JUMPI DUP1 PUSH4 0xBB394844 EQ PUSH2 0x86 JUMPI DUP1 PUSH4 0xF5593607 EQ PUSH2 0xB6 JUMPI JUMPDEST PUSH0 DUP1 REVERT JUMPDEST PUSH2 0x68 PUSH1 0x4 DUP1 CALLDATASIZE SUB DUP2 ADD SWAP1 PUSH2 0x63 SWAP2 SWAP1 PUSH2 0xBA7 JUMP JUMPDEST PUSH2 0xD5 JUMP JUMPDEST STOP JUMPDEST PUSH2 0x84 PUSH1 0x4 DUP1 CALLDATASIZE SUB DUP2 ADD SWAP1 PUSH2 0x7F SWAP2 SWAP1 PUSH2 0xC58 JUMP JUMPDEST PUSH2 0x2EC JUMP JUMPDEST STOP JUMPDEST PUSH2 0xA0 PUSH1 0x4 DUP1 CALLDATASIZE SUB DUP2 ADD SWAP1 PUSH2 0x9B SWAP2 SWAP1 PUSH2 0xCD8 JUMP JUMPDEST PUSH2 0x6B0 JUMP JUMPDEST PUSH1 0x40 MLOAD PUSH2 0xAD SWAP2 SWAP1 PUSH2 0xD32 JUMP JUMPDEST PUSH1 0x40 MLOAD DUP1 SWAP2 SUB SWAP1 RETURN JUMPDEST PUSH2 0xBE PUSH2 0x701 JUMP JUMPDEST PUSH1 0x40 MLOAD PUSH2 0xCC SWAP3 SWAP2 SWAP1 PUSH2 0xF5D JUMP JUMPDEST PUSH1 0x40 MLOAD DUP1 SWAP2 SUB SWAP1 RETURN JUMPDEST DUP2 DUP2 SWAP1 POP DUP5 DUP5 SWAP1 POP EQ PUSH2 0x11D JUMPI PUSH1 0x40 MLOAD PUSH32 0x8C379A000000000000000000000000000000000000000000000000000000000 DUP2 MSTORE PUSH1 0x4 ADD PUSH2 0x114 SWAP1 PUSH2 0xFEC JUMP JUMPDEST PUSH1 0x40 MLOAD DUP1 SWAP2 SUB SWAP1 REVERT JUMPDEST PUSH0 JUMPDEST DUP5 DUP5 SWAP1 POP DUP2 LT ISZERO PUSH2 0x2E5 JUMPI PUSH1 0x40 MLOAD DUP1 PUSH1 0x60 ADD PUSH1 0x40 MSTORE DUP1 DUP5 DUP5 DUP5 DUP2 DUP2 LT PUSH2 0x148 JUMPI PUSH2 0x147 PUSH2 0x100A JUMP JUMPDEST JUMPDEST SWAP1 POP PUSH1 0x20 MUL DUP2 ADD SWAP1 PUSH2 0x15A SWAP2 SWAP1 PUSH2 0x1043 JUMP JUMPDEST DUP1 DUP1 PUSH1 0x1F ADD PUSH1 0x20 DUP1 SWAP2 DIV MUL PUSH1 0x20 ADD PUSH1 0x40 MLOAD SWAP1 DUP2 ADD PUSH1 0x40 MSTORE DUP1 SWAP4 SWAP3 SWAP2 SWAP1 DUP2 DUP2 MSTORE PUSH1 0x20 ADD DUP4 DUP4 DUP1 DUP3 DUP5 CALLDATACOPY PUSH0 DUP2 DUP5 ADD MSTORE PUSH1 0x1F NOT PUSH1 0x1F DUP3 ADD AND SWAP1 POP DUP1 DUP4 ADD SWAP3 POP POP POP POP POP POP POP DUP2 MSTORE PUSH1 0x20 ADD PUSH0 DUP2 MSTORE PUSH1 0x20 ADD PUSH1 0x1 ISZERO ISZERO DUP2 MSTORE POP PUSH0 DUP1 DUP8 DUP8 DUP6 DUP2 DUP2 LT PUSH2 0x1C3 JUMPI PUSH2 0x1C2 PUSH2 0x100A JUMP JUMPDEST JUMPDEST SWAP1 POP PUSH1 0x20 MUL ADD PUSH1 0x20 DUP2 ADD SWAP1 PUSH2 0x1D8 SWAP2 SWAP1 PUSH2 0x10CF JUMP JUMPDEST PUSH20 0xFFFFFFFFFFFFFFFFFFFFFFFFFFFFFFFFFFFFFFFF AND PUSH20 0xFFFFFFFFFFFFFFFFFFFFFFFFFFFFFFFFFFFFFFFF AND DUP2 MSTORE PUSH1 0x20 ADD SWAP1 DUP2 MSTORE PUSH1 0x20 ADD PUSH0 KECCAK256 PUSH0 DUP3 ADD MLOAD DUP2 PUSH0 ADD SWAP1 DUP2 PUSH2 0x224 SWAP2 SWAP1 PUSH2 0x1321 JUMP JUMPDEST POP PUSH1 0x20 DUP3 ADD MLOAD DUP2 PUSH1 0x1 ADD SSTORE PUSH1 0x40 DUP3 ADD MLOAD DUP2 PUSH1 0x2 ADD PUSH0 PUSH2 0x100 EXP DUP2 SLOAD DUP2 PUSH1 0xFF MUL NOT AND SWAP1 DUP4 ISZERO ISZERO MUL OR SWAP1 SSTORE POP SWAP1 POP POP PUSH1 0x1 DUP6 DUP6 DUP4 DUP2 DUP2 LT PUSH2 0x266 JUMPI PUSH2 0x265 PUSH2 0x100A JUMP JUMPDEST JUMPDEST SWAP1 POP PUSH1 0x20 MUL ADD PUSH1 0x20 DUP2 ADD SWAP1 PUSH2 0x27B SWAP2 SWAP1 PUSH2 0x10CF JUMP JUMPDEST SWAP1 DUP1 PUSH1 0x1 DUP2 SLOAD ADD DUP1 DUP3 SSTORE DUP1 SWAP2 POP POP PUSH1 0x1 SWAP1 SUB SWAP1 PUSH0 MSTORE PUSH1 0x20 PUSH0 KECCAK256 ADD PUSH0 SWAP1 SWAP2 SWAP1 SWAP2 SWAP1 SWAP2 PUSH2 0x100 EXP DUP2 SLOAD DUP2 PUSH20 0xFFFFFFFFFFFFFFFFFFFFFFFFFFFFFFFFFFFFFFFF MUL NOT AND SWAP1 DUP4 PUSH20 0xFFFFFFFFFFFFFFFFFFFFFFFFFFFFFFFFFFFFFFFF AND MUL OR SWAP1 SSTORE POP DUP1 DUP1 PUSH1 0x1 ADD SWAP2 POP POP PUSH2 0x11F JUMP JUMPDEST POP POP POP POP POP JUMP JUMPDEST PUSH0 PUSH1 0x1 DUP1 SLOAD SWAP1 POP PUSH8 0xFFFFFFFFFFFFFFFF DUP2 GT ISZERO PUSH2 0x30C JUMPI PUSH2 0x30B PUSH2 0x10FA JUMP JUMPDEST JUMPDEST PUSH1 0x40 MLOAD SWAP1 DUP1 DUP3 MSTORE DUP1 PUSH1 0x20 MUL PUSH1 0x20 ADD DUP3 ADD PUSH1 0x40 MSTORE DUP1 ISZERO PUSH2 0x345 JUMPI DUP2 PUSH1 0x20 ADD JUMPDEST PUSH2 0x332 PUSH2 0xAC8 JUMP JUMPDEST DUP2 MSTORE PUSH1 0x20 ADD SWAP1 PUSH1 0x1 SWAP1 SUB SWAP1 DUP2 PUSH2 0x32A JUMPI SWAP1 POP JUMPDEST POP SWAP1 POP PUSH0 DUP1 JUMPDEST PUSH1 0x1 DUP1 SLOAD SWAP1 POP DUP2 LT ISZERO PUSH2 0x553 JUMPI PUSH0 DUP1 PUSH1 0x1 DUP4 DUP2 SLOAD DUP2 LT PUSH2 0x36E JUMPI PUSH2 0x36D PUSH2 0x100A JUMP JUMPDEST JUMPDEST SWAP1 PUSH0 MSTORE PUSH1 0x20 PUSH0 KECCAK256 ADD PUSH0 SWAP1 SLOAD SWAP1 PUSH2 0x100 EXP SWAP1 DIV PUSH20 0xFFFFFFFFFFFFFFFFFFFFFFFFFFFFFFFFFFFFFFFF AND PUSH20 0xFFFFFFFFFFFFFFFFFFFFFFFFFFFFFFFFFFFFFFFF AND PUSH20 0xFFFFFFFFFFFFFFFFFFFFFFFFFFFFFFFFFFFFFFFF AND DUP2 MSTORE PUSH1 0x20 ADD SWAP1 DUP2 MSTORE PUSH1 0x20 ADD PUSH0 KECCAK256 PUSH1 0x2 ADD PUSH0 SWAP1 SLOAD SWAP1 PUSH2 0x100 EXP SWAP1 DIV PUSH1 0xFF AND ISZERO PUSH2 0x546 JUMPI PUSH0 DUP1 PUSH1 0x1 DUP4 DUP2 SLOAD DUP2 LT PUSH2 0x3FA JUMPI PUSH2 0x3F9 PUSH2 0x100A JUMP JUMPDEST JUMPDEST SWAP1 PUSH0 MSTORE PUSH1 0x20 PUSH0 KECCAK256 ADD PUSH0 SWAP1 SLOAD SWAP1 PUSH2 0x100 EXP SWAP1 DIV PUSH20 0xFFFFFFFFFFFFFFFFFFFFFFFFFFFFFFFFFFFFFFFF AND PUSH20 0xFFFFFFFFFFFFFFFFFFFFFFFFFFFFFFFFFFFFFFFF AND PUSH20 0xFFFFFFFFFFFFFFFFFFFFFFFFFFFFFFFFFFFFFFFF AND DUP2 MSTORE PUSH1 0x20 ADD SWAP1 DUP2 MSTORE PUSH1 0x20 ADD PUSH0 KECCAK256 PUSH1 0x40 MLOAD DUP1 PUSH1 0x60 ADD PUSH1 0x40 MSTORE SWAP1 DUP2 PUSH0 DUP3 ADD DUP1 SLOAD PUSH2 0x475 SWAP1 PUSH2 0x1154 JUMP JUMPDEST DUP1 PUSH1 0x1F ADD PUSH1 0x20 DUP1 SWAP2 DIV MUL PUSH1 0x20 ADD PUSH1 0x40 MLOAD SWAP1 DUP2 ADD PUSH1 0x40 MSTORE DUP1 SWAP3 SWAP2 SWAP1 DUP2 DUP2 MSTORE PUSH1 0x20 ADD DUP3 DUP1 SLOAD PUSH2 0x4A1 SWAP1 PUSH2 0x1154 JUMP JUMPDEST DUP1 ISZERO PUSH2 0x4EC JUMPI DUP1 PUSH1 0x1F LT PUSH2 0x4C3 JUMPI PUSH2 0x100 DUP1 DUP4 SLOAD DIV MUL DUP4 MSTORE SWAP2 PUSH1 0x20 ADD SWAP2 PUSH2 0x4EC JUMP JUMPDEST DUP3 ADD SWAP2 SWAP1 PUSH0 MSTORE PUSH1 0x20 PUSH0 KECCAK256 SWAP1 JUMPDEST DUP2 SLOAD DUP2 MSTORE SWAP1 PUSH1 0x1 ADD SWAP1 PUSH1 0x20 ADD DUP1 DUP4 GT PUSH2 0x4CF JUMPI DUP3 SWAP1 SUB PUSH1 0x1F AND DUP3 ADD SWAP2 JUMPDEST POP POP POP POP POP DUP2 MSTORE PUSH1 0x20 ADD PUSH1 0x1 DUP3 ADD SLOAD DUP2 MSTORE PUSH1 0x20 ADD PUSH1 0x2 DUP3 ADD PUSH0 SWAP1 SLOAD SWAP1 PUSH2 0x100 EXP SWAP1 DIV PUSH1 0xFF AND ISZERO ISZERO ISZERO ISZERO DUP2 MSTORE POP POP DUP4 DUP4 DUP2 MLOAD DUP2 LT PUSH2 0x52C JUMPI PUSH2 0x52B PUSH2 0x100A JUMP JUMPDEST JUMPDEST PUSH1 0x20 MUL PUSH1 0x20 ADD ADD DUP2 SWAP1 MSTORE POP DUP2 DUP1 PUSH2 0x542 SWAP1 PUSH2 0x141D JUMP JUMPDEST SWAP3 POP POP JUMPDEST DUP1 DUP1 PUSH1 0x1 ADD SWAP2 POP POP PUSH2 0x34B JUMP JUMPDEST POP PUSH0 JUMPDEST DUP2 DUP2 LT ISZERO PUSH2 0x59E JUMPI DUP4 DUP4 DUP3 DUP2 MLOAD DUP2 LT PUSH2 0x572 JUMPI PUSH2 0x571 PUSH2 0x100A JUMP JUMPDEST JUMPDEST PUSH1 0x20 MUL PUSH1 0x20 ADD ADD MLOAD PUSH1 0x20 ADD DUP2 DUP2 MLOAD PUSH2 0x58A SWAP2 SWAP1 PUSH2 0x1464 JUMP JUMPDEST SWAP2 POP DUP2 DUP2 MSTORE POP POP DUP1 DUP1 PUSH1 0x1 ADD SWAP2 POP POP PUSH2 0x556 JUMP JUMPDEST POP PUSH0 JUMPDEST DUP2 DUP2 LT ISZERO PUSH2 0x6AA JUMPI PUSH0 PUSH1 0x1 DUP3 DUP2 SLOAD DUP2 LT PUSH2 0x5BE JUMPI PUSH2 0x5BD PUSH2 0x100A JUMP JUMPDEST JUMPDEST SWAP1 PUSH0 MSTORE PUSH1 0x20 PUSH0 KECCAK256 ADD PUSH0 SWAP1 SLOAD SWAP1 PUSH2 0x100 EXP SWAP1 DIV PUSH20 0xFFFFFFFFFFFFFFFFFFFFFFFFFFFFFFFFFFFFFFFF AND SWAP1 POP PUSH0 DUP1 DUP3 PUSH20 0xFFFFFFFFFFFFFFFFFFFFFFFFFFFFFFFFFFFFFFFF AND PUSH20 0xFFFFFFFFFFFFFFFFFFFFFFFFFFFFFFFFFFFFFFFF AND DUP2 MSTORE PUSH1 0x20 ADD SWAP1 DUP2 MSTORE PUSH1 0x20 ADD PUSH0 KECCAK256 PUSH1 0x2 ADD PUSH0 SWAP1 SLOAD SWAP1 PUSH2 0x100 EXP SWAP1 DIV PUSH1 0xFF AND ISZERO PUSH2 0x69C JUMPI DUP4 DUP3 DUP2 MLOAD DUP2 LT PUSH2 0x64C JUMPI PUSH2 0x64B PUSH2 0x100A JUMP JUMPDEST JUMPDEST PUSH1 0x20 MUL PUSH1 0x20 ADD ADD MLOAD PUSH1 0x20 ADD MLOAD PUSH0 DUP1 DUP4 PUSH20 0xFFFFFFFFFFFFFFFFFFFFFFFFFFFFFFFFFFFFFFFF AND PUSH20 0xFFFFFFFFFFFFFFFFFFFFFFFFFFFFFFFFFFFFFFFF AND DUP2 MSTORE PUSH1 0x20 ADD SWAP1 DUP2 MSTORE PUSH1 0x20 ADD PUSH0 KECCAK256 PUSH1 0x1 ADD DUP2 SWAP1 SSTORE POP JUMPDEST POP DUP1 DUP1 PUSH1 0x1 ADD SWAP2 POP POP PUSH2 0x5A1 JUMP JUMPDEST POP POP POP POP JUMP JUMPDEST PUSH0 DUP1 PUSH0 SWAP1 POP PUSH0 JUMPDEST DUP5 DUP5 SWAP1 POP DUP2 LT ISZERO PUSH2 0x6F6 JUMPI DUP5 DUP5 DUP3 DUP2 DUP2 LT PUSH2 0x6D5 JUMPI PUSH2 0x6D4 PUSH2 0x100A JUMP JUMPDEST JUMPDEST SWAP1 POP PUSH1 0x20 MUL ADD CALLDATALOAD DUP3 PUSH2 0x6E7 SWAP2 SWAP1 PUSH2 0x1464 JUMP JUMPDEST SWAP2 POP DUP1 DUP1 PUSH1 0x1 ADD SWAP2 POP POP PUSH2 0x6B7 JUMP JUMPDEST POP DUP1 SWAP2 POP POP SWAP3 SWAP2 POP POP JUMP JUMPDEST PUSH1 0x60 DUP1 PUSH0 DUP1 JUMPDEST PUSH1 0x1 DUP1 SLOAD SWAP1 POP DUP2 LT ISZERO PUSH2 0x7BC JUMPI PUSH0 DUP1 PUSH1 0x1 DUP4 DUP2 SLOAD DUP2 LT PUSH2 0x72A JUMPI PUSH2 0x729 PUSH2 0x100A JUMP JUMPDEST JUMPDEST SWAP1 PUSH0 MSTORE PUSH1 0x20 PUSH0 KECCAK256 ADD PUSH0 SWAP1 SLOAD SWAP1 PUSH2 0x100 EXP SWAP1 DIV PUSH20 0xFFFFFFFFFFFFFFFFFFFFFFFFFFFFFFFFFFFFFFFF AND PUSH20 0xFFFFFFFFFFFFFFFFFFFFFFFFFFFFFFFFFFFFFFFF AND PUSH20 0xFFFFFFFFFFFFFFFFFFFFFFFFFFFFFFFFFFFFFFFF AND DUP2 MSTORE PUSH1 0x20 ADD SWAP1 DUP2 MSTORE PUSH1 0x20 ADD PUSH0 KECCAK256 PUSH1 0x2 ADD PUSH0 SWAP1 SLOAD SWAP1 PUSH2 0x100 EXP SWAP1 DIV PUSH1 0xFF AND ISZERO PUSH2 0x7AF JUMPI DUP2 DUP1 PUSH2 0x7AB SWAP1 PUSH2 0x141D JUMP JUMPDEST SWAP3 POP POP JUMPDEST DUP1 DUP1 PUSH1 0x1 ADD SWAP2 POP POP PUSH2 0x707 JUMP JUMPDEST POP PUSH0 DUP2 PUSH8 0xFFFFFFFFFFFFFFFF DUP2 GT ISZERO PUSH2 0x7D8 JUMPI PUSH2 0x7D7 PUSH2 0x10FA JUMP JUMPDEST JUMPDEST PUSH1 0x40 MLOAD SWAP1 DUP1 DUP3 MSTORE DUP1 PUSH1 0x20 MUL PUSH1 0x20 ADD DUP3 ADD PUSH1 0x40 MSTORE DUP1 ISZERO PUSH2 0x806 JUMPI DUP2 PUSH1 0x20 ADD PUSH1 0x20 DUP3 MUL DUP1 CALLDATASIZE DUP4 CALLDATACOPY DUP1 DUP3 ADD SWAP2 POP POP SWAP1 POP JUMPDEST POP SWAP1 POP PUSH0 DUP3 PUSH8 0xFFFFFFFFFFFFFFFF DUP2 GT ISZERO PUSH2 0x824 JUMPI PUSH2 0x823 PUSH2 0x10FA JUMP JUMPDEST JUMPDEST PUSH1 0x40 MLOAD SWAP1 DUP1 DUP3 MSTORE DUP1 PUSH1 0x20 MUL PUSH1 0x20 ADD DUP3 ADD PUSH1 0x40 MSTORE DUP1 ISZERO PUSH2 0x857 JUMPI DUP2 PUSH1 0x20 ADD JUMPDEST PUSH1 0x60 DUP2 MSTORE PUSH1 0x20 ADD SWAP1 PUSH1 0x1 SWAP1 SUB SWAP1 DUP2 PUSH2 0x842 JUMPI SWAP1 POP JUMPDEST POP SWAP1 POP PUSH0 DUP1 JUMPDEST PUSH1 0x1 DUP1 SLOAD SWAP1 POP DUP2 LT ISZERO PUSH2 0xAB9 JUMPI PUSH0 DUP1 PUSH1 0x1 DUP4 DUP2 SLOAD DUP2 LT PUSH2 0x880 JUMPI PUSH2 0x87F PUSH2 0x100A JUMP JUMPDEST JUMPDEST SWAP1 PUSH0 MSTORE PUSH1 0x20 PUSH0 KECCAK256 ADD PUSH0 SWAP1 SLOAD SWAP1 PUSH2 0x100 EXP SWAP1 DIV PUSH20 0xFFFFFFFFFFFFFFFFFFFFFFFFFFFFFFFFFFFFFFFF AND PUSH20 0xFFFFFFFFFFFFFFFFFFFFFFFFFFFFFFFFFFFFFFFF AND PUSH20 0xFFFFFFFFFFFFFFFFFFFFFFFFFFFFFFFFFFFFFFFF AND DUP2 MSTORE PUSH1 0x20 ADD SWAP1 DUP2 MSTORE PUSH1 0x20 ADD PUSH0 KECCAK256 PUSH1 0x2 ADD PUSH0 SWAP1 SLOAD SWAP1 PUSH2 0x100 EXP SWAP1 DIV PUSH1 0xFF AND ISZERO PUSH2 0xAAC JUMPI PUSH1 0x1 DUP2 DUP2 SLOAD DUP2 LT PUSH2 0x90A JUMPI PUSH2 0x909 PUSH2 0x100A JUMP JUMPDEST JUMPDEST SWAP1 PUSH0 MSTORE PUSH1 0x20 PUSH0 KECCAK256 ADD PUSH0 SWAP1 SLOAD SWAP1 PUSH2 0x100 EXP SWAP1 DIV PUSH20 0xFFFFFFFFFFFFFFFFFFFFFFFFFFFFFFFFFFFFFFFF AND DUP5 DUP4 DUP2 MLOAD DUP2 LT PUSH2 0x945 JUMPI PUSH2 0x944 PUSH2 0x100A JUMP JUMPDEST JUMPDEST PUSH1 0x20 MUL PUSH1 0x20 ADD ADD SWAP1 PUSH20 0xFFFFFFFFFFFFFFFFFFFFFFFFFFFFFFFFFFFFFFFF AND SWAP1 DUP2 PUSH20 0xFFFFFFFFFFFFFFFFFFFFFFFFFFFFFFFFFFFFFFFF AND DUP2 MSTORE POP POP PUSH0 DUP1 PUSH1 0x1 DUP4 DUP2 SLOAD DUP2 LT PUSH2 0x995 JUMPI PUSH2 0x994 PUSH2 0x100A JUMP JUMPDEST JUMPDEST SWAP1 PUSH0 MSTORE PUSH1 0x20 PUSH0 KECCAK256 ADD PUSH0 SWAP1 SLOAD SWAP1 PUSH2 0x100 EXP SWAP1 DIV PUSH20 0xFFFFFFFFFFFFFFFFFFFFFFFFFFFFFFFFFFFFFFFF AND PUSH20 0xFFFFFFFFFFFFFFFFFFFFFFFFFFFFFFFFFFFFFFFF AND PUSH20 0xFFFFFFFFFFFFFFFFFFFFFFFFFFFFFFFFFFFFFFFF AND DUP2 MSTORE PUSH1 0x20 ADD SWAP1 DUP2 MSTORE PUSH1 0x20 ADD PUSH0 KECCAK256 PUSH0 ADD DUP1 SLOAD PUSH2 0xA03 SWAP1 PUSH2 0x1154 JUMP JUMPDEST DUP1 PUSH1 0x1F ADD PUSH1 0x20 DUP1 SWAP2 DIV MUL PUSH1 0x20 ADD PUSH1 0x40 MLOAD SWAP1 DUP2 ADD PUSH1 0x40 MSTORE DUP1 SWAP3 SWAP2 SWAP1 DUP2 DUP2 MSTORE PUSH1 0x20 ADD DUP3 DUP1 SLOAD PUSH2 0xA2F SWAP1 PUSH2 0x1154 JUMP JUMPDEST DUP1 ISZERO PUSH2 0xA7A JUMPI DUP1 PUSH1 0x1F LT PUSH2 0xA51 JUMPI PUSH2 0x100 DUP1 DUP4 SLOAD DIV MUL DUP4 MSTORE SWAP2 PUSH1 0x20 ADD SWAP2 PUSH2 0xA7A JUMP JUMPDEST DUP3 ADD SWAP2 SWAP1 PUSH0 MSTORE PUSH1 0x20 PUSH0 KECCAK256 SWAP1 JUMPDEST DUP2 SLOAD DUP2 MSTORE SWAP1 PUSH1 0x1 ADD SWAP1 PUSH1 0x20 ADD DUP1 DUP4 GT PUSH2 0xA5D JUMPI DUP3 SWAP1 SUB PUSH1 0x1F AND DUP3 ADD SWAP2 JUMPDEST POP POP POP POP POP DUP4 DUP4 DUP2 MLOAD DUP2 LT PUSH2 0xA92 JUMPI PUSH2 0xA91 PUSH2 0x100A JUMP JUMPDEST JUMPDEST PUSH1 0x20 MUL PUSH1 0x20 ADD ADD DUP2 SWAP1 MSTORE POP DUP2 DUP1 PUSH2 0xAA8 SWAP1 PUSH2 0x141D JUMP JUMPDEST SWAP3 POP POP JUMPDEST DUP1 DUP1 PUSH1 0x1 ADD SWAP2 POP POP PUSH2 0x85D JUMP JUMPDEST POP DUP3 DUP3 SWAP6 POP SWAP6 POP POP POP POP POP SWAP1 SWAP2 JUMP JUMPDEST PUSH1 0x40 MLOAD DUP1 PUSH1 0x60 ADD PUSH1 0x40 MSTORE DUP1 PUSH1 0x60 DUP2 MSTORE PUSH1 0x20 ADD PUSH0 DUP2 MSTORE PUSH1 0x20 ADD PUSH0 ISZERO ISZERO DUP2 MSTORE POP SWAP1 JUMP JUMPDEST PUSH0 DUP1 REVERT JUMPDEST PUSH0 DUP1 REVERT JUMPDEST PUSH0 DUP1 REVERT JUMPDEST PUSH0 DUP1 REVERT JUMPDEST PUSH0 DUP1 REVERT JUMPDEST PUSH0 DUP1 DUP4 PUSH1 0x1F DUP5 ADD SLT PUSH2 0xB12 JUMPI PUSH2 0xB11 PUSH2 0xAF1 JUMP JUMPDEST JUMPDEST DUP3 CALLDATALOAD SWAP1 POP PUSH8 0xFFFFFFFFFFFFFFFF DUP2 GT ISZERO PUSH2 0xB2F JUMPI PUSH2 0xB2E PUSH2 0xAF5 JUMP JUMPDEST JUMPDEST PUSH1 0x20 DUP4 ADD SWAP2 POP DUP4 PUSH1 0x20 DUP3 MUL DUP4 ADD GT ISZERO PUSH2 0xB4B JUMPI PUSH2 0xB4A PUSH2 0xAF9 JUMP JUMPDEST JUMPDEST SWAP3 POP SWAP3 SWAP1 POP JUMP JUMPDEST PUSH0 DUP1 DUP4 PUSH1 0x1F DUP5 ADD SLT PUSH2 0xB67 JUMPI PUSH2 0xB66 PUSH2 0xAF1 JUMP JUMPDEST JUMPDEST DUP3 CALLDATALOAD SWAP1 POP PUSH8 0xFFFFFFFFFFFFFFFF DUP2 GT ISZERO PUSH2 0xB84 JUMPI PUSH2 0xB83 PUSH2 0xAF5 JUMP JUMPDEST JUMPDEST PUSH1 0x20 DUP4 ADD SWAP2 POP DUP4 PUSH1 0x20 DUP3 MUL DUP4 ADD GT ISZERO PUSH2 0xBA0 JUMPI PUSH2 0xB9F PUSH2 0xAF9 JUMP JUMPDEST JUMPDEST SWAP3 POP SWAP3 SWAP1 POP JUMP JUMPDEST PUSH0 DUP1 PUSH0 DUP1 PUSH1 0x40 DUP6 DUP8 SUB SLT ISZERO PUSH2 0xBBF JUMPI PUSH2 0xBBE PUSH2 0xAE9 JUMP JUMPDEST JUMPDEST PUSH0 DUP6 ADD CALLDATALOAD PUSH8 0xFFFFFFFFFFFFFFFF DUP2 GT ISZERO PUSH2 0xBDC JUMPI PUSH2 0xBDB PUSH2 0xAED JUMP JUMPDEST JUMPDEST PUSH2 0xBE8 DUP8 DUP3 DUP9 ADD PUSH2 0xAFD JUMP JUMPDEST SWAP5 POP SWAP5 POP POP PUSH1 0x20 DUP6 ADD CALLDATALOAD PUSH8 0xFFFFFFFFFFFFFFFF DUP2 GT ISZERO PUSH2 0xC0B JUMPI PUSH2 0xC0A PUSH2 0xAED JUMP JUMPDEST JUMPDEST PUSH2 0xC17 DUP8 DUP3 DUP9 ADD PUSH2 0xB52 JUMP JUMPDEST SWAP3 POP SWAP3 POP POP SWAP3 SWAP6 SWAP2 SWAP5 POP SWAP3 POP JUMP JUMPDEST PUSH0 DUP2 SWAP1 POP SWAP2 SWAP1 POP JUMP JUMPDEST PUSH2 0xC37 DUP2 PUSH2 0xC25 JUMP JUMPDEST DUP2 EQ PUSH2 0xC41 JUMPI PUSH0 DUP1 REVERT JUMPDEST POP JUMP JUMPDEST PUSH0 DUP2 CALLDATALOAD SWAP1 POP PUSH2 0xC52 DUP2 PUSH2 0xC2E JUMP JUMPDEST SWAP3 SWAP2 POP POP JUMP JUMPDEST PUSH0 PUSH1 0x20 DUP3 DUP5 SUB SLT ISZERO PUSH2 0xC6D JUMPI PUSH2 0xC6C PUSH2 0xAE9 JUMP JUMPDEST JUMPDEST PUSH0 PUSH2 0xC7A DUP5 DUP3 DUP6 ADD PUSH2 0xC44 JUMP JUMPDEST SWAP2 POP POP SWAP3 SWAP2 POP POP JUMP JUMPDEST PUSH0 DUP1 DUP4 PUSH1 0x1F DUP5 ADD SLT PUSH2 0xC98 JUMPI PUSH2 0xC97 PUSH2 0xAF1 JUMP JUMPDEST JUMPDEST DUP3 CALLDATALOAD SWAP1 POP PUSH8 0xFFFFFFFFFFFFFFFF DUP2 GT ISZERO PUSH2 0xCB5 JUMPI PUSH2 0xCB4 PUSH2 0xAF5 JUMP JUMPDEST JUMPDEST PUSH1 0x20 DUP4 ADD SWAP2 POP DUP4 PUSH1 0x20 DUP3 MUL DUP4 ADD GT ISZERO PUSH2 0xCD1 JUMPI PUSH2 0xCD0 PUSH2 0xAF9 JUMP JUMPDEST JUMPDEST SWAP3 POP SWAP3 SWAP1 POP JUMP JUMPDEST PUSH0 DUP1 PUSH1 0x20 DUP4 DUP6 SUB SLT ISZERO PUSH2 0xCEE JUMPI PUSH2 0xCED PUSH2 0xAE9 JUMP JUMPDEST JUMPDEST PUSH0 DUP4 ADD CALLDATALOAD PUSH8 0xFFFFFFFFFFFFFFFF DUP2 GT ISZERO PUSH2 0xD0B JUMPI PUSH2 0xD0A PUSH2 0xAED JUMP JUMPDEST JUMPDEST PUSH2 0xD17 DUP6 DUP3 DUP7 ADD PUSH2 0xC83 JUMP JUMPDEST SWAP3 POP SWAP3 POP POP SWAP3 POP SWAP3 SWAP1 POP JUMP JUMPDEST PUSH2 0xD2C DUP2 PUSH2 0xC25 JUMP JUMPDEST DUP3 MSTORE POP POP JUMP JUMPDEST PUSH0 PUSH1 0x20 DUP3 ADD SWAP1 POP PUSH2 0xD45 PUSH0 DUP4 ADD DUP5 PUSH2 0xD23 JUMP JUMPDEST SWAP3 SWAP2 POP POP JUMP JUMPDEST PUSH0 DUP2 MLOAD SWAP1 POP SWAP2 SWAP1 POP JUMP JUMPDEST PUSH0 DUP3 DUP3 MSTORE PUSH1 0x20 DUP3 ADD SWAP1 POP SWAP3 SWAP2 POP POP JUMP JUMPDEST PUSH0 DUP2 SWAP1 POP PUSH1 0x20 DUP3 ADD SWAP1 POP SWAP2 SWAP1 POP JUMP JUMPDEST PUSH0 PUSH20 0xFFFFFFFFFFFFFFFFFFFFFFFFFFFFFFFFFFFFFFFF DUP3 AND SWAP1 POP SWAP2 SWAP1 POP JUMP JUMPDEST PUSH0 PUSH2 0xD9D DUP3 PUSH2 0xD74 JUMP JUMPDEST SWAP1 POP SWAP2 SWAP1 POP JUMP JUMPDEST PUSH2 0xDAD DUP2 PUSH2 0xD93 JUMP JUMPDEST DUP3 MSTORE POP POP JUMP JUMPDEST PUSH0 PUSH2 0xDBE DUP4 DUP4 PUSH2 0xDA4 JUMP JUMPDEST PUSH1 0x20 DUP4 ADD SWAP1 POP SWAP3 SWAP2 POP POP JUMP JUMPDEST PUSH0 PUSH1 0x20 DUP3 ADD SWAP1 POP SWAP2 SWAP1 POP JUMP JUMPDEST PUSH0 PUSH2 0xDE0 DUP3 PUSH2 0xD4B JUMP JUMPDEST PUSH2 0xDEA DUP2 DUP6 PUSH2 0xD55 JUMP JUMPDEST SWAP4 POP PUSH2 0xDF5 DUP4 PUSH2 0xD65 JUMP JUMPDEST DUP1 PUSH0 JUMPDEST DUP4 DUP2 LT ISZERO PUSH2 0xE25 JUMPI DUP2 MLOAD PUSH2 0xE0C DUP9 DUP3 PUSH2 0xDB3 JUMP JUMPDEST SWAP8 POP PUSH2 0xE17 DUP4 PUSH2 0xDCA JUMP JUMPDEST SWAP3 POP POP PUSH1 0x1 DUP2 ADD SWAP1 POP PUSH2 0xDF8 JUMP JUMPDEST POP DUP6 SWAP4 POP POP POP POP SWAP3 SWAP2 POP POP JUMP JUMPDEST PUSH0 DUP2 MLOAD SWAP1 POP SWAP2 SWAP1 POP JUMP JUMPDEST PUSH0 DUP3 DUP3 MSTORE PUSH1 0x20 DUP3 ADD SWAP1 POP SWAP3 SWAP2 POP POP JUMP JUMPDEST PUSH0 DUP2 SWAP1 POP PUSH1 0x20 DUP3 ADD SWAP1 POP SWAP2 SWAP1 POP JUMP JUMPDEST PUSH0 DUP2 MLOAD SWAP1 POP SWAP2 SWAP1 POP JUMP JUMPDEST PUSH0 DUP3 DUP3 MSTORE PUSH1 0x20 DUP3 ADD SWAP1 POP SWAP3 SWAP2 POP POP JUMP JUMPDEST DUP3 DUP2 DUP4 MCOPY PUSH0 DUP4 DUP4 ADD MSTORE POP POP POP JUMP JUMPDEST PUSH0 PUSH1 0x1F NOT PUSH1 0x1F DUP4 ADD AND SWAP1 POP SWAP2 SWAP1 POP JUMP JUMPDEST PUSH0 PUSH2 0xE9D DUP3 PUSH2 0xE5B JUMP JUMPDEST PUSH2 0xEA7 DUP2 DUP6 PUSH2 0xE65 JUMP JUMPDEST SWAP4 POP PUSH2 0xEB7 DUP2 DUP6 PUSH1 0x20 DUP7 ADD PUSH2 0xE75 JUMP JUMPDEST PUSH2 0xEC0 DUP2 PUSH2 0xE83 JUMP JUMPDEST DUP5 ADD SWAP2 POP POP SWAP3 SWAP2 POP POP JUMP JUMPDEST PUSH0 PUSH2 0xED6 DUP4 DUP4 PUSH2 0xE93 JUMP JUMPDEST SWAP1 POP SWAP3 SWAP2 POP POP JUMP JUMPDEST PUSH0 PUSH1 0x20 DUP3 ADD SWAP1 POP SWAP2 SWAP1 POP JUMP JUMPDEST PUSH0 PUSH2 0xEF4 DUP3 PUSH2 0xE32 JUMP JUMPDEST PUSH2 0xEFE DUP2 DUP6 PUSH2 0xE3C JUMP JUMPDEST SWAP4 POP DUP4 PUSH1 0x20 DUP3 MUL DUP6 ADD PUSH2 0xF10 DUP6 PUSH2 0xE4C JUMP JUMPDEST DUP1 PUSH0 JUMPDEST DUP6 DUP2 LT ISZERO PUSH2 0xF4B JUMPI DUP5 DUP5 SUB DUP10 MSTORE DUP2 MLOAD PUSH2 0xF2C DUP6 DUP3 PUSH2 0xECB JUMP JUMPDEST SWAP5 POP PUSH2 0xF37 DUP4 PUSH2 0xEDE JUMP JUMPDEST SWAP3 POP PUSH1 0x20 DUP11 ADD SWAP10 POP POP PUSH1 0x1 DUP2 ADD SWAP1 POP PUSH2 0xF13 JUMP JUMPDEST POP DUP3 SWAP8 POP DUP8 SWAP6 POP POP POP POP POP POP SWAP3 SWAP2 POP POP JUMP JUMPDEST PUSH0 PUSH1 0x40 DUP3 ADD SWAP1 POP DUP2 DUP2 SUB PUSH0 DUP4 ADD MSTORE PUSH2 0xF75 DUP2 DUP6 PUSH2 0xDD6 JUMP JUMPDEST SWAP1 POP DUP2 DUP2 SUB PUSH1 0x20 DUP4 ADD MSTORE PUSH2 0xF89 DUP2 DUP5 PUSH2 0xEEA JUMP JUMPDEST SWAP1 POP SWAP4 SWAP3 POP POP POP JUMP JUMPDEST PUSH0 DUP3 DUP3 MSTORE PUSH1 0x20 DUP3 ADD SWAP1 POP SWAP3 SWAP2 POP POP JUMP JUMPDEST PUSH32 0x4172726179206D7573742062652073616D65204C656E67746800000000000000 PUSH0 DUP3 ADD MSTORE POP JUMP JUMPDEST PUSH0 PUSH2 0xFD6 PUSH1 0x19 DUP4 PUSH2 0xF92 JUMP JUMPDEST SWAP2 POP PUSH2 0xFE1 DUP3 PUSH2 0xFA2 JUMP JUMPDEST PUSH1 0x20 DUP3 ADD SWAP1 POP SWAP2 SWAP1 POP JUMP JUMPDEST PUSH0 PUSH1 0x20 DUP3 ADD SWAP1 POP DUP2 DUP2 SUB PUSH0 DUP4 ADD MSTORE PUSH2 0x1003 DUP2 PUSH2 0xFCA JUMP JUMPDEST SWAP1 POP SWAP2 SWAP1 POP JUMP JUMPDEST PUSH32 0x4E487B7100000000000000000000000000000000000000000000000000000000 PUSH0 MSTORE PUSH1 0x32 PUSH1 0x4 MSTORE PUSH1 0x24 PUSH0 REVERT JUMPDEST PUSH0 DUP1 REVERT JUMPDEST PUSH0 DUP1 REVERT JUMPDEST PUSH0 DUP1 REVERT JUMPDEST PUSH0 DUP1 DUP4 CALLDATALOAD PUSH1 0x1 PUSH1 0x20 SUB DUP5 CALLDATASIZE SUB SUB DUP2 SLT PUSH2 0x105F JUMPI PUSH2 0x105E PUSH2 0x1037 JUMP JUMPDEST JUMPDEST DUP1 DUP5 ADD SWAP3 POP DUP3 CALLDATALOAD SWAP2 POP PUSH8 0xFFFFFFFFFFFFFFFF DUP3 GT ISZERO PUSH2 0x1081 JUMPI PUSH2 0x1080 PUSH2 0x103B JUMP JUMPDEST JUMPDEST PUSH1 0x20 DUP4 ADD SWAP3 POP PUSH1 0x1 DUP3 MUL CALLDATASIZE SUB DUP4 SGT ISZERO PUSH2 0x109D JUMPI PUSH2 0x109C PUSH2 0x103F JUMP JUMPDEST JUMPDEST POP SWAP3 POP SWAP3 SWAP1 POP JUMP JUMPDEST PUSH2 0x10AE DUP2 PUSH2 0xD93 JUMP JUMPDEST DUP2 EQ PUSH2 0x10B8 JUMPI PUSH0 DUP1 REVERT JUMPDEST POP JUMP JUMPDEST PUSH0 DUP2 CALLDATALOAD SWAP1 POP PUSH2 0x10C9 DUP2 PUSH2 0x10A5 JUMP JUMPDEST SWAP3 SWAP2 POP POP JUMP JUMPDEST PUSH0 PUSH1 0x20 DUP3 DUP5 SUB SLT ISZERO PUSH2 0x10E4 JUMPI PUSH2 0x10E3 PUSH2 0xAE9 JUMP JUMPDEST JUMPDEST PUSH0 PUSH2 0x10F1 DUP5 DUP3 DUP6 ADD PUSH2 0x10BB JUMP JUMPDEST SWAP2 POP POP SWAP3 SWAP2 POP POP JUMP JUMPDEST PUSH32 0x4E487B7100000000000000000000000000000000000000000000000000000000 PUSH0 MSTORE PUSH1 0x41 PUSH1 0x4 MSTORE PUSH1 0x24 PUSH0 REVERT JUMPDEST PUSH32 0x4E487B7100000000000000000000000000000000000000000000000000000000 PUSH0 MSTORE PUSH1 0x22 PUSH1 0x4 MSTORE PUSH1 0x24 PUSH0 REVERT JUMPDEST PUSH0 PUSH1 0x2 DUP3 DIV SWAP1 POP PUSH1 0x1 DUP3 AND DUP1 PUSH2 0x116B JUMPI PUSH1 0x7F DUP3 AND SWAP2 POP JUMPDEST PUSH1 0x20 DUP3 LT DUP2 SUB PUSH2 0x117E JUMPI PUSH2 0x117D PUSH2 0x1127 JUMP JUMPDEST JUMPDEST POP SWAP2 SWAP1 POP JUMP JUMPDEST PUSH0 DUP2 SWAP1 POP DUP2 PUSH0 MSTORE PUSH1 0x20 PUSH0 KECCAK256 SWAP1 POP SWAP2 SWAP1 POP JUMP JUMPDEST PUSH0 PUSH1 0x20 PUSH1 0x1F DUP4 ADD DIV SWAP1 POP SWAP2 SWAP1 POP JUMP JUMPDEST PUSH0 DUP3 DUP3 SHL SWAP1 POP SWAP3 SWAP2 POP POP JUMP JUMPDEST PUSH0 PUSH1 0x8 DUP4 MUL PUSH2 0x11E0 PUSH32 0xFFFFFFFFFFFFFFFFFFFFFFFFFFFFFFFFFFFFFFFFFFFFFFFFFFFFFFFFFFFFFFFF DUP3 PUSH2 0x11A5 JUMP JUMPDEST PUSH2 0x11EA DUP7 DUP4 PUSH2 0x11A5 JUMP JUMPDEST SWAP6 POP DUP1 NOT DUP5 AND SWAP4 POP DUP1 DUP7 AND DUP5 OR SWAP3 POP POP POP SWAP4 SWAP3 POP POP POP JUMP JUMPDEST PUSH0 DUP2 SWAP1 POP SWAP2 SWAP1 POP JUMP JUMPDEST PUSH0 PUSH2 0x1225 PUSH2 0x1220 PUSH2 0x121B DUP5 PUSH2 0xC25 JUMP JUMPDEST PUSH2 0x1202 JUMP JUMPDEST PUSH2 0xC25 JUMP JUMPDEST SWAP1 POP SWAP2 SWAP1 POP JUMP JUMPDEST PUSH0 DUP2 SWAP1 POP SWAP2 SWAP1 POP JUMP JUMPDEST PUSH2 0x123E DUP4 PUSH2 0x120B JUMP JUMPDEST PUSH2 0x1252 PUSH2 0x124A DUP3 PUSH2 0x122C JUMP JUMPDEST DUP5 DUP5 SLOAD PUSH2 0x11B1 JUMP JUMPDEST DUP3 SSTORE POP POP POP POP JUMP JUMPDEST PUSH0 SWAP1 JUMP JUMPDEST PUSH2 0x1266 PUSH2 0x125A JUMP JUMPDEST PUSH2 0x1271 DUP2 DUP5 DUP5 PUSH2 0x1235 JUMP JUMPDEST POP POP POP JUMP JUMPDEST JUMPDEST DUP2 DUP2 LT ISZERO PUSH2 0x1294 JUMPI PUSH2 0x1289 PUSH0 DUP3 PUSH2 0x125E JUMP JUMPDEST PUSH1 0x1 DUP2 ADD SWAP1 POP PUSH2 0x1277 JUMP JUMPDEST POP POP JUMP JUMPDEST PUSH1 0x1F DUP3 GT ISZERO PUSH2 0x12D9 JUMPI PUSH2 0x12AA DUP2 PUSH2 0x1184 JUMP JUMPDEST PUSH2 0x12B3 DUP5 PUSH2 0x1196 JUMP JUMPDEST DUP2 ADD PUSH1 0x20 DUP6 LT ISZERO PUSH2 0x12C2 JUMPI DUP2 SWAP1 POP JUMPDEST PUSH2 0x12D6 PUSH2 0x12CE DUP6 PUSH2 0x1196 JUMP JUMPDEST DUP4 ADD DUP3 PUSH2 0x1276 JUMP JUMPDEST POP POP JUMPDEST POP POP POP JUMP JUMPDEST PUSH0 DUP3 DUP3 SHR SWAP1 POP SWAP3 SWAP2 POP POP JUMP JUMPDEST PUSH0 PUSH2 0x12F9 PUSH0 NOT DUP5 PUSH1 0x8 MUL PUSH2 0x12DE JUMP JUMPDEST NOT DUP1 DUP4 AND SWAP2 POP POP SWAP3 SWAP2 POP POP JUMP JUMPDEST PUSH0 PUSH2 0x1311 DUP4 DUP4 PUSH2 0x12EA JUMP JUMPDEST SWAP2 POP DUP3 PUSH1 0x2 MUL DUP3 OR SWAP1 POP SWAP3 SWAP2 POP POP JUMP JUMPDEST PUSH2 0x132A DUP3 PUSH2 0xE5B JUMP JUMPDEST PUSH8 0xFFFFFFFFFFFFFFFF DUP2 GT ISZERO PUSH2 0x1343 JUMPI PUSH2 0x1342 PUSH2 0x10FA JUMP JUMPDEST JUMPDEST PUSH2 0x134D DUP3 SLOAD PUSH2 0x1154 JUMP JUMPDEST PUSH2 0x1358 DUP3 DUP3 DUP6 PUSH2 0x1298 JUMP JUMPDEST PUSH0 PUSH1 0x20 SWAP1 POP PUSH1 0x1F DUP4 GT PUSH1 0x1 DUP2 EQ PUSH2 0x1389 JUMPI PUSH0 DUP5 ISZERO PUSH2 0x1377 JUMPI DUP3 DUP8 ADD MLOAD SWAP1 POP JUMPDEST PUSH2 0x1381 DUP6 DUP3 PUSH2 0x1306 JUMP JUMPDEST DUP7 SSTORE POP PUSH2 0x13E8 JUMP JUMPDEST PUSH1 0x1F NOT DUP5 AND PUSH2 0x1397 DUP7 PUSH2 0x1184 JUMP JUMPDEST PUSH0 JUMPDEST DUP3 DUP2 LT ISZERO PUSH2 0x13BE JUMPI DUP5 DUP10 ADD MLOAD DUP3 SSTORE PUSH1 0x1 DUP3 ADD SWAP2 POP PUSH1 0x20 DUP6 ADD SWAP5 POP PUSH1 0x20 DUP2 ADD SWAP1 POP PUSH2 0x1399 JUMP JUMPDEST DUP7 DUP4 LT ISZERO PUSH2 0x13DB JUMPI DUP5 DUP10 ADD MLOAD PUSH2 0x13D7 PUSH1 0x1F DUP10 AND DUP3 PUSH2 0x12EA JUMP JUMPDEST DUP4 SSTORE POP JUMPDEST PUSH1 0x1 PUSH1 0x2 DUP9 MUL ADD DUP9 SSTORE POP POP POP JUMPDEST POP POP POP POP POP POP JUMP JUMPDEST PUSH32 0x4E487B7100000000000000000000000000000000000000000000000000000000 PUSH0 MSTORE PUSH1 0x11 PUSH1 0x4 MSTORE PUSH1 0x24 PUSH0 REVERT JUMPDEST PUSH0 PUSH2 0x1427 DUP3 PUSH2 0xC25 JUMP JUMPDEST SWAP2 POP PUSH32 0xFFFFFFFFFFFFFFFFFFFFFFFFFFFFFFFFFFFFFFFFFFFFFFFFFFFFFFFFFFFFFFFF DUP3 SUB PUSH2 0x1459 JUMPI PUSH2 0x1458 PUSH2 0x13F0 JUMP JUMPDEST JUMPDEST PUSH1 0x1 DUP3 ADD SWAP1 POP SWAP2 SWAP1 POP JUMP JUMPDEST PUSH0 PUSH2 0x146E DUP3 PUSH2 0xC25 JUMP JUMPDEST SWAP2 POP PUSH2 0x1479 DUP4 PUSH2 0xC25 JUMP JUMPDEST SWAP3 POP DUP3 DUP3 ADD SWAP1 POP DUP1 DUP3 GT ISZERO PUSH2 0x1491 JUMPI PUSH2 0x1490 PUSH2 0x13F0 JUMP JUMPDEST JUMPDEST SWAP3 SWAP2 POP POP JUMP INVALID LOG2 PUSH5 0x6970667358 0x22 SLT KECCAK256 EQ DUP12 BLOCKHASH 0xFC SUB SWAP16 SWAP14 CODECOPY 0x4B 0xAE PUSH25 0xF679B7178BF460E17B1B043E8871A9F961E9B54E0B64736F6C PUSH4 0x4300081A STOP CALLER "
				},
				"gasEstimates": {
					"creation": {
						"codeDepositCost": "1065000",
						"executionCost": "1105",
						"totalCost": "1066105"
					},
					"external": {
						"addUser(address[],string[])": "infinite",
						"getActiveUsers()": "infinite",
						"processLargeArray(uint256[])": "infinite",
						"updateBalance(uint256)": "infinite"
					}
				},
				"methodIdentifiers": {
					"addUser(address[],string[])": "ab7bcf18",
					"getActiveUsers()": "f5593607",
					"processLargeArray(uint256[])": "bb394844",
					"updateBalance(uint256)": "ba7b37d4"
				}
			},
			"storageLayout": {
				"storage": [
					{
						"astId": 13,
						"contract": "Advance Pattern/advance.sol:advance",
						"label": "profiles",
						"offset": 0,
						"slot": "0",
						"type": "t_mapping(t_address,t_struct(userProfile)8_storage)"
					},
					{
						"astId": 16,
						"contract": "Advance Pattern/advance.sol:advance",
						"label": "userList",
						"offset": 0,
						"slot": "1",
						"type": "t_array(t_address)dyn_storage"
					}
				],
				"types": {
					"t_address": {
						"encoding": "inplace",
						"label": "address",
						"numberOfBytes": "20"
					},
					"t_array(t_address)dyn_storage": {
						"base": "t_address",
						"encoding": "dynamic_array",
						"label": "address[]",
						"numberOfBytes": "32"
					},
					"t_bool": {
						"encoding": "inplace",
						"label": "bool",
						"numberOfBytes": "1"
					},
					"t_mapping(t_address,t_struct(userProfile)8_storage)": {
						"encoding": "mapping",
						"key": "t_address",
						"label": "mapping(address => struct advance.userProfile)",
						"numberOfBytes": "32",
						"value": "t_struct(userProfile)8_storage"
					},
					"t_string_storage": {
						"encoding": "bytes",
						"label": "string",
						"numberOfBytes": "32"
					},
					"t_struct(userProfile)8_storage": {
						"encoding": "inplace",
						"label": "struct advance.userProfile",
						"members": [
							{
								"astId": 3,
								"contract": "Advance Pattern/advance.sol:advance",
								"label": "name",
								"offset": 0,
								"slot": "0",
								"type": "t_string_storage"
							},
							{
								"astId": 5,
								"contract": "Advance Pattern/advance.sol:advance",
								"label": "balance",
								"offset": 0,
								"slot": "1",
								"type": "t_uint256"
							},
							{
								"astId": 7,
								"contract": "Advance Pattern/advance.sol:advance",
								"label": "active",
								"offset": 0,
								"slot": "2",
								"type": "t_bool"
							}
						],
						"numberOfBytes": "96"
					},
					"t_uint256": {
						"encoding": "inplace",
						"label": "uint256",
						"numberOfBytes": "32"
					}
				}
			},
			"userdoc": {
				"kind": "user",
				"methods": {},
				"version": 1
			}
		}
	}
}